:020000040000FA
:1000000038270020F902000001030000030300006C
:1000100005030000070300000903000000000000C2
:100020000000000000000000000000000B030000C2
:100030000D030000000000000F030000110300008A
:1000400013030000130300008D07000013030000DA
:100050005504000013030000A10300001303000077
:100060001303000013030000130300001303000038
:100070001303000013030000130300001303000028
:1000800013030000450400001303000013030000E5
:100090001303000013030000130300001303000008
:1000A00013030000130300001303000013030000F8
:1000B0001303000013030000000000000000000014
:1000C00013030000130300001303000013030000D8
:1000D00013030000130300001303000000000000DE
:1000E0000000000000000000000000000000000010
:1000F0000000000000000000000000000000000000
:1001000000000000000000000000000000000000EF
:1001100000000000000000000000000000000000DF
:1001200000000000000000000000000000000000CF
:1001300000000000000000000000000000000000BF
:1001400000000000000000000000000000000000AF
:10015000000000000000000000000000000000009F
:10016000000000000000000000000000000000008F
:10017000000000000000000000000000000000007F
:10018000000000000000000000000000000000006F
:10019000000000000000000000000000000000005F
:1001A000000000000000000000000000000000004F
:1001B000000000000000000000000000000000003F
:1001C000000000000000000000000000000000002F
:1001D000000000000000000000000000000000001F
:1001E000000000000000000000000000000000000F
:1001F00000000000000000000000000000000000FF
:10020000DFF80CD000F0BAF8004800472D0D0000D0
:100210003827002030B4044654E8000F0D4644E867
:100220000053002BF8D1156030BC704730B4044641
:1002300054E8000F40EA010544E80053002BF7D1D1
:10024000156030BC704730B4044654E8000F00EA33
:10025000010544E80053002BF7D1156030BC70470E
:1002600030B4044654E8000F80EA010544E8005326
:10027000002BF7D1156030BC704730B4044654E809
:10028000000F00EB010544E80053002BF7D1156087
:1002900030BC704730B4044654E8000FA0EB0105B1
:1002A00044E80053002BF7D1156030BC704770B4A0
:1002B00004464FF0000054E8006F0D68AE4207BFDF
:1002C00044E80023012044E800630E60002B1CBFBB
:1002D0000020F0E770BC704730B4044654E8000FCB
:1002E00088422CBF451A054644E80053002BF5D13F
:1002F000156030BC7047000006488047064800473C
:10030000FEE7FEE7FEE7FEE7FEE7FEE7FEE7FEE7C5
:10031000FEE7FEE7650400000102000000487047A8
:10032000082B000040EA01039B0703D009E008C93D
:10033000121F08C0042AFAD203E011F8013B00F8AA
:10034000013B521EF9D27047D2B201E000F8012BF6
:10035000491EFBD270470022F6E710B513460A4645
:1003600004461946FFF7F0FF204610BD421C10F866
:10037000011B0029FBD1801A70470000064C074D75
:1003800006E0E06840F0010394E807009847103465
:10039000AC42F6D3FFF738FFD42B0000F42B00005B
:1003A0002DE9F8430025DFF894804FF4807601248E
:1003B0002F460095304600F0EFFF38B1D8F804031F
:1003C000204203D0304600F0DDFF2543361D640097
:1003D0007F1CB6B2082FEDD34FF4BE74204600F058
:1003E000DBFF48B1204600F0CDFF45F000456A46EE
:1003F0000121002000F0A4FF15F0FF0F16D0012608
:1004000000242E420ED008EB8401D1F81005D1F85B
:100410001015C0F304200A4AC1F3014152F8242008
:1004200002B190477600641C082CEAD3002D02DA52
:10043000684601F0E7FEBDE8F88300000060004078
:10044000B800002002490248091F096800680847EF
:100450002C00002002494FF0402002F02DB800008F
:1004600014010020F0B5B74AB7494FF08054136823
:10047000D4F830010978D4F83421451CC1F30311B4
:1004800006D0844601270025BCF1060F03D00AE000
:1004900003F0FF0CF6E7B4F82463DFF8B0C2C6F34C
:1004A0000426CCF80060DEB2062E06D1032904D162
:1004B000DFF8A0C2A64ECCF87460461C04D0844677
:1004C000BCF1060F03D00AE003F0FF0CF8E7D4F804
:1004D0004462DFF884C2C6F34236CCF80060DEB274
:1004E000062E08D1032906D19C4ED6F800C02CF068
:1004F000807CC6F800C0461C04D08446BCF1060FC0
:1005000003D00BE003F0FF0CF8E74FF08046C6F88D
:100510000C51C6F81051904E361F3560DEB2062ED3
:1005200008D1032906D1DFF830C203260CF1640C90
:10053000CCF80060DEB2062E11D103290FD1DFF80E
:1005400020C20526CCF80060854E78363760844E90
:10055000083635600CF1040C3F26CCF80060461CD0
:1005600006D084464FEA0206BCF1060F04D081E0B3
:1005700003F0FF0C0E46F7E7032E7BD0042E79D054
:10058000784E3668DFF8E0C1CCF80060754E361D55
:1005900036680CF1040CCCF80060724E08363668F0
:1005A0000CF1040CCCF800606E4E0C3636680CF181
:1005B000040CCCF800606B4E103636680CF1040C5D
:1005C000CCF80060674E143636680CF1040CCCF899
:1005D0000060644E18363668DFF88CC10CF1200CD0
:1005E000CCF800605F4E1C3636680CF1040CCCF879
:1005F00000605C4E203636680CF1040CCCF80060CC
:10060000584E243636680CF1040CCCF80060554E78
:10061000283636680CF1040CCCF80060514E2C36AC
:1006200036680CF1040CCCF800604E4E303636685B
:10063000DFF834C10CF1400CCCF80060494E343680
:1006400036680CF1040CCCF80060464E383636683B
:100650000CF1040CCCF80060424E3C3636680CF1CC
:10066000040CCCF800603F4E403636680CF1040CA8
:10067000CCF80060461C05D04FEA000CBCF1060F18
:1006800003D008E003F0FF0CF8E7D4F85842374EE7
:1006900004F04F043460441C03D00346062B02D000
:1006A00008E0DBB2FAE732490B68DB0702D06FF0F3
:1006B00001030B6006280AD1032A08D0042A06D0B9
:1006C000052A04D02B48016841F480610160234869
:1006D0007438016841F470010160BFF34F8FBFF3BC
:1006E0006F8F4FF01021D1F80002002803DBD1F802
:1006F0000402002822DA204A176020480368002BF1
:10070000FCD01523C1F800320468002CFCD0C1F8DD
:10071000043201680029FCD0156001680029FCD072
:10072000BFF34F8F0D48F0380168154A01F4E061BE
:1007300011430160BFF34F8F00BFFDE7124911481D
:100740000860F0BDE00F00F0E80F00F04035014018
:100750000DF0ADBA00C007403C050040FCED00E0E4
:10076000105600400404001020C50040E40E004074
:10077000000400403C17004004E5014000E4014053
:100780000400FA050090D003A8000020014800688A
:10079000004700001C00002002E008C8121F08C12A
:1007A000002AFAD170477047002001E001C1121FF2
:1007B000002AFBD17047000072B601F07DF800BF3F
:1007C00000F0D0FE0028FBD111481249401AC4089D
:1007D000012000EB044010A100F0DEFF114800688A
:1007E000C00700D000BE022000EB04400EA100F0C4
:1007F000D3FFBFF34F8F0B48E43801680E4A01F472
:10080000E06111430160BFF34F8F00BFFDE70000BF
:10081000442C0000042C0000466174616C20657259
:10082000726F7200F0ED00E053797374656D2072A1
:1008300065736574000000000400FA050EB5002120
:100840000091CDE901106A4644F20100FFF7B4FFC0
:100850000EBD00F003B800F009B8000072B60248FF
:100860000168491C016070472400002003490868A2
:10087000401E086000D162B67047000024000020CE
:100880002DE9F041064608680C46411C4FF0A04790
:100890004FF0010506D005FA00F1C7F808152068E9
:1008A00000F028FD6068411C02D0002100F010FD1E
:1008B0003168A069C1F82405607D227D316810434C
:1008C000C1F86C05D4E900123068C0F81425C0F8EE
:1008D0000C15207D012815D1A068411C02D00021F3
:1008E00000F0F6FCE068411C05D08540C7F80855CB
:1008F000E06800F0FFFCD4E902123068C0F8082577
:10090000C0F81015BDE8F0812DE9F04106460868F1
:100910000C46411C4FF0A0474FF0010506D005FAE8
:1009200000F1C7F80815206800F0EEFC6068411C73
:1009300002D0002100F0D5FC3168A069C1F824057F
:10094000607D217D32680843C2F86C05D4E900124D
:100950003068C0F80C15C0F81425207D012815D189
:10096000A068411C02D0002100F0BBFCE068411CE3
:1009700005D08540C7F80855E06800F0C5FCD4E90B
:1009800002123068C0F80825C0F81015BDE8F081E3
:100990002DE9FC410646C0074FF000050ED0104F70
:1009A00000240122385D009500231146019500F0D6
:1009B00035FC641C042CF4D300F02EF8B0070DD5E0
:1009C000074E0024361D0022305D0323009511469A
:1009D000019500F023FC641C042CF4D3BDE8FC81D9
:1009E000242A000007490B5C4FF0A041D1F80425F0
:1009F0000120984020EA0203C1F808351040C1F8F0
:100A00000C057047242A00000249085C012100F00F
:100A1000ADBC0000242A000010B500242046FFF7DA
:100A2000F3FF641C042CF9D310BD00002DE9F0473E
:100A30000546861C91460F464FF0010A0020FFF73D
:100A400008FF1B4C04F21C4860683860D4E90101BF
:100A5000184F401A3968081A0EE00121404600F08C
:100A600025FA00F011F90146404600F01FFAD4E9DA
:100A70000101401A3968081A401C8642EDD8B9F1C4
:100A8000000F03D0052065F3891002E0062065F30E
:100A90009F5061683A68114004EB8101C86060684A
:100AA000304460600020FFF7D6FE5046BDE8F08776
:100AB000180300205400002070B50D4604460A2992
:100AC00002D10D21FFF7F8FFA0682268411CA16048
:100AD0001554D4E90101814204D32046BDE8704099
:100AE00000F0A3BA70BD00000448816840688142EC
:100AF00001D101207047002070470000180300203A
:100B00000249084490F9300070470000B800002006
:100B100010B50021024800F0D4F980F3100010BD98
:100B2000340700202DE9FC5F0E008346DDE90C4709
:100B3000C6F1000098469246814600D40846012539
:100B400003E000BF90FBFAF06D1C5045FADAA845AF
:100B500000D9454624B1002E01DB780700D5641E7C
:100B6000B80702D5B8F1000F0AD0F80708D13CB198
:100B7000A54205D220215846641EFFF79DFFF6E7E7
:100B8000002E02DA4E462D2102E0780703D52B21F4
:100B90005846FFF791FF07F0030002280BD1B8F188
:100BA000000F08D13CB1A54205D230215846641E41
:100BB000FFF782FFF6E7CDE900474346524631464C
:100BC000584601F0C5FEBDE8FC9F000070B50D461B
:100BD000044600684FF4887100F07AFF4FF490717A
:100BE000206800F075FF4FF49271206800F070FFEC
:100BF0004FF4A271206800F06BFF4FF4AC712068D5
:100C000000F066FF20681249C0F8041320686907E5
:100C100040F30730090E002804DB00F1E02080F8E3
:100C2000001405E000F00F0000F1E02080F8141D32
:100C3000206840F30730002809DB00F01F02012183
:100C400091404009800000F1E020C0F8001170BD23
:100C500010034200024600201268530713D502F029
:100C60000300012802D002280CD105E0C2F3831052
:100C70000B68801C184404E00223086803EB9252BE
:100C800010440860012070472DE9FF4100262448E8
:100C900000F009F92248001F074600F004F9214C32
:100CA0002149A06800900D6800E00098694628403E
:100CB00004EB80000C30FFF7CDFF0028F5D101AA2E
:100CC000009901EA050304EB8303491CDB6842F841
:100CD0002030401C00910228F2D3019800F003005C
:100CE00001280BD0022810D10198032101EB90506C
:100CF0000099BDF80A6001EB900005E00198BDF88D
:100D00000A60C0F3831008440090384600F0C8F829
:100D100008B10098A06004B03046BDE8F081000042
:100D20003007002018030020540000200120810714
:100D300088B08867FFF72CFE4FF48041002000F058
:100D40008FFD08B1FFF77AFD00F0FEFB1F48204938
:100D5000401AC008032101EB00401EA100F01CFD59
:100D60001822204901A8FFF7DDFA1F2004901E2059
:100D700001901D2002901A2003901A481A4A01A9D6
:100D8000083800F003F908B1FFF758FD0025174CAB
:100D90000726A560A581A5732570144B114808335B
:100DA0000722D91F0838009600F0CAFE18B1FFF7D5
:100DB00045FD00E020BF20780028FBD000F0D2FBEA
:100DC0000028FBD1FFF70EFEE3E70000442C0000F3
:100DD000042C000053504953206578616D706C6598
:100DE000000000000C2A0000552400000000002034
:100DF0002DE9F047C5881E1DB6FBF5F78946B6FB01
:100E0000F5F1044605FB176C407916686843DDF878
:100E100020A0F718001F874200D9C61A166001E00B
:100E20002468491E0029FBD1A5EB0C078846B74270
:100E300016D818E004EB0C00001D09EB0803BAF10A
:100E4000000F3A4602D00146184600E01946FFF767
:100E500069FA2468F61B4FF0000CB844B54201D97A
:100E6000374600E02F46002EE4D1BDE8F0870000B1
:100E700030B5024651B100F007FD0021074C08E0F3
:100E800034F821301568AB4202D11160002030BD2A
:100E9000491C8142F4D3052030BD00000000000051
:100EA000002100F009B8012100F010B808B56A4629
:100EB000FFF7E3F9009808BD08B56A46FFF7C3F9E4
:100EC00008BD08B56A46FFF7A5F908BD08B56A462A
:100ED000FFF7ACF9009808BD08B56A46FFF7DAF9E4
:100EE000009808BD70B5044600252846FFF7B1FC00
:100EF00021686268086890420ED9401E0860017837
:100F0000238AE26801FB0325227A2168101AC0B205
:100F10000A79824200D208710020FFF79CFC284623
:100F200070BD70B505460C460020FFF792FCE868DE
:100F3000298A201AB0FBF1F12A681068431C13605B
:100F40000170BDE870400020FFF785BC10B530B1DE
:100F5000017A42680368891AC9B21A6006E00E2055
:100F600010BD03681A68541C1C601170491EC9B278
:100F7000F7D2006800210171084610BDC20800F0D8
:100F800007030120895C98400840704730B403791A
:100F9000034C44F8232030BC024A00F011BE00008C
:100FA000AC000020A9240000F0B5054604781548DF
:100FB00089B0164640F82420124A0869121DA2F191
:100FC000080742F82400487F385520226846FFF77A
:100FD000A9F904942878385C48B10EB10A4A00E0B7
:100FE00000226946281D00F0EFFF09B0F0BD0EB1E8
:100FF000064A00E00022694605F10C0000F0AEFE52
:10100000F3E70000140000200D2800005526000022
:101010000FB408B50399002904D004AA00926A46C7
:1010200000F00FF801B05DF814FB10B582680446BB
:10103000002A05D0D4E90403216898470020A06065
:1010400010BD2DE9FC4791460C00804676D014F87F
:10105000011B39B125290ED04046FFF72DFD207820
:101060000028F4D198F80C00002867D04046BDE86D
:10107000FC47FFF7DABF0020012221782B291BD083
:101080002D2902D0302908D102E040F0010001E012
:1010900040F00200641C002AEFD100252A290ED05E
:1010A0002178A1F130020A2A11D205EB850201EB69
:1010B0004205641C303DF1E740F00400EAE7D9F84E
:1010C00000100B1DC9F800300968641C0D4421781C
:1010D00000232E290BD114F8011FA1F130020A2A96
:1010E00005D203EB830201EB4203303BF3E76C29AB
:1010F0000DD068290BD0692921D00BDC252918D007
:10110000582931D063290ED0642915D117E014F87D
:10111000011FECE7702969D0732932D075291BD0E3
:10112000782909D120E0D9F80000011DC9F8001084
:1011300001784046FFF7C0FC641C90E76CE0D9F8EA
:1011400000100A1DC9F800200968CDE900500A22E4
:101150004046FFF7E7FCEFE7D9F800100A1DC9F891
:10116000002009680A2206E0D9F800100A1DC9F813
:10117000002009681022CDE90050404601F0E8FB4C
:10118000DAE7D9F8001000270A1DC9F800200E6818
:10119000C00705D112E04046761C7F1CFFF78CFC8F
:1011A00031780029F7D104E0202140466D1EFFF779
:1011B00083FCBD42C0D9002DF6D1BDE74EB130460B
:1011C000FFF7D4F8074604E0202140466D1EFFF7E4
:1011D00073FCBD4206D9002DF6D103E04046761CD3
:1011E000FFF76AFC31780029F8D1A5E7D9F80000AB
:1011F000011DC9F80010056830214046FFF75CFC6E
:1012000078214046FFF758FC08200021CDE9000175
:10121000034610222946B0E7BDE8FC8770B541EAD5
:101220004201DDE904564FF0A04441EA830141EA5E
:10123000052104EB800041EA0641C0F8001770BDAB
:1012400070B541EA4201DDE904564FF0A04441EA9D
:10125000830141EA052104EB800041EA0641C0F820
:10126000001770BD70B541EA4201DDE904564FF048
:10127000A04441EA830141EA052104EB800041EAF0
:101280000641C0F8001770BD70B541EA4201DDE9C2
:1012900004564FF0A04441EA830141EA052104EBE2
:1012A000800041EA0641C0F8001770BD1CB500215E
:1012B00000910B4601220191FFF7D4FF1CBD1CB524
:1012C000002100910B4601220191FFF7DDFF1CBDBB
:1012D0001CB500220B46009211460192FFF7C2FF97
:1012E0001CBD1CB500220B46009211460192FFF76F
:1012F000CBFF1CBD1CB5002100910B4601220191C2
:101300001146FFF7AFFF1CBD1CB5002100910B4635
:10131000012201911146FFF7B7FF1CBD4FF0A0421B
:1013200002EB8000D0F8002722F44032C0F80027FA
:10133000D0F8002742EA0141C0F8001770470000CA
:1013400038B5094B44181B6800936B4608E000BF92
:1013500053F82010D1F8205520C2C1F82055401C68
:101360008442F5D838BD00002C2A000001224FF03D
:10137000A043824011B1C3F808257047C3F80C257B
:1013800070470000034908B5084400210160006867
:10139000009008BD0060004002494058012800D07C
:1013A000002070470060004030B5154A014600201B
:1013B000D2F8104423460AE0DB681D79854205D146
:1013C000401C0A28F6DB4FF0FF3030BD1B68002BB5
:1013D000F2D1431CF9D0CB681871D2F8103443B164
:1013E000DB68CC681B682360D2F81024D2681160D7
:1013F00030BDC2F81014C96800220A6030BD000078
:1014000018030020F0B595B01C4615460F46084657
:101410001A9E00F009FB182109A8FEF79CFF0E9602
:10142000CDE909540023082203A9384600F011FB36
:1014300005980690BDF81000ADF81C00BDF812002C
:10144000ADF81E0000208DF821000398082600F05A
:101450000300012802D0022818D032E00398334656
:10146000850AC0F3C2008DF8200003980FA9C0F3CD
:101470008314A200384600F0ECFA09A8009006ABED
:1014800022460FA9284600F02BFA1AE00398840D93
:10149000C0F3C2008DF82000082C01D2254600E0E0
:1014A000082533462A460FA9384600F0D2FA2E44C2
:1014B000641B09AB06AA29460FA800F079F9002C95
:1014C000EAD1384600F0B6FA15B0F0BD70470120F9
:1014D00001F0DEB8084810B50178084A515C19B12E
:1014E000001D00F00BFE02E00C3000F005FDBDE831
:1014F0001040002001F0CCB838000020100000207F
:1015000008B5034A00924023024AFFF77BFF08BD5B
:1015100015240000800100200A4A012902EBC000C6
:1015200007D0022907D0032907D0042907D00020BB
:101530007047022070470420704700797047407957
:1015400070470000042C000010B5FFF7C0FF042115
:101550000348FFF729FF02490120C968487110BDFF
:10156000F42B00002DE9F0478CB0FFF7BDFA18B15D
:1015700000200CB0BDE8F0877D4C0020C4F81804B2
:10158000BFF34F8F7B49A06802900D684FF00008B1
:10159000284004EB80000BE0D4F8180470B96168AF
:1015A0000298814201D8A160E2E7284004EB800064
:1015B0000C3002A9FFF74EFB0028EDD1002003AA52
:1015C000029901EA050304EB8303491CDB6842F836
:1015D0002030401C02910228F2D3039800F003004F
:1015E000022802D001284DD0A7E003985022810D97
:1015F0008946B2EB905F00D850210E4666F39F50AB
:10160000039008315C4800F0C6F9070078D000F07C
:101610000BFA4346082203A9384600F022FA029941
:1016200008F1080A2940681A8000001D864222D964
:101630004F4D0C3530B1C2B204EB8101301A9046E7
:101640000C3104E02946F2B2002590462846C6B285
:101650005346384600F005FA0AEB080325B1324636
:101660002946384600F0FDF9029909F1030001EB23
:10167000900002903BE004EB81015346324638462D
:101680000C31EFE70398C0F38310062800D306203F
:10169000039960F38911C1F38310801C03918100C9
:1016A000354800F078F9070047D000F0BDF943460F
:1016B000082203A9384600F0D4F908F108080026EA
:1016C0000FE00298434600EA0501401C04EB81014B
:1016D0000290042238460C3100F0C3F908F10408E6
:1016E000761C0398C0F38310B042EAD847B1D4F80F
:1016F0001054D4F8180478B1384600F09BF931E062
:101700001BE0E8684079012804D12A682846394658
:1017100012689047E8680568002DF2D1384600F05D
:1017200089F90020FFF795F8D4F8180408B9029851
:10173000A0600020FFF78FF814E0D4F8104405E013
:101740002168204689688847E0680468002CF7D142
:101750000A480B49401AC008022101EB004009A1C8
:1017600000F01AF8FFF7C0F980F0010001E700006F
:1017700018030020540000204C2C0000442C0000D2
:10178000042C00004261636B656E647320666C75A7
:10179000736865640000000000231A4600F0E6BE8E
:1017A00008B5012300926A4600F0E0FE08BD000083
:1017B0002DE9F0470E4680461C469246082940D83F
:1017C00094F80C90002020731946104600F09AFD02
:1017D0000025B54206D218F805201BA12046FFF7C8
:1017E00017FC03E01AA12046FFF712FC6D1C082D20
:1017F000EFD318A12046FFF70BFC0025B54212D20B
:1018000018F805707E2F08D8FEF788FD0068C05DC7
:1018100010F03E0F01D03A4600E02E220EA12046E5
:10182000FFF7F6FB03E00DA12046FFF7F1FB6D1C6F
:10183000082DE3D301222146504600F045FD84F8EF
:101840000C90BDE8F08700002025303278000000C1
:10185000202020007C000000256300002000000004
:10186000064910B500200870054800F0E1F800288E
:1018700003D1044800F0FDF8002010BD180300203B
:101880004C2C0000782A000002480349401AC00886
:10189000704700004C2C0000042C000013B5684673
:1018A000FFF7E6FA08B100201CBD0248009950F885
:1018B00031001CBD042C000070B508480125D0F88B
:1018C0001044057007E0E0684571216820464968CA
:1018D0008847E0680468002CF5D170BD180300202B
:1018E0002DE9FF4781460C9D00200C462F7B287375
:1018F000984616462946184600F004FD072E42D2A7
:10190000DFE806F004090F161F2A3600494628466C
:10191000FFF77EFB37E0494628462268FFF778FB51
:1019200031E0D4E9002349462846FFF771FB2AE05D
:10193000A0680090D4E9002349462846FFF768FBD9
:1019400021E0D4E90201CDE90001D4E900234946B0
:101950002846FFF75DFB16E004F1080007C88DE894
:101960000700D4E9002349462846FFF751FB0AE067
:1019700004F108000FC88DE80F00D4E900234946A0
:101980002846FFF745FB00222946404600F09CFC14
:101990002F73BDE8FF872DE9F041058A80462D1F92
:1019A0004819C01CB0FBF5F0C6B24046FFF79AFAE2
:1019B000041E19D00020207101206071E5800027ED
:1019C0002546761EC4F800800BE04046FFF78AFAF1
:1019D00060B16179491C6171286005467F1CC0F8BF
:1019E0000080B742F1D32046BDE8F081204600F0E8
:1019F00002F80020F8E72DE9F041457901466B1E19
:101A0000002201E00968521C9A42FBD30F6801468C
:101A1000002605E038460C68FFF783FA2146761C5D
:101A2000AE42F7D3BDE8F0810121001DFFF73EBAB9
:101A3000FFF78CBA10B504460121001DFFF74CFAE0
:101A400010F0FF0F04D12046BDE81040FFF7D3BFD0
:101A500010BD1CB501920122009201AAFFF7C8F93E
:101A60001CBD1CB501920022009201AAFFF7C0F92B
:101A70001CBD826800219160826811618268516199
:101A80008268D16082685160806801607047405808
:101A9000002800D00120704708B50022425040586D
:101AA000009008BD4058002800D00120704708B5BC
:101AB000002242504058009008BDD0F8040308406E
:101AC00000D0012070474058002800D00120704706
:101AD00008B5002242504058009008BD0121B1EBEA
:101AE000507F01D101207047002070470121B1EBE8
:101AF000507F01D1012070470020704770B50D461E
:101B000000F04CFC04000FD00020FEF7A2FE20796C
:101B100020B10020FEF79FFE112070BD012025603E
:101B200020710020FEF797FE002070BD10B500F078
:101B300035FC002802D000210160017110BD0000B9
:101B40002DE9F0478046174600790E461B4AC0EB48
:101B5000C001DDF820901D4602EB810420B9B9F1E7
:101B6000FF0F01D8FF2F02D90920BDE8F0871EB171
:101B70003046FFF7B3FF78B11DB12846FFF7AEFF3F
:101B800050B1607D50B1012815D0022806D003283D
:101B900004D003252846E8E71020E6E7C4E90365FA
:101BA0002760C4F80490002501222146D8F80000DF
:101BB00000F0BCFCEEE70825ECE700001401002073
:101BC0002DE9FF4F80460D46007993465D49C0EBF5
:101BD000C00201EB8207D8F80040397D83B019B10B
:101BE000082007B0BDE8F08F297C032901D9072020
:101BF000F7E7554951F820102046FFF77FFF08B15D
:101C00001120EEE7286800264FF0FF39FF280AD0A0
:101C1000E97CCDE9001600231A461946FFF710FBB0
:101C2000D5F800A000E0CA466868FF2808D0002365
:101C300000961A4619460196FFF702FBD5F8049064
:101C4000009601960022AB7C1146E868FFF7F8FA8F
:101C50000023009601961A461946A868FFF7F0FA85
:101C6000D5E90223C4F80825C4F81095C4F80CA5DA
:101C7000C4F81435C4F83465C4F83865C4F844654C
:101C8000C4F84865297C687C00B10120012904D092
:101C9000022905D0032908D105E040F0020004E044
:101CA00040F0040001E040F00600C4F85405287D2F
:101CB000C4F85C05687DC4F8C0054FF48271204605
:101CC000FFF7EAFE4FF494712046FFF7E5FED4F8E3
:101CD000000240F00400C4F800027E75C7F808B0A6
:101CE0000698B86140F20240C4F80403D8F8000036
:101CF000A97D40F3073000284FEA411104DB00F1D1
:101D0000E02080F8001405E000F00F0000F1E02072
:101D100080F8141DD8F80000012140F30730002896
:101D200009DB00F01F0201FA02F24009800000F115
:101D3000E020C0F8002139750220C4F80005002019
:101D40004FE7000014010020302A0000014902483A
:101D500000F0C6BC30010020002000402DE9F04119
:101D60000546007916460F4600EB40012D4A01EB6F
:101D7000C00102EB810494F82A1011B10820BDE8DB
:101D8000F081294951F820102868FFF7B7FE08B103
:101D90001120F4E739462846FEF772FD666038697F
:101DA000206030004FF001062FD03F7F4FF48E713E
:101DB0002868FFF77CFE4FF4A2712868FFF777FED2
:101DC00028681A49C0F8041328684FEA471140F3FD
:101DD0000730002804DB00F1E02080F8001405E063
:101DE00000F00F0000F1E02080F8141D286840F397
:101DF0000730002809DB00F01F0106FA01F1400955
:101E0000800000F1E020C0F8001128680421C0F82B
:101E100000150020A061E06184F8290044F8140F47
:101E2000A675ACE730010020342A000080000200D3
:101E30002DE9F05F054600790B4600EB400101EB10
:101E4000C000244901EB8004284600F045F810B199
:101E50001120BDE8F09F62614FF00009C4F82090A6
:101E6000A36084F828904FF48E784E464146286847
:101E7000FFF71DFE28684FF0010AC0F808A02146B0
:101E8000286800F0BDFB606808BBD5F800B0676942
:101E90000FE000BF94F8280008B10F2615E0414676
:101EA0005846FFF7FFFD0028F4D02146584600F0C1
:101EB000A7FB206AB842F2D3574641462868FFF78D
:101EC000F1FD0028F9D02868C760C4F814903046A6
:101ED000BFE7000030010020007900EB400101EB7A
:101EE000C000044901EB80004069002800D00120B7
:101EF00070470000300100202DE9F04704460079CA
:101F00004FF0000900EB400101EBC000284901EB54
:101F100080072068C0F800957868B0B1206825492E
:101F2000C0F80813206840F3073000280DDB00F0EC
:101F30001F02012191404009800000F1E020C0F81B
:101F40008011BFF34F8FBFF36F8F2068D0F80C253F
:101F5000D0F81485D0F80865D0F810554FF0FF314F
:101F6000C0F81415C0F80C152068C0F80815C0F8A2
:101F70001015501C02D01046FFF798F9B8F1FF3F3A
:101F800002D04046FFF792F9681C02D02846FFF7BE
:101F90008DF9701C02D03046FFF788F92068FFF7F2
:101FA000C5FD87F82A90C7F80490BDE8F0870000C7
:101FB00030010020840202000149024800F03EBCCA
:101FC0005C010020002000402DE9F0410546164646
:101FD00000790F46154A00EBC00102EB810494F82A
:101FE000201011B10820BDE8F081114951F82010EE
:101FF0002868FFF783FD08B11120F4E73946284629
:10200000FEF782FC6660386920601EB1397F284681
:10201000FEF7DCFD28680821C0F800150020A0614B
:10202000E0616061012184F82010DCE75C010020A0
:10203000382A00002DE9F04704460E46007927496A
:1020400000EBC00001EB800517463046FFF74EFD60
:1020500030B1204600F044F820B11120BDE8F087EF
:102060001020FBE76F61AE604FF490774FF00008EF
:1020700039462068FFF72CFD4FF4AC7631462068D6
:10208000FFF726FD2068AA686969C0F84425C0F8F2
:10209000481520684FF00109C0F808906868D0B969
:1020A000BA4651462068FFF70EFD074631462068C4
:1020B000FFF709FD0743F4D010B14FF00F0808E017
:1020C0002068C0F80C9031462068FFF7FCFC00281F
:1020D000F9D0002068614046C0E700005C010020A4
:1020E0000079054900EBC00001EB80004069002841
:1020F00000D00120704700005C0100202DE9F0476E
:10210000064600793D4900EBC00001EB80053468CC
:1021100068680127A8B13A49C4F80813306840F349
:10212000073000280DDB00F01F0107FA01F140091C
:10213000800000F1E020C0F88011BFF34F8FBFF3A3
:102140006F8FD4F8000220F02000C4F80002A869C4
:102150004FF4A27820B141462046FFF7B9FC6760F2
:102160004FF4AC7949462046FFF7B2FCE76047469A
:1021700049462046FFF7A7FC0028F9D0A86928B1F6
:1021800039462046FFF79FFC0028F1D04FF0000AA7
:10219000C4F800A53068D0F80C25D0F81495D0F814
:1021A0000885D0F810754FF0FF31C0F80C15C0F855
:1021B00014153068C0F80815C0F81015501C02D06E
:1021C0001046FFF77CF8B9F1FF3F02D04846FFF711
:1021D00076F8781C02D03846FFF771F8B8F1FF3F67
:1021E00002D04046FFF76BF82046FFF79FFC85F8CA
:1021F00020A0C5F804A0BDE8F08700005C01002025
:10220000100342002DE9F05F2A4F06464FF0A04A26
:102210004FF0010B0024381990F95010491C3CD0A4
:1022200090F85000314620F0C0052846FEF7A6FE83
:1022300020B3204600F040F881460AEB8500D0F834
:102240000007C0F30148B8F1020F18D00221284658
:10225000FFF764F80BFA05F1CAF820152846FEF7D7
:102260004FFC57F820204AB14846B9F1030F11D06E
:10227000B8F1020F05D0B8F1030F07D00DE003212C
:10228000E5E74846B9F1010F04D006E04846B9F148
:10229000020F02D1014628469047641C042CBAD391
:1022A000324601210020FFF74BF830680028B1D1F9
:1022B000BDE8F09FB80000200249084490F85000A3
:1022C00080097047B800002010B50C46017A052936
:1022D00008D0407A38B1084808A102682046FEF7C5
:1022E00097FE00E01AB106A12046FEF791FE2046B7
:1022F000BDE81040FEF799BE840000202573000061
:102300000D0A000038B5C3880D46044633B114A049
:10231000009015A216A12846FEF77AFE217A05291B
:102320001CD0607A48B1A088FFF7F6F8164951F83A
:10233000202016A12846FEF76BFEA0880021FFF79B
:10234000ADFA03461049207A143951F8202001B023
:102350002846BDE830400EA1FEF75ABE38BD000049
:102360001B5B306D000000001B5B313B33316D00A7
:1023700025734C6F67732064726F707065642028DA
:1023800025642925730D0A008400002025730000B0
:102390003C25733E2025733A200000000349884203
:1023A00001D1034870470020704700000020004022
:1023B0001C00002070B5054688690C4600284FF4C3
:1023C000847128460AD0FFF772FBD5F81805626AB7
:1023D000E1688854606A401C606270BDFFF767FB6B
:1023E000D5F8180570BD1FB501238DF80030CDE973
:1023F0000121D0E90012684690471FBD1FB5012397
:102400008DF80030CDE90121D0E9001268469047EF
:102410001FBD000070B50D4C0020D2B22070201DF1
:102420000B4D0378EB5C1BB1001DFFF703FE02E0D0
:102430000C30FFF7FDFC08B1FEF700FA60780028C9
:1024400002D021780029FAD070BD000034000020AD
:1024500010000020C0B201280DD1074908700748BC
:102460000749054A401AC008032101EB0040083221
:1024700004A1FFF795B9704700000020442C00002C
:10248000042C0000205472616E7366657220636FC5
:102490006D706C657465642E205265636569766540
:1024A000643A202573000000024A52F8213007C820
:1024B00018470000AC00002070B50D464FF494762C
:1024C00004463146FFF7E3FAC8B131462046FFF72C
:1024D000E3FA687D012812D1E9682868C4F8441538
:1024E000C4F8480529696868C4F83415C4F8380583
:1024F0000120A06202222946204600F017F84FF47E
:10250000827631462046FFF7C2FA00280DD03146C8
:102510002046FFF7C1FA687D022806D129462046E9
:10252000BDE87040032200F001B870BD0EB54A75D9
:102530004B7D0122012B11D0022B11D0032B0CD18A
:102540008DF80020D0F83C250192D0F84C0502907F
:1025500088698A680146684690470EBD42620EBD92
:1025600000208DF800000190F1E700002DE9F84F00
:10257000074621489146884605681E46012269465D
:102580001846FEF753FADFF874A060B300980021F4
:102590000446801C0AE000BF00EA050259F821C089
:1025A0000AEB8202401C491CC2F80CC0B142F3D3B2
:1025B0004FEA1749FEF7ACFA611C29400AEB81018A
:1025C00049EA00422C40CA600AEB8401C86867F3FC
:1025D000C50066F3891068F39F2020F00300401CBB
:1025E00020F00400C8609AF8000001E0FEF7BAFF8E
:1025F0000028FBD1BDE8F88F54000020180300200C
:1026000070B50C4605464FF48E71FFF750FA216AFB
:10261000A068415C206A401C2062C5F81C1570BD92
:102620001FB500228DF8002002918168019142615E
:10263000D0E90012684690471FBD1FB500228DF8F3
:1026400000200291816801914261D0E90012684640
:1026500090471FBD1FB50A4601788DF800104168EC
:102660000191017A8DF80810C0680390044850F871
:102670002210001F50F82220684690471FBD00001E
:102680001800002001490120087070473400002024
:1026900010B588B0044620220E496846FDF742FE78
:1026A00006200090C01F0190029003904FF0EB7045
:1026B00006900CB1084A00E0002269460748FEF780
:1026C00073FC08B1FEF7BAF80448001F447008B064
:1026D00010BD0000582A00008526000038000020A8
:1026E0002DE9FF470C4605464FF40071FFF7E5F969
:1026F00001274FF40178002618B34FF49279494628
:102700002846FFF7CFF9E0B149462846FFF7CFF951
:10271000C5F8088394F8290000B96F6002208DF88D
:102720000000D5F88004C5F880040390A0690290E9
:10273000E0680190A661E661D4E90012684690471E
:1027400028E004212846FFF7B8F918B34FF4847144
:102750002846FFF7A7F9E8B121462846FFF72AFEE9
:10276000616AA069884215D1E06938B1E268616A9E
:10277000A0612069E6616662E06008E094F82900E3
:1027800000B96F60C5F80883A661E268616A2046F7
:10279000FFF729FE4FF48E7841462846FFF782F96D
:1027A00080B16069216A814202D294F8280028B37E
:1027B00041462846FFF77BF9606918B161692046F8
:1027C000FFF72EFF4FF4A27841462846FFF76AF93B
:1027D000002818D041462846FFF769F994F82900E7
:1027E00000B12F60A06900280DD0A661E268616A7F
:1027F00004B02046BDE8F047FFF7F5BD2146284666
:10280000FFF7FEFEDEE7BDE8FF8700001FB50A46C2
:1028100001788DF8001041680191017A8DF8081057
:10282000C0680390044850F82210001F50F822207E
:10283000684690471FBD0000180000202DE9FF41A9
:102840000C464FF4927705463946FFF73CF90026CF
:10285000B8B139462846FFF73BF902208DF8000051
:10286000D5F88004C5F880040390D5F83C050290A3
:10287000E0680190A661E661D4E9001268469047DD
:1028800023E04FF4887739462846FFF71CF9E0B17A
:1028900039462846FFF71CF9D5F83C15A06988424F
:1028A00013D1E06960B1E268D5F8000220F02000A1
:1028B000C5F80002E069A0612069E661E06001E01E
:1028C000A661E2682046FFF799FD4FF4A2773946EA
:1028D0002846FFF7F8F868B139462846FFF7F8F8B8
:1028E000A06938B1A661E661D5F83C152046E268DA
:1028F000FFF784FD4FF4907631462846FFF7E3F862
:1029000060B131462846FFF7E3F80120E8606069CE
:1029100020B1D5F84C152046FFF78FFE4FF4AC766A
:1029200031462846FFF7CFF800280ED0314628461A
:10293000FFF7CEF86069002807D0D5F84C1504B031
:102940002046BDE8F041FFF778BEBDE8FF810000FA
:102950002DE9F05F8346DDE90A4A994690460D4627
:102960000846012703E000BFB0FBF8F07F1C40459C
:10297000FAD2B94500D94F465FEACA7012D18CB17C
:102980005FEA8A7002D5B9F1000F01D0202607E076
:10299000302605E031465846641EFEF78DF80CB12E
:1029A000A742F7D35FF00106B9F1010F02D9A9F1EF
:1029B000010903E0B5FBF6F0404502D306FB08F63B
:1029C000F2E7DFF83C9000BFB5FBF6F000FB1655D0
:1029D00019F800105846FEF76FF8B6FBF8F6002E0F
:1029E000F2D15FEACA7009D0002C07D0A74205D205
:1029F00020215846641EFEF75FF8F5E7BDE8F09F1A
:102A00003C2A00000040004000000000FF000000E1
:102A1000FF000000FF000000FF00000000000000B9
:102A2000FFFF0600111213140D0E0F1000000050CE
:102A3000550400004D1D0000B91F00003031323335
:102A40003435363738394142434445460115000094
:102A5000D5140000CD140000FFFFFFFFFFFFFFFFB4
:102A6000FFFFFFFFFFFFFFFF00000000000000006E
:102A70000000D60106010000800200207F00000057
:102A80000003002000404040404040404040414161
:102A90004141414040404040404040404040404033
:102AA00040404040400502020202020202020202CD
:102AB00002020202022020202020202020202002CA
:102AC000020202020202909090909090101010105A
:102AD00010101010101010101010101010101010F6
:102AE000020202020202888888888888080808088A
:102AF0000808080808080808080808080808080856
:102B00000202020240000000852A00007761726E16
:102B1000696E670064656275670000001B5B313B8E
:102B200033306D001B5B306D000000001B5B313BE0
:102B300033316D001B5B313B33326D001B5B313B2E
:102B400033336D001B5B313B33346D001B5B313B1A
:102B500033356D001B5B313B33366D001B5B313B06
:102B600033376D00696E666F000000006572726F2A
:102B7000720000004750494F544500005052530026
:102B800053504953000000005541525400000000CA
:102B900055415254450000006170705F6275747455
:102BA0006F6E00006170705F74696D657200000087
:102BB000736F72746C6973740000000075617274D5
:102BC0005F6C6F675F6261636B656E64000000003D
:102BD00061707000602C000000000020AC0000005C
:102BE000980700000C2D0000AC0000208C2600008F
:102BF000A80700004C2A000000000000BC2B0000C9
:102C00004C000020742B0000000000007C2B000012
:102C100000000000802B000000000000882B000056
:102C200000000000902B000000000000982B000026
:102C300000000000A42B000000000000B02B0000EA
:102C400000000000D02B0000000003036000002003
:102C50005800002060000020C00100201800000083
:102C6000004E6F7264696300000000000000000005
:102C70000000000000000000000000000000000054
:102C80000000000000000000000000000000000044
:102C900000000000000000000000000000200040D4
:102CA00000000000002000400000000000000000C4
:102CB000FF000000FF000000000000000000000016
:102CC0000000000000000000000000000000000004
:102CD000000000006C2B00000C2B0000642B000097
:102CE000142B0000242B00001C2B00002C2B0000B8
:102CF000342B00003C2B0000442B00004C2B000028
:0C2D0000542B00005C2B00000090D0035E
:0400000500000201F4
:00000001FF
