:020000040000FA
:10000000202F0020D5030000DD030000DF030000E7
:10001000E1030000E3030000E5030000000000002E
:10002000000000000000000000000000E7030000E6
:10003000E903000000000000EB030000ED030000F6
:100040007D060000EF0300002D0A0000E506000019
:10005000F5060000EF030000D9050000EF030000E3
:10006000EF030000EF030000EF030000EF030000C8
:10007000EF030000EF030000EF030000EF030000B8
:10008000EF030000D5060000EF030000EF030000BF
:10009000EF030000EF030000EF030000EF03000098
:1000A000EF030000EF030000EF030000EF03000088
:1000B000EF030000EF03000000000000000000005C
:1000C000EF030000EF030000EF030000EF03000068
:1000D000EF030000EF030000EF030000000000004A
:1000E0000000000000000000000000000000000010
:1000F0000000000000000000000000000000000000
:1001000000000000000000000000000000000000EF
:1001100000000000000000000000000000000000DF
:1001200000000000000000000000000000000000CF
:1001300000000000000000000000000000000000BF
:1001400000000000000000000000000000000000AF
:10015000000000000000000000000000000000009F
:10016000000000000000000000000000000000008F
:10017000000000000000000000000000000000007F
:10018000000000000000000000000000000000006F
:10019000000000000000000000000000000000005F
:1001A000000000000000000000000000000000004F
:1001B000000000000000000000000000000000003F
:1001C000000000000000000000000000000000002F
:1001D000000000000000000000000000000000001F
:1001E000000000000000000000000000000000000F
:1001F00000000000000000000000000000000000FF
:10020000DFF80CD000F0AAF900480047B13D00002B
:10021000202F002003464FF0000153E8000F43E871
:1002200000128A42F9D1704730B450E8012F93B2DE
:10023000C48923448489A34228BF1B1B0489A34289
:1002400002BFBFF32F8F002007E0C3EA020340E89C
:100250000134002CE9D14FF001000A6030BC704736
:1002600050E8012FC2EA024240E801210029F7D1FB
:10027000704730B450E8022F1FFAA2F3C488A3429B
:1002800002BFBFF32F8F00200DE0C489234484896F
:10029000A34228BF1B1BC2EA034340E80234002CE0
:1002A000E8D14FF001000A6030BC704750E8022FDF
:1002B000C2EA224240E802210029F7D170470346F2
:1002C00053E8022FD988B2EB324F4FF0000017BF2E
:1002D00092B241EA014142EA014104E05A68B2EBBC
:1002E000324F08BF012043E80212002AE8D17047CC
:1002F00030B4044654E8000F0D4644E80053002B88
:10030000F8D1156030BC704730B4044654E8000F93
:1003100040EA010544E80053002BF7D1156030BCDA
:10032000704730B4044654E8000F00EA010544E881
:100330000053002BF7D1156030BC704730B4044631
:1003400054E8000F80EA010544E80053002BF7D180
:10035000156030BC704730B4044654E8000F00EB21
:10036000010544E80053002BF7D1156030BC7047FD
:1003700030B4044654E8000FA0EB010544E80053F4
:10038000002BF7D1156030BC704770B404464FF0B5
:10039000000054E8006F0D68AE4207BF44E8002338
:1003A000012044E800630E60002B1CBF0020F0E732
:1003B00070BC704730B4044654E8000F88422CBF2C
:1003C000451A054644E80053002BF5D1156030BCB2
:1003D000704700000648804706480047FEE7FEE7F2
:1003E000FEE7FEE7FEE7FEE7FEE7FEE7FEE7FEE7E5
:1003F00005070000010200000048704740A100000E
:100400002DE9FE43994615468846074601AC022968
:1004100042D3002D40D000200290A8F101004FF0FF
:10042000FF36009022E000FB057201FB05701146CB
:100430004A469047002805DC54F82600304444F82A
:10044000260013E060682A4600FB057154F8040C8E
:1004500000FB057007E00B7890F800C001F801CBB5
:1004600000F8013B521E002AF5D1764254F8040CE4
:1004700061688842D7DC4B462A463846FFF7C0FF02
:1004800054F8040C4B46A8EB0001401C00FB05701F
:100490002A46491EFFF7B4FFBDE8FE8310B5431A94
:1004A000934209D28318881803E010F8011D03F85D
:1004B000011D521EF9D210BD40EA01039B0703D073
:1004C00009E008C9121F08C0042AFAD203E011F893
:1004D000013B00F8013B521EF9D210BDD2B201E03F
:1004E00000F8012B491EFBD270470022F6E710B539
:1004F00013460A4604461946FFF7F0FF204610BD92
:10050000421C10F8011B0029FBD1801A704710B55E
:10051000002200E0521C835C8C5CA34201D1002BC2
:10052000F8D1D8B2E1B2401A10BD034611F8012B40
:1005300000F8012B002AF9D11846704730B505465E
:100540000020034600E05B1C934205D2EC5CC85CD3
:10055000201A01D1002CF6D130BD0000064C074D09
:1005600006E0E06840F0010394E807009847103483
:10057000AC42F6D3FFF748FEACAC0000CCAC0000B8
:1005800070B58C1810F8015B15F0070301D110F855
:10059000013B2A1106D110F8012B03E010F8016B82
:1005A00001F8016B5B1EF9D12B0705D40023521E05
:1005B0000DD401F8013BFAE710F8013BCB1A921C6D
:1005C00003E013F8015B01F8015B521EF9D5A1426B
:1005D000D8D3002070BD00002DE9F8430025DFF8D6
:1005E00094804FF4807601242F460095304605F024
:1005F00079FC38B1D8F80403204203D0304605F026
:1006000067FC2543361D64007F1CB6B2082FEDD36E
:100610004FF4BE74204605F065FC48B1204605F055
:1006200057FC45F000456A460121002005F012FB09
:1006300015F0FF0F16D0012600242E420ED008EB35
:100640008401D1F81005D1F81015C0F304200A4A2E
:10065000C1F3014152F8242002B190477600641C96
:10066000082CEAD3002D02DA684608F07FF8BDE8CE
:10067000F8830000006000401C08002070B54FF4B3
:100680008076304604F03EFF114CB50560B130462F
:1006900004F03FFF0120C5F80803607920B901206C
:1006A00060712168002088474FF48276304604F05C
:1006B00029FF00280AD0304604F02BFF0220C5F89D
:1006C00008032168BDE870400120084770BD0000A4
:1006D0009000002002490248091F09680068084785
:1006E000E00000200149024808F0B0BC7808002072
:1006F0000030004002494FF0402007F009BA0000E6
:10070000B4080020F0B5B74AB7494FF080541368D9
:10071000D4F830010978D4F83421451CC1F3031111
:1007200006D0844601270025BCF1060F03D00AE05D
:1007300003F0FF0CF6E7B4F82463DFF8B0C2C6F3A9
:100740000426CCF80060DEB2062E06D1032904D1BF
:10075000DFF8A0C2A64ECCF87460461C04D08446D4
:10076000BCF1060F03D00AE003F0FF0CF8E7D4F861
:100770004462DFF884C2C6F34236CCF80060DEB2D1
:10078000062E08D1032906D19C4ED6F800C02CF0C5
:10079000807CC6F800C0461C04D08446BCF1060F1D
:1007A00003D00BE003F0FF0CF8E74FF08046C6F8EB
:1007B0000C51C6F81051904E361F3560DEB2062E31
:1007C00008D1032906D1DFF830C203260CF1640CEE
:1007D000CCF80060DEB2062E11D103290FD1DFF86C
:1007E00020C20526CCF80060854E78363760844EEE
:1007F000083635600CF1040C3F26CCF80060461C2E
:1008000006D084464FEA0206BCF1060F04D081E010
:1008100003F0FF0C0E46F7E7032E7BD0042E79D0B1
:10082000784E3668DFF8E0C1CCF80060754E361DB2
:1008300036680CF1040CCCF80060724E083636684D
:100840000CF1040CCCF800606E4E0C3636680CF1DE
:10085000040CCCF800606B4E103636680CF1040CBA
:10086000CCF80060674E143636680CF1040CCCF8F6
:100870000060644E18363668DFF88CC10CF1200C2D
:10088000CCF800605F4E1C3636680CF1040CCCF8D6
:1008900000605C4E203636680CF1040CCCF8006029
:1008A000584E243636680CF1040CCCF80060554ED6
:1008B000283636680CF1040CCCF80060514E2C360A
:1008C00036680CF1040CCCF800604E4E30363668B9
:1008D000DFF834C10CF1400CCCF80060494E3436DE
:1008E00036680CF1040CCCF80060464E3836366899
:1008F0000CF1040CCCF80060424E3C3636680CF12A
:10090000040CCCF800603F4E403636680CF1040C05
:10091000CCF80060461C05D04FEA000CBCF1060F75
:1009200003D008E003F0FF0CF8E7D4F85842374E44
:1009300004F04F043460441C03D00346062B02D05D
:1009400008E0DBB2FAE732490B68DB0702D06FF050
:1009500001030B6006280AD1032A08D0042A06D016
:10096000052A04D02B48016841F4806101602348C6
:100970007438016841F470010160BFF34F8FBFF319
:100980006F8F4FF01021D1F80002002803DBD1F85F
:100990000402002822DA204A176020480368002B4E
:1009A000FCD01523C1F800320468002CFCD0C1F83B
:1009B000043201680029FCD0156001680029FCD0D0
:1009C000BFF34F8F0D48F0380168154A01F4E0611C
:1009D00011430160BFF34F8F00BFFDE7124911487B
:1009E0000860F0BDE00F00F0E80F00F04035014076
:1009F0000DF0ADBA00C007403C050040FCED00E042
:100A0000105600400404001020C50040E40E0040D1
:100A1000000400403C17004004E5014000E40140B0
:100A20000400FA050090D0038801002010B5054CA1
:100A3000206818B904A12B2000F04AFA2068BDE80C
:100A400010400047980000202E2E5C2E2E5C2E2E8B
:100A50005C2E2E5C2E2E5C2E2E5C6D6F64756C658C
:100A6000735C6E7266785C647269766572735C73CF
:100A700072635C7072735C6E7266785F7072732EF4
:100A80006300000002E008C8121F08C1002AFAD162
:100A900070477047002001E001C1121F002AFBD1FE
:100AA0007047000072B605F093FD00BF05F046FBED
:100AB0000028FBD1144D154915486A88081AC40846
:100AC0002AB1012000EB044012A105F071FC14488A
:100AD0000068C00700D000BE6888022805D3022045
:100AE00000EB04400FA105F063FCBFF34F8F0C48EF
:100AF000E43801680F4A01F4E06111430160BFF37B
:100B00004F8F00BFFDE7000004020020DCAD0000B5
:100B10002CAD0000466174616C206572726F7200CA
:100B2000F0ED00E053797374656D20726573657440
:100B3000000000000400FA050EB500210091CDE987
:100B400001106A4644F20100FFF7ACFF0EBD000041
:100B5000014801F061BE0000A800002070B51446F5
:100B60000E46050004D10BA14FF4027000F0B0F95D
:100B70003CB12868012E44610AD0002101610020A7
:100B800070BD04A140F2092000F0A2F9072070BD59
:100B90000121F3E72E2E5C2E2E5C2E2E5C2E2E5C79
:100BA0002E2E5C2E2E5C636F6D706F6E656E74738F
:100BB0005C6C69627261726965735C74696D65729F
:100BC0005C6170705F74696D6572322E6300000045
:100BD00038B5114808235822416800910F49006830
:100BE00003F010FB002815D10D4A69460D4801F0AD
:100BF00017FE04000ED101210A4801F00AFF01236B
:100C0000094A1946074801F0BDFD06490120083987
:100C10000870204638BD0000B09C0000100900207C
:100C200061890000A8000020FFFF7F0070B5164614
:100C30000D46040004D10DA14FF4067000F048F9F0
:100C400094F8200008B1002070BDA66102F018FBE6
:100C5000401941F10001C4E90201206900B1256198
:100C60002146BDE87040002008F062B92E2E5C2EAF
:100C70002E5C2E2E5C2E2E5C2E2E5C2E2E5C636F38
:100C80006D706F6E656E74735C6C696272617269AF
:100C900065735C74696D65725C6170705F74696DB9
:100CA0006572322E6300000010B5040004D107A164
:100CB00040F22E2000F00CF90020214684F820009C
:100CC000BDE81040012008F033B900002E2E5C2E44
:100CD0002E5C2E2E5C2E2E5C2E2E5C2E2E5C636FD8
:100CE0006D706F6E656E74735C6C6962726172694F
:100CF00065735C74696D65725C6170705F74696D59
:100D00006572322E6300000010B507F003FE012863
:100D100003D004A11D2000F0DBF8BDE8104000F076
:100D20004FB800002E2E5C2E2E5C2E2E5C2E2E5CDC
:100D30002E2E5C2E2E5C636F6D706F6E656E7473FD
:100D40005C6C69627261726965735C7574696C5C14
:100D50006170705F7574696C5F706C6174666F72DE
:100D60006D2E630010B507F0D5FD012803D004A156
:100D70002B2000F0ADF8BDE8104000F029B80000CD
:100D80002E2E5C2E2E5C2E2E5C2E2E5C2E2E5C2E9D
:100D90002E5C636F6D706F6E656E74735C6C6962F0
:100DA0007261726965735C7574696C5C6170705FA7
:100DB0007574696C5F706C6174666F726D2E630020
:100DC00072B602480168491C01607047D8000020D3
:100DD00003490868401E086000D162B670470000F1
:100DE000D800002070B5054608680C46411C04D0A8
:100DF00005F047F8206804F001FF6068411C02D04C
:100E0000002104F0E9FE2968A069C1F82405607D8D
:100E1000227D29681043C1F86C05D4E900122868C6
:100E2000C0F81425C0F80C15207D012814D1A06845
:100E3000411C02D0002104F0CFFEE068411C04D028
:100E400005F01FF8E06804F0D9FED4E90212286822
:100E5000C0F80825C0F8101570BD70B505460868C3
:100E60000C46411C04D005F016F8206804F0D0FEB2
:100E70006068411C02D0002104F0B7FE2968A06917
:100E8000C1F82405607D217D2A680843C2F86C05FD
:100E9000D4E900122868C0F80C15C0F81425207D8C
:100EA000012814D1A068411C02D0002104F09DFE4D
:100EB000E068411C04D004F0EEFFE06804F0A8FEF6
:100EC000D4E902122868C0F80825C0F8101570BDD2
:100ED0001CB56A46CDE90001002144F20200FFF78B
:100EE000E1FD1CBDF0B500220D4BCA60C1E9012334
:100EF0000C4B0D4D1446EE1A0A600CE003EB021584
:100F0000EF683F79FF2F05D0A04202D1A8680860A2
:100F1000F0BD641C521CB2EB161FEFD3F0BD0000F5
:100F2000589F00000CAD00002CAD00002DE9FC41E5
:100F30000646C0074FF000050ED0104F00240122D6
:100F4000385D009500231146019504F067FD641C8F
:100F5000042CF4D300F03EF8B0070DD5074E002462
:100F6000361D0022305D032300951146019504F0E3
:100F700055FD641C042CF4D3BDE8FC81789C000072
:100F800010B50446042803D305A12120FFF7A0FFD4
:100F90000F480121005DBDE8104004F086BF00004D
:100FA0002E2E5C2E2E5C2E2E5C2E2E5C2E2E5C2E7B
:100FB0002E5C636F6D706F6E656E74735C626F61D3
:100FC0007264735C626F617264732E630000000070
:100FD000789C000010B500242046FFF7D1FF641C68
:100FE000042CF9D310BD00002DE9F0470546861CFE
:100FF00091460F464FF0010A0020FFF785FE1B4C7B
:1010000004F21C4860683860D4E90101184F401AA6
:101010003968081A0EE00121404603F03EF902F05B
:10102000CDFD0146404603F038F9D4E90101401AEC
:101030003968081A401C8642EDD8B9F1000F03D078
:10104000052065F3891002E0062065F39F50616872
:101050003A68114004EB8101C86060683044606008
:101060000020FFF77FFE5046BDE8F087000B002010
:101070000C01002070B50D4604460A2902D10D214D
:10108000FFF7F8FFA0682268411CA1601554D4E95D
:101090000101814204D32046BDE8704004F068BBE2
:1010A00070BD0000044881684068814201D1012080
:1010B0007047002070470000000B00200268002AE3
:1010C00001D00846104770470249084490F93000A3
:1010D000704700001C08002070B5816804468A7FB4
:1010E000002A4DD0C87F00284AD0121A0844D5B231
:1010F00000F120016A1C1F30FFF7D0F9A068C17F02
:10110000491EC177A068817F491E81778DB308226F
:101110001C49206904F0ECFA204603F04BF8817872
:10112000C078814211D1A06817A2C17F431808215D
:101130002046203303F072FE204600F03DF9294698
:101140002046BDE8704001F00DBA204600F0A0F93D
:10115000204600F031F9A0680BA2C17F4318082196
:101160002046203303F05AFE2046BDE8704000F0D0
:1011700059B92069BDE87040044A03A104F0B8BA27
:1011800070BD0000B413000025730000919E0000A4
:1011900070B504468068827FC17F521A12F0FF0545
:1011A00048D0084400F121012A462030FFF776F9A3
:1011B000A068817F491E8177204602F0FBFF81787D
:1011C000C07881420CD1A0681BA2C17F43180821BE
:1011D0002046203303F022FE40F26946C4B913E0F2
:1011E000204600F055F9204600F0E6F8A06812A26B
:1011F000C17F431808212046203303F00FFE20460C
:10120000BDE8704000F00EB90CA13046FFF760FE5B
:10121000206918B909A13046FFF75AFE154A06A100
:10122000206904F065FA6D1EE9B22046BDE8704001
:1012300001F098B970BD0000257300002E2E5C2EC1
:101240002E5C2E2E5C2E2E5C2E2E5C2E2E5C636F62
:101250006D706F6E656E74735C6C696272617269D9
:1012600065735C636C695C6E72665F636C692E6348
:1012700000000000959E00002DE9F04104468068C2
:101280000F46D0F84811C27F11F00106817FA1EB13
:101290000203DDB20BD07F2901D3002D7ED0A068E0
:1012A000C17F0844002180F8207066B113E07F29D7
:1012B0007CD2002DF3D0831803F120012A46481C6C
:1012C000FFF7ECF8EBE7A068827F521CD2B282777E
:1012D000A068203281544DB3204602F06BFF817824
:1012E000C07881420ED1A06831A2C17F4318082185
:1012F0002046203303F092FDA81BC1B2204601F026
:1013000031F921E0204600F0C3F8A06828A2C17F8F
:10131000431808212046203303F080FD204600F0CA
:1013200081F80121204601F0F7F90DE03EB1A068F7
:10133000827F521CD2B28277A068203281543A4612
:101340001CA1206904F0D4F9A168C87F401CC877AB
:10135000204601F0F4F80028204603D0BDE8F04113
:1013600001F00CB901F079FF00281FD0204602F0EF
:1013700021FF0546C078A978401A401EC1B2204618
:1013800001F07EF8204601F0F9F8E878A978401AD3
:10139000C1B2204601F0CCF9287800E006E0401EFA
:1013A000C1B22046BDE8F04101F0B6B9BDE8F08118
:1013B000257300002563000070B504004FF4D77555
:1013C00003D108A12846FFF783FD206918B905A1BC
:1013D0002846FFF77DFD2069BDE870400F4A10A147
:1013E00004F086B92E2E5C2E2E5C2E2E5C2E2E5CEA
:1013F0002E2E5C2E2E5C636F6D706F6E656E747337
:101400005C6C69627261726965735C636C695C6E65
:1014100072665F636C692E6300000000899E0000A5
:101420002573000070B504004FF4DD7503D108A1E9
:101430002846FFF74DFD206918B905A12846FFF79A
:1014400047FD2069BDE870400F4A10A104F050B973
:101450002E2E5C2E2E5C2E2E5C2E2E5C2E2E5C2EC6
:101460002E5C636F6D706F6E656E74735C6C696219
:101470007261726965735C636C695C6E72665F63EE
:101480006C692E6300000000839E0000257300003D
:1014900070B504004FF4DA7503D108A12846FFF7B0
:1014A00017FD206918B905A12846FFF711FD20692D
:1014B000BDE870400F4A10A104F01AB92E2E5C2E20
:1014C0002E5C2E2E5C2E2E5C2E2E5C2E2E5C636FE0
:1014D0006D706F6E656E74735C6C69627261726957
:1014E00065735C636C695C6E72665F636C692E63C6
:1014F00000000000809E0000257300002DE9F04FE1
:101500004FF0000995B005464F464C4600F0F2FEFC
:10151000284601F0E9FF284600F0BEFF284601F00A
:101520000EF810B9284601F029F8AA680C2301A981
:101530000EA8203202F0C2FC03460E9840B15BB107
:101540004CA20221284603F069FC15B0BDE8F08FDB
:10155000284601F013F8F8E74C484B490026A1EB68
:1015600000080DF1040A834613E008D348A0009058
:101570004CA202212846019B03F050FCE5E70BEB4F
:10158000C604606801685AF82900FEF7C0FF18B168
:10159000761CB6EBD80FE8D9207820B143A140F6ED
:1015A0007F10FFF795FC00200F90A96848608860C5
:1015B000C86008616168C86828B14AC9AA68C2E9F8
:1015C0000360C2E90113606809F101040026D0F844
:1015D00008800E98844235D25AF8240041A1FEF7C3
:1015E00096FF40B35AF824003FA1FEF790FF10B3D6
:1015F00010A832460090761C0FAB2146404600F002
:101600000BFEFEB10F98E8B101685AF82400FEF70E
:101610007EFF0028DDD10F98C16839B190E84810ED
:10162000AA682746C2E903C1C2E901360026641C44
:10163000D0F80880CDE7A868D0F8481141F0020141
:10164000C0F84811A868036933B10E980AEB870205
:10165000C11B2846984704E025A20221284603F032
:10166000DDFBA868D0F8481121F00201C0F848114C
:101670006BE700006E6F74207465726D696E617443
:1016800065643A2025630A000CAD0000CCAC000074
:101690003A20636F6D6D616E64206E6F7420666FAB
:1016A000756E6400257325730A0000002E2E5C2ED3
:1016B0002E5C2E2E5C2E2E5C2E2E5C2E2E5C636FEE
:1016C0006D706F6E656E74735C6C69627261726965
:1016D00065735C636C695C6E72665F636C692E63D4
:1016E000000000002D6800002D2D68656C70000062
:1016F000506C6561736520737065636966792061FC
:1017000020737562636F6D6D616E642E0A00000058
:101710008068D0F84801C0F3C00070472DE9F0415F
:101720000446C0688EB00D46406800263246006808
:1017300001A905F079F818B100200EB0BDE8F081DC
:101740006DB1019805F002F8A168D1F83801401C8C
:10175000C1F8380100F0070001287AD1012620469F
:1017600002F028FD05468078012804D9401EC1B248
:10177000204600F0DDFF2878012804D9401EC1B2C0
:10178000204600F0EFFE2046FFF716FE2EB132A2F3
:101790000221204603F042FB5BE04FF000080023EB
:1017A000082202A9019804F0E1FF04980590BDF811
:1017B0000C00ADF81800BDF80E00ADF81A008DF859
:1017C0001D800298082700F00300012802D002289B
:1017D00018D032E002983B46860AC0F3C2008DF86A
:1017E0001C00029808A9C0F38315AA00019804F010
:1017F000BDFF2069009005AB2A4608A9304604F0D9
:10180000FBFE1AE00298850DC0F3C2008DF81C00A3
:10181000082D01D22E4600E008263B46324608A994
:10182000019804F0A3FF3744AD1B05AA314608A870
:10183000236904F0C1FD002DEAD1019804F086FF70
:10184000E068002201A94068006804F0EDFF00286C
:10185000A5D0012071E700004C6F7374206C6F6796
:1018600073202D20696E637265617365206C6F67EC
:10187000206261636B656E642071756575652073A8
:10188000697A652E0A0000002DE9F0411E461746D0
:101890000D46040000D01DB909A1FD20FFF718FB7B
:1018A000606818B906A1FE20FFF712FB6068334696
:1018B0003A4601680C692946A446BDE8F0416047F4
:1018C0002E2E5C2E2E5C2E2E5C2E2E5C2E2E5C2E52
:1018D0002E5C636F6D706F6E656E74735C6C6962A5
:1018E0007261726965735C636C695C6E72665F637A
:1018F0006C692E63000000002DE9FC4100260446BF
:101900000127019601AB012269462046FFF7BCFF83
:101910000198002836D09DF800007F28F2D804F006
:1019200081FFA068417821B101296FD002296ED1D1
:101930008DE09DF800500D2D09D00A2D07D0D0F86C
:101940004821002161F38D12C0F8482122E0D0F82F
:101950004811C1F3871129B1D0F84811C1F387119B
:10196000A94217D1D0F8481165F38D11C0F848117C
:10197000A068817F41B12046FFF7C0FD02212046CB
:1019800000F0F4F8BDE8FC81C0F84461204600F0A6
:10199000F5FDF3E7092D1ED004DC002DB2D0082D93
:1019A00004D121E01B2D12D07F2D26D0FEF724FD7F
:1019B0000068405D10F03E0FA4D02046FFF7A8FE5F
:1019C00030B39DF800102046FFF756FC9AE7A16857
:1019D0000120487096E72046FFF79AFE002891D034
:1019E000204600F0DDF88DE72046FFF791FE002845
:1019F00088D02046FFF770FB84E72046FFF788FE7B
:101A00000028E3D02046FFF7C3FB7BE716E019E090
:101A1000A1689DF80020887F7F28D7D2C87F0B1847
:101A2000401CC87783F82020A068C17F084480F854
:101A30002060A168887F401C887763E79DF80010CC
:101A40005B2901D0002100E0022141705AE700210A
:101A500041702046FFF75CFE002893D09DF80000FF
:101A6000422840D01BDC33287CD012DC312872D0D5
:101A70003228ABD1A16803204870A068D0F8481183
:101A8000D0F8482127EA010161F30002C0F848219B
:101A900038E7342856D0412898D1012124E046283F
:101AA00053D01BDC432823D044288FD1204602F09A
:101AB00081FB05460078A979491C884202D1A978A2
:101AC000012987D001284FF0010120462FD000F0D6
:101AD00049FDA168C87F401EC87713E748283DD05C
:101AE0004C2889D1C9E70021204601F0E3FB09E732
:101AF000204602F05FFB054600786978884203D1F2
:101B0000A978EA78914298D0697988424FF001012A
:101B1000204606D100F0B4FC6979204600F022FD91
:101B200001E000F0F9FDA168C87F401CD4E700F097
:101B3000FFFD6979204600F0EFFDA068C17F491ED6
:101B4000C177DFE6A16803204870204600F0A4FCBE
:101B5000D8E607E0FFE7A16803204870204600F0C0
:101B6000C4FCCFE6A1680320487046E782680229DA
:101B700011700CD18268002182F820108268D17720
:101B80008268917702A20321036803F047B9704786
:101B900025730000002801D0FEF7B2BC704700009A
:101BA0002DE9F04F05460020A7B0074615900646E0
:101BB00020900690A868817FC1F17F01C9B25FEAD9
:101BC000010970D0C27F00F12001A030FEF766FC51
:101BD000A8680024C17F084480F8A040FEF70CFCF0
:101BE00021900168A8680C23C27F0244D27F895CDF
:101BF000C0F84441AA6801F0010A07A916A8A0325A
:101C000002F05CF90798FFF7C5FF00F0FF08A34654
:101C100017941894169818B15044401EB0426CD8CE
:101C2000BAF1000F01D0002005E007A850F8260007
:101C3000FFF7B0FFC0B28046002419A822460090EA
:101C4000641C17AB3146584600F0E6FA1798002896
:101C50006CD0016807A8424650F8260001F0ACFDA0
:101C60000028EAD018987F1CF0B117980068FFF799
:101C700091FF0699C0B2884200D90690B9F1000FD1
:101C80002ED022A8009018AB31465846159A00F085
:101C9000C3FA17980168189801EB08020168002040
:101CA00001EB080316E08DE0601E20901798006895
:101CB000FFF770FFC0B20690A0EB080048450FDAAE
:101CC000C0B20CE013F800C0614506D1401C10F012
:101CD000FF0010D0115C0029F4D1814500D9814664
:101CE000601E159017981890A7D266A20421284666
:101CF00003F094F81AE0FF20EFE7002419A8224629
:101D00000090641C17AB3146584600F085FAECB3DE
:101D10001798002856D0016807A850F82600FEF74B
:101D2000F6FB0028EAD11798D0F808B0BBF1000FF5
:101D300009D0179838B11699761CF6B201EB0A0053
:101D40008642FFF467AF002F3CD0012F43D0002123
:101D50002846069A06F0C2FC209C0DF11C0A19A820
:101D600022460090641C17AB3146584600F054FAE6
:101D70001798424601685AF8260001F01DFD40B14F
:101D800017987F1E069A0168284600E01DE006F0BD
:101D9000A5FC002FE3D146A2032128462B6803F0BF
:101DA0003DF8AB6843A208212846203303F036F8FB
:101DB000284600F07BFC18984A46016828464144B2
:101DC00000F0F2FA27B0BDE8F08F2EA204212846D9
:101DD00003F024F8F6E79BF8000038B119A800904A
:101DE00018AB31465846159A00F016FA1898006854
:101DF000FFF7D0FE404506D018984A4601682846AD
:101E0000414400F0D1FA2198A9680268C87F0B18F4
:101E100093F82030D25CD20715D0897F8842D1D286
:101E2000284602F0C7F98478A868C17F491CC177A9
:101E3000284602F0BFF98078A0421FD10121284630
:101E400000F06AFCBEE7D1F84801C00711D0D1F814
:101E5000480120F00100C1F8480120212846FFF781
:101E60000BFAA868D0F8481141F00101C0F84811F8
:101E7000A8E720212846FFF7FFF9A3E7284600F04E
:101E80007DFB9FE75461622066756E6374696F6EB7
:101E90003A20636F6D6D616E647320636F756E744D
:101EA0006572206F766572666C6F7765642E0A00C6
:101EB0000A2573002573000070B505460C0004D197
:101EC00007A140F60B20FFF703F8002D06D0A0680D
:101ED000D0F8481141F02001C0F8481170BD000051
:101EE0002E2E5C2E2E5C2E2E5C2E2E5C2E2E5C2E2C
:101EF0002E5C636F6D706F6E656E74735C6C69627F
:101F00007261726965735C636C695C6E72665F6353
:101F10006C692E630000000070B5044640680D46F1
:101F200090F8280030B1A0680068FEF7BDFE08B147
:101F300008280CD1012685B1606903F0CDFB6168EA
:101F400000220831606903F083FB08B1062070BDF0
:101F5000606880F82960002070BD606890F82800F3
:101F600048B9074A0021A068FEF7F8FD616800281B
:101F700081F82860F0D12046BDE8704006F0CEBD63
:101F8000998E000070B5044640680D460260606896
:101F900000224360606880F82820606880F829206B
:101FA000606820220830FEF779FA2C61074A29463A
:101FB000606903F04DFB050005D1E06805F034F8D9
:101FC000206905F031F8284670BD00000D9600002C
:101FD0002DE9F0411C0016460F46054603D106A127
:101FE000D220FEF775FF266022463946E868BDE834
:101FF000F04104F0D5BE00002E2E5C2E2E5C2E2E5D
:102000005C2E2E5C2E2E5C2E2E5C636F6D706F6EC0
:10201000656E74735C6C69627261726965735C632E
:102020006C695C756172745C6E72665F636C695F2B
:10203000756172742E63000010B50446406903F0A8
:102040004BFBA0680068BDE81040FEF72DBE000005
:102050002DE9FC411D0016460F46044603D11AA186
:10206000E620FEF735FF2E602A463946206904F047
:1020700001FF050025D16069234A0178515C19B13F
:10208000001D06F059FA02E00C3006F023F8C0B942
:10209000FF20009001236A4601A9206904F062FF35
:1020A00078B900980199C2B2606903F005FB054652
:1020B000606890F8290020B11DB92069009904F0EA
:1020C0003DFF2846BDE8FC812E2E5C2E2E5C2E2E78
:1020D0005C2E2E5C2E2E5C2E2E5C636F6D706F6EF0
:1020E000656E74735C6C69627261726965735C635E
:1020F0006C695C756172745C6E72665F636C695F5B
:10210000756172742E630000840000202DE9F8438D
:102110001F4614468846050002D0B8F1000F03D1CF
:102120001EA1CE20FEF7D4FE6868006818B91BA176
:10213000CF20FEF7CDFE002628E000BF686808EB40
:1021400006016B460268D2F80CC02246E04718B17F
:1021500012A1D920FEF7BCFE0098844203D20FA141
:10216000DA20FEF7B5FE00980644241A70B9A86874
:10217000017803290AD000BFD0F848118906FBD5A1
:10218000D0F8481121F02001C0F84811002CD5D119
:10219000002F01D000983860BDE8F8832E2E5C2E09
:1021A0002E5C2E2E5C2E2E5C2E2E5C2E2E5C636FF3
:1021B0006D706F6E656E74735C6C6962726172696A
:1021C00065735C636C695C6E72665F636C692E63D9
:1021D0000000000070B5084C050009D010342168DB
:1021E000002907D008682060496828468847F6E734
:1021F0000834F4E770BD000008080020054A0121FA
:1022000020B1012805D19170FFF7E4BF5170002083
:10221000FAE77047080800202DE9F05F1C000A9FCC
:1022200015468846064604D121A14FF48970FEF771
:102230004FFE27B91EA140F21310FEF749FE4FF0E2
:102240000009B8F1000F0BD01EB3307838B37268B4
:102250003946284690473868D8B12760BDE8F09FD6
:1022600021492248A1EB0008B5EBD80F14D2DFF8C2
:1022700080A00026834609E00BEBC607786801685A
:102280005AF82500FEF743F920B1761CB6EBD80FBB
:10229000F2D301E0786808E0C4F80090DEE77068E7
:1022A00000EB051001680029F6D02060D6E7000099
:1022B0002E2E5C2E2E5C2E2E5C2E2E5C2E2E5C2E58
:1022C0002E5C636F6D706F6E656E74735C6C6962AB
:1022D0007261726965735C636C695C6E72665F6380
:1022E0006C692E63000000000CAD0000CCAC000057
:1022F0008C0100202DE9F04185680646002495F800
:102300002000002811D0A046FEF776F807460068A6
:1023100004F1200104F10104695CE4B2415CC907E5
:1023200005D0002CF4D185F82080BDE8F081641E32
:1023300014F0FF040FD0A87F021B04F1200029181D
:1023400005F12000521CFEF7A9F8B168887F001B38
:102350008877B168C877B2683D68937FD0181F301E
:102360000446002102E0491CC9B2401E0778EF5D17
:10237000FF07F8D18442D8D05B1A203302F80380DB
:10238000B268907F401A9077B168C877CDE710B5F2
:10239000D0E90234D1E90220D11AA04101D30120B1
:1023A00010BD002010BD00002DE9F04115460F00C2
:1023B000044604D123A140F22D60FEF789FDA068F8
:1023C000817FC27F8B1A2944DEB27F2937D8002D46
:1023D00035D0104400F1200105F120021044721C98
:1023E000FEF75CF8A0682A46C17F084439462030D1
:1023F000FEF754F8A0682030FFF7CCFBA1681FA2BD
:102400008877A068C17F431808212046203302F056
:1024100005FDA068C17F2944C177204600F08FF8F0
:1024200018B9204600F019FF10B1204600F0A6F8B8
:10243000002E04D02046BDE8F04100F037B9BDE8D9
:10244000F08100002E2E5C2E2E5C2E2E5C2E2E5C3B
:102450002E2E5C2E2E5C636F6D706F6E656E7473C6
:102460005C6C69627261726965735C636C695C6EF5
:1024700072665F636C692E630000000025730000C4
:10248000002904D00A46006901A103F031B9704760
:102490001B5B25644200000070B5054601F08AFE12
:1024A000044600786178884203D1A078E1788842B8
:1024B0001AD0E178A078814204D9081AC1B228461E
:1024C000FFF7DEFF20786178884205D9401AC1B253
:1024D000284600F047F804E0081AC1B2284600F088
:1024E0001BF9A868817FC17770BD70B5054601F002
:1024F00061FE044601788079401C814202D1A078B7
:1025000001281BD0A078012804D9401EC1B228465A
:1025100000F00EF92078A179884206D9401A401EB1
:10252000C1B2284600F01EF805E0081A401CC1B2EE
:10253000284600F0F1F8A9680020C87770BD10B5F2
:1025400004460068FFF726FB0146A068C27F407E74
:102550001144B1FBF0F200FB121008B1002010BDD5
:10256000012010BD002904D00A46006901A103F032
:10257000BFB870471B5B256444000000006901A1DF
:1025800003F0B6B80A0000002DE9FC470026044617
:102590008DF8046080683546B146B0468021A03091
:1025A000FDF7A3FF4049206903F0A2F8206903F07A
:1025B000DFF800276B46012201A92046FFF764F9E6
:1025C0000098D8B19DF804001B2806D0A16891F8A6
:1025D000A0101B29EED152281FD0A26808F1A0013B
:1025E000505408F1010000F0FF08B8F1090F0AD9B2
:1025F000A168042081F8A090BDE8FC872A494FF625
:10260000C0101031884700980028D3D17F1CBFB27A
:10261000B7F57A7FCED30D20EEE7A16808F1A000D0
:102620004A4601F80090A16891F8A1005B2803D008
:1026300081F8A0200B20DFE702206FF02F0309E0D4
:1026400005EB850503EB4505401C3D44C0B2ADB22A
:10265000802808D200F1A007CF5D3B2FF0D1401CAD
:10266000C0B2802809D30C20C6E700BF06EB86065F
:1026700003EB46063E44B6B2F1E700F1A007CF5D9A
:10268000002FF3D1FA20FA2E01D9087500E00E755B
:10269000FA2D02D9A168887501E0A0688575A06847
:1026A00080F8A0200020A7E7A19E000070B5054695
:1026B00001F080FD04468078E178884201D101264E
:1026C00000E000262846FFF73AFF18B9284600F038
:1026D000C4FD10B12846FFF751FF1EB16078217884
:1026E000401A12E0E078A178401AC1B2284600F002
:1026F0001FF820786178884206D9401AC1B228466E
:10270000BDE8704000F008B8081AC1B22846BDE81C
:102710007040FFF727BF0000002904D00A46006977
:1027200001A102F0E5BF70471B5B25644300000078
:10273000002904D00A46006901A102F0D9BF704700
:102740001B5B25644100000010B50021024801F028
:10275000BAFD80F3100010BD1C0F00204FF4803232
:1027600002FA01F100F092BC00684FF4A86202EB9B
:102770008101405870474FF4A07202EB810189B289
:1027800000F0C4BC2DE9F041984617460E460500FE
:1027900003D113A17020FEF79BFB4FF4A07000EB58
:1027A000860081B228684FF48034B44027F07F4718
:1027B000C0F808432868C0F84843286804F05AFC69
:1027C000286800EB8600C0F840752868C0F84443CC
:1027D000B8F1000F02D02868C0F80443BDE8F081CA
:1027E0002E2E5C2E2E5C2E2E5C2E2E5C2E2E5C2E23
:1027F0002E5C636F6D706F6E656E74735C6C696276
:102800007261726965735C74696D65725C6472761D
:102810005F7274632E6300000068D0F8040570478F
:102820002DE9F04715460E46040003D139A12F20AB
:10283000FEF74EFB1EB937A13020FEF749FB1DB94C
:1028400034A13120FEF744FB60794049DFF8FC9069
:10285000DFF804A141F82050617909F1040909EB7E
:10286000C1003B4902793B48081AC7084AB1BAF887
:102870000200082402284AD3022000EB074037A1B7
:1028800043E03588D4F80080B5F5805F04D33CA1DF
:102890004FF4AB70FEF71CFBC8F80855B67894F9F6
:1028A0000450082E03D342A14520FEF711FB002D52
:1028B0004FEA461004DB05F1E02585F8000405E049
:1028C00005F00F0101F1E02181F8140D94F90400E5
:1028D0000121002809DB00F01F0201FA02F2400981
:1028E000800000F1E020C0F80021627909EBC2020B
:1028F0001171617949F83140BAF8020000240328C7
:1029000005D3032000EB074035A103F051FD20461D
:10291000BDE8F0872E2E5C2E2E5C2E2E5C2E2E5CBB
:102920002E2E5C2E2E5C636F6D706F6E656E7473F1
:102930005C6C69627261726965735C74696D657201
:102940005C6472765F7274632E630000DC000020AA
:10295000ACAD00002CAD0000EC010020525443202F
:10296000696E7374616E636520616C726561647910
:1029700020696E697469616C697A65642E00000073
:102980002E2E5C2E2E5C2E2E5C2E2E5C2E2E5C2E81
:102990002E5C6D6F64756C65735C6E7266785C68D6
:1029A000616C2F6E72665F7274632E6800000000A7
:1029B0002E2E5C2E2E5C2E2E5C2E2E5C2E2E5C2E51
:1029C0002E5C696E746567726174696F6E5C6E729D
:1029D00066785C6E7266785F676C75652E6800005D
:1029E0005254433A20696E697469616C697A65640E
:1029F0002E00000090F90400002809DB00F01F02FF
:102A0000012191404009800000F1E020C0F800124F
:102A100070470A46022100F04BBB4FF4827100F070
:102A200075BB000010B5040003D104A16120FEF7BE
:102A30004FFA20680121016010BD00002E2E5C2E8F
:102A40002E5C2E2E5C2E2E5C2E2E5C2E2E5C636F4A
:102A50006D706F6E656E74735C6C696272617269C1
:102A600065735C74696D65725C6472765F727463C1
:102A70002E63000010B5040003D104A16720FEF707
:102A800027FA20680121416010BD00002E2E5C2E27
:102A90002E5C2E2E5C2E2E5C2E2E5C2E2E5C636FFA
:102AA0006D706F6E656E74735C6C69627261726971
:102AB00065735C74696D65725C6472765F72746371
:102AC0002E6300002DE9F05F9B4615460C4606007C
:102AD00003D136A1A720FEF7FBF94FF4803000FAAE
:102AE00004F84FF4A07000EB84001FFA80FA25F080
:102AF0007F454146304600F0C9FA3068D0F8047589
:102B000000EB8401D1F84095C1F84075514630681A
:102B100004F0B0FAA9EB070020F07F40012806D1AD
:102B2000102004F067FC5146306804F0A3FA3068C6
:102B3000D0F80475C0F84483E91B21F07F42306867
:102B4000012A00EB840010D0C0F840553068D0F85E
:102B500004156FF07F476A1A521E22F07F42A7EBDE
:102B60000B03934217D362B118E06D1CC0F84055B7
:102B7000102004F03FFC3068D0F80405B8420AD1B8
:102B80000CE000EB84006D1CC0F840553068D0F8B4
:102B90000405884202D00D20BDE8F09F0122414685
:102BA000304600F085FA0020F6E700002E2E5C2E5D
:102BB0002E5C2E2E5C2E2E5C2E2E5C2E2E5C636FD9
:102BC0006D706F6E656E74735C6C69627261726950
:102BD00065735C74696D65725C6472765F72746350
:102BE0002E6300007CB515460E46040004D115A1E5
:102BF0004FF4D270FEF76CF9A06818B1606808B1A4
:102C0000206820B90FA140F2A510FEF761F9012E4E
:102C100005D0A068D0F84801C0F3400038B102B038
:102C20002046BDE870400022114602F055B969689F
:102C300008A0CDE900010DA2022120462B6802F078
:102C4000EDF87CBD2E2E5C2E2E5C2E2E5C6D616907
:102C50006E2E630020756E6B6E6F776E20706172E2
:102C6000616D657465723A200000000025733A2595
:102C70007325730A00000000F8B5050004D114A103
:102C80004FF49370FEF724F9A86818B1686808B18A
:102C9000286820B90EA140F22710FEF719F9FF208D
:102CA0008DF8000000244FF4A076A0B201226946FE
:102CB00000F0C2F928B10AA20221284602F0AEF8BB
:102CC000F8BD641CB442F0D30BA20821F5E7000064
:102CD0002E2E5C2E2E5C2E2E5C6D61696E2E630096
:102CE000636F6D6D756E69636174696F6E20657277
:102CF000726F720A000000006D656D6F7279206559
:102D000072617365640A000010B5040004D10DA15E
:102D100040F23F10FEF7DCF8A06818B1606808B117
:102D2000206820B907A14FF4A070FEF7D1F800F099
:102D30003FF903462046BDE8104006A2042102F0F8
:102D40006DB800002E2E5C2E2E5C2E2E5C6D6169FF
:102D50006E2E63006572726F7220776F72643A2014
:102D600025780A002DE9F04F87B0060004D12FA185
:102D700040F24D10FEF7ACF8B06818B1706808B1B9
:102D8000306820B929A14FF4A770FEF7A1F80024FC
:102D90004FF00109A24601AD01AFADF81840022382
:102DA00006AA50212548CDF8009002F049FC30B920
:102DB00022485021001D3A46102304F09FFC8DF854
:102DC00014A038B11EA20221304602F027F807B045
:102DD000BDE8F08F234624A20821304602F01EF8F9
:102DE0000027FDF709FB80464FF02E0BEB5D20A27C
:102DF0000821304602F012F8E95DD8F80000405C86
:102E000010F03E0F01D105F807B07F1CFFB2102F64
:102E1000ECD301AB18A20821304601F0FFFF1034BB
:102E2000A4B2B4F5A07FB7D3D1E700002E2E5C2E5C
:102E30002E5C2E2E5C6D61696E2E6300D09B0000AF
:102E4000454550524F4D207472616E736D697373B6
:102E5000696F6E206572726F722064657465637449
:102E600065642E0A00000000252E33783A20000009
:102E7000252E32782000000025730A00F8B50026C0
:102E800015460746022904D21EA00090136823A20B
:102E900012E006D923A00090136820A24FF004018D
:102EA0000BE06868FDF72CFB01464FF4A0708142EF
:102EB00007D900902B6826A20221384601F0AEFF08
:102EC000F8BD6868C82230440146002403E0521E61
:102ED00004F1010403D010F8013B002BF7D15CB1E1
:102EE0002246304600F0A8F848B127A2042138460F
:102EF000BDE8F84001F092BF29A20821F7E7301998
:102F000086B2DEE72062616420706172616D657473
:102F1000657220636F756E740A00000025733A2590
:102F2000730000002062616420706172616D6574DD
:102F3000657220636F756E74202D20706C656173EF
:102F400065207573652071756F7465730A000000E4
:102F5000746F6F206C6F6E6720737472696E673A5E
:102F6000206D6178696D756D20616C6C6F7765643B
:102F70002063686172616374657220636F756E743B
:102F8000203D2025640A0000636F6D6D756E6963D6
:102F90006174696F6E206572726F720A00000000C2
:102FA0004F4B0A00014800787047000000000020E5
:102FB00010B5034804F08EFC024A0021117010BDC8
:102FC000549B000000000020F0B5174885B0502643
:102FD00006701F2545701E2484704FF40041416027
:102FE0000020124AB3000F5C1754401C9842FAD3D9
:102FF0000D490020091F142248800D496846FDF73D
:103000004DFA0B48CDE902540A4A69460838009641
:1030100004F082FC040003D10548083804F0FEFBEC
:1030200005B02046F0BD000004000020640200202E
:103030005C9B00000D95000017B5B5B01446C82A7A
:1030400002D9092038B010BDBDF8D420C820B2FB89
:10305000F0F32244521EB2FBF0F0834201D0102064
:10306000F0E7BDF8D400ADF8040022460DF10600EB
:10307000FDF714FA0020A41C0090E3B201AA50212D
:10308000014802F0DDFADDE7D09B000070B50C4688
:10309000050003D105498D20FDF71AFF2868C0F807
:1030A00048432868C0F8084370BD0000D4300000D1
:1030B00070B516460C46050003D106A18320FDF726
:1030C00007FF2868C0F84443002E02D02868C0F8E3
:1030D000044370BD2E2E5C2E2E5C2E2E5C2E2E5C9C
:1030E0002E2E5C2E2E5C636F6D706F6E656E74732A
:1030F0005C6C69627261726965735C74696D65723A
:103100005C6472765F7274632E63000070B50C4667
:10311000050003D106A19420FDF7DAFE28680159C5
:1031200021B1214603F0A6FF012070BD002070BD33
:103130002E2E5C2E2E5C2E2E5C2E2E5C2E2E5C2EC9
:103140002E5C636F6D706F6E656E74735C6C69621C
:103150007261726965735C74696D65725C647276C4
:103160005F7274632E6300002DE9F05F17460E0056
:10317000814670D013B1F9B2FFF7CEFA0024FDF703
:103180003BF98246006800E0641C315D415CC90780
:10319000FAD100253046FEF7FDFCD9F80810001BD7
:1031A0004A7ED11B814228D306EB040805E000BF0C
:1031B00018F805100A290CD06D1C8542F8D3311976
:1031C000D9F8100002F094FA4846BDE8F05FFFF726
:1031D000D5B9D9F8100002F0CBFA414600232A46AF
:1031E0004846FEF793FF2C444846641CFFF7C6F997
:1031F000F9B24846FFF790FAE1E78B46DAF800109B
:1032000006EB040818F805000B5CDB0702D0AB46A0
:103210000A2804D0E819904201D26D1CF2E7D9F8CF
:10322000100002F0A5FA414600235A464846FEF730
:103230006DFF5C44DAF8000000E0641C315D415C25
:10324000C907FAD14846FFF799F9F9B24846FFF79E
:1032500063FA9EE7FFE7BDE8F09F10B504460068FB
:10326000FEF798FC0146A068827F407E1144B1FBC6
:10327000F0F200FB121008B1002010BD012010BDBB
:1032800010B50B48FFF7C8FA094A083AD2E90434E6
:10329000C018D2E9063244F10001C31A71EB0202F0
:1032A00004D24FF08072801841F1000110BD00007F
:1032B000A8000020FEB5002604460096019602965E
:1032C0008068E9B3D0E950128A4272D0D0F83C014C
:1032D00000286ED02046FFF708F9A068D0F84451C6
:1032E000002D69D0002309226946284603F03EFAE2
:1032F000A1689DF808500098C1F84401A068002317
:103300000922D0F84401694603F030FAA1689DF81B
:1033100008200923D1F844012031521C03F026FA79
:10332000A1689DF80800C877A1689DF80800887713
:103330009DF80800A84202D22046FEF73DF800E0C2
:103340000BE0A3682BA208212046203301F066FD84
:103350002046FFF7F4F868BB43E0D0F844010028AA
:1033600047D02046FFF7C1F8A06800230922D0F813
:103370004401694603F0FAF9A0680199C0F84411C4
:10338000A0680029857FB9D1A030FEF703FC002892
:10339000A06805D000F1A0012030FDF7C6F801E0DB
:1033A00080F82060A0682030FEF7F4FB8DF808005C
:1033B000B6E71EE01AE0FFE72030FEF7EBFB10F067
:1033C000FF05A068D0F83C11C0F84411A06805D0F2
:1033D00000F12001A030FDF7A8F88FE780F8A06089
:1033E0008CE72046FFF739FF002802D02046FFF780
:1033F000C5F8FEBD25730000FEB50D00044604D1DE
:103400001E4940F28450FDF763FDA1680026D1F803
:103410003C0138B300230922694603F0A7F901955E
:10342000A06800230922D0F83C01694603F0CCF9DA
:103430000196A068D0F83C110091807F8DF80800BB
:10344000A068C0F83C51002309226946284603F0D1
:10345000BBF9A168092328468A7F2031521C03F05A
:10346000B3F9FEBDC1F83C51A068C0F840510096C8
:103470000196A068807F8DF80800E4E7B88D000011
:10348000FEB504468068D0F84061002E28D00023A5
:1034900009226946304603F069F9A16801980025C0
:1034A000C1F84001009501952B4609226946304636
:1034B000029503F089F9304603F029F9A168D1F8A3
:1034C000400170B100230922694603F04FF90095CD
:1034D000A06800230922D0F84001694603F074F97E
:1034E000FEBDC1F83C51FEBDFEB5044680682030EB
:1034F000FEF750FB10F0FF05A0684FF00006C0F883
:10350000446133D0A068D0F83C01E0B10023092227
:10351000694603F02BF99DF80820AA4213D1A06850
:10352000092300F1A001D0F83C01521C03F01EF960
:10353000A06800F1A0012030FCF7E9FF0028A06896
:1035400080F8A06012D000260A352946606903F091
:10355000AEF80100204604D003B0BDE8F040FFF70C
:103560004BBFFFF78DFF761C082EEED3FEBD00008B
:103570002DE9FC5F0E008346DDE90C47C6F1000033
:1035800098469246814600D40846012503E000BFD4
:1035900090FBFAF06D1C5045FADAA84500D9454673
:1035A00024B1002E01DB780700D5641EB80702D5D0
:1035B000B8F1000F0AD0F80708D13CB1A54205D2F6
:1035C00020215846641EFDF755FDF6E7002E02DA6D
:1035D0004E462D2102E0780703D52B215846FDF7F2
:1035E00049FD07F0030002280BD1B8F1000F08D104
:1035F0003CB1A54205D230215846641EFDF73AFD84
:10360000F6E7CDE90047434652463146584606F0B4
:1036100001FABDE8FC9F000070B50E460546006843
:103620004FF48E7103F012FE4FF4A271286803F07C
:103630000DFE28681549C0F804132868082E40F3C9
:10364000073403D312A14520FDF742FC7007000E9A
:10365000002C04DB04F1E02484F8000405E004F00D
:103660000F0101F1E02181F8140D286840F30730C3
:10367000002809DB00F01F02012191404009800071
:1036800000F1E020C0F8001170BD000080000200D1
:103690002E2E5C2E2E5C2E2E5C2E2E5C2E2E5C2E64
:1036A0002E5C696E746567726174696F6E5C6E72B0
:1036B00066785C6E7266785F676C75652E68000070
:1036C00070B50E46044600684FF4887103F0CFFDD4
:1036D0004FF49071206803F0CAFD4FF49271206896
:1036E00003F0C5FD4FF4A271206803F0C0FD4FF454
:1036F000AC71206803F0BBFD20681549C0F80413C5
:103700002068082E40F3073503D312A14520FDF7AA
:10371000DFFB7007000E002D04DB05F1E02585F8C6
:10372000000405E005F00F0101F1E02181F8140D1E
:10373000206840F30730002809DB00F01F02012158
:1037400091404009800000F1E020C0F8001170BDF8
:10375000100342002E2E5C2E2E5C2E2E5C2E2E5C34
:103760002E2E5C2E2E5C696E746567726174696FB3
:103770006E5C6E7266785C6E7266785F676C75659B
:103780002E680000024600201268530713D502F08D
:103790000300012802D002280CD105E0C2F38310F7
:1037A0000B68801C184404E00223086803EB925263
:1037B000104408600120704710B5FCF7BFFE08B147
:1037C000002010BD012010BD0268134602E08A42AD
:1037D00004D01268002AFAD10B6001607047000023
:1037E000014B00F01BBF0000AD390000014B00F0A1
:1037F00015BF0000793B0000014B00F00FBF000037
:10380000813B0000014B00F009BF0000713C00004B
:103810007CB514460546012902D001F0C7FC38B139
:1038200002B02846BDE870400022114601F054BBAA
:10383000616805A0CDE9000109A20221284623689C
:1038400001F0ECFA7CBD000020756E6B6E6F776E38
:1038500020706172616D657465723A20000000002D
:1038600025733A257325730D0A0000002DE9FC41EC
:10387000074601F09BFC38B102B03846BDE8F04184
:103880000022114601F028BB1248134E801B050987
:1038900000241AE006EB0410C2681179FF2903D056
:1038A000527942B10DA207E083680EA20821384682
:1038B00001F0B4FA08E013A2CDE90021836814A254
:1038C0000821384601F0AAFA641CAC42E2D3BDE8F4
:1038D000FC8100002CAD00000CAD0000656E616243
:1038E0006C65640025730D0A092D2053746174758D
:1038F000733A2064656163746976617465640D0A66
:103900000D0A000064697361626C65640000000068
:1039100025730D0A092D205374617475733A20259F
:10392000730D0A092D2049443A2025640D0A0D0A19
:103930000000000010B5044601F038FC30B120460C
:103940000022BDE81040114601F0C6BA2046BDE88D
:10395000104002A2022101F061BA00004E6F7420F3
:10396000737570706F727465642E0D0A000000002C
:1039700010B5044601F01AFC30B120460022BDE823
:103980001040114601F0A8BA2046BDE8104002A23E
:10399000022101F043BA00004E6F742073757070FD
:1039A0006F727465642E0D0A000000002DE9FF4F50
:1039B000C86881B01D46007917004FF000060090DE
:1039C00057D0072245A12868FCF7B8FD78B1082236
:1039D00044A12868FCF7B2FD00282FD02B6843A231
:1039E000019805B00221BDE8F04F01F017BA012F90
:1039F00002D0022F08D008E0019805B041A2BDE82E
:103A0000F04F022101F00ABA0126DFF810810024EC
:103A10000A2258F824106868FCF790FD10B1641C65
:103A2000052CF5D3052C06D004F0FF090224002E46
:103A300051D0002419E03AA26B68D1E7012F4FF072
:103A40000009F6D0012446E04A462146009800F0DD
:103A500077FB48B90021204602F0ACFD034638A2AE
:103A60000221019801F0DAF9641C02F04DFDA04238
:103A7000EAD805B0BDE8F08F4FF0000A55F824B041
:103A800002F042FD8046002609E00021304602F0A7
:103A900091FD20225946FCF751FD58B1761C464550
:103AA000F3D3464508D04A465146009800F048FBFB
:103AB00030B10FE0B246F4E755F8243029A205E012
:103AC0000021504602F076FD03461DA20221019816
:103AD00001F0A4F9641CBC42CED3CAE7656E6162F2
:103AE0006C65000064697361626C6500556E6B6E95
:103AF0006F776E206F7074696F6E3A2025730D0AB0
:103B00000000000042616420706172616D6574653F
:103B10007220636F756E742E0D0A00001001002074
:103B2000556E6B6E6F776E2073657665726974790A
:103B3000206C6576656C3A2025730D0A0000000044
:103B40004C6576656C20756E617661696C61626C3E
:103B50006520666F72206D6F64756C653A20257301
:103B60000D0A0000556E6B6E6F776E206D6F647579
:103B70006C653A25730D0A00C968012048717047C9
:103B8000C96800204871704730B41346C4680A46BB
:103B9000214630BCFFF70ABFC0680121C0684171EF
:103BA0007047C0680021C0684171704730B4134647
:103BB000C4680A46214630BC00F05AB82DE9FF41DE
:103BC0000026274800F063FB2548001F074600F049
:103BD0005EFB244C2449A06800900D6800E000982A
:103BE0006946284004EB80000C30FFF7CBFD00282D
:103BF000F5D101AA009901EA050304EB8303491CEE
:103C0000DB6842F82030401C00910228F2D3019872
:103C100000F0030001281AD002280ED013494FF4F7
:103C2000AF70FDF755F9384600F02EFB08B100984B
:103C3000A06004B03046BDE8F0810198032101EB9B
:103C400090500099BDF80A6001EB900005E00198E2
:103C5000BDF80A60C0F3831008440090E3E7000059
:103C6000180F0020000B00200C010020B8A7000056
:103C70002DE9FE4F8846824602F046FC0746D8F8FA
:103C80000C00407920B922A20221504601F0C6F86A
:103C900024A327A20821504601F0C0F82CA2082135
:103CA000504601F0BBF800242DE000BFD8F80C000E
:103CB00001231A4605792146284602F02FFC814649
:103CC000002301222146284602F028FC054603284D
:103CD00001D2064600E003260121204602F06AFCDC
:103CE0000346AE4201D22AA200E028A2294850F899
:103CF000261050F829008DE8070027A20821504619
:103D000001F08CF8641CBC42D0D3BDE8FE8F0000EB
:103D10004C6F6773206172652068616C7465642103
:103D20000D0A00006D6F64756C655F6E616D6500F6
:103D3000252D343073207C2063757272656E74207B
:103D40007C206275696C742D696E200D0A0000007C
:103D50002D2D2D2D2D2D2D2D2D2D2D2D2D2D2D2D93
:103D60002D2D2D2D2D2D2D2D2D2D2D2D2D2D2D2D83
:103D70002D2D2D2D2D2D2D2D2D2D2D2D2D2D2D2D73
:103D80002D2D2D2D2D2D2D2D2D2D0D0A000000005A
:103D90002A00000010010020252D343073207C20E3
:103DA000252D3773207C20257325730D0A00000014
:103DB0008EB000250120FDF7B9F84FF480410020B6
:103DC00002F052FB08B1FCF7B7FEFFF7FDF808B1AF
:103DD000FCF7B2FE334B0DF1240C0FCB8CE80F0037
:103DE000304800231A4609A9103801F009FCE0B355
:103DF000FCF7A2FE01F096FB08B1FCF79DFE002047
:103E000001F0AEFBFCF7E4FE08B1FCF795FE254996
:103E10002022103101A8FCF741FB06200190082068
:103E2000029000208DF81800032000901D48012307
:103E30001A4601A9283801F0BFF908B1FCF77CFE49
:103E40001848283801F00EFB08B1FCF775FE17483A
:103E5000174A154E801AC0087188052202EB0044EB
:103E6000032908D32046134918E0FFE70D480C3812
:103E700003F054FBBEE702F061F90A48283801F06C
:103E80008BFAFFF78FF8A842F5D0FFF78BF8050003
:103E9000F1D070880328EED32046074902F088FA53
:103EA000E9E70000E09B000004020020DCAD000018
:103EB0002CAD000098A1000044A100002DE9FF4FA7
:103EC0004FF0000881B014468B468146C246C0F8C8
:103ED00000802578002D71D0FCF78EFA00900068E4
:103EE000405DC00702D004F801AB84E0D9F80000BF
:103EF0008300401CC9F800004BF8034015E0267809
:103F0000002E78D0B8F1000F05D1222E10D0272E28
:103F10000ED05C2E1ED0B04514D12046FDF73AFEDF
:103F20000246611C2046FCF7B9FA4FF00008E6E7AC
:103F30002046FDF72FFE0246611C2046FCF7AEFA34
:103F4000B046DCE7B8F1000F50D05C2E6AD1607843
:103F5000404508D12046FDF71DFE0246611C204663
:103F6000FCF79CFA5EE030281CD100270225605D3A
:103F7000A0F13001072906D86D1C41EAC701EDB256
:103F8000CFB2052DF3D3022D0CD92046FDF702FE4A
:103F9000421B61192046491E921CFCF77FFA04F867
:103FA000017BACE778281ED100270225605DA0F1D7
:103FB0003001092903D841EA07100DE021E0A0F102
:103FC0006101052901D8573804E0A0F14101052914
:103FD00007D8373840EA07106D1CEDB2C7B2042D80
:103FE000E4D3022DD1D8B8F1000F1BD1009800689E
:103FF000805DC00716D0D9F8001004988142FFF404
:1040000068AFD9F800000C2804D907A140F2045089
:10401000FCF75EFFD9F8002040464BF822A005B01F
:10402000BDE8F08F641C6AE72E2E5C2E2E5C2E2ECF
:104030005C2E2E5C2E2E5C2E2E5C636F6D706F6E70
:10404000656E74735C6C69627261726965735C63DE
:104050006C695C6E72665F636C692E6300000000C1
:104060002DE9F05F1E46DDF828B091468A4604002F
:1040700003D124A19020FCF72BFFB4F806806079CF
:1040800008FB00F8A8F10408464503D31DA19E20B3
:10409000FCF71EFFE788301DB0FBF7F1B0FBF7F22D
:1040A00007FB1200D9F80050AA19424501D9A8EB24
:1040B0000605C9F8005001E02468491E0029FBD11B
:1040C0003E1A8846AE4215D817E000BF2044001DB6
:1040D0000AEB0803BBF1000F324602D00146184636
:1040E00000E01946FCF7DAF900202468AD1BB04463
:1040F000AF4201D92E4600E03E46002DE6D1BDE894
:10410000F09F00002E2E5C2E2E5C2E2E5C2E2E5C40
:104110002E2E5C2E2E5C636F6D706F6E656E7473E9
:104120005C6C69627261726965735C6D656D6F620A
:104130006A5C6E72665F6D656D6F626A2E63000009
:1041400070B5144600230D4606461A4602F0E6F9FD
:10415000844201D9002070BD22462946304602F033
:1041600001FA012070BD000030B5024651B102F0E5
:10417000CBF90021074C08E034F821301568AB4238
:1041800002D11160002030BD491C8142F4D30520CA
:1041900030BD0000AC01002010B50C460021E160EC
:1041A00061600349A160012102F004FA206010BDA2
:1041B000509F000070B58468006804F11405FDF795
:1041C000E9FCC1B2A971E07F6A790844B0FBF2F35F
:1041D00002FB13035B1C2B70E07F0844B0FBF2F37F
:1041E0005B1CAB70A07F0844B0FBF2F35B1CEB7070
:1041F000A07F0844B0FBF2F102FB1101491C697079
:10420000284670BD10B531B1B2FBF3F403FB1424A2
:104210001CB1092010BD0E2010BD016000214160BD
:1042200081608281C381084610BD70B50C46054689
:10423000FBF7FAFF002802D021882868084470BDE7
:1042400010B50A8849888A4203D1FCF72FF801206B
:1042500010BD002010BD70B50C460546FCF709F8EE
:10426000002802D061882868084470BD10B50A880B
:1042700049888A4203D1FBF7F3FF012010BD0020DB
:1042800010BD002100F00FB8002100F012B801218C
:1042900000F01EB8012100F011B808B56A46FCF71D
:1042A0005AF8009808BD08B56A46FCF73AF8009835
:1042B00008BD08B56A46FCF734F808BD08B56A467B
:1042C000FCF722F808BD08B56A46FCF711F808BDEE
:1042D00008B56A46FCF718F8009808BD08B56A46A4
:1042E000FCF746F8009808BD70B5040003D113A18F
:1042F000FE20FCF7EDFD00252846FCF705FD2068B3
:1043000062680168914214D9491E01600D781CB998
:1043100019A1C220FCF7DCFD208BE16805FB00152C
:104320002068217A0278891A0279C9B28A4200D2B9
:1043300001710020FCF716FD284670BD2E2E5C2E64
:104340002E5C2E2E5C2E2E5C2E2E5C2E2E5C636F31
:104350006D706F6E656E74735C6C696272617269A8
:1043600065735C62616C6C6F635C6E72665F6261E8
:104370006C6C6F632E6300002E2E5C2E2E5C2E2E36
:104380005C2E2E5C2E2E5C2E2E5C636F6D706F6E1D
:10439000656E74735C6C69627261726965735C628C
:1043A000616C6C6F635C6E72665F62616C6C6F6394
:1043B0002E63000070B50C46050004D110A140F238
:1043C0002110FCF785FD24B90DA14FF49170FCF785
:1043D0007FFD0020FCF798FC1DB91849CF20FCF7A1
:1043E00077FDE8682A68211A288BB1FBF0F1106884
:1043F000431C13600170BDE870400020FCF7B2BCA4
:104400002E2E5C2E2E5C2E2E5C2E2E5C2E2E5C2EE6
:104410002E5C636F6D706F6E656E74735C6C696239
:104420007261726965735C62616C6C6F635C6E7201
:10443000665F62616C6C6F632E63000078430000FE
:1044400010B5040002D0206830B901E00E2010BD84
:1044500017A1D920FCF73CFD606818B914A1DA2037
:10446000FCF736FDA06818B911A1DB20FCF730FD80
:10447000E06818B90EA1DC20FCF72AFD208B18B9E2
:104480000BA1DD20FCF724FD207A61682268401A28
:10449000C0B2116004E0226811684B1C1360087000
:1044A000401EC0B2F7D221680020087110BD000084
:1044B0002E2E5C2E2E5C2E2E5C2E2E5C2E2E5C2E36
:1044C0002E5C636F6D706F6E656E74735C6C696289
:1044D0007261726965735C62616C6C6F635C6E7251
:1044E000665F62616C6C6F632E6300002DE9F04FB4
:1044F0008146806889B0D0F84801C0F3400038B1E7
:1045000009B04846BDE8F04F0022114600F0E4BC77
:10451000012907D909B04846BDE8F04F24A202217D
:1045200000F07CBC27492848081A1C21B0FBF1F890
:10453000002538E02448C5EBC50110EB81044FF09D
:10454000000AB4F818B0D4E90101A1EB000604D1C7
:104550001EA140F21F10FCF7BBFC2068077924B9AC
:104560001AA140F22F10FCF7B3FC2068217A0078E2
:10457000081AC0B2642117FB01F1B1FBF6F2642105
:1045800010FB01F1B1FBF6F16369CDE90210CDE951
:104590000462CDE90676CDE900BA1B4A08214846F7
:1045A00000F03CFC6D1C4545C4D309B0BDE8F08F5C
:1045B00042616420617267756D656E7420636F750A
:1045C0006E7400001CAE0000E4AD00002E2E5C2EC8
:1045D0002E5C2E2E5C2E2E5C2E2E5C2E2E5C636F9F
:1045E0006D706F6E656E74735C6C69627261726916
:1045F00065735C62616C6C6F635C6E72665F626156
:104600006C6C6F632E680000D0A30000C20800F03D
:1046100007030120895C9840084070472DE9FF5F3F
:104620008B46164814499A46091A0F09914652F8C2
:10463000046C0025804607E008EB05143046A168AD
:10464000FBF765FF18B16D1CBD42F5D30BE02100EF
:1046500009D0009804B04B465A46D446BDE8F04F06
:104660005DF804EB6047009804B03346BDE8F05FA6
:1046700003A2022100F0D2BB2CAD00000CAD000063
:10468000496E76616C6964206261636B656E643A41
:104690002025730D0A00000070B515468268D2F817
:1046A0004841C4F3400424B11A46294600F014FCE2
:1046B00005E031B1536804A2022100F0AFFB0120F4
:1046C00070BD002070BD000025733A2077726F6EB8
:1046D0006720706172616D6574657220636F756EBD
:1046E000740A000070B50D46040004D122A140F602
:1046F0003950FCF7EDFBA06818B1606808B120687C
:1047000020B91DA140F63A50FCF7E2FB022D0CD176
:10471000A068D0F84801C0F3400030B12046BDE8A1
:1047200070400022114600F0D7BB40F642551CB93C
:1047300011A12846FCF7CCFB206918B90EA1284628
:10474000FCF7C6FB1A4A1BA1206900F0D1FF40F616
:1047500043551CB908A12846FCF7BAFB206918B9D3
:1047600005A12846FCF7B4FB2069BDE87040104A5B
:1047700010A1093200F0BCBF2E2E5C2E2E5C2E2E16
:104780005C2E2E5C2E2E5C2E2E5C636F6D706F6E19
:10479000656E74735C6C69627261726965735C6387
:1047A0006C695C6E72665F636C692E63000000006A
:1047B0009D9E00002573000070B50D46040004D1D5
:1047C00013A140F64850FCF783FBA06818B160685D
:1047D00008B1206820B90EA140F64950FCF778FBDB
:1047E000012D07D0022D0CD1A068D0F84801C0F3EC
:1047F000400030B12046BDE870400022114600F074
:104800006BBB2046BDE870400FA2022100F006BB42
:104810002E2E5C2E2E5C2E2E5C2E2E5C2E2E5C2ED2
:104820002E5C636F6D706F6E656E74735C6C696225
:104830007261726965735C636C695C6E72665F63FA
:104840006C692E6300000000506C65617365207315
:10485000706563696679206120737562636F6D6D41
:10486000616E642E0A0000001CB5012905D00229E2
:104870000BD014D94FF0010112E002B04FF000024A
:10488000BDE81040114600F027BB536808A1CDE9F0
:10489000001313680CA2022100F0C0FA1CBD002115
:1048A00002B00023BDE810401A46FFF7F5BE000035
:1048B00020756E6B6E6F776E20706172616D6574BE
:1048C00065723A200000000025733A257325730AAB
:1048D0000000000010B50446012901D0012100E0CC
:1048E000002100231A46FFF7D7FE002809D1A1684E
:1048F000C1F83801E06840680068BDE8104002F087
:104900008DB810BD3EB50546012901D0012100E05A
:10491000002100231A46FFF7BFFE002818D1E868DF
:1049200040680468204602F04FF8C0B2642110FBD2
:1049300001F2A168B2FBF1F2D2B20092CDE901011D
:10494000A86804A20021D0F83831284600F066FAA1
:104950003EBD00004C6F7374206C6F67733A202566
:10496000750A4D6178206C6F6720717565756520DB
:104970007574696C697A6174696F6E3A2025752562
:1049800025205B25752F25755D0A00007CB5154631
:104990000E46040004D118A140F66950FCF798FABD
:1049A000A06818B1606808B1206820B912A140F66B
:1049B0006A50FCF78DFA012E03D0022E09D0012196
:1049C00008E002B02046BDE870400022114600F029
:1049D00083BA002100231A462046FFF75DFE002817
:1049E00009D1696812A0CDE9000117A20221204671
:1049F0002B6800F013FA7CBD2E2E5C2E2E5C2E2E22
:104A00005C2E2E5C2E2E5C2E2E5C636F6D706F6E96
:104A1000656E74735C6C69627261726965735C6304
:104A20006C695C6E72665F636C692E6300000000E7
:104A300020756E6B6E6F776E20706172616D65743C
:104A400065723A200000000025733A257325730A29
:104A50000000000010B50446012901D0012100E04A
:104A6000002100231A46FFF717FE002806D1A06890
:104A7000D0F8481121F00401C0F8481110BD10B55C
:104A80000446012901D0012100E0002100231A463B
:104A9000FFF702FE002806D1A068D0F8481141F0C7
:104AA0000401C0F8481110BD7CB514460D460646F9
:104AB000022901D9012100E0002100231A46FFF755
:104AC000EBFD002811D1022D05D03046FCF720FE69
:104AD00060B10BA30BE061680AA0CDE900010FA251
:104AE00002213046236800F099F97CBD0EA302B084
:104AF0003046BDE870400DA2002100F08FB90000E3
:104B00006F6E000020756E6B6E6F776E2070617235
:104B1000616D657465723A200000000025733A25C6
:104B20007325730A000000006F6666004563686FB6
:104B3000207374617475733A2025730A00000000B5
:104B400010B50446012901D0012100E00021002315
:104B50001A46FFF7A1FD002806D1A068D0F8481139
:104B600021F00801C0F8481110BD10B50446012914
:104B700001D0012100E0002100231A46FFF78CFD3F
:104B8000002806D1A068D0F8481141F00801C0F80B
:104B9000481110BD7FB50D46040004D122A140F696
:104BA000A150FCF795F9A06818B1606808B12068B9
:104BB00020B91DA140F6A250FCF78AF9012D01D0C1
:104BC000012100E0002100231A462046FFF764FD82
:104BD000002827D1A0680026D0F84051F5B101E0A7
:104BE000082E1BD20023092201A9284601F0BEFD90
:104BF0009DF80C20A16809232846A031521C01F021
:104C0000B5FDA0683346A0300090029D761C14A22A
:104C10000021204600F002F9002DE1D1A16800201A
:104C200081F8A0007FBD00002E2E5C2E2E5C2E2E63
:104C30005C2E2E5C2E2E5C2E2E5C636F6D706F6E64
:104C4000656E74735C6C69627261726965735C63D2
:104C50006C695C6E72665F636C692E6300000000B5
:104C60005B2533645D2025730A0000007CB5154682
:104C70000E46040004D120A140F60260FCF728F99A
:104C8000A06818B1606808B1206820B91AA140F680
:104C90000360FCF71DF9012E03D0022E18D9012163
:104CA00017E0A168204601F11802193104F046F816
:104CB00000281FD0A16850201DA24876A1681820A6
:104CC000087602B02046BDE87040042100F0A6B886
:104CD000002100231A462046FFF7DEFC002809D1F8
:104CE000696822A0CDE9000126A2022120462B6896
:104CF00000F094F87CBD00002E2E5C2E2E5C2E2E33
:104D00005C2E2E5C2E2E5C2E2E5C636F6D706F6E93
:104D1000656E74735C6C69627261726965735C6301
:104D20006C695C6E72665F636C692E6300000000E4
:104D30004E6F20726573706F6E73652066726F6D53
:104D400020746865207465726D696E616C2C2061D9
:104D50007373756D656420383078323420736372F4
:104D600065656E2073697A650A00000020756E6BB8
:104D70006E6F776E20706172616D657465723A2036
:104D80000000000025733A257325730A0000000017
:104D900070B50446012901D0012100E00021002363
:104DA0001A46FFF779FC002817D140F6FB551CB9CD
:104DB0000AA12846FCF78CF8206918B907A12846F3
:104DC000FCF786F8134A14A1206900F091FCA16851
:104DD00050204876A1681820087670BD2E2E5C2ED3
:104DE0002E5C2E2E5C2E2E5C2E2E5C2E2E5C636F87
:104DF0006D706F6E656E74735C6C696272617269FE
:104E000065735C636C695C6E72665F636C692E636C
:104E100000000000B69E0000257300000FB4F8B536
:104E2000044608980E4620B91DA140F63B30FCF719
:104E30004FF824B91AA140F63C30FCF749F8A068B5
:104E400018B1606808B1206820B915A140F63D305E
:104E5000FCF73EF809A80090A068D0F8481149076F
:104E600018D5C17EB14215D0B0F81B50314620464E
:104E700004F048FE6A462069089900F0A5FCE9B2F2
:104E8000204604F03FFE290A204604F01DFEF8BC2F
:104E90005DF814FB6A462069089900F095FCF6E776
:104EA0002E2E5C2E2E5C2E2E5C2E2E5C2E2E5C2E3C
:104EB0002E5C636F6D706F6E656E74735C6C69628F
:104EC0007261726965735C636C695C6E72665F6364
:104ED0006C692E63000000002DE9F04F89B0904608
:104EE0000D46040004D18EA140F6BC30FBF7F0FF64
:104EF000A06818B1606808B1206820B988A140F6A0
:104F0000BD30FBF7E5FF9448FCF744FE06469248A7
:104F10003638FCF73FFE301A1FFA80F98E488FA210
:104F200023380090A068082143682046FFF776FFE9
:104F3000A0684068FCF72EFE064687482338FCF739
:104F400029FE304482B2A068002381682046FEF723
:104F50000BF984A200212046FFF760FFB8F1000F93
:104F600021D005B300261CE006EB460A05EB8A0BB0
:104F7000DBF80400FCF70EFE074655F82A00FCF7A4
:104F800009FE391849450BD9DBF80400FCF702FE8D
:104F9000074655F82A00FCF7FDFD38441FFA80F952
:104FA000761C4645E0D36C483638FCF7F3FD4844A0
:104FB000801C1FFA80F9684800904B466CA20821BB
:104FC0002046FFF72BFF09F1030087B2079000236B
:104FD0003A4669A12046FEF7C7F8002D51D00026B9
:104FE0004DE000BF06EB460A05EB8A0B55F82A0098
:104FF000DBF8043063B348B3574964A23639CDE9CE
:10500000001008212046FFF709FF09F10200009077
:10501000DBF80400FCF7BEFD074655F82A00FCF754
:10502000B9FD07444C483638FCF7B4FD39180098F0
:10503000401A801EC1B22046FDF76EFB3A22564947
:10504000206900F055FB0098401C0AE0009301E045
:1050500040B100904B4646A208212046FFF7DEFEF5
:10506000079887B2DBF8081029B100233A4620469A
:10507000FEF77AF802E02046FDF780FA761C4645F6
:10508000B0D3A068C068002847D0814600200646FB
:10509000054603AF02902A466D1C02AB012148462B
:1050A0000097FDF7B9F8029850B10068FCF772FD5F
:1050B000B042F0D902980068FCF76CFD86B2EAE7CE
:1050C000012D2AD035A200212046FFF7A7FE00259A
:1050D000B8462A466D1C02AB01214846CDF8008037
:1050E000FDF79AF80298002817D0B11C8FB200681B
:1050F00000903B461EA208212046FFF78FFE029833
:10510000FF1CBAB2416821B100232046FEF72CF8FB
:10511000DFE72046FDF732FADBE709B0BDE8F08FA4
:105120002E2E5C2E2E5C2E2E5C2E2E5C2E2E5C2EB9
:105130002E5C636F6D706F6E656E74735C6C69620C
:105140007261726965735C636C695C6E72665F63E1
:105150006C692E6300000000BC9E0000257325735F
:10516000000000004F7074696F6E733A0A0000000F
:105170002020252D2A733A0053686F7720636F6DC6
:105180006D616E642068656C702E000020202573B0
:105190002573257300000000B4130000537562638B
:1051A0006F6D6D616E64733A0A0000008068D0F81C
:1051B0004801C0F3400070472DE9F0411E46DDF87C
:1051C000188015460F46040004D10EA140F67E203B
:1051D000FBF77EFE2A463946204600F02FF80500F0
:1051E0000DD166B14146E06800F084FE002802DA85
:1051F0000420BDE8F081E0680121C06841712846C3
:10520000F7E700002E2E5C2E2E5C2E2E5C2E2E5CE0
:105210002E2E5C2E2E5C636F6D706F6E656E7473D8
:105220005C6C69627261726965735C636C695C6E07
:1052300072665F636C692E63000000002DE9F04721
:1052400015460E46040004D13EA140F62120FBF78E
:105250003FFEA06818B1606808B1206820B939A184
:1052600040F62220FBF734FEE0682346434A4068BC
:105270008460606801680F683146B84700285ED1D5
:10528000606920B92FA140F63120FBF721FE60694B
:1052900001F05AFA002852D1A168C1F83C01A16876
:1052A000C1F840014FF4A671A068FBF71EF9A06891
:1052B000D0F8481141F02001C0F84811A068D0F89A
:1052C000481165F38201C0F84811A068D0F8481170
:1052D00041F00801C0F84811A1680120284F08706A
:1052E000A168502040F64D294876A1681820002476
:1052F00008762448244940F64E2A0D1A804612E0CA
:1053000018EBC40603D10FA14846FBF7E1FD706816
:10531000006818B90BA15046FBF7DAFD7068006809
:1053200047F82400641CB4EBD50FE9D3072D05D949
:10533000E908164B04223846FBF762F80020BDE866
:10534000F08700002E2E5C2E2E5C2E2E5C2E2E5C06
:105350002E2E5C2E2E5C636F6D706F6E656E747397
:105360005C6C69627261726965735C636C695C6EC6
:1053700072665F636C692E6300000000B91E000056
:105380008C010020CCAC00000CAD0000D98C0000DA
:105390000023FCF7BBBE000010B5040004D122A11D
:1053A00040F60530FBF794FDA06818B1606808B1BD
:1053B000206820B91CA140F60630FBF789FDA068E3
:1053C000102100F5A470FEF783FFA0680078F8B103
:1053D00001281DD002281BD12046FCF78DFA0021A0
:1053E0002046FCF79BF998B11DA2032120462368B3
:1053F000FFF714FD2046FCF78BF948B1A36818A20B
:10540000082120462033FFF709FD2046FDF74EF91D
:10541000206900F0ADF9A068BDE810406FF0100100
:1054200000F5A470FEF73FBF2E2E5C2E2E5C2E2EB4
:105430005C2E2E5C2E2E5C2E2E5C636F6D706F6E5C
:10544000656E74735C6C69627261726965735C63CA
:105450006C695C6E72665F636C692E6300000000AD
:105460002573000070B5040004D117A140F6D420C4
:10547000FBF72EFDA06818B1606808B1206820B95C
:1054800011A140F6D520FBF723FDA0680078012884
:1054900001D0082070BD606801688A6800219047CB
:1054A00005000FD10821204604F02CFB01212046E5
:1054B00004F00AFB12A1206900F01AF9022120462B
:1054C000FCF754FB284670BD2E2E5C2E2E5C2E2E33
:1054D0005C2E2E5C2E2E5C2E2E5C636F6D706F6EBC
:1054E000656E74735C6C69627261726965735C632A
:1054F0006C695C6E72665F636C692E63000000000D
:105500000A0A000000F180400068002800D0012055
:10551000704708B500F180400021016000680090EC
:1055200008BD000070B50C4C0125207808B1852617
:105530000BE00020A06060602061E060074801F09F
:10554000D3FE064601F0A2FE257001F097FE00B1E1
:10555000A570304670BD000008080020FD21000045
:1055600070B5174C0546207818B916A1D020FBF766
:10557000AFFCA07838B115B16968012088470020D8
:10558000FBF7C2FB0CE00020FBF7BEFB25B10C488B
:1055900029461030FEF718F9E06808B901F0D6FE88
:1055A000E068401CE0600020FBF7DCFBE0680028BE
:1055B00005D1BDE8704003A1EC20FBF789BC70BDAC
:1055C000080800202E2E5C2E2E5C2E2E5C2E2E5CCB
:1055D0002E2E5C2E2E5C696E746567726174696F25
:1055E0006E5C6E7266785C6C65676163795C6E7226
:1055F000665F6472765F636C6F636B2E630000009E
:105600002DE9F041064604780B4815460F4640F850
:105610002420083040F82430487B10B1084603F0BD
:10562000A3FC0DB1054A00E0002223463946301D97
:10563000BDE8F04101F0A8BF740000200D9000000B
:1056400038B5001D049C009402F070F838BD0000CD
:10565000F0B505460478154889B0164640F8242070
:10566000124A0869121DA2F1080742F82400487F77
:10567000385520226846FAF711FF04942878385CE0
:1056800048B10EB10A4A00E000226946281D02F026
:1056900099FD09B0F0BD0EB1064A00E0002269464E
:1056A00005F10C0002F086FBF3E700008800002003
:1056B000D19800001997000030B40378054CE35CE2
:1056C0001BB130BC001D02F0A7BE30BC0C3002F094
:1056D0007FBC0000840000200178044A515C11B1B5
:1056E000001D02F037BF0C3002F004BD8400002022
:1056F0000FB438B5040003D110A11C20FBF7E8FB60
:10570000606918B90DA11D20FBF7E2FB206818B9EC
:105710000AA11E20FBF7DCFB606818B907A11F2057
:10572000FBF7D6FB0599002905D006A800906A462C
:10573000204600F049F838BC5DF814FB2E2E5C2E94
:105740002E5C2E2E5C2E2E5C2E2E5C2E2E5C657812
:105750007465726E616C5C667072696E74665C6EA4
:1057600072665F667072696E74662E630000000078
:1057700010B5040003D107A10B20FBF7A9FBA26819
:10578000002A05D0D4E90403216898470020A060CE
:1057900010BD00002E2E5C2E2E5C2E2E5C2E2E5C5C
:1057A0002E2E5C2E2E5C65787465726E616C5C6664
:1057B0007072696E74665C6E72665F667072696E36
:1057C00074662E63000000002DE9FC4791460C46EC
:1057D0005FEA000804D183A140F25220FBF778FB76
:1057E000D8F8140020B97FA14FF41570FBF770FBB7
:1057F000D8F8000020B97BA140F25520FBF768FBE8
:10580000D8F8040020B977A140F25620FBF760FBDE
:10581000002C76D014F8011B39B125290ED0404652
:10582000FBF728FC20780028F4D198F80C00002819
:1058300067D04046BDE8FC47FFF79ABF0020012231
:1058400021782B291BD02D2902D0302908D102E044
:1058500040F0010001E040F00200641C002AEFD19A
:1058600000252A290ED02178A1F130020A2A11D26E
:1058700005EB850201EB4205641C303DF1E740F089
:105880000400EAE7D9F800100B1DC9F800300968D8
:10589000641C0D44217800232E290BD114F8011F1C
:1058A000A1F130020A2A05D203EB830201EB420385
:1058B000303BF3E76C290DD068290BD0692921D042
:1058C0000BDC252918D0582931D063290ED0642942
:1058D00015D117E014F8011FECE7702969D073297E
:1058E00032D075291BD0782909D120E0D9F80000E1
:1058F000011DC9F8001001784046FBF7BBFB641C92
:1059000090E76CE0D9F800100A1DC9F8002009687A
:10591000CDE900500A224046FDF72AFEEFE7D9F80C
:1059200000100A1DC9F8002009680A2206E0D9F80B
:1059300000100A1DC9F8002009681022CDE90050A6
:10594000404604F067F8DAE7D9F8001000270A1D8E
:10595000C9F800200E68C00705D112E04046761C49
:105960007F1CFBF787FB31780029F7D104E0202169
:1059700040466D1EFBF77EFBBD42C0D9002DF6D11F
:10598000BDE74EB13046FAF7BBFD074604E02021E3
:1059900040466D1EFBF76EFBBD4206D9002DF6D1C9
:1059A00003E04046761CFBF765FB31780029F8D10F
:1059B000A5E7D9F80000011DC9F8001005683021DD
:1059C0004046FBF757FB78214046FBF753FB082086
:1059D0000021CDE90001034610222946B0E7BDE8C9
:1059E000FC8700002E2E5C2E2E5C2E2E5C2E2E5C54
:1059F0002E2E5C2E2E5C65787465726E616C5C6612
:105A00007072696E74665C6E72665F667072696EE3
:105A100074665F666F726D61742E63002DE9FF41DD
:105A20001C46DDE90A7815460E46684600F032F954
:105A300046EA450141EA840141EA072242EA084177
:105A4000009A00EB8200C0F80017BDE8FF8100005B
:105A50002DE9F0470F46DDE90889044641091D4656
:105A600016464FF0000000D1401E04F01F02012135
:105A70009140014204D10AA14FF4E370FBF728FAE8
:105A800047EA46014FF0A04041EA850242EA082277
:105A900000EB840042EA0941C0F80017BDE8F08736
:105AA0002E2E5C2E2E5C2E2E5C2E2E5C2E2E5C2E30
:105AB0002E5C6D6F64756C65735C6E7266785C6885
:105AC000616C2F6E72665F6770696F2E68000000F0
:105AD0002DE9F0470F46DDE90889044641091D46D6
