:020000040000FA
:10C000003DB8F396000000000002000071400100FE
:10C010000000000000000000000000000000000020
:10C02000FFFFFFFFFFFFFFFFFFFFFFFFFFFFFFFF20
:10C03000FFFFFFFFFFFFFFFFFFFFFFFFFFFFFFFF10
:10C04000FFFFFFFFFFFFFFFFFFFFFFFFFFFFFFFF00
:10C05000FFFFFFFFFFFFFFFFFFFFFFFFFFFFFFFFF0
:10C06000FFFFFFFFFFFFFFFFFFFFFFFFFFFFFFFFE0
:10C07000FFFFFFFFFFFFFFFFFFFFFFFFFFFFFFFFD0
:10C08000FFFFFFFFFFFFFFFFFFFFFFFFFFFFFFFFC0
:10C09000FFFFFFFFFFFFFFFFFFFFFFFFFFFFFFFFB0
:10C0A000FFFFFFFFFFFFFFFFFFFFFFFFFFFFFFFFA0
:10C0B000FFFFFFFFFFFFFFFFFFFFFFFFFFFFFFFF90
:10C0C000FFFFFFFFFFFFFFFFFFFFFFFFFFFFFFFF80
:10C0D000FFFFFFFFFFFFFFFFFFFFFFFFFFFFFFFF70
:10C0E000FFFFFFFFFFFFFFFFFFFFFFFFFFFFFFFF60
:10C0F000FFFFFFFFFFFFFFFFFFFFFFFFFFFFFFFF50
:10C10000FFFFFFFFFFFFFFFFFFFFFFFFFFFFFFFF3F
:10C11000FFFFFFFFFFFFFFFFFFFFFFFFFFFFFFFF2F
:10C12000FFFFFFFFFFFFFFFFFFFFFFFFFFFFFFFF1F
:10C13000FFFFFFFFFFFFFFFFFFFFFFFFFFFFFFFF0F
:10C14000FFFFFFFFFFFFFFFFFFFFFFFFFFFFFFFFFF
:10C15000FFFFFFFFFFFFFFFFFFFFFFFFFFFFFFFFEF
:10C16000FFFFFFFFFFFFFFFFFFFFFFFFFFFFFFFFDF
:10C17000FFFFFFFFFFFFFFFFFFFFFFFFFFFFFFFFCF
:10C18000FFFFFFFFFFFFFFFFFFFFFFFFFFFFFFFFBF
:10C19000FFFFFFFFFFFFFFFFFFFFFFFFFFFFFFFFAF
:10C1A000FFFFFFFFFFFFFFFFFFFFFFFFFFFFFFFF9F
:10C1B000FFFFFFFFFFFFFFFFFFFFFFFFFFFFFFFF8F
:10C1C000FFFFFFFFFFFFFFFFFFFFFFFFFFFFFFFF7F
:10C1D000FFFFFFFFFFFFFFFFFFFFFFFFFFFFFFFF6F
:10C1E000FFFFFFFFFFFFFFFFFFFFFFFFFFFFFFFF5F
:10C1F000FFFFFFFFFFFFFFFFFFFFFFFFFFFFFFFF4F
:10C20000487B002039F800008F97010099F8000062
:10C2100099F8000099F8000099F8000099F80000DA
:10C22000000000000000000000000000C5F5000054
:10C2300099F80000000000006DF50000E9F0000032
:10C24000F9F70000F9F70000F9F70000F9F700002E
:10C25000F9F70000F9F70000F9F70000F9F700001E
:10C26000F9F70000F9F70000F9F70000F9F700000E
:10C27000F9F70000F9F70000F9F70000F9F70000FE
:10C28000F9F70000F9F70000F9F70000F9F70000EE
:10C29000F9F70000F9F70000F9F70000F9F70000DE
:10C2A000F9F70000F9F70000F9F70000F9F70000CE
:10C2B000F9F70000F9F70000F9F70000F9F70000BE
:10C2C000F9F70000F9F70000F9F70000F9F70000AE
:10C2D000F9F70000F9F70000F9F70000F9F700009E
:10C2E000F9F70000F9F70000F9F70000F9F700008E
:10C2F000F9F70000F9F70000F9F70000F9F700007E
:10C30000F9F70000F9F70000F9F70000F9F700006D
:10C31000F9F70000F9F70000F9F70000F9F700005D
:10C32000F9F70000F9F70000F9F70000F9F700004D
:10C33000F9F70000F9F70000F9F70000F9F700003D
:10C34000F9F70000F9F70000F9F70000F9F700002D
:10C35000F9F7000053B94AB9002908BF00281CBFEB
:10C360004FF0FF314FF0FF3000F080B9ADF1080C15
:10C370006DE904CE00F006F8DDF804E0DDE9022303
:10C3800004B070472DE9F04F099E0D4604460F4654
:10C39000002B47D18A4294465FD9B2FA82F343B167
:10C3A000C3F120019F4002FA03FC9C4020FA01F1F6
:10C3B0000F434FEA1C451FFA8CFE220CB7FBF5F128
:10C3C00005FB117701FB0EF042EA0742904208D9C3
:10C3D0001CEB020201F1FF3702D2904200F23481DD
:10C3E0003946121AA4B2B2FBF5F005FB102200FB8D
:10C3F0000EFE44EA0244A64508D91CEB040400F1F1
:10C40000FF3202D2A64500F21981104640EA0140EF
:10C41000A4EB0E0400211EB1DC400023C6E900435A
:10C42000BDE8F08F8B4208D9002E00F0FB80002180
:10C43000C6E900050846BDE8F08FB3FA83F100298C
:10C440004BD1AB42C0F0F180824240F2EE80084610
:10C45000002EE5D0C6E90047E2E702B9FFDEB2FAF6
:10C4600082F3002B40F09D808D1A4FEA124E97B256
:10C470000121B5FBFEF20EFB1250250C45EA0045EA
:10C4800007FB02F0A8420FD91CEB050502F1FF38AB
:10C490002CBF4FF001094FF00009A84203D9B9F1B0
:10C4A000000F00F0CE8042462D1AA4B2B5FBFEF07C
:10C4B0000EFB105500FB07F744EA0544A74208D9D4
:10C4C0001CEB040400F1FF3502D2A74200F2B38056
:10C4D0002846E41B40EA02409DE7C1F120078B405B
:10C4E00005FA01F422FA07FCFD408A404CEA030CED
:10C4F00020FA07F34FEA1C491C431FFA8CFE00FA8E
:10C5000001F3200CB5FBF9F809FB185540EA054585
:10C5100008FB0EF0A8420FD91CEB050508F1FF3A05
:10C520002CBF4FF0010B4FF0000BA84203D9BBF119
:10C53000000F00F08C80D0462D1AA4B2B5FBF9F0A4
:10C5400009FB105500FB0EFE44EA0545AE4507D930
:10C550001CEB050500F1FF3401D2AE457ED8204624
:10C5600040EA0840A5EB0E05A0FB029845454C4665
:10C57000C64602D306D14B4504D20138B9EB0204BA
:10C5800068EB0C0E002E6FD01A1B65EB0E0522FA1D
:10C5900001F305FA07F7CD4000211F43C6E90075F6
:10C5A0003EE702FA03FCC3F1200001FA03F24FEA6E
:10C5B0001C4EC14024FA00F51FFA8CF79C4015432D
:10C5C000B1FBFEF02A0C0EFB101142EA014200FB07
:10C5D00007F191420ED91CEB020200F1FF382CBF8B
:10C5E0004FF001094FF00009914202D9B9F1000F53
:10C5F00031D04046521AADB2B2FBFEF10EFB112211
:10C6000045EA024501FB07F2AA4207D91CEB0505E2
:10C6100001F1FF3801D2AA4223D84146AD1A41EABE
:10C62000004126E731463046FAE6841A65EB0303FB
:10C6300001201F460CE7644402384AE7644402388C
:10C64000E4E6023A65442FE702396244C9E6A8F1FC
:10C650000208654470E702386244CBE7023865445B
:10C660007EE702396544D9E73146D9E6704700BF15
:10C67000022808B515D00638012820D81049114BDA
:10C680001148C91AC908890141F003010CF09EFC48
:10C69000002001F0D5FC0028FAD1BDE8084001F0E7
:10C6A000B3BA084B06490948C91AC908890141F0BB
:10C6B00003010CF08BFCBDE8084005F0C1BE08BDCD
:10C6C00054BF0100CCBE0100FCC5010009C6010039
:10C6D000012010B505F0DAFE014648B10D4A0E4BB7
:10C6E0000E48D21AD208920142F002020CF07BFCF2
:10C6F0000B4805F053FA044650B1064A064B014672
:10C70000D21AD2089201074842F002020CF06BFCE8
:10C71000204610BD54BF0100CCBE01002BC6010055
:10C7200071C6000044C6010038B51D4B1D4C1E49A2
:10C73000E41AE408A4011D4A1D4844F003030CF068
:10C7400066FC04F0CFFD014620B11A4844F0010216
:10C750000CF049FC184800F0EBF848B100210F201C
:10C760000DF0BDFD00214FF400400BF0F7F8F9E7A4
:10C77000FFF7AEFF054638B1014644F001020F480D
:10C78000BDE838400CF02FBC013505F0010148BF71
:10C790004942002004F01AFE00F0F2F8F4E700BF6E
:10C7A000CCBE010054BF010060C6010054C60100A8
:10C7B00069C601008DC60100A9890100A8C6010053
:10C7C00070B50B780C46052B00F28980DFE803F08A
:10C7D00003882E677A4F474B474D4868ED1AED089E
:10C7E000AD018968061F45F0030244480CF0FBFBCD
:10C7F00030460FF0F3F900220023414809F054FCC1
:10C80000014600286BD03F4BB1F8042118688368BB
:10C8100004315C684FF0FF33A04700285FD03A48EE
:10C8200045F00201BDE870400CF0D0BB4FF48470BD
:10C830000FF0DBF9D4E901130546E268194404302E
:10C840000DF028F8E36829463048A5F804310FF0C8
:10C8500014F9294A274BB5F80411D21AD2089201CB
:10C860002B4842F00302BDE870400CF0BCBB214BEA
:10C87000214C2848E41AE408A40144F003010CF018
:10C88000A5FB204B186883682349DD68FF2232230B
:10C89000A847014618B3214844F00102E3E7194BC9
:10C8A0001F49186809688368FF221B699847014679
:10C8B000A8B1114A0F4B1B48D21AD208920142F07C
:10C8C0000202D0E70B4B0C491748C91AC908890165
:10C8D00041F003010CF07AFB6268114B1A6070BDE5
:10C8E0000549044B1148C91AC908890141F00301DF
:10C8F00098E700BFCCBE0100ACBF0100C5C6010077
:10C90000C00300200C090020D5C60100AC030020A4
:10C91000E7C60100F6C60100104C002007C7010061
:10C92000C800002021C7010035C701004AC7010027
:10C9300070B504460D4808F043FC0D4D286088B1E1
:10C94000836800221B680B49984768B90A4B28681E
:10C950001C608368FF22DC680849A446BDE870407B
:10C96000322360476FF0050070BD00BF5AC7010059
:10C970000C090020C1C7000008090020104C00204D
:10C9800010B54FF0FF324FF0FF33074809F08CFB32
:10C990000446064BB0F804111B6804309847204643
:10C9A000BDE810400FF01AB9AC03002008090020C0
:10C9B000016808B504480CF031F8404080F3118854
:10C9C0004FF0030002DF08BD69C7010038B5837B63
:10C9D00004460D465BB10E490E4840F263130E4A01
:10C9E0000CF01CF840F263110B480CF0B4FAE37B36
:10C9F000DA070AD5204607F095FD2860E37B9B0700
:10CA000044BFC0432860002038BDA089F5E700BFBF
:10CA1000DFC70100FCC70100A6C7010008B5044834
:10CA200007F032FF002818BF6FF0150008BD00BFE7
:10CA3000B1C9000010B5D2B002A90446FFF7C6FF85
:10CA4000002845D1204607F071FE002840D120463D
:10CA500001A9FFF7BBFF00283AD1204607F066FE88
:10CA6000002835D14FF480730193A37B402B0BD06A
:10CA700019491A4840F29D13194A0BF0CFFF40F2B2
:10CA80009D1117480CF067FA0023204601AA12A94D
:10CA900007F034FEE0B9019BB3F5807F18D820463B
:10CAA0000EF073FF019A12A902980BF07EFF044664
:10CAB00004AB112109A811930EF06AFF2246E31777
:10CAC00009A80EF0ADFD09A808F03AFB52B010BD60
:10CAD00020460EF05AFFF9E719C80100FCC7010013
:10CAE000A6C7010070B50546461C314606220B4814
:10CAF0000CF0D0FE0A4C0B4B3146E41AE408A401BA
:10CB000044F003042346062207480CF0C0FA2246EC
:10CB1000297806480CF067FA002070BD0F4E0020FF
:10CB20008CBF0100CCBE010056C801006AC80100DC
:10CB30000A4608B50649074B5B1ADB089B0101460C
:10CB400043F0030304480CF0A2FA002008BD00BF24
:10CB5000CCBE01008CBF010077C801000378002023
:10CB60005A1E53425341014A13707047154E00201C
:10CB700038B54468054604F00304032C816002D0F4
:10CB80002CB1002000E0006800236B6038BD452315
:10CB9000044A054905480BF041FF452101480CF0C6
:10CBA000DAF9EEE794C80100E6E10100FCC70100F4
:10CBB0000B6801330B60014B1B681847CC00002049
:10CBC000014B1860704700BFCC00002007B50B4632
:10CBD000002102460191034801A900F053FC03B073
:10CBE0005DF804FBB1CB000030B5002585B0CDE980
:10CBF0000101044601A90548039500F043FCDDE965
:10CC000002309842B8BF255405B030BDF789010005
:10CC10002DE9F74FB0F81C90044619F0080F009268
:10CC200022D001290CBF49F0100949F02009A0F8D1
:10CC30001C901434204608F06DFE68B9AC239B4A62
:10CC40009B499C480BF0EAFE21469B480BF0E6FE10
:10CC5000AC2196480CF07FF9009B83F31188BFF359
:10CC60006F8F03B0BDE8F08F944FDFF8488209F072
:10CC70000709022906D120460BF0EAFE0028D8D089
:10CC8000012864D1D4F818B0A38BBBF1000F19DAD6
:10CC90000026256823F00703C4E9006643F001037A
:10CCA000A383A38B03F007024A45019203D0A26835
:10CCB000002A40F0138115B9002E00F059814FF081
:10CCC000000A0DE103F00702511F012920D80021BD
:10CCD00023F00703062A25689BB2C4E900110AD194
:10CCE0003DB12946E28B0968013292B20029FAD19E
:10CCF000E28343F002032046A3830BF0A9FE06461D
:10CD00000028CED0A38B43F02003A3830026C8E7DE
:10CD1000042A0DD123F007039AB22046A2830BF018
:10CD200097FE054688B142F020020025A283EDE778
:10CD300040F21B133A46404661490BF06FFE40F249
:10CD40001B1138460CF007F900252E46A9E70328E9
:10CD500034D1B9F1000F0BD040465A494FF4AB73B0
:10CD60003A460BF05BFE4FF4AB7138460CF0F3F82B
:10CD700023685BB94046544940F257133A460BF0DA
:10CD80004DFE40F2571138460CF0E5F823691E6855
:10CD90005EB940464D494FF4AD733A460BF03EFE46
:10CDA0004FF4AD7138460CF0D6F8A38B23F007038F
:10CDB00043F006030025A383AB4672E7042831D174
:10CDC000B9F1020F0BD04046414940F25D133A469B
:10CDD0000BF024FE40F25D1138460CF0BCF8E38BFA
:10CDE0005BB140463B494FF4AF733A460BF016FE39
:10CDF0004FF4AF7138460CF0AEF823695E685EB947
:10CE00004046324940F261133A460BF007FE40F2C9
:10CE1000611138460CF09FF8A38B23F0070343F011
:10CE20000403C7E7052831D1B9F1010F0BD0404603
:10CE300029494FF4B2733A460BF0F0FD4FF4B2714A
:10CE400038460CF088F823685BB940461E4940F22A
:10CE500065133A460BF0E2FD40F2651138460CF0DE
:10CE60007AF823699E685EB9404618494FF4B47356
:10CE70003A460BF0D3FD4FF4B47138460CF06BF822
:10CE8000A38B23F0070343F0050393E7002540F24B
:10CE90006B133A4640460A490BF0C0FD40F26B1155
:10CEA00038460CF058F82E4686E700BF5AC90100F4
:10CEB00080C90100FCC7010097C90100B7C8010083
:10CEC000E6E10100D9C80100E5C8010008C9010078
:10CED0001FC9010035C9010044C901004FF0010A12
:10CEE00043F0080304F114094846A38308F012FD37
:10CEF00068B9AC234046374A37490BF08FFD4946A5
:10CF000036480BF08BFDAC2132480CF024F8009B26
:10CF100083F31188BFF36F8FBAF1000F37D1002D63
:10CF200047D116B120462E49B0474FF02003EFF30A
:10CF3000118B83F31188BFF36F8F4846CDF800B093
:10CF400008F0DAFC68B981234046224A25490BF0F3
:10CF500065FD494624480BF061FD81211D480BF019
:10CF6000FAFF484608F0E4FCA38B23F00803A383F0
:10CF7000A38BDA0625D5012123F01003A383B4F88F
:10CF80001C9009F0070900297FF473AE51E6A168EF
:10CF90000029C4D0D1F800A04B6820469C46019AD5
:10CFA0005B46E047BAF1000FB9D05146DAF800A06D
:10CFB000F2E729465B462046019A2D680BF064FD96
:10CFC000ADE713F020011EBF23F020030221A3834D
:10CFD000D5E700BF5AC9010080C9010097C9010007
:10CFE000EDCF0000ACC90100C1C90100F8B504468D
:10CFF0000D4600F114064FF02003EFF3118783F381
:10D000001188BFF36F8F304608F076FC68B9812332
:10D010000B4A0C490C480BF001FD31460B480BF054
:10D02000FDFC812106480BF096FF304608F080FC9D
:10D030003A462046A5610121BDE8F840FFF7E8BD6A
:10D040005AC90100ACC90100FCC70100C1C90100F7
:10D050002DE9F04704460F460BF02CFD051E5EDB64
:10D0600004F114094FF02003EFF3118A83F31188C0
:10D07000BFF36F8F484608F03FFC68B98123384AF8
:10D08000384939480BF0CAFC494638480BF0C6FC11
:10D09000812133480BF05FFF484608F049FC4FF60A
:10D0A000FF71E38BA28B8B4202F0070650D0022E59
:10D0B00024D135464FF001080133E383484608F098
:10D0C00029FC68B9AC23264A294927480BF0A6FC5D
:10D0D000494628480BF0A2FCAC2121480BF03BFF4D
:10D0E0008AF31188BFF36F8FB8F1000F17D00023B8
:10D0F0003246394620460BF0C7FC10E0930701D0BA
:10D10000062E0FD100233B606368F3B9C4E90077B2
:10D110003546FEB9524602212046FFF779FD2846E2
:10D12000BDE8F087052E18D0012E0BD012490E480D
:10D1300040F2C913114A0BF071FC40F2C9110F48BB
:10D140000BF009FF6FF0040504E01F606760DFE784
:10D150006FF00A054FF00008B0E76FF08505F9E7BA
:10D160005AC90100ACC90100FCC70100C1C90100D6
:10D1700080C9010097C9010044C90100B7C8010076
:10D18000F8B50E46002943D005680122AB68284651
:10D19000B3F5004F2CBF082404240C1B641BE408C7
:10D1A00021460BF0B3FCC3070DD49A23194A1A4940
:10D1B0001A480BF033FC314619480BF02FFC9A212A
:10D1C00014480BF0C8FE214628460BF0B5FC271882
:10D1D0003946002228460BF099FC3F1ABC420DD07C
:10D1E000A2230C4A0F490D480BF018FC31460E489B
:10D1F0000BF014FCA22107480BF0ADFE2146284697
:10D2000000220BF09FFC2146BDE8F8400BF0D3BD97
:10D21000F8BD00BFD9C90100FAC90100FCC701006F
:10D220000BCA010043CA010069CA01002DE9F04799
:10D2300006681446B3684A42B3F5004F2CBF082570
:10D24000042502EA010731EA02021ED0BD4228BFCE
:10D250003D46B946CF1B07F1FF3A1AEA070F0ED039
:10D26000354940F20D13354A35480BF0D7FB3548A8
:10D270000BF0D4FB40F20D1130480BF06CFE74B98A
:10D280004FF000094846BDE8F087A94204D821467E
:10D29000BDE8F0470BF0D1BD4FF00009DBE7B06807
:10D2A000B0EBD40FECD93919491B0BF067FC0146E0
:10D2B00030460BF0BEFC80460028E1D0B36809EB95
:10D2C000C005B3F5004F2CBF082304231D4435448B
:10D2D00055447F422F40A7EB09094C44A9EB0303B7
:10D2E00007349B1B24F00704A41BB0EBD30F4FEAB9
:10D2F000D3074FEAE40408D201463A4630460BF021
:10D30000D2FC414630460BF013FD394630460BF057
:10D3100013FC3844844208D23946304622460BF08A
:10D32000C2FC214630460BF003FD0122394630464F
:10D330000BF008FCA6E700BFA5CA0100D9C901008F
:10D34000FCC70100C0CA0100B2F5802FF8B507463E
:10D350000C46164612D2042A0ED844494FF4C17323
:10D36000434A44480BF05AFB43480BF057FB4FF439
:10D37000C1713F480BF0EFFD042200E00822B61A0D
:10D38000E51D344425F0070524F00704641B172C21
:10D390004FEAD4060ED8394940F28B13344A354847
:10D3A0000BF03CFB34480BF039FB40F28B1130485A
:10D3B0000BF0D1FD00233D6031463046AE60EB609E
:10D3C0000BF0E5FB01218400471C30460BF0D6FB37
:10D3D0001B34E4082044B0420ED329494FF4CB73E8
:10D3E000234A24480BF01AFB23480BF017FB4FF499
:10D3F000CB711F480BF0AFFD0023194605F1100259
:10D40000BB422EDB2246284600210BF0B3FB002353
:10D4100028461A4619460BF084FB371B1946284646
:10D4200001220BF08FFB3A4621460BF0A3FB23466B
:10D430000022214628460BF074FB314628460BF0AB
:10D4400099FB3B463146284600220BF06AFB3146E9
:10D45000284601220BF076FB2146BDE8F8400BF090
:10D4600067BC42F8041B0133CAE700BFDDCA0100F4
:10D47000D9C90100FCC70100FECA010017CB010099
:10D4800040CB01002DE9F04F8B4692461C4600250B
:10D4900091B002909AF8000008B928465FE3252869
:10D4A0000AF1010707D05946029B98470028C0F2AD
:10D4B0005683013512E2182200210AA80CF015FA51
:10D4C0009AF80130252B78D00022104696469446D3
:10D4D0001646394617F8013B2B2B00F09D8000F2D1
:10D4E0009480202B00F09B80232B00F09B802EB19A
:10D4F0009DF8306046F004068DF83060BCF1000FF6
:10D5000005D09DF8306046F008068DF83060BEF119
:10D51000000F05D09DF8306046F010068DF83060A1
:10D5200028B19DF8300040F020008DF830002AB17D
:10D530009DF8302042F040028DF830209DF83020D8
:10D5400002F04400442803D16FF386128DF8302096
:10D550009DF830202A2B42F080028DF830207BD1BC
:10D560009DF831204B1C42F001028DF831201A78D1
:10D570002E2A0CBF012100219DF8312061F34102C8
:10D580008DF8312074D15A782A2A6AD000210A26CF
:10D590000133184610F8012BA2F13007092F40F291
:10D5A0008E809DF830200E91C2F3400040EAD17188
:10D5B00061F341028DF830205AE00AF102078DF83C
:10D5C00033309DF83130D90740F1498154F8049B3C
:10D5D000B9F1000F07DA9DF83020C9F1000942F0D7
:10D5E00004028DF830205A0740F1428154F8048B30
:10D5F000B8F1000F80F241819DF831306FF34103A3
:10D600008DF831304FF0FF3837E12D2B0CD0302B17
:10D610007FF46DAF01225CE74FF0010C59E74FF04A
:10D62000010E56E7012054E7012652E733460CFB72
:10D630000202303A1E4616F8010BA0F13007092FFE
:10D64000F4D9994293D09DF830100D92D20F62F325
:10D6500041018DF830108AE70B4600224FF00A0C8A
:10D66000E8E79DF83120023342F004028DF83120C2
:10D670001F4617F8012B6C2A41D025D8682A2BD0D9
:10D680006A2A46D04C2A4CD01F4617F8012B9DF829
:10D690003130782A8DF8332000F2D980572A4DD8BE
:10D6A000412A03D0453A022A00F2D18004229DF893
:10D6B000323062F302038DF8323001239EE006FB24
:10D6C00001210346303964E7742A26D07A2ADBD157
:10D6D00006229DF831300DE05A78682A9DF83120F5
:10D6E00006D1012161F3C6028DF831209F1CCCE7E1
:10D6F0001346022262F3C6038DF83130C5E75A782B
:10D700006C2A9DF8312001D10421EBE71346032256
:10D71000F0E705229DF83130ECE707229DF8313023
:10D72000E8E7BDF8303023F4F04323F0020343F47C
:10D73000804343F00203ADF83030A6E7A2F1580170
:10D74000202900F2848001A050F821F011D80000B7
:10D750004FD800004FD800004FD800004FD800002D
:10D760004FD800004FD800004FD800004FD800001D
:10D77000ADD600004FD8000011D80000D1D700006E
:10D78000ADD60000ADD60000ADD600004FD80000E9
:10D79000D1D700004FD800004FD800004FD800006C
:10D7A0004FD8000019D8000011D8000035D800006B
:10D7B0004FD800004FD8000035D800004FD80000E7
:10D7C00011D800004FD800004FD8000011D8000039
:10D7D00001209DF8321003F0780360F30201402B22
:10D7E0008DF8321002BF9DF8301041F001018DF824
:10D7F0003010632A31D1003B18BF01239DF830203F
:10D80000C2F340010B4363F341028DF83020D8E6A8
:10D8100002209DF83210DEE703219DF8322003F04C
:10D820007803A3F1400061F3020243428DF83220F5
:10D830004341E3E703219DF8322013F0780F61F3B1
:10D84000020214BF012300238DF83220D6E79DF891
:10D85000303043F001038DF830300023CEE79DF9DE
:10D860003020002AACBF4FF0FF39DDF83490BAE623
:10D870009B077FF5C7AEDDF838800023CDE90D3377
:10D880009DF832309DF8311003F00703012BC1F3EE
:10D89000C30138D1CB1E042B22D8DFE803F00309E3
:10D8A0000921210054F8043BDA17CDE90A3206E0D9
:10D8B000073424F00704F4E80223CDE90A239DF895
:10D8C000303013F0030656D03B4652465946029874
:10D8D0000BF02BFB0028C0F242810544BA46D9E583
:10D8E00054F8043B01294FEAE372CDE90A3205D12D
:10D8F0009DF828300A9300230B93E0E70229DED13C
:10D90000BDF92830D0E7022B23D1CB1E042B13D82E
:10D91000DFE803F0030A0A12120000232268201D28
:10D920000A920B930446CAE7E01D20F00700F0E8D6
:10D930000223CDE90A23F5E754F8043B01290A93B1
:10D940004FF000030B93D3D00229B8D1BDF8283093
:10D95000D0E7042B09D1E31D23F0070303F10804EA
:10D96000D3E90023CDE90A23A9E7032B04BF54F828
:10D97000043B0A93A3E79DF833007828AED86228C9
:10D9800022D825283FF48FAD5828A7D1DDE90A0118
:10D990000DF1260300930CAA04AB0BF080FA82462B
:10D9A000B8F1000F0DF126000CDB9DF83020A0EB44
:10D9B0000A036FF3861298458DF8302002D9A8EB40
:10D9C00003030D9380463DE06338152886D801A2F5
:10D9D00052F820F055DA0000B9DA0000DDD8000076
:10D9E000DDD80000DDD80000DDD80000B9DA000085
:10D9F000DDD80000DDD80000DDD80000DDD8000053
:10DA000013DB0000E1DA0000E5DA0000DDD80000F9
:10DA1000DDD800002DDA0000DDD80000E1DA0000DA
:10DA2000DDD80000DDD80000E1DA0000B8F1000F19
:10DA3000DDF828A00ADB414650460BF0F4FE002634
:10DA40000AEB0008BAF1000F0CD147E750460BF083
:10DA5000E3FEF4E700260A9B0DF1100A8DF8103062
:10DA60000DF11108A8EB0A0306B101339DF832202D
:10DA7000D00668D5023352060D9948BF0E9A0B4462
:10DA800048BF9B18B9F1000F76DD9DF83020A9EB57
:10DA90000309C2F38003039353076DD4500661D585
:10DAA00046B159463046029B9847002857DB039BF6
:10DAB00001351E46302356E01E070FD413F0100622
:10DAC00018BF2026DDE90A23002BBFF65FAF5242C4
:10DAD00063EB43032D26CDE90A2357E72B26F1E715
:10DAE000002653E70A9840B30DF126030093002166
:10DAF00004AB0CAA0BF0D3F9BDF83230824603F028
:10DB0000EF0343F4F04343F010030026ADF8323046
:10DB100046E70A9B07293FF6E1AEDFE801F00C0477
:10DB2000060C08080C0C1D70D8E61D80D6E6EA1716
:10DB3000C3E90052D2E61D60D0E6DFF8C8A0064671
:10DB40000AF105088EE7110748BF013393E718462D
:10DB500003935946029B98470028039B04DA11B0AF
:10DB6000BDE8F08F20234D444A46002AA5EB090169
:10DB700009F1FF39EBDC0D4636B159463046029BC0
:10DB800098470028EBDB01359DF83230D90601D4E7
:10DB90001A0706D559463020029B98470028DEDB3D
:10DBA00001359DF83230DB0607D559469DF8330024
:10DBB000029B98470028D2DB01350D9E2E44731B33
:10DBC000002B16DC43465246594602980BF0ADF93D
:10DBD0000028C4DB0544A944A9EB0503002B7FF70B
:10DBE0007DAE59462020029B98470028B7DB0135BF
:10DBF000F2E759463020029B98470028AFDB0135F9
:10DC0000DDE700BF6ACB0100044608B54FF02002F3
:10DC1000EFF3118382F31188BFF36F8F0BF0A7FD31
:10DC2000204602F09BF803480AF0F8FE01F074FD6C
:10DC3000FCE700BF70CB01004FF0FF33C340DB07B0
:10DC400010B504460BD40C490C484FF405730C4A2C
:10DC50000AF0E4FE4FF4057109480BF07CF909481D
:10DC600000EB8400D0F8003223F0E04343F040534F
:10DC7000C0F8003210BD00BFCCCB0100FCC70100D2
:10DC800099CB01000025845070B54FF02003EFF3CD
:10DC9000118683F31188BFF36F8F01240C4B0D4D58
:10DCA000C3F8004502230020C5F8D036FFF7C4FFB3
:10DCB0002046FFF7C1FFC5F80447C5F80449C5F879
:10DCC000004B86F31188BFF36F8F002070BD00BF3B
:10DCD000001000500040005048B1054B1A68054B39
:10DCE000B2FBF3F2044B504343F001031847704773
:10DCF0007001002040420F0010C0010084B004AB4E
:10DD000003E907009DF80430062B07D10122044BDC
:10DD1000C3F80025BFF34F8F20BFFDE704B0704765
:10DD20000040005030B5002289B00F490F480DF077
:10DD30002CFF002200230024CDE906230E230C4DE6
:10DD4000CDE903344FF440722846CDE90144094B34
:10DD50000949009407F0F8FC084928460DF054FEE4
:10DD6000204609B030BD00BF81DD0000D80300208F
:10DD7000100400209DE1000048520020F3CB010078
:10DD8000014808F0FFB900BF880300202029F8B53A
:10DD900005460C4609D9144914488023144A0AF050
:10DDA0003DFE802112480BF0D6F8002001270346E3
:10DDB000024615F8011B09B1A34200D3F8BD25297D
:10DDC00002D182F00102F4E7002AF2D041F02006ED
:10DDD000613E192EEDD8732904BF07FA03F21043F0
:10DDE00001330022E5E700BF28CC0100FCC7010099
:10DDF000FBCB0100002210B50A4B4FF400401A7013
:10DE0000094B0A4A1A6000F09DFD00F09FFA08488D
:10DE10000BF0B6F8BDE81040042328220549064857
:10DE20000DF0D0BD174E0020D0000020C58F01009E
:10DE30001C090020888C00202409002010B54FF018
:10DE40002003EFF3118483F31188BFF36F8F04482D
:10DE50000BF0A6F884F31188BFF36F8F10BD00BFDD
:10DE60001C090020044BD3E8EF2F0132C3E8E12F57
:10DE70000029F8D1704700BF140900200020024695
:10DE8000034BD3E8EF0FC3E8E12F0029F9D1704726
:10DE900014090020F8B5FFF7F1FF002607460A4CE9
:10DEA0000A4D2D1B2D11AE4200DBF8BD20460BF0B4
:10DEB0007DF828B123681B6913B13946204698477D
:10DEC00001361034EFE700BFBCBF0100CCBF01003A
:10DED000044A054B9B1AB1EBD30F34BF52F8310003
:10DEE00000207047CCBE0100BCBF010070B5104CD3
:10DEF0000546041B241101340E46E4B248B90D490D
:10DF00000D48D1230D4A0AF089FDD1210B480BF0B1
:10DF100022F801226B681C71094C1E605A7123782B
:10DF200013B9084808F02EF90123237070BD00BF13
:10DF3000BCBF010071CC0100FCC7010040CC010056
:10DF4000164E00208803002070B5174B174CE41ABA
:10DF5000902C0BD91649174840F24D23164A0AF067
:10DF60005DFD40F24D2114480AF0F5FF134BD3E854
:10DF7000EF6F721CC3E8E12F0029F8D11EB92511FB
:10DF8000094CAE4200DB70BD237B53B123689B6913
:10DF90000BB1204698476368042220461968FFF7B2
:10DFA000A5FF01361034ECE7BCBF0100CCBF010077
:10DFB00088CC0100FCC70100FBCB01001809002040
:10DFC000144B37B59842044602D3134B98421CD3E6
:10DFD00000220023114801A907F07AFA0546B8B9D2
:10DFE0000122019BD3E8EF1FC3E8E02F0028F9D1FD
:10DFF000019821461F2204300BF0FCFB7E23019C7C
:10E0000084F8233084F824500434204603B030BD13
:10E01000034CFAE70CBC010028FE01002409002093
:10E02000ACCC010048B1054B984205D3A0339842CF
:10E030002CBF00200120704700207047888C0020F2
:10E04000464B2DE9F74F1B78044603B9E0B1FFF7C3
:10E05000F5FE054658B1424BD3E8EF2F013AC3E82D
:10E06000E12F0029F8D19CB128460BF09CF82CB97F
:10E070003C4B1B68002B01DDFFF70CFF3A480AF010
:10E080008DFF041E18BF0124204603B0BDE8F08FA9
:10E09000364B1B78BBB92B7ADB0714D40BF092F804
:10E0A000814628460BF05DF801464846FFF76EFEB4
:10E0B0000746DFF8BCA02F4BDFF8BCB0A3EB0A0388
:10E0C000DB08019337B92D4E2D4F4FF00008BF1BD1
:10E0D0003F1140E0B7FA87F8C8F11F0841462846CB
:10E0E0000BF042F8274B0246984202D3264B984247
:10E0F0001FD31046FFF796FF0646D0B9234B9A422E
:10E1000017D06B89019AC3F38913934238BF5AF829
:10E1100033605A46D0231E491E480AF07FFC414610
:10E120001D484B4632460AF079FCD02158460AF089
:10E1300012FF012303FA08F827EA0807C2E730466E
:10E140000AF034FF20B13368294630465B689847AF
:10E1500008F101081036B845F1DB85E7164E0020BE
:10E1600010090020140900201C090020174E00206F
:10E17000CCBE0100BCBF0100FBCB0100BCBF010055
:10E18000CCBF01000CBC010028FE0100ACCC01009A
:10E19000E6E10100FCC70100C6CC0100164B174A9E
:10E1A00010B59B1A002B0BDC1549164840F26D5335
:10E1B000154A0AF033FC40F26D5113480AF0CBFEC9
:10E1C000FFF7C2FE09F002FC104B186030B1104B93
:10E1D0001B68092B02DD0F4807F0D4FF0D4C00200F
:10E1E000FFF72EFF0028FAD14FF0FF324FF0FF3338
:10E1F000204608F005F8F2E7CCBF0100BCBF0100E3
:10E2000007CD0100FCC70100FBCB01004409002041
:10E210001009002088030020274B37B51B68418177
:10E2200004469847E0604FF02003EFF3118583F335
:10E230001188BFF36F8F214821460AF0A5FE85F3B0
:10E240001188BFF36F8F1E4BD3E8EF2F0132C3E865
:10E25000E12F0029F8D11B4A127882B14FF0200338
:10E26000EFF3118483F31188BFF36F8F0020FFF762
:10E27000E7FE84F31188BFF36F8F03B030BD124AFD
:10E280001B681268002AF8D0012B0AD10022002353
:10E290000E48CDE900234FF4004200230AF012F8A3
:10E2A000EBE70A2BE9D109480DF07BFC084803B0E5
:10E2B000BDE8304007F066BFD00000201C090020F8
:10E2C00010090020174E002044090020D803002028
:10E2D00088030020F8B50F4F3D7875B9FFF734FE7D
:10E2E0000D4C0E4E361B3611B54207DB0020FFF7F2
:10E2F000A7FE0028FAD101233B70F8BD20460AF0A2
:10E3000055FE18B1236820465B69984701351034E3
:10E31000EAE700BF174E0020BCBF0100CCBF0100E0
:10E3200007B504380190D0E8EF3F5A1EC0E8E12F4E
:10E330000029F8D1012B03D1034801A907F034F9D2
:10E3400003B05DF804FB00BF24090020202302492C
:10E350001A4602480DF036BB288D002048090020DF
:10E36000002337B5094D01930120FFF769FE0446EC
:10E37000FFF778FD00220023284601A907F0A8F83E
:10E3800008B1002CF0D1019803B030BD480900203D
:10E39000002307B5002201930648002301A907F0D6
:10E3A00097F810B1FFF7DCFF0190019803B05DF81A
:10E3B00004FB00BF48090020F0B5037A85B0DC07F4
:10E3C00001901ED4457A2D091BD0002426463146E3
:10E3D00001980AF0C9FE0746FFF724FE70B134B970
:10E3E000019B29461869FFF7D1FC044648B124FA7D
:10E3F00006F3D90702D53846FFF792FF0136AE4241
:10E40000E5D3019B1A7A920704D55B69084C039304
:10E41000039B2BB9064801A907F0C6F805B0F0BD6B
:10E420001D68204603A907F0BFF80395F0E700BF79
:10E43000480900200E2A2DE9F84F80460F46154660
:10E440000BD93149314840F23713314A0AF0E6FA24
:10E4500040F237112E480AF07EFDFFF799FF04467F
:10E4600058B301234FF0000A032D4360A0F808A021
:10E470000CD9037AA5F1020943F00203037200F1FB
:10E48000140BC0F814A0B9F1000F0EDC637A032D51
:10E4900065F30713C4F81080637219D83946AA00CF
:10E4A00004F114000BF0F6F907E0FFF771FF0646E0
:10E4B00030B92046FFF780FF34462046BDE8F88F8C
:10E4C000CBF80000A9F107098346C0F800A0DAE7FD
:10E4D0003946082204F11800D4F814800BF0DAF958
:10E4E000023D0837072D2E4628BF07264FEA86092A
:10E4F000394608F104004A460BF0CCF9AD1BD8F8B8
:10E5000000804F44EED1D8E753CD0100FCC7010095
:10E5100027CD01000EB403B503AB53F8042B01461D
:10E5200004480193FEF7AEFF02B05DF804EB03B0C0
:10E53000704700BF75E700002DE9F0471D46089BB6
:10E540001746DA0604460E4605D499064CBF2A49FA
:10E550002A49FFF7DFFF4FF00008DFF8A490A84535
:10E560002ADB0025DFF89C80DFF89C90DFF890A084
:10E57000BD422FD249462046725DFFF7CBFF0135E1
:10E58000102D20D120462149FFF7C4FF0025DFF8D8
:10E590007080DFF87C90AF4228D9725D4946A2F1C5
:10E5A00020035F2B28BF2E222046FFF7B3FF013543
:10E5B000102D14D1BDE8F08749462046FFF7AAFF89
:10E5C00008F10108CBE76A07D2D151462046FFF790
:10E5D000A1FFCDE741462046FFF79CFFCFE76B0741
:10E5E000D9D141462046FFF795FFD4E74146204662
:10E5F000FFF790FFDBE700BF9FF901005ECD010050
:10E6000049F1010047F1010061CD010067CD010032
:10E6100069CD01002DE9F04F11F0020687B0059297
:10E6200007461A469DF84080BDF9489001F0010A5E
:10E6300001F0080506D011F0440F38D13349FFF737
:10E6400069FF0646BAF1000F0AD0314B384653F83D
:10E650002820304B3049002A08BF1A46FFF75AFFDE
:10E660003DB12E4B384653F828202D49FFF752FF75
:10E670000546B9F1000F16DB059B002B43D00123A3
:10E6800003FA08F8274B18F0100F274C18BF1C4648
:10E6900049469DF84400FFF71BFC214602463846D8
:10E6A000FFF738FF0544A81907B0BDE8F08F1F4BEE
:10E6B000196831B31E4B4FF461661B684FF47A7BC7
:10E6C000B2FBF3F3B3FBF1F4B4FBF6F206FB124634
:10E6D00001FB14340BFB04F4B4FBF1FE4FF03C0CD3
:10E6E00001FB1E44B6FBFCF30BFB04F4B4FBF1F19D
:10E6F0000CFB1366CDE901E100960E49FFF70AFF16
:10E700009FE708469DE7084CC2E700BF7ACD0100AD
:10E7100024C001006CCD01009FCD010038C0010074
:10E72000A2CD010076CD010071CD01006809002065
:10E730006C09002083CD010038B50C46E107054681
:10E7400003D5084A0849FFF7E5FEE20608D4A30608
:10E750002846BDE838404CBF04490549FFF7DABEFA
:10E7600038BD00BF6CCD01009FCD01009FF90100B5
:10E770005ECD010038B54B6805461A68CB680C467B
:10E780009A4202D108460AF0E4FE6368D3E8EF2F0C
:10E79000511CC3E8E01F0028F8D1A3689D546368AA
:10E7A0001A68E3689A4209D9054906487323064A5C
:10E7B0000AF034F9732104480AF0CDFB002038BD7B
:10E7C000D7CD0100FCC70100A8CD01002DE9F0471D
:10E7D0008B7A044613F007080E4617468AB022D0FB
:10E7E0000A7A4989D243C1F38911C3F3C203CDE93F
:10E7F00000830291F368394602F00102FFF70AFF35
:10E800008146357AED4315F001050ED0214630469C
:10E810000AF042FDB8F1000F39D042463946204691
:10E82000FFF78AFF33E0C146EBE7B8F1000F34D1C0
:10E83000E3685BB92849294840F2CF13284A0AF017
:10E84000EDF840F2CF1126480AF085FB0027E36877
:10E8500006AA069330463B46A1680AF009FD069ACF
:10E8600063681A603AB1A368134413F8015CA5F118
:10E870000A035D425D4120460AF06BFE069B1F4481
:10E88000002BE4D11DB120461649FFF743FE204678
:10E890000AB0BDE8F0470AF05CBE30460AF092FCD0
:10E8A000114902462046FFF735FE4FF0100A05AA2F
:10E8B0002B46304606A9CDF814A00AF0D9FC059ADB
:10E8C000002AAAD04B462046009706A9FFF734FE3F
:10E8D000059B1D44EBE700BF07CE0100FCC701000C
:10E8E000A8CD010014CE01009FCD010042F20F73AC
:10E8F00073B58B4228BF0B46056804460521684660
:10E900000D4A0AF098F80646636828460B225B68B1
:10E910000A490AF0B4FC63683246694628465B68D7
:10E920000AF0ADFC63681B2228465B6804490AF0C4
:10E93000A6FC02B070BD00BF1EC701004ECE010094
:10E9400032CE010001230021074A10B5074C1360A5
:10E95000A04204D801B11360054B186010BD01211D
:10E9600040085B00F4E700BF6C09002040420F0044
:10E97000680900200122014B1A707047284E0020C0
:10E980000122024B02481A700AF0E3BD294E002012
:10E9900068C001000148FFF7A9BF00BF68C00100BF
:10E9A00010B50C4608460AF0D3FB214604480F2256
:10E9B000FFF70CFF2046BDE810400AF0F4BB00BF93
:10E9C00068C00100054B1B781BB141F288300DF087
:10E9D000ADB8A420002108F0C1BF00BF294E00201F
:10E9E0002DE9F04780460F460424DFF88890DFF8D1
:10E9F00088A099F80050CDB94FF0FF334FF0FF32A7
:10EA0000504607F003F93A464146284605F01AFCFD
:10EA10000646504607F0EEF9184DFEB101232B7063
:10EA200099F800306BB93846BDE8F0873A46414660
:10EA3000002005F007FC0646EEE75CB92C704FF0AD
:10EA4000FF34002005F04AFC0028ECD02B78002B86
:10EA5000F3D1E8E7013CFFF7B5FFF2E72B7813B1FC
:10EA6000013C04D12C702B78002BC2D1DBE7FFF7DF
:10EA7000A9FFF8E7294E002050030020284E00206F
:10EA8000084B30B51C68084B01461A6800239C42AD
:10EA900001DC002030BD1046057810328D42F9D0DF
:10EAA0000133F4E748C10100D8000020084B10B53D
:10EAB0001B680C462BB1FFF7E3FF28B12060002054
:10EAC00010BD6FF00C00FBE76FF00100F8E700BF2E
:10EAD000D8000020F8B505464FF02003EFF311866B
:10EAE00083F31188BFF36F8F1D4806F005FF68B9E7
:10EAF00081231C4A1C491D4809F090FF18491C48F5
:10EB000009F08CFF812117480AF025FA144806F015
:10EB10000FFF184B1C685CB1174FD4E90132002D70
:10EB200008BF13460BB1387898472468002CF4D1FD
:10EB30000B4806F0EFFE68B9AC230A4A0F490B48B0
:10EB400009F06CFF06490E4809F068FFAC21054842
:10EB50000AF001FA86F31188BFF36F8FF8BD00BF8A
:10EB6000840900205AC90100ACC90100FCC701009A
:10EB7000C1C90100880900209009002080C9010056
:10EB800097C90100084B10B51C685CB901221A60D6
:10EB9000064B93E807000AF0E8F92046BDE810406C
:10EBA000FFF798BF10BD00BFD400002090090020DF
:10EBB000F0B585B06E46204C0146054630460AF059
:10EBC00066FD96E8070084E807002078264680B3B3
:10EBD00000201A4B18606B1C1DD091420CD21849B2
:10EBE000BD23184A184809F019FF184809F016FF04
:10EBF000BD2114480AF0AFF94FF4004C0021A7687A
:10EC000013480023E7FB0C01124AFDF7A3FB012187
:10EC1000281A09F0D3F907F0F5FE0120FFF75AFF93
:10EC200096E80700FFF76AF8FFF7ACFF08F07CF9F9
:10EC3000207805B0F0BD00BF90090020D40000206E
:10EC4000F4CE01007ECE0100FCC7010034CF0100EC
:10EC50003F420F0040420F0010B5074806F0B0FADF
:10EC6000064C074B1860204601F004FB2046FDF7D8
:10EC7000A7FF002010BD00BF5AC7010085EC0000AF
:10EC80009C0900200A2838B50446074D04D128689D
:10EC900083680D21DB69984728688368E1B2DB69E6
:10ECA0009847204638BD00BF9C09002037B5402357
:10ECB0000C460A490093411A491105462346084A61
:10ECC00008480AF0FCFC011E05DA2846234603B07A
:10ECD000BDE83040184703B030BD00BFB409002084
:10ECE000319701000C02002038B5CCB2032C054648
:10ECF00009D9094909487E23094A09F08FFE7E2176
:10ED000007480AF028F90C23296904FB0314D4F8F6
:10ED1000880000F0070038BD9CCF0100FCC701004F
:10ED20005FCF0100F8B5CCB2032C05461746066943
:10ED30000BD91A491A4840F253131A4A09F06EFEC9
:10ED400040F2531117480AF006F94FF02003EFF391
:10ED5000118183F31188BFF36F8F0C2202FB0463D0
:10ED6000D3F8883013F0C00301D09F4212D10123A1
:10ED7000002002FB0466C6F8883081F31188BFF3D7
:10ED80006F8F30B90C23696803FB041463689847DC
:10ED90000020F8BD4FF0FF30EFE700BF9CCF01002F
:10EDA000FCC701005FCF010070B50D46064904465F
:10EDB000411A491140220548FFF7B4FF2B4601468E
:10EDC0002046BDE870401847B40900200C0200201E
:10EDD0002DE9F843002201210646052000F034FC0D
:10EDE000052000F0FFFB114804F0C0F8104B9842DA
:10EDF00019D104F0DFF800244FF00C080127DFF8E8
:10EE000034903569494605EB441009F062FE00284C
:10EE100007DB08FB04550134042CC5F88870F0D1D9
:10EE20000020BDE8F8836FF00400FAE771EE0000FF
:10EE30000000AD0BBCC0010001460C2300224B4377
:10EE4000094870B5C4188833D4E920561844C4F86A
:10EE500080200AF021FC2DB132462B46BDE87040DF
:10EE60000248184770BD00BFB40900200C02002002
:10EE700008B5052822D8DFE800F0031121130F0D93
:10EE8000144BD3F8880010F0070021D1BDE80840EA
:10EE9000FFF7D2BF0220F9E70320F7E70120F5E7EB
:10EEA0000D4940F266230D4A0D4809F0B7FD40F2C6
:10EEB0006621BDE8084009480AF04DB8064940F20D
:10EEC0006A23064A064809F0A9FD40F26A21F0E7E4
:10EED00008BD00BFB4090020E6E101005FCF0100DA
:10EEE000FCC7010008B54FF02003EFF3118183F355
:10EEF0001188BFF36F8F124A136843F0020013F0BA
:10EF0000010310600CD04FF05022D2F80C34D2F82C
:10EF10000C2413F0010303D00A480AF0BDFB0123BF
:10EF200081F31188BFF36F8F23B1BDE80840002043
:10EF3000FFF782BF0120BDE8084004F061B800BFC0
:10EF4000640A00203C0A00201FB500220123CDE9FD
:10EF500002236B46084ACDF800D0CDF804D00AF061
:10EF6000E0FB002805DB4FF480420023684607F0F1
:10EF700047F905B05DF804FB67970100074BD3E83C
:10EF8000EF2F22F00201C3E8E01F0028F7D1D307DA
:10EF900002D4012004F0ACB8704700BF640A00201E
:10EFA0002DE9F041012206464649D1E8EF3FC1E88C
:10EFB000E02F0028F9D1A3B9434944484B60CB6006
:10EFC0008A60FEF745F800280BDA4149414840F2D3
:10EFD0002623414A09F022FD40F226213E4809F04D
:10EFE000BAFF96B3731E012B56D8012E07D14FF0EE
:10EFF0005023D3F81C3403F00303022B25D00CF06C
:10F00000FDFC044618B9354B1B78002B52D14FF04C
:10F010002003EFF3118783F31188BFF36F8F01246F
:10F020004FF05025DFF8B880D5F81834D5F81824FB
:10F03000D2030CD503F00303022B01D0012E06D11D
:10F0400024B387F31188BFF36F8FBDE8F081C4B19B
:10F05000384600F06FFBD5F81835DBB2012BE3D151
:10F06000D5F80421002ADFD00022C5F80421D5F804
:10F0700004210222C5F818252022C8F88021AB609F
:10F08000D2E70021212008F069FCE4E74FF050238B
:10F090000222C3F80423D8E712490E484FF40E7336
:10F0A0000D4A09F0BBFCBDE8F0414FF40E710A486F
:10F0B00009F051BF4FF0502302220746C3F808233E
:10F0C000AEE700BF680A0020A4090020D409002090
:10F0D000C0CF0100FCC701005FCF010041520020FA
:10F0E00000E100E0E6E1010010B5064C06492246C9
:10F0F0000648172309F092FC2046BDE8104017216E
:10F1000009F029BFFECF0100E6E10100FCC70100C4
:10F11000044A1368C81A20F07F400344136008F0C3
:10F120009DBF00BF7C0A00202DE9F0474FF48037D7
:10F130004FF00009860000F1500406F15026A400AB
:10F1400006F58036A4B204F15024D6F84035DFF835
:10F150006C8021F07F4504F580348740D8F804A501
:10F16000A3EB0A0323F07F432AF07F42012BC6F86A
:10F17000402502D113200CF0D9FC0AF10202AB1A8F
:10F1800023F07F43B3F5000F88BF1546C4F8009005
:10F19000236825F07F43C8F84473C6F84035D8F893
:10F1A00004359A4506D0EB1A023B23F07F43B3F5B2
:10F1B000000F01D8BDE8F0872B46CFE70050015083
:10F1C000F8B500252F46104C2668104B05B1F8BD48
:10F1D000D3F80423D203FAD5D3F84021002AF6D07D
:10F1E000C3F84051D3F840214FF48032C3F848238C
:10F1F0000125D3F8401526B1002062682760B0478A
:10F20000E2E72660E3E700BF700A002000500150EB
:10F2100038B500254FF480334FF400120C4C012117
:10F22000C4F80855C4F804330A4B1520C3F88021EC
:10F230002A4600F009FA152000F0D4F90123064A05
:10F24000A360022023601360FFF7AAFE284638BDA2
:10F250000050015000E100E0780A0020134AB0F1AC
:10F26000FF3F14BF03461346013B002B1CDD9342B6
:10F27000A8BF13460E4AD2F804050E4A1168401A78
:10F2800010F4000F18BF002320F07F4201320A481B
:10F2900013440A4A106000205060044A934294BF0D
:10F2A000C9188918FFF740BF0023E3E7FFFF7F007D
:10F2B000005001507C0A002011F10000700A00206B
:10F2C000044BD3F80405044B1B68C01A20F07F40A0
:10F2D000704700BF005001507C0A002038B54FF045
:10F2E0002003EFF3118583F31188BFF36F8F1B4861
:10F2F00006F002FB68B98123194A1A491A4809F035
:10F300008DFB1649194809F089FB8121144809F041
:10F3100022FE124806F00CFB154B1048D3F80445AA
:10F32000144B1B68E41A24F07F441C4406F0F2FAE4
:10F3300068B9AC230A4A10490B4809F06FFB07492A
:10F340000E4809F06BFBAC21054809F004FE85F37B
:10F350001188BFF36F8F204638BD00BF800A0020A0
:10F360005AC90100ACC90100FCC70100C1C90100B4
:10F37000005001507C0A002080C9010097C901009B
:10F38000014809F011BA00BF4CC1010010B5044694
:10F3900018B90D4B0D485B689847616808290DD076
:10F3A00031F004030AD011F0020108D021460848C8
:10F3B00006F0FAF8002323600023636010BD1422D6
:10F3C00020680AF092FAF7E7A80100208DD001002A
:10F3D000840A002008B540B34368042B0BD0082BE7
:10F3E00016D003B300684FF0FF324FF0FF3306F042
:10F3F0000DFC58B115E001220368D3E8EF1F002986
:10F4000003D1C3E8E02F0028F7D10AD1002008BDBE
:10F410000368074A1B7803F5807352F82330002BEA
:10F42000F4D00448F3E70448F1E76FF4E040EEE776
:10F4300000000350E98FFFFFEA8FFFFF08B508B314
:10F440004368042B07D0082B13D0F3B1006806F0F3
:10F45000D1FC00200CE000220368D3E8EF1F012953
:10F4600003D1C3E8E02F0028F7D1094808BF1046B0
:10F4700008BD036800201B78064A03F5807342F834
:10F480002300F5E76FF4E040F2E70348F0E700BF40
:10F49000E98FFFFF00000350EA8FFFFF10B504461D
:10F4A00018B9164B16485B6898476368042B23D03D
:10F4B000082B21D0CBB92368BBB94FF0FF324FF0F6
:10F4C000FF3321460F4806F003F808B923681BB93B
:10F4D0000A4B0D485B6898471422002120680AF007
:10F4E00004FA636843F00203636020680CF0B2FA28
:10F4F000636843F00103636010BD00BFA8010020F2
:10F500008DD00100840A0020B3D0010008B506495F
:10F510004023142205480CF055FABDE80840044980
:10F52000044809F093B900BFA40A0020840A00200F
:10F5300064C1010054C10100094A0A49936809687D
:10F540009867D96708494B6843F080534B600023A4
:10F5500083F31188BFF36F8F9368D86F704700BF34
:10F560009C1B002058C5010000ED00E013498A688B
:10F570004FF030001044EFF3098C80E8F01F20209A
:10F5800080F31188BFF36F8F0D4F4FF000664A6A0A
:10F590008A603E60906F0023936780F3118802F1C8
:10F5A000300090E8F01F8CF3098802F1000004B5E8
:10F5B0000AF0E5F8BDE80440704700009C1B0020FD
:10F5C00004ED00E01EF0040F0CBFEFF30880EFF332
:10F5D0000980816911F8021C0229FFD001B50AF0E7
:10F5E000D2F801BD43B2002B08DB012200F01F005E
:10F5F00002FA00F0024A5B0942F82300704700BF9C
:10F6000000E100E043B2002B0DDB012200F01F00FF
:10F6100002FA00F05B09044A203342F82300BFF3EA
:10F620004F8FBFF36F8F704700E100E0054B420939
:10F6300053F82220012300F01F0003FA00F01040CD
:10F64000704700BF00E100E070B54C1C072C054678
:10F650000E460FD95823104A1049114809F0DEF917
:10F660003146104807232A4609F0D8F958210A489C
:10F6700009F071FC6BB2002BACBF03F160430A4B85
:10F680004FEA4414E4B2ABBF03F5614305F00F0544
:10F6900083F800435C5570BDE0D0010016D1010035
:10F6A000FCC7010031D1010014ED00E042F8203C1C
:10F6B000009B0B4942F81C3C019B21F0010142F8E0
:10F6C000183C029B42F8081C42F8143C4FF080732F
:10F6D00042F8043C0023203A02658367704700BF6C
:10F6E000F98A0100084B9860836E83F30B881046FB
:10F6F00081F30988002163B681F31188BFF36F8F0E
:10F700000022002309F0F8F99C1B00200149102277
:10F710000A60704710ED00E072B6404080F3118837
:10F72000BFF36F8FBFF34F8F30BF62B6BFF36F8FE2
:10F73000704700BF72B6494081F3118820BF80F343
:10F74000118862B6704700BF73B506460C4601B318
:10F75000134B144D1448ED1AED08AD0145F00105A9
:10F76000ADF80050D1E90123096809F069FCADF852
:10F770000050D4E90423E1680C4809F061FC2A46F2
:10F78000E1690B4809F02FFC2A46A169094809F0F4
:10F790002AFC2146304602B0BDE8704005F03ABD73
:10F7A000CCBE010074BF010071D10100A0D10100E5
:10F7B000CFD10100DED1010030BFFFF7FDBF00BF98
:10F7C0000B4A08B50B4B22F07F029A60BFF34F8FB4
:10F7D000BFF36F8FD3F8882022F47002C3F888201B
:10F7E00005F090FD08F026FA00F000FB05F0AEFDF4
:10F7F00000C2000000ED00E001B572B60B4A106ACD
:10F8000000281EBF002111620CF005F962B6EFF36B
:10F810000580A0F110004FEAC0000549014409C964
:10F820009847BDE801400349084700009C1B0020A1
:10F83000A4BC010041FD0000002080F31488BFF348
:10F840006F8F002080F30A8880F30B8809F08BFB10
:10F8500000200E490860BFF34F8F0D4880F30888E1
:10F8600000F0A0FA202080F311880A484FF40061CC
:10F87000401880F30988EFF314800221084380F3D5
:10F880001488BFF36F8FFFF79BFF000094ED00E03B
:10F89000487B0020887C0020EFF30880EFF309818B
:10F8A00001B5724600F05EF901BD00BF70B5284B8E
:10F8B000284C294DE41AE408A40144F0010631461D
:10F8C000264809F083FBAB6A9B0103D531462448E7
:10F8D00009F07CFBAB6ADD0104D5224844F001014C
:10F8E00009F074FB1C4EB56A15F4801505D01E484E
:10F8F00044F0010109F06AFB0225B36A180304D53C
:10F900001A4844F0010109F061FB134EB36A590330
:10F9100004D5174844F0010109F058FBB36A9A0373
:10F9200004D5144844F0010109F050FB0A4EB36AB3
:10F93000DB0304D5104844F0010109F047FBB36A2A
:10F9400028466FEA03436FEA1343B36270BD00BFFA
:10F95000CCBE010074BF010000ED00E00CD201003C
:10F9600024D2010037D2010051D201007BD2010024
:10F9700099D20100BED20100D8D201002DE9F04198
:10F980002A4B2B4C2B4DE41AE408A40144F0010847
:10F9900007460E462848414609F018FBAB6AD904D1
:10F9A00003D54146254809F011FBAB6A1A0504D579
:10F9B000234844F0010109F009FB1E4DAB6A9B0589
:10F9C00012D544F0010841461E4809F0FFFAA96B20
:10F9D000AB6A180408D542461B4809F004FB1FB166
:10F9E000AB6A23F40043AB62124DAB6A590504D5F0
:10F9F000164844F0010109F0E9FAAB6ADA050DD5C1
:10FA0000134844F0010109F0E1FA0020094A936A21
:10FA100043F47F4393623070BDE8F081AB6A9B048E
:10FA2000F3D50C4844F00101EDE700BFCCBE010066
:10FA300074BF010000ED00E003D3010019D3010001
:10FA40002AD301003DD3010056D301006BD301003E
:10FA500086D301009ED301002DE9F041334B344C95
:10FA6000344DE41AE408A40144F0010807460E46A8
:10FA70003148414609F0AAFAAB6AD80603D5414697
:10FA80002E4809F0A3FAAB6A190704D52C4844F0B4
:10FA9000010109F09BFA274DAB6A9A0712D544F091
:10FAA00001084146274809F091FA696BAB6A1B06C9
:10FAB00008D54246244809F096FA1FB1AB6A23F0F4
:10FAC0008003AB621B4DAB6ADF0704D51F4844F0CF
:10FAD000010109F07BFAAB6A980604D51C4844F092
:10FAE000010109F073FA134B9A6AD10602D49A6A9B
:10FAF000920711D59B6ADB060ED5164940F24F13CB
:10FB0000154A164808F08AFF154808F087FF40F2AA
:10FB10004F11114809F01FFA0020064A936A43F07A
:10FB2000FF0393623070BDE8F08100BFCCBE0100DE
:10FB300074BF010000ED00E0CDD30100E3D301006C
:10FB40002AD3010016D401002ED4010044D40100B0
:10FB50009ED301009DD4010063D40100FCC70100C5
:10FB6000E7D401002DE9F043604B0F465D680026A5
:10FB70008BB0C5F3080486F31188BFF36F8F02F0D2
:10FB80007F43B3F17F4F0DD102F00C03082B1AD144
:10FB90005749584B5848C91AC908890141F0010111
:10FBA00009F014FA40F2E133544A5549554808F037
:10FBB00035FF554808F032FF40F2E1314F4809F077
:10FBC000CAF9002705E012075CBF07460126002F8F
:10FBD000E8D000238DF80730E31E092B6DD8DFE84D
:10FBE00003F0055B5F3F6C6C6C6C6C634FF000095D
:10FBF000404B3F4DDFF8F480ED1AED08AD0145F0C4
:10FC000001052946414809F0E1F9D8F82C408DF862
:10FC1000079014F0020405D029463D4809F0D6F9B2
:10FC2000002420E0D8F82C305B001CD52946394848
:10FC300009F0CCF998F828302BB101200DF107011B
:10FC4000FFF70AFF0EE098F829302BB101200DF1E3
:10FC50000701FFF793FE05E0B8F82A309BB213B115
:10FC6000FFF724FE04469DF8073093B92022394659
:10FC700002A809F00FFE099B9EB3C3F3080222B944
:10FC80006FEA53236FEA43230993204602A9FFF743
:10FC90005BFD0BB0BDE8F08300200DF10701CFE75D
:10FCA00000200DF10701D4E71149124B1A48C91A77
:10FCB000C908890141F00101B0E70E4A0C4B174811
:10FCC0009B1ADB0815F4F87F4FEA8313144943F0BD
:10FCD000010318BF0146A4F11002124809F097F978
:10FCE0009EE723F4FF7323F00103CDE700ED00E06E
:10FCF00074BF0100CCBE01004BD5010063D40100EC
:10FD000076D50100FCC7010089D50100C7D50100E7
:10FD1000DED50100FFD501001ED6010057D6010037
:10FD200042D6010070D60100044B5A6942F010021D
:10FD30005A615A6942F480625A61704700ED00E0EE
:10FD4000044B9968586A884203D003494FF08052A7
:10FD50000A6070479C1B002004ED00E0BFF34F8F4A
:10FD60000549064BCA6802F4E0621343CB60BFF357
:10FD70004F8F00BFFDE700BF00ED00E00400FA0573
:10FD8000002318460649D1F89020C2F30722934277
:10FD900000D17047C1F89830C1F8A0000133F6E7F0
:10FDA00000ED00E010B572B6002484F31388FFF76D
:10FDB000E7FF23464FF0FF300B4A03F120010133E8
:10FDC000102B42F82100F8D100234FF0FF3003F14F
:10FDD00060010133102B42F82100F8D162B6BFF365
:10FDE0004F8FBFF36F8F10BD00E100E00023202193
:10FDF0000348C2180133452B82F80013F9D170472C
:10FE000000E100E0064B9B68834207D1EFF30583D6
:10FE100023B1044A536843F08053536007F0ECBDAC
:10FE20009C1B002000ED00E01FB5094C094A234649
:10FE30000121094800F028F900230393074B012111
:10FE4000E41A01A80193029400F044F904B010BD33
:10FE500000E007200000002078C10100D803002046
:10FE600010B50B680C7A23F01F0204F01F031A432D
:10FE7000CB68640923F01F03054943EA440343F0B8
:10FE80000103C1F89800C1F89C20C1F8A03010BD52
:10FE900000ED00E0072810B50DD9084B084A0146CF
:10FEA000D21AD2089201074842F0010209F09BF8E9
:10FEB0006FF0150010BDFFF7D3FFFBE7CCBE0100CC
:10FEC00064BF010087D601002DE9F04F8946144632
:10FED00006464FF000085C4D85B0C84533DAD6F8C9
:10FEE00004A0BAF1000F51D0BAF11F0F1ED91AF0B9
:10FEF0001F0F1BD1D6F800B01BF01F0F16D15846AC
:10FF000009F04CFC07460AEB0B00013809F046FCEF
:10FF100087421CD06FF015074C4A4D4B3946D21A18
:10FF2000D20892014B4842F0010208E04146474A9C
:10FF3000474B4948D21AD208920142F0010209F017
:10FF400052F86FF01504204605B0BDE8F08F17F1A8
:10FF5000160FE1D0631EBB42DEDBC5F89870D5F802
:10FF60009C10C5F89870D5F8A03021F01F0143F01F
:10FF70001F0BD6E900321A44994202F1FF3A1DD113
:10FF8000D34507D13146F8B209F011FC08F1010858
:10FF90000C36A2E73146C5F89870D5F89C3022F0AF
:10FFA0001F0203F01F031A43C5F89C20E0B209F0BA
:10FFB000FEFB10F1160FC4D0441CE7E7013BD3450C
:10FFC000E0B223F01F03C5F8987008D1D5F8A0203F
:10FFD000314602F01F021343C5F8A030E7E7D5F819
:10FFE000A01001F01F010B43C5F8A030314609F005
:10FFF000DEFB10F1160FA4D0C5F89870D5F89C2040
:020000040001F9
:100000009DF808300BF1FF3B62F304038DF80830D4
:10001000D5F8A0309DF808205B0863F347128DF8EF
:100020000820D6E900321344009323F01F035B44F9
:10003000A3EB0A03013023F01F036946C0B2039308
:10004000FFF728FFB5E700BF00ED00E064BF010047
:10005000CCBE0100D0D60100ADD601000522044B74
:10006000C3F89420BFF34F8FBFF36F8F704700BF6B
:1000700000ED00E0BFF35F8F0022024BC3F8942035
:10008000704700BF00ED00E038B50D4D0C462A78F2
:10009000FFF71AFF2870163011D140F20513094AF4
:1000A00009490A4808F0BAFC2146094808F0B6FC9C
:1000B000BDE8384040F20511024808F04CBF38BD99
:1000C0002A4E0020F3D60100E6E10100FCC7010042
:1000D0002AD701002DE9F74F324E894605464FF0E9
:1000E0000008B346304FC84502DB03B0BDE8F08FCF
:1000F000D5F804A0BAF1000F4FD029680846019145
:1001000009F04CFB019904460AEB0100013809F0A3
:1001100045FB84424FF01402244B18D06FF01503B6
:1001200002FB08F84BF8083040F21513204A214929
:10013000214808F073FC4946204808F06FFC40F263
:1001400015111B4803B0BDE8F04F08F004BF14F1CF
:10015000160F3460E8D01978A142E5DD02FB08B043
:10016000C7F89840C7F89840D7F89C4000F10801BC
:10017000007B64F304000871D7F8A0000C794008F4
:1001800060F347140C71D7F89C1021F01F017160C7
:10019000D7F8A01021F01F01316108F101081436D1
:1001A0000C35A0E7A40F002000ED00E02A4E00204F
:1001B000F3D60100E6E10100FCC7010056D70100BB
:1001C00038B5224D2C68082C13D94FF49E73204A61
:1001D0002049214808F022FC082221461F4808F047
:1001E0001DFC1B484FF49E7108F0B5FE4FF0FF3028
:1001F00038BD0020FFF73EFF194B1A4AC3F8C02054
:1002000084421BD1184B1C70FFF728FF144BD3F806
:100210009030C3F30723082B0ED014494FF4CF734B
:100220000B4A0D4808F0FAFB114808F0F7FB4FF4B1
:10023000CF71074808F08FFE0020D9E7696801EB0D
:100240000011FFF70DFE0130DAE700BF84C10100A5
:10025000F3D60100E6E10100FCC7010085D70100EB
:1002600000ED00E0AAFF44002A4E0020B9D70100AB
:1002700009D80100014B1860704700BFFC00002046
:100280004FF08053094A0020C2F80432C2F800320D
:1002900042F8D43C42F8D83C1022054BC3F8402425
:1002A0004FF05023C3F81406704700BF0028845055
:1002B0000030005070B516460C46056961B92249F8
:1002C0002423224A224808F0A9FB224808F0A6FB72
:1002D00024211E4808F03FFE636863B91E492523A8
:1002E0001A4A1B4808F09AFB1C4808F097FB252186
:1002F000164808F030FE6B685BB100229C4212D1B8
:100300002368A96852B9A1426B6000D1AB60002399
:1003100023606EB9002070BD0B46EFE7A142136069
:1003200008BFAA60F3E719681A460029F4D13EB164
:100330006B68A86823606C600028EBD1AC60EAE7CA
:100340006FF01500E7E700BF7FD8010052D8010029
:10035000FCC7010088D8010097D80100A9D8010086
:10036000026810B5530904462BD0012B4FF6FF73DA
:1003700018BF002302F01F02D340DB070BD4134940
:1003800013484FF40573134A08F048FB4FF4057106
:10039000104808F0E0FD236803F01F025B092260AB
:1003A0000DD0012B10D00C49094840F21923094AFD
:1003B00008F034FB40F21921064808F0CCFD07484C
:1003C00010BD4FF0FF33D5E70548F9E7CCCB01006E
:1003D000FCC7010099CB0100E6E101000025845033
:1003E0000028845008B5094B1A786AB901210D20FC
:1003F00019700521FFF728F90D20FFF7F3F84FF0EA
:100400000042034BC3F80423002008BD2B4E0020FC
:1004100000D00050B2F5A03F2DE9F74380460E46CC
:1004200017469946046901F01F0540F0AE80436805
:1004300001A81B7A45EA43130193FFF791FF019B43
:10044000803350F82330D80700F1BE800121E368E3
:10045000B1401943E160012100206369B140B7F563
:10046000A03F0CBF0B438B436361A369B9F5C02F59
:100470000CBF0B438B43A3612369B9F5802F0CBFDD
:10048000194323EA0101D8F8043021611B7A504A4C
:1004900045EA4315D2F80433D8F81070DBB200F502
:1004A000A27152F82110C1F305218D4278D123FAAF
:1004B00000F1C90774D5830003F1A04303F550434D
:1004C000D3F8101521F00101C3F810150123834062
:1004D000C2F80833C0B202F03DFF2846002109F0FF
:1004E0005AFAF868F04010F001004BD07869F040FB
:1004F00010F001045CD0BB6901A8F340DB0757BFD3
:100500003969032621FA06F606F001065CBFC6F13A
:100510000206F6B202F03EFF2E4B984245D1002073
:100520009DF804202D02930003F1A04303F55043EE
:10053000D3F8101505F47C5521F44F3121F44071A6
:10054000C3F81015D3F810150D4345EA0646C3F855
:100550001065930003F1A04303F5514318609DF823
:1005600004101B688B0003F1A04303F55043D3F83C
:10057000102542F00102C3F810250123144A8B40D4
:10058000C2F8043303B0BDE8F083B2F5005F7FF436
:100590005DAF012101FA06F3E16821EA030159E7A1
:1005A000013008287FF47BAF97E76FF01200E9E78E
:1005B00039692846F14001F00101C1F10301C9B2D6
:1005C00009F0E9F92046DDE76FF08500DAE700BFC2
:1005D00000D000500000AD0B314BF7B5314C13404B
:1005E000A34240684AD00ED8062B49D006D8002B2B
:1005F00046D0022B46D06FF015003DE0B3F5801FCA
:10060000F9D1012409E0284CA3423DD0B3F5A00F55
:100610003CD0B3F5800FEED10224D50682F480736E
:100620004CBF0326C2F34016C3F300279305C2F361
:10063000402507D51305D0F804C029D501238B40E8
:10064000CCF80830037A01F01F0141EA431101A8F8
:100650000191FFF785FE019B00EB8300D0F800229B
:1006600045EA470343EA042302F0E04243EA8603F3
:100670001343C0F80032002003B0F0BD0724CCE7DC
:100680001C46CAE70424C8E70524C6E70324C4E7D8
:10069000530542BF01238B40CCF80C30D2E700BF9A
:1006A0000600F00006001000020040002DE9F047AF
:1006B0000F461646044610B30568DFF84880DFF899
:1006C0004890DFF848A0A3681E4214D0636863B95D
:1006D000494645234246504608F0A0F90C4808F028
:1006E0009DF94521404608F036FCD4E90132214607
:1006F00038463240984715B12C462D68E3E7BDE8EF
:10070000F08700BF52D80100C0D80100FCC701002B
:10071000A9D80100F0B5002485B0CDE90044CDE9A9
:100720000244284ED6F87C516DB102A9264809F042
:1007300045F903A90090254809F040F90190C6F851
:100740007C41D6F87C3100220126944620491D4C7C
:10075000D4F8043306FA02F0184216D00B68A3B19D
:1007600002F5A27354F8233004AFC3F3403007EB13
:10077000800050F8107CC3F3042306FA03F33B43D4
:10078000C1F800C040F8103C0B680132082A01F1A2
:100790000401DDD1009A22B10E4B0B495868FFF7D6
:1007A00085FF019A22B10C4B08495868FFF77EFF7C
:1007B0002DB1054809F044F9044809F041F905B0A4
:1007C000F0BD00BF00D00050840200209C02002039
:1007D00000D10050C00F0020DC0F0020024B196038
:1007E0001A64C3F8800070470810002008B5064955
:1007F000064B0748C91AC908890141F0010108F0F0
:10080000E5FB6FF0150008BD44BF0100CCBE010040
:10081000DAD8010008B50649064B0748C91AC908C5
:10082000890141F0010108F0D1FB6FF0150008BD0E
:1008300044BF0100CCBE0100F6D801000449054BBD
:100840000548C91AC908890141F0020108F0BEBB78
:1008500044BF0100CCBE010012D9010038B50B4DD8
:1008600095F8C0407CB90A4A0A49204602F0CAFD00
:10087000224601212A20FEF7E7FE074802F0EAFDA2
:10088000012385F8C030002038BD00BF08100020CB
:10089000001000209D080100E8C101002DE9F84387
:1008A00005461A4E1A4FDFF86C800DB9BDE8F88383
:1008B00095FAA5F43CB3B4FA84F30F2B1C460DDD76
:1008C000832332463946404608F0A8F821461248AC
:1008D00008F0A4F88321304608F03DFB01230F48BF
:1008E000A34050F8249025EA0305B9F1000FDCD0AD
:1008F000002304F11001203450F821101A4650F85A
:100900002400C847D1E72024DAE700BF44D901001A
:1009100072D90100FCC7010081D901000810002034
:10092000102A08B51CD84AB10F49104B1048C91AF3
:10093000C908890141F0020108F048FB029B002B25
:1009400009DD0949094B0B48C91AC908890141F059
:10095000020108F03BFB01220020074B5A6008BD52
:100960006FF01500FBE700BF44BF0100CCBE0100E3
:1009700099D90100CDD9010000A00250024B0B60B3
:1009800001231360704700BFD0100020004870475B
:10099000ACC2010070B50D461946284616461C46E5
:1009A00009F087F870B90C4A0C4B0D489B1ADB080C
:1009B0009B012246294643F0010308F028FB6FF013
:1009C000150070BD34B122462946304608F062FF5A
:1009D0000020F6E72046F4E7CCBE010034BF01005A
:1009E00011DA010010B50122064811460BF050F84B
:1009F0000AF03DF9044C20600AF036F960600020EE
:100A000010BD00BFD8100020D0100020F8B50D4652
:100A100014460AF029F921460646284609F049F805
:100A20002F4678B3B5FBF6F306FB135323B9B4FB9B
:100A3000F6F006FB104070B1184A194B29469B1A74
:100A40002246DB089B01174843F0010308F0DFFA58
:100A50006FF0150015E0B44213D34FF0FF324FF0A2
:100A6000FF33114805F0CCFB0AF0FEF80546384686
:100A700002F0C8FD641B2F44F9D10B4805F082FB3E
:100A80002046F8BD054A064B29469B1ADB089B0108
:100A90002246064843F00103D8E700BFCCBE010060
:100AA00034BF01002EDA0100D810002011DA010055
:100AB000F8B50E461946304617461C4608F0F9FFB1
:100AC00070B91F4A1F4B31469B1A2246DB089B0117
:100AD0001D4843F0010308F09AFA6FF01500F8BDC5
:100AE00046EA040515F003050AD0154A154B3146B0
:100AF0009B1ADB089B012246144843F00103EAE7F6
:100B0000DCB14FF0FF324FF0FF33114805F078FBB6
:100B10002B19032BA6EB050009D80E4AD2F8003496
:100B2000DB07FBD50A4805F02DFB0020D7E77B1B30
:100B3000196802F09BFD043DEAE72046CFE700BFBD
:100B4000CCBE010034BF010011DA01004DDA010012
:100B5000D8100020009003502DE9F0471446426859
:100B60008946D2F800800546D8F81415D0F810A0B0
:100B7000013112D140F223333A4A3B493B4807F056
:100B80004DFF3B4807F04AFF364840F2233108F05A
:100B9000E2F96FF08500BDE8F087092BC8BF052199
:100BA000DAF80C70FB66CCBF93FBF1F301233B67D3
:100BB0000023C7E916333B665368C7E91494DA0685
:100BC00025D597F8C16016B3A64228BF26464846E9
:100BD000324607F1BC0108F05DFEA41BB14416D1FA
:100BE000DAF80C20314692F8C13028469B1B82F877
:100BF000C13008F088FFDAF80C1028460122503185
:100C000008F09AFF284608F0B1FF0020C3E7002350
:100C1000C8F83495C8F83845C8F81031D8F810210C
:100C20000122C8F84C31D8F84C31DAF80C3083F88E
:100C3000C2206B685B68DB060FD54FF02003EFF333
:100C4000118483F31188BFF36F8F0221284608F0C7
:100C5000E8FF84F31188BFF36F8F0123C8F80030D9
:100C6000D3E700BF75DA0100E6E10100FCC701002F
:100C7000A9DA0100026810B5530904462BD0012BF4
:100C80004FF6FF7318BF002302F01F02D340DB07AB
:100C90000BD4134913484FF40573134A07F0BEFEF3
:100CA0004FF40571104808F056F9236803F01F024D
:100CB0005B0922600DD0012B10D00C49094840F28D
:100CC0001923094A07F0AAFE40F21921064808F044
:100CD00042F9074810BD4FF0FF33D5E70548F9E763
:100CE000CCCB0100FCC7010099CB0100E6E101007B
:100CF0000025845000288450F0B54B79012B2CD06E
:100D0000032B27D110278B79032B23D1CD792DB13C
:100D1000012D1FD143685B689B071BD00A79012A0C
:100D20001DD0022A1FD0AAB914460B684668B3F535
:100D3000164F36686ED033D8B3F5165F6DD01CD819
:100D4000B3F5966F6BD010D8B3F5967F6AD0B3F534
:100D5000167F6AD06FF085005BE00027D3E74FF481
:100D600080740E22E1E70024FBE7B3F5166F5FD035
:100D7000B3F5965FEED1394B3EE0B3F5E14F5AD073
:100D800007D8B3F5615F58D0B3F5964FE2D1344B35
:100D900032E047F6122C6345DCD14FF400032BE020
:100DA000B3F5613F4BD013D8B3F5963F4AD009D87D
:100DB0004DF6C02C634547D0B3F5614FCAD14FF40F
:100DC0006B0319E0B3F5E13FC4D14FF0EB7313E0CF
:100DD000B3F5612F3BD009D8DFF888C0634539D01F
:100DE000B3F5E12FB6D14FF0E86305E0DFF878C046
:100DF0006345AFD14FF08053C6F8243503692C43C7
:100E00003A432243043303C9C6F86C2583E8030040
:100E10000020F0BD4FF41D03EEE7144BECE74FF458
:100E20009E23E9E74FF4A033E6E74FF41C33E3E7F2
:100E30004FF41D23E0E70E4BDEE70E4BDCE74FF0EF
:100E40006C73D9E70C4BD7E74FF46503D4E74FF049
:100E50007063D1E74FF08063CEE700BF00B01300AE
:100E600000A04E0090D0030040420F000050270029
:100E700000C0750000F03A0000903A01F8B5044651
:100E80000F4606690AF0BAFD10B9284B1B785BBB08
:100E90004FF02003EFF3118183F31188BFF36F8FBD
:100EA00060680D4608F09CFFC8B1F3685BB1DA6872
:100EB0004AB1D3F8B420002A05DA62681268D2F881
:100EC0004C25C3F8B42031460122204601F8147F96
:100ED00008F0CCFE85F31188BFF36F8FF8BD81F366
:100EE0001188BFF36F8FD3E76425606808F078FF3F
:100EF00048B9012009F0B3FE013DF6D100212120BF
:100F000006F02CFDF0E74FF02003EFF3118583F39B
:100F10001188BFF36F8F606808F062FF0028D2D19C
:100F200085F31188BFF36F8FE8E700BF41520020BF
:100F30002DE9F74F0646002201210820FEF784FB29
:100F40000820FEF74FFB736814271C680023D6F8AF
:100F500010800125C4F800356846C8F80060009785
:100F6000FFF788FE009B05FA03F38360384608F01C
:100F7000A6FF162008F0B8FE1623C4F80C75132738
:100F8000C4F81435152008F0AFFE68460097FFF747
:100F900071FE009B9D408560384608F090FF152348
:100FA0003169C4F808753046C4F810350431FFF7CC
:100FB000A3FE8146002840F0F28073685B68180742
:100FC00040D508F1160002F085F9844B98420CD008
:100FD0008349844B8448C91AC908890141F0010139
:100FE00007F0F4FF6FF00409D9E014F5907798F852
:100FF00016500BD17D497E484FF4F6737D4A07F0B9
:101000000DFD4FF4F6717B4807F0A5FF45F0004554
:1010100014F10C0FC7F880500BD1774974484FF486
:10102000F973744A07F0FAFC4FF4F971714807F04C
:1010300092FF0123C4F88C5098F8162093406F4A11
:10104000C2F80435D8F80C30002B00F0B7803769AF
:10105000D6F804A0FB68DAF8005093F8C330EBB17F
:10106000002367490AF1080BCDE90013654A694678
:10107000584602F03BFB594A904200F09480594B8D
:1010800057496148C91AC908890141F0010107F0AF
:101090009DFF4FF00002FB6883F8C320F86890F8CA
:1010A000C330BBB1B03002F015F94C4B984211D0AF
:1010B0004C4B4B495548C91AC908890141F00101F7
:1010C00007F084FF0022FB680AF1080083F8C320C0
:1010D00002F0EAFBFB6893F8C320002A6AD093F879
:1010E000B020DAF8081042F00042C5F8882193F8E1
:1010F000B02042F00042C1F8882093F8B00002F01E
:1011000011F9364B98427FF46DAF0123F868404ADD
:10111000C0F8B830C5F804230822C5F80025D5F872
:101120004C21A2B16B60D5F844311BB9D5F82431FC
:10113000002BF8D00023C5F84C31D5F84C21C5F868
:101140001031D5F81021C5F84431D5F844310022CA
:10115000304978300AF019FDFB68F868C3F8AC70C4
:1011600000222D4918300AF010FDFB68DF64736817
:101170005B681A075CBF4FF48072C4F80423DB0677
:1011800044BF4FF48003C4F8043308F11403C4F8D7
:1011900044350023C4F848350123A360E360484682
:1011A00003B0BDE8F08F584602F034FB584602F019
:1011B00099FB73E70423C5F80433A6E70822C4F8B3
:1011C0000025C4F81031D4F8103108F11503C4F823
:1011D00034350123C4F838352360C8E70000AD0B6F
:1011E000B4BF0100CCBE0100C2DA010019DB01006E
:1011F000FCC70100E1DA01001DDB010000700150B5
:1012000000010307F79A010021DB010061DB010007
:1012100010020A00E59E0100D7A2010070B5012569
:1012200043688D401B6804461D4216460ED10D4989
:1012300040F275430C4A0D4807F0F0FB0C4807F0EC
:10124000EDFB40F27541084807F085FE36B1A36812
:10125000DB6829462046BDE870401847A3681B6933
:10126000F7E700BFE0DB0100B6DB0100FCC70100CF
:101270001EDC01002DE9F84306460F460024DFF886
:101280005080DFF8509026FA04F227FA04F3134353
:10129000DB0718D5D24308EBC403197959F82400A9
:1012A00002F00102FFF7BAFF054660B10A490B4B95
:1012B0000B48C91AC908890141F0010107F086FEEF
:1012C0002846BDE8F8830134042CDCD10025F7E77B
:1012D000F0C20100EC10002024BF0100CCBE0100D0
:1012E00030DC01002DE9F74F00272E4DDFF8B880E4
:1012F000DFF8B890286803F063FF044648F8040B51
:1013000078B92B4B2B492C48C91AC908890141F0DF
:10131000010107F05BFE6FF01204204603B0BDE848
:10132000F08F95F804A00126836806FA0AF6019367
:101330004368D0F810B01B681E420ED11F494FF40D
:101340003C734A461E4807F069FB1E4807F066FBDF
:101350004FF43C71484607F0FEFDDBF800302046B4
:1013600023EA0603CBF80030019B4FF4007251468C
:101370001B689847044650B10D4B0E491248C91AD4
:10138000C908890141F0010107F020FEC5E70137D6
:10139000042F05F10805ADD10F2103B0BDE8F04FD2
:1013A000FFF768BFF0C20100EC100020B6DB0100BF
:1013B000CCBE010024BF010046DC0100E0DB0100DF
:1013C000FCC701001EDC01005EDC0100032810B533
:1013D0000DD9144B14491548C91AC908890141F09F
:1013E000010107F0F3FD6FF01504204610BDB1FABE
:1013F00081F20F4B520903EBC00319790D4B53F8DF
:101400002000FFF70BFF04460028EED0054B0649ED
:101410000948C91AC908890141F0010107F0D6FD40
:10142000E3E700BFCCBE010024BF010078DC01006F
:10143000F0C20100EC10002030DC010008B5FCF720
:1014400049FF064B06490748C91AC908890141F0F6
:10145000010107F0BBFD0020FEF780FCCCBE0100BF
:101460002CBF0100A7DC010037B5074D074C4FF03A
:10147000FF3269464FF0FF33284604F019FBDDE9DF
:10148000000123689847F2E7201100206011002036
:101490002DE9F047044688B048B927492748432337
:1014A000274A07F0BBFA4321254807F054FD254B96
:1014B0001C600822244811460AF0EAFA002838DBAA
:1014C000FF22002121480AF0E3FA002831DB002442
:1014D0004FF07F421E4B1C601E4BD3E8EF1FC3E84A
:1014E000E02F0028F9D1022308221B491B480AF0EB
:1014F00099FA4FF000084FF000092546184F194E91
:10150000DFF864A0022331463846CDE902534FF498
:1015100000625346CDE90689CDE9005504950134B2
:1015200004F012F9032C07F1800706F50066E9D1F3
:10153000002008B0BDE8F087F0DC0100FCC7010026
:10154000C4DC01006011002010110020FC100020FC
:101550005C1100200C1100204C11002020110020F3
:1015600090040020485500206914010007B5CDE91A
:1015700000014FF0FF324FF0FF336946024804F09C
:10158000F5F903B05DF804FB2011002070B50F4C95
:101590004FF0FF324FF0FF330D4804F031FE4FF0B3
:1015A00000452146D4E8AF3FB3FA83F025FA00F2B4
:1015B00023EA0202D1E8EF6F9E4204D1C1E8EC2F8A
:1015C000BCF1000FF6D1EDD170BD00BF0C110020B1
:1015D00010110020072810B5044609D90D490E48FE
:1015E00094230E4A07F01AFA94210C4807F0B3FC32
:1015F0004FF000400A4B20FA04F4D3E8EF2F2243C7
:10160000C3E8E12F0029F8D1BDE81040054804F0F7
:10161000B9BD00BF08DD0100FCC70100C4DC01004A
:101620000C1100201011002070B5041E13DC1849A5
:101630009C23184A184807F0F1F99C21154807F037
:101640008AFC164D164E2B689C420EDC144E2B68FD
:101650009C4211DB70BDFF2CF3DD12499D230D4A26
:101660000D4807F0DBF99D21E8E7304604F08AFDDC
:101670002B6801332B60E6E74FF0FF334FF0FF326A
:10168000304604F0BDFD2B68013B2B60DFE700BF57
:1016900013DD0100C4DC0100FCC701005C11002067
:1016A000FC1000201DDD010070B514461D4621B957
:1016B000BDE870400D4804F065BD022914D162B93F
:1016C0000B4951230B4A0C4807F0A8F90B4807F0C7
:1016D000A5F95121074807F03EFC094B2946204651
:1016E000BDE870401B68184770BD00BF780300203C
:1016F00064DD010035DD0100FCC7010077DD01007C
:10170000AC11002010B5044660B914495C23144A9A
:10171000144807F083F9144807F080F95C21104859
:1017200007F019FC114B1C6000F0B2F8044638B900
:10173000034601210E4A0F4800F0CEF9044620B1BD
:101740002046BDE8104008F0F7BD4FF0FF324FF0E3
:10175000FF33094804F054FD204610BDF0DC0100C1
:1017600035DD0100FCC7010077DD0100AC11002070
:10177000A9160100641100207803002038B50D4639
:10178000044660B90A497A230A4A0B4807F046F929
:101790000A4807F043F97A21064807F0DCFB2A469D
:1017A0002146074808F0F3FDBDE8384008F0C4BD05
:1017B00064DD010035DD0100FCC7010077DD0100BB
:1017C00064110020014B1970704700BF00A0072072
:1017D000014B186809F0C1BC8C1200200149024875
:1017E00004F032BF941200201006002070B513469A
:1017F0000446E2B9436C13F0010516D10E4908F016
:10180000B9FD0E4B0E49626CC91AC90842F00102BB
:1018100089010C48626441F0030107F0D7FB2B46B5
:101820002A4629462046266CB047002070BD0A464D
:10183000046C0221A047F8E7A0F90100CCBE01002A
:1018400084BF01009DDD01000D4B13B51868002316
:1018500082680093194614681A46A047014660B191
:10186000084B094A0948D21AD208920142F00102F3
:1018700002B0BDE8104007F0B6BB02B010BD00BF1B
:10188000B0110020CCBE010084BF0100ACDD01001E
:101890002DE9F0416F4B86B00493062304A88DF820
:1018A000143002F037F9044670B16B4A6B4B0146B5
:1018B000D21AD20892016A4842F0010207F093FB63
:1018C000204606B0BDE8F081664802F003F9044600
:1018D00048B1614A614B0146D21AD208920162486E
:1018E00042F00102EAE76149614803AA09F0C2F93E
:1018F000044648B1584A594B0146D21AD2089201BF
:101900005C4842F00102D9E7039DAB680BB10C358E
:101910000CD15149514B5848C91AC908890141F0A5
:10192000010107F053FB6FF01204C9E7534803F0BD
:1019300047FC534B186040B94749484B5148C91AB6
:10194000C908890141F00101EBE74F4803F038FC79
:1019500040B94149414B4D48C91AC908890141F074
:101960000101DEE7836822465B6849499847B42055
:101970000AF03BF9064618B1B422214607F0B5FF3C
:10198000444F3E6066B93449344B4348C91AC908CC
:10199000890141F0010107F019FB6FF00B048FE79B
:1019A000B4200AF022F9064618B1B422002107F04B
:1019B0009CFF7E6046B92849284B3848C91AC90897
:1019C000890141F00101E6E7354A364B10215360A9
:1019D0000423936013620223386800279661324E15
:1019E0001060DFF8C8803248B362324B9181D06119
:1019F0009184404630495561D562F2624FF470528D
:101A00003362B76109F057FD31462B463A462B4801
:101A1000CDF8008002F0EEFA014648B10E4A0F4BB5
:101A20002748D21AD208920142F0010207F0DBFAED
:101A3000244B224A244925481A6004F0DDFD002386
:101A40004FF4C062009322494FF0FF33214804F065
:101A50005FFE35E7653B010084BF0100CCBE01009D
:101A6000C1DD010018010020E4DD01000FDE0100EE
:101A700019DE010021DE01003EDE01003ED9010039
:101A8000B01100206ADE0100FED901008DDE0100E8
:101A9000DD1701008C120020B0DE0100D9DE01004C
:101AA0005012002000DC0720B00600208012002029
:101AB00000D8072010C3010000A40720B81100209F
:101AC00002DF0100B4110020D117010094120020A0
