:020000040000FA
:1000000050270020F9020000010300000303000054
:1000100005030000070300000903000000000000C2
:100020000000000000000000000000000B030000C2
:100030000D030000000000000F030000110300008A
:10004000130300001303000039060000130300002F
:100050005504000013030000A10300001303000077
:100060001303000013030000130300001303000038
:100070001303000013030000130300001303000028
:1000800013030000450400001303000013030000E5
:100090001303000013030000130300001303000008
:1000A00013030000130300001303000013030000F8
:1000B0001303000013030000000000000000000014
:1000C00013030000130300001303000013030000D8
:1000D00013030000130300001303000013030000C8
:1000E00013030000130300001303000000000000CE
:1000F00000000000130300000000000013030000D4
:1001000000000000000000000000000000000000EF
:1001100000000000000000000000000000000000DF
:1001200000000000000000000000000000000000CF
:1001300000000000000000000000000000000000BF
:1001400000000000000000000000000000000000AF
:10015000000000000000000000000000000000009F
:10016000000000000000000000000000000000008F
:10017000000000000000000000000000000000007F
:10018000000000000000000000000000000000006F
:10019000000000000000000000000000000000005F
:1001A000000000000000000000000000000000004F
:1001B000000000000000000000000000000000003F
:1001C000000000000000000000000000000000002F
:1001D000000000000000000000000000000000001F
:1001E000000000000000000000000000000000000F
:1001F00000000000000000000000000000000000FF
:10020000DFF80CD000F0BAF800480047BD0B000042
:100210005027002030B4044654E8000F0D4644E84F
:100220000053002BF8D1156030BC704730B4044641
:1002300054E8000F40EA010544E80053002BF7D1D1
:10024000156030BC704730B4044654E8000F00EA33
:10025000010544E80053002BF7D1156030BC70470E
:1002600030B4044654E8000F80EA010544E8005326
:10027000002BF7D1156030BC704730B4044654E809
:10028000000F00EB010544E80053002BF7D1156087
:1002900030BC704730B4044654E8000FA0EB0105B1
:1002A00044E80053002BF7D1156030BC704770B4A0
:1002B00004464FF0000054E8006F0D68AE4207BFDF
:1002C00044E80023012044E800630E60002B1CBFBB
:1002D0000020F0E770BC704730B4044654E8000FCB
:1002E00088422CBF451A054644E80053002BF5D13F
:1002F000156030BC7047000006488047064800473C
:10030000FEE7FEE7FEE7FEE7FEE7FEE7FEE7FEE7C5
:10031000FEE7FEE7650400000102000000487047A8
:10032000AC2A000040EA01039B0703D009E008C99A
:10033000121F08C0042AFAD203E011F8013B00F8AA
:10034000013B521EF9D27047D2B201E000F8012BF6
:10035000491EFBD270470022F6E710B513460A4645
:1003600004461946FFF7F0FF204610BD421C10F866
:10037000011B0029FBD1801A70470000064C074D75
:1003800006E0E06840F0010394E807009847103465
:10039000AC42F6D3FFF738FF782B0000982B000013
:1003A0002DE9FC410025DFF8948000954FF480761C
:1003B00001242F460195304600F0B0FF38B1D8F83F
:1003C0000403204203D0304600F09EFF2543361D33
:1003D00064007F1CB6B2082FEDD34FF4BE742046E4
:1003E00000F09CFF48B1204600F08EFF45F000452C
:1003F0006A460221002000F00FFF15F0FF0F16D013
:10040000012600242E420ED008EB8401D1F81005FD
:10041000D1F81015C0F30520094AC1F3014152F883
:10042000242002B190477600641C082CEAD3002DEA
:1004300002DA684601F0A8FEBDE8FC8100600040D9
:10044000C000002002490248091F096800680847E7
:100450003400002002494FF0402001F0FDBF0000B1
:100460002C01002070B54FF080520124D2E94C10CD
:100470000023082906D1CD06C5F80C31C5F8103186
:100480005E4D2B60082955D15D4D2D685D4E356060
:100490005B4D2D1D2D68361D3560594D08352D6875
:1004A000361D3560564D0C352D68361D3560544D62
:1004B00010352D68361D3560514D14352D68361DAB
:1004C00035604F4D18352D684E4E203635604C4DF9
:1004D0001C352D68361D3560494D20352D68361D7B
:1004E0003560474D24352D68361D3560444D28351F
:1004F0002D68361D3560424D2C352D68361D356012
:100500003F4D30352D683F4E403635603C4D3435DB
:100510002D68361D35603A4D38352D68361D3560ED
:10052000374D3C352D68361D3560354D40352D68CD
:10053000361D3560082904D1050002D1334E324DF5
:100540003560082904D1050002D1314EFB25356004
:10055000082908D1050006D192F858622D4A15687D
:1005600066F303051560082904D1020002D12A4D63
:100570008A012A60082906D128480168C90702D0E3
:100580006FF0010101602648016841F470010160CB
:10059000BFF34F8FBFF36F8F4FF01021D1F80002E0
:1005A000002803DBD1F80402002822DA1D4A146077
:1005B0001D480468002CFCD01224C1F800420568D4
:1005C000002DFCD0C1F8044201680029FCD0136062
:1005D00001680029FCD0BFF34F8F11487C380168B7
:1005E000124A01F4E06111430160BFF34F8F00BF75
:1005F000FDE710490E48086070BD00003805004056
:100600000404001020C50040488103008C560040BF
:1006100018F50040E40E00404096024000040040FF
:1006200088ED00E004E5014000E401400400FA0523
:100630000090D003B000002001480068004700008F
:100640002400002002E008C8121F08C1002AFAD1C5
:1006500070477047002001E001C1121F002AFBD142
:100660007047000072B601F0E9F800BF00F03CFFEF
:100670000028FBD111481249401AC408012000EBA0
:10068000044010A101F04AF811480068C00700D0EA
:1006900000BE022000EB04400EA101F03FF8BFF3C2
:1006A0004F8F0B48E43801680E4A01F4E0611143B2
:1006B0000160BFF34F8F00BFFDE70000E82B000093
:1006C000A82B0000466174616C206572726F720025
:1006D000F0ED00E053797374656D20726573657495
:1006E000000000000400FA050EB500210091CDE9DC
:1006F00001106A4644F20100FFF7B4FF0EBD00F09E
:1007000003B800F009B8000072B602480168491C3D
:10071000016070472C00002003490868401E0860F3
:1007200000D162B6704700002C00002070B505466D
:1007300008680C46411C04D000F0BEFD206800F0A3
:100740003FFD6068411C02D0002100F027FD2968B0
:10075000A069C1F82405607D227D29681043C1F895
:100760006C05D4E900122868C0F81425C0F80C15EF
:10077000207D012814D1A068411C02D0002100F086
:100780000DFDE068411C04D000F096FDE06800F02B
:1007900017FDD4E902122868C0F80825C0F8101522
:1007A00070BD70B5054608680C46411C04D000F0C9
:1007B0008DFD206800F00EFD6068411C02D0002114
:1007C00000F0F5FC2968A069C1F82405607D217D51
:1007D0002A680843C2F86C05D4E900122868C0F8FA
:1007E0000C15C0F81425207D012814D1A068411CE7
:1007F00002D0002100F0DBFCE068411C04D000F0D6
:1008000065FDE06800F0E6FCD4E902122868C0F853
:100810000825C0F8101570BD2DE9FC410646C0073B
:100820004FF000050ED0104F00240122385D0095D6
:1008300000231146019500F039FC641C042CF4D30C
:1008400000F032F8B0070DD5074E0024361D002207
:10085000305D032300951146019500F027FC641CD0
:10086000042CF4D3BDE8FC81C4290000094908B573
:10087000085C0090684600F0E7FCD0F80425009B77
:100880000121994021EA0203C0F808351140C0F85F
:100890000C1508BDC42900000249085C012100F0C4
:1008A0001FBD0000C429000010B500242046FFF73A
:1008B000F3FF641C042CF9D310BD00002DE9F047B0
:1008C0000546861C91460F464FF0010A0020FFF7AF
:1008D00016FF1B4C04F21C4860683860D4E9010123
:1008E000184F401A3968081A0EE00121404600F0FE
:1008F00025FA00F011F90146404600F01FFAD4E94C
:100900000101401A3968081A401C8642EDD8B9F135
:10091000000F03D0052065F3891002E0062065F37F
:100920009F5061683A68114004EB8101C8606068BB
:10093000304460600020FFF7E4FE5046BDE8F087D9
:10094000300300205C00002070B50D4604460A29E3
:1009500002D10D21FFF7F8FFA0682268411CA160B9
:100960001554D4E90101814204D32046BDE870400A
:1009700000F0A3BA70BD000004488168406881425D
:1009800001D1012070470020704700003003002093
:100990000249084490F9300070470000C000002070
:1009A00010B50021024800F0D4F980F3100010BD0A
:1009B0004C0700202DE9FC5F0E008346DDE90C4763
:1009C000C6F1000098469246814600D408460125AB
:1009D00003E000BF90FBFAF06D1C5045FADAA84521
:1009E00000D9454624B1002E01DB780700D5641EEE
:1009F000B80702D5B8F1000F0AD0F80708D13CB10A
:100A0000A54205D220215846641EFFF79DFFF6E758
:100A1000002E02DA4E462D2102E0780703D52B2165
:100A20005846FFF791FF07F0030002280BD1B8F1F9
:100A3000000F08D13CB1A54205D230215846641EB2
:100A4000FFF782FFF6E7CDE90047434652463146BD
:100A5000584601F04DFFBDE8FC9F000070B50D4603
:100A6000044600684FF4887100F0F4FF4FF4907171
:100A7000206800F0EFFF4FF49271206800F0EAFF69
:100A80004FF4A271206800F0E5FF4FF4AC712068CC
:100A900000F0E0FF20681249C0F8041320686907DD
:100AA00040F30730090E002804DB00F1E02080F855
:100AB000001405E000F00F0000F1E02080F8141DA4
:100AC000206840F30730002809DB00F01F020121F5
:100AD00091404009800000F1E020C0F8001170BD95
:100AE00010034200024600201268530713D502F09B
:100AF0000300012802D002280CD105E0C2F38310C4
:100B00000B68801C184404E00223086803EB92522F
:100B100010440860012070472DE9FF410026244859
:100B200000F009F92248001F074600F004F9214CA3
:100B30002149A06800900D6800E0009869462840AF
:100B400004EB80000C30FFF7CDFF0028F5D101AA9F
:100B5000009901EA050304EB8303491CDB6842F8B2
:100B60002030401C00910228F2D3019800F00300CD
:100B700001280BD0022810D10198032101EB9050DD
:100B80000099BDF80A6001EB900005E00198BDF8FE
:100B90000A60C0F3831008440090384600F0C8F89B
:100BA00008B10098A06004B03046BDE8F0810000B4
:100BB00048070020300300205C000020012081074E
:100BC00088B08867FFF728FE4FF48041002000F0CE
:100BD00009FE08B1FFF788FD00F078FC1F482049A6
:100BE000401AC008032101EB00401EA100F096FD51
:100BF0001822204901A8FFF795FB1F2004901E2012
:100C000001901D2002901A2003901A481A4A01A947
:100C1000083800F003F908B1FFF766FD0025174C0E
:100C20000726A560A581A5732570144B11480833CC
:100C30000722D91F0838009600F044FF18B1FFF7CB
:100C400053FD00E020BF20780028FBD000F04CFCD2
:100C50000028FBD1FFF70AFEE3E70000E82B0000C5
:100C6000A82B000053504953206578616D706C6566
:100C700000000000AC290000F52300000000002067
:100C80002DE9F047C5881E1DB6FBF5F78946B6FB72
:100C9000F5F1044605FB176C407916686843DDF8EA
:100CA00020A0F718001F874200D9C61A166001E07D
:100CB0002468491E0029FBD1A5EB0C078846B742E2
:100CC00016D818E004EB0C00001D09EB0803BAF17C
:100CD000000F3A4602D00146184600E01946FFF7D9
:100CE00021FB2468F61B4FF0000CB844B54201D933
:100CF000374600E02F46002EE4D1BDE8F087000023
:100D000030B5024651B100F081FD0021074C08E0EA
:100D100034F821301568AB4202D11160002030BD9B
:100D2000491C8142F4D3052030BD000000000000C2
:100D3000002100F009B8012100F010B808B56A469A
:100D4000FFF79BFA009808BD08B56A46FFF77BFAE3
:100D500008BD08B56A46FFF75DFA08BD08B56A46E2
:100D6000FFF764FA009808BD08B56A46FFF792FAE3
:100D7000009808BD70B5044600252846FFF7BFFC63
:100D800021686268086890420ED9401E08600178A8
:100D9000238AE26801FB0325227A2168101AC0B277
:100DA0000A79824200D208710020FFF7AAFC284687
:100DB00070BD70B505460C460020FFF7A0FCE86842
:100DC000298A201AB0FBF1F12A681068431C1360CD
:100DD0000170BDE870400020FFF793BC10B530B142
:100DE000017A42680368891AC9B21A6006E00E20C7
:100DF00010BD03681A68541C1C601170491EC9B2EA
:100E0000F7D2006800210171084610BDC20800F049
:100E100007030120895C98400840704730B403798B
:100E2000034C44F8232030BC024A00F08BBE000083
:100E3000B400002049240000F0B5054604781548A8
:100E400089B0164640F82420124A08690832A2F1F7
:100E50000C0742F82400487F385520226846FFF7E7
:100E600061FA04942878385C48B10EB10A4A00E06F
:100E700000226946281D01F069F809B0F0BD0EB1E5
:100E8000064A00E00022694605F10C0000F028FF48
:100E9000F3E7000014000020AD270000F525000056
:100EA0000FB408B50399002904D004AA00926A4639
:100EB00000F00FF801B05DF814FB10B5826804462D
:100EC000002A05D0D4E90403216898470020A060D7
:100ED00010BD2DE9FC4791460C00804676D014F8F1
:100EE000011B39B125290ED04046FFF72DFD207892
:100EF0000028F4D198F80C00002867D04046BDE8DF
:100F0000FC47FFF7DABF0020012221782B291BD0F4
:100F10002D2902D0302908D102E040F0010001E083
:100F200040F00200641C002AEFD100252A290ED0CF
:100F30002178A1F130020A2A11D205EB850201EBDA
:100F40004205641C303DF1E740F00400EAE7D9F8BF
:100F500000100B1DC9F800300968641C0D4421788D
:100F600000232E290BD114F8011FA1F130020A2A07
:100F700005D203EB830201EB4203303BF3E76C291C
:100F80000DD068290BD0692921D00BDC252918D078
:100F9000582931D063290ED0642915D117E014F8EF
:100FA000011FECE7702969D0732932D075291BD055
:100FB000782909D120E0D9F80000011DC9F80010F6
:100FC00001784046FFF7C0FC641C90E76CE0D9F85C
:100FD00000100A1DC9F800200968CDE900500A2256
:100FE0004046FFF7E7FCEFE7D9F800100A1DC9F803
:100FF000002009680A2206E0D9F800100A1DC9F885
:10100000002009681022CDE90050404601F070FC34
:10101000DAE7D9F8001000270A1DC9F800200E6889
:10102000C00705D112E04046761C7F1CFFF78CFC00
:1010300031780029F7D104E0202140466D1EFFF7EA
:1010400083FCBD42C0D9002DF6D1BDE74EB130467C
:10105000FFF78CF9074604E0202140466D1EFFF79C
:1010600073FCBD4206D9002DF6D103E04046761C44
:10107000FFF76AFC31780029F8D1A5E7D9F800001C
:10108000011DC9F80010056830214046FFF75CFCDF
:1010900078214046FFF758FC08200021CDE90001E7
:1010A000034610222946B0E7BDE8FC872DE9FF4141
:1010B0001C46DDE90A7815460E46684600F0C4F87D
:1010C00046EA450141EA840141EA072242EA084131
:1010D000009A00EB8200C0F80017BDE8FF81000015
:1010E00070B52028DDE9046502D24FF0A04402E08B
:1010F000074C00F01F0041EA420141EA830141EA46
:10110000062104EB800041EA0541C0F8001770BDDC
:10111000000300502DE9FF411C46DDE90A78154621
:101120000E46684600F0ACF846EA450141EA840103
:1011300041EA072242EA0841009A00EB8200C0F827
:101140000017BDE8FF812DE9FF411C46DDE90A7863
:1011500015460E46684600F0A1F846EA450141EA08
:10116000840141EA072242EA0841009A00EB82002A
:10117000C0F80017BDE8FF811CB5002100910B46A7
:1011800001220191FFF7C6FF1CBD1CB50021009193
:101190000B4601220191FFF7D6FF1CBD1CB50022B2
:1011A0000B46009211460192FFF7B4FF1CBD1CB51F
:1011B00000220B46009211460192FFF7C4FF1CBDAE
:1011C0001CB5002100910B46012201911146FFF749
:1011D000A1FF1CBD1CB5002100910B46012201910D
:1011E0001146FFF7B0FF1CBD13B50C46684600F072
:1011F00039F8009900EB8101D1F8002722F4403240
:10120000C1F80027009900EB8100D0F8001741EAEF
:101210000441C0F800171CBD3CB50A4CD4E90034A9
:10122000CDE900346B46441808E000BF53F82010A5
:10123000D1F8205520C2C1F82055401C8442F5D871
:101240003CBD0000CC2900000168202902D24FF0EB
:10125000A040704701F01F01016001487047000085
:10126000000300500168202902D24FF0A0407047CF
:1012700001F01F01016001487047000000030050A9
:101280000168202902D24FF0A040704701F01F01F1
:1012900001600148704700000003005001682029E8
:1012A00002D24FF0A040704701F01F0101600148D9
:1012B000704700000003005001B56846FFF7E0FFEB
:1012C000009A01219140C0F8081508BD01B5684693
:1012D000FFF7E4FF009A01219140C0F8081508BD0E
:1012E00038B501240090684631B1FFF7ADFF009991
:1012F0008C40C0F8084538BDFFF7A6FF00998C4028
:10130000C0F80C4538BD0000034908B50844002169
:1013100001600068009008BD00600040024940582C
:10132000012800D0002070470060004030B5154A09
:1013300001460020D2F8104423460AE0DB681D79FC
:10134000854205D1401C0A28F6DB4FF0FF3030BD46
:101350001B68002BF2D1431CF9D0CB681871D2F86E
:10136000103443B1DB68CC681B682360D2F81024CA
:10137000D268116030BDC2F81014C96800220A603A
:1013800030BD000030030020F0B595B01C46154676
:101390000F4608461A9E00F009FB182109A8FEF71F
:1013A000DAFF0E96CDE909540023082203A9384636
:1013B00000F011FB05980690BDF81000ADF81C0078
:1013C000BDF81200ADF81E0000208DF82100039832
:1013D000082600F00300012802D0022818D032E0CD
:1013E00003983346850AC0F3C2008DF820000398A5
:1013F0000FA9C0F38314A200384600F0ECFA09A844
:10140000009006AB22460FA9284600F02BFA1AE0FE
:101410000398840DC0F3C2008DF82000082C01D27F
:10142000254600E0082533462A460FA9384600F035
:10143000D2FA2E44641B09AB06AA29460FA800F075
:1014400079F9002CEAD1384600F0B6FA15B0F0BDB3
:101450007047012001F0ECB8084810B50178084A3F
:10146000515C19B1001D00F00BFE02E00C3000F0E1
:1014700005FDBDE81040002001F0DAB84000002072
:101480001000002008B5034A00924023024AFFF7EB
:101490007BFF08BDB5230000980100200A4A0129FE
:1014A00002EBC00007D0022907D0032907D0042986
:1014B00007D0002070470220704704207047007951
:1014C0007047407970470000A82B000010B5FFF767
:1014D000C0FF04210348FFF729FF02490120C96822
:1014E000487110BD982B00002DE9F0478CB0FFF734
:1014F00043FA18B100200CB0BDE8F0877D4C002005
:10150000C4F81804BFF34F8F7B49A06802900D68A0
:101510004FF00008284004EB80000BE0D4F81804DA
:1015200070B961680298814201D8A160E2E7284061
:1015300004EB80000C3002A9FFF7D4FA0028EDD1AB
:10154000002003AA029901EA050304EB8303491C66
:10155000DB6842F82030401C02910228F2D3039845
:1015600000F00300022802D001284DD0A7E0039824
:101570005022810D8946B2EB905F00D850210E4673
:1015800066F39F50039008315C4800F0C6F90700ED
:1015900078D000F00BFA4346082203A9384600F041
:1015A00022FA029908F1080A2940681A8000001DF1
:1015B000864222D94F4D0C3530B1C2B204EB8101C5
:1015C000301A90460C3104E02946F2B200259046CC
:1015D0002846C6B25346384600F005FA0AEB08031F
:1015E00025B132462946384600F0FDF9029909F145
:1015F000030001EB900002903BE004EB81015346B5
:10160000324638460C31EFE70398C0F383100628C2
:1016100000D30620039960F38911C1F38310801C65
:1016200003918100354800F078F9070047D000F0B9
:10163000BDF94346082203A9384600F0D4F908F161
:10164000080800260FE00298434600EA0501401C06
:1016500004EB81010290042238460C3100F0C3F9FA
:1016600008F10408761C0398C0F38310B042EAD84E
:1016700047B1D4F81054D4F8180478B1384600F0C3
:101680009BF931E01BE0E8684079012804D12A6821
:101690002846394612689047E8680568002DF2D15F
:1016A000384600F089F90020FFF729F8D4F818042B
:1016B00008B90298A0600020FFF723F814E0D4F8DE
:1016C000104405E02168204689688847E06804687E
:1016D000002CF7D10A480B49401AC008022101EB3F
:1016E000004009A100F01AF8FFF746F980F0010068
:1016F00001E70000300300205C000020F02B000018
:10170000E82B0000A82B00004261636B656E6473D8
:1017100020666C75736865640000000000231A463B
:1017200000F0F4BE08B5012300926A4600F0EEFE18
:1017300008BD00002DE9F0470E4680461C46924643
:10174000082940D894F80C900020207319461046C0
:1017500000F0A8FD0025B54206D218F805201BA10F
:101760002046FFF79DFB03E01AA12046FFF798FBF8
:101770006D1C082DEFD318A12046FFF791FB002523
:10178000B54212D218F805707E2F08D8FEF7C6FDB4
:101790000068C05D10F03E0F01D03A4600E02E22F6
:1017A0000EA12046FFF77CFB03E00DA12046FFF7CA
:1017B00077FB6D1C082DE3D301222146504600F033
:1017C00053FD84F80C90BDE8F087000020253032EE
:1017D00078000000202020007C000000256300002D
:1017E00020000000064910B500200870054800F0F0
:1017F000E1F8002803D1044800F0FDF8002010BDF6
:1018000030030020F02B00001C2A0000024803498E
:10181000401AC00870470000F02B0000A82B000001
:1018200013B56846FFF76CFA08B100201CBD0248EA
:10183000009950F831001CBDA82B000070B5084875
:101840000125D0F81044057007E0E0684571216873
:10185000204649688847E0680468002CF5D170BDCF
:10186000300300202DE9FF4781460C9D00200C46E7
:101870002F7B2873984616462946184600F012FD1D
:10188000072E42D2DFE806F004090F161F2A3600A1
:1018900049462846FFF704FB37E0494628462268B8
:1018A000FFF7FEFA31E0D4E9002349462846FFF766
:1018B000F7FA2AE0A0680090D4E9002349462846B8
:1018C000FFF7EEFA21E0D4E90201CDE90001D4E905
:1018D000002349462846FFF7E3FA16E004F1080022
:1018E00007C88DE80700D4E9002349462846FFF7DA
:1018F000D7FA0AE004F108000FC88DE80F00D4E918
:10190000002349462846FFF7CBFA002229464046E5
:1019100000F0AAFC2F73BDE8FF872DE9F041058A8E
:1019200080462D1F4819C01CB0FBF5F0C6B24046DA
:10193000FFF720FA041E19D00020207101206071E9
:10194000E58000272546761EC4F800800BE040465F
:10195000FFF710FA60B16179491C61712860054692
:101960007F1CC0F80080B742F1D32046BDE8F0816B
:10197000204600F002F80020F8E72DE9F041457913
:1019800001466B1E002201E00968521C9A42FBD3FB
:101990000F680146002605E038460C68FFF709FA93
:1019A0002146761CAE42F7D3BDE8F0810121001D2F
:1019B000FFF7C4B9FFF712BA10B504460121001DA4
:1019C000FFF7D2F910F0FF0F04D12046BDE8104018
:1019D000FFF7D3BF10BD1CB501920122009201AAEE
:1019E000FFF74EF91CBD1CB501920022009201AA1E
:1019F000FFF746F91CBD8268002191608268116181
:101A0000826851618268D16082685160806801603B
:101A100070474058002800D00120704708B50022C8
:101A200042504058009008BD4058002800D0012086
:101A3000704708B5002242504058009008BDD0F8C9
:101A40000403084000D0012070474058002800D00F
:101A50000120704708B5002242504058009008BD50
:101A60000121B1EB507F01D1012070470020704768
:101A70000121B1EB507F01D1012070470020704758
:101A800070B50D4600F05AFC04000FD00020FEF7A0
:101A900036FE207920B10020FEF733FE112070BD04
:101AA0000120256020710020FEF72BFE002070BD74
:101AB00010B500F043FC002802D000210160017144
:101AC00010BD00002DE9F0478046174600790E460C
:101AD0001B4AC0EBC001DDF820901D4602EB8104DB
:101AE00028B94FF48031894501D28F4202D30920B1
:101AF000BDE8F0871EB13046FFF7B2FF78B11DB1E7
:101B00002846FFF7ADFF50B1607D50B1012815D0D8
:101B1000022806D0032804D003252846E8E7102031
:101B2000E6E7C4E903652760C4F8049000250122B4
:101B30002146D8F8000000F0C9FCEEE70825ECE7E4
:101B40002C0100202DE9FF4F80460D460079934679
:101B50005D49C0EBC00201EB8207D8F80040397D37
:101B600083B019B1082007B0BDE8F08F297C0329A4
:101B700001D90720F7E7554951F820102046FFF713
:101B80007FFF08B11120EEE7286800264FF0FF39EB
:101B9000FF280AD0E97CCDE9001600231A46194631
:101BA000FFF79EFAD5F800A000E0CA466868FF2853
:101BB00008D0002300961A4619460196FFF790FABE
:101BC000D5F80490009601960022AB7C1146E86897
:101BD000FFF786FA0023009601961A461946A86870
:101BE000FFF77EFAD5E90223C4F80825C4F810955A
:101BF000C4F80CA5C4F81435C4F83465C4F83865C5
:101C0000C4F84465C4F84865297C687C00B10120AB
:101C1000012904D0022905D0032908D105E040F0AC
:101C2000020004E040F0040001E040F00600C4F8C7
:101C30005405287DC4F85C05687DC4F8C0054FF4E0
:101C400082712046FFF7EAFE4FF494712046FFF7B9
:101C5000E5FED4F8000240F00400C4F800027E75EE
:101C6000C7F808B00698B86140F20240C4F804030F
:101C7000D8F80000A97D40F3073000284FEA411151
:101C800004DB00F1E02080F8001405E000F00F0014
:101C900000F1E02080F8141DD8F80000012140F385
:101CA0000730002809DB00F01F0201FA02F24009A8
:101CB000800000F1E020C0F8002139750220C4F84E
:101CC000000500204FE700002C010020D42900006F
:101CD0000149024800F0D4BC480100200020004027
:101CE0002DE9F0410546007916460F4600EB40010C
:101CF0002D4A01EBC00102EB810494F82A1011B1C6
:101D00000820BDE8F081294951F820102868FFF724
:101D1000B7FE08B11120F4E739462846FEF706FD64
:101D200066603869206030004FF001062FD03F7F99
:101D30004FF48E712868FFF77CFE4FF4A27128687B
:101D4000FFF777FE28681A49C0F8041328684FEA9D
:101D5000471140F30730002804DB00F1E02080F851
:101D6000001405E000F00F0000F1E02080F8141DE1
:101D7000286840F30730002809DB00F01F0106FA4D
:101D800001F14009800000F1E020C0F8001128684E
:101D90000421C0F800150020A061E06184F829004A
:101DA00044F8140FA675ACE748010020D8290000BC
:101DB000800002002DE9F05F054600790B4600EB3C
:101DC000400101EBC000244901EB8004284600F0EB
:101DD00045F810B11120BDE8F09F62614FF0000995
:101DE000C4F82090A36084F828904FF48E784E4673
:101DF00041462868FFF71DFE28684FF0010AC0F829
:101E000008A02146286800F0CBFB606808BBD5F825
:101E100000B067690FE000BF94F8280008B10F26F2
:101E200015E041465846FFF7FFFD0028F4D0214653
:101E3000584600F0B5FB206AB842F2D357464146F7
:101E40002868FFF7F1FD0028F9D02868C760C4F8BA
:101E500014903046BFE7000048010020007900EBF5
:101E6000400101EBC000044901EB800040690028FB
:101E700000D0012070470000480100202DE9F04704
:101E8000044600794FF0000900EB400101EBC0006F
:101E9000284901EB80072068C0F800957868B0B148
:101EA00020682549C0F80813206840F3073000284F
:101EB0000DDB00F01F02012191404009800000F17C
:101EC000E020C0F88011BFF34F8FBFF36F8F206801
:101ED000D0F80C25D0F81485D0F80865D0F8105546
:101EE0004FF0FF31C0F81415C0F80C152068C0F889
:101EF0000815C0F81015501C02D01046FFF73CF929
:101F0000B8F1FF3F02D04046FFF736F9681C02D017
:101F10002846FFF731F9701C02D03046FFF72CF944
:101F20002068FFF7C5FD87F82A90C7F80490BDE840
:101F3000F0870000480100208402020001490248A5
:101F400000F04CBC74010020002000402DE9F0415D
:101F50000546164600790F46154A00EBC00102EB14
:101F6000810494F8201011B10820BDE8F0811149D6
:101F700051F820102868FFF783FD08B11120F4E71D
:101F800039462846FEF70DFC6660386920601EB1B0
:101F9000397F2846FEF762FD28680821C0F8001541
:101FA0000020A061E0616061012184F82010DCE77D
:101FB00074010020DC2900002DE9F04704460E469C
:101FC0000079274900EBC00001EB80051746304639
:101FD000FFF74EFD30B1204600F044F820B111204B
:101FE000BDE8F0871020FBE76F61AE604FF490779B
:101FF0004FF0000839462068FFF72CFD4FF4AC760F
:1020000031462068FFF726FD2068AA686969C0F894
:102010004425C0F8481520684FF00109C0F8089021
:102020006868D0B9BA4651462068FFF70EFD0746EA
:1020300031462068FFF709FD0743F4D010B14FF097
:102040000F0808E02068C0F80C9031462068FFF7C0
:10205000FCFC0028F9D0002068614046C0E7000081
:10206000740100200079054900EBC00001EB8000FD
:102070004069002800D00120704700007401002052
:102080002DE9F047064600793D4900EBC00001EB21
:102090008005346868680127A8B13A49C4F8081374
:1020A000306840F3073000280DDB00F01F0107FA0D
:1020B00001F14009800000F1E020C0F88011BFF379
:1020C0004F8FBFF36F8FD4F8000220F02000C4F8C8
:1020D0000002A8694FF4A27820B141462046FFF7DC
:1020E000B9FC67604FF4AC7949462046FFF7B2FC73
:1020F000E760474649462046FFF7A7FC0028F9D08D
:10210000A86928B139462046FFF79FFC0028F1D086
:102110004FF0000AC4F800A53068D0F80C25D0F8BC
:102120001495D0F80885D0F810754FF0FF31C0F83D
:102130000C15C0F814153068C0F80815C0F8101553
:10214000501C02D01046FFF720F8B9F1FF3F02D033
:102150004846FFF71AF8781C02D03846FFF715F802
:10216000B8F1FF3F02D04046FFF70FF82046FFF7D7
:102170009FFC85F820A0C5F804A0BDE8F08700000A
:1021800074010020100342002DE9F84F314F05463D
:102190004FF001090024381990F96010491C46D00D
:1021A00090F86000294620F0C0063046FEF72EFE6B
:1021B00070B3204600F050F8824668460096FFF75C
:1021C00051F8009900EB8100D0F80007C0F30148F6
:1021D000B8F1020F1DD002213046FFF705F868461E
:1021E0000096FFF73FF8009A09FA02F1C0F82015AF
:1021F0003046FEF7CDFB57F820204AB15046BAF1E1
:10220000030F11D0B8F1020F05D0B8F1030F07D0BA
:102210000DE00321E0E75046BAF1010F04D006E0DB
:102220005046BAF1020F02D1014630469047641C75
:10223000042CB0D32A4602210020FEF7EDFF002037
:1022400055F820100029A5D1401C0228F8D3BDE87C
:10225000F88F0000C00000200249084490F8600098
:1022600080097047C000002010B50C46017A05298E
:1022700008D0407A38B1084808A102682046FEF725
:102280000FFE00E01AB106A12046FEF709FE204627
:10229000BDE81040FEF711BE8C0000202573000041
:1022A0000D0A000038B5C3880D46044633B114A0AA
:1022B000009015A216A12846FEF7F2FD217A052905
:1022C0001CD0607A48B1A088FFF7E8F8164951F8A9
:1022D000202016A12846FEF7E3FDA0880021FFF785
:1022E0009FFA03461049207A143951F8202001B092
:1022F0002846BDE830400EA1FEF7D2BD38BD000033
:102300001B5B306D000000001B5B313B33316D0007
:1023100025734C6F67732064726F7070656420283A
:1023200025642925730D0A008C0000202573000008
:102330003C25733E2025733A200000000349884263
:1023400001D1034870470020704700000020004082
:102350002400002070B5054688690C4600284FF41B
:10236000847128460AD0FFF764FBD5F81805626A25
:10237000E1688854606A401C606270BDFFF759FBD9
:10238000D5F8180570BD1FB501238DF80030CDE9D3
:102390000121D0E90012684690471FBD1FB50123F7
:1023A0008DF80030CDE90121D0E900126846904750
:1023B0001FBD000070B50D4C0020D2B22070201D52
:1023C0000B4D0378EB5C1BB1001DFFF7F5FD02E040
:1023D0000C30FFF7EFFC08B1FEF786F960780028B3
:1023E00002D021780029FAD070BD00003C00002006
:1023F00010000020C0B201280DD10749087007481D
:102400000749054A401AC008032101EB0040083281
:1024100004A1FFF787B9704700000020E82B0000F7
:10242000A82B0000205472616E7366657220636F82
:102430006D706C657465642E2052656365697665A0
:10244000643A202573000000024A52F8213007C880
:1024500018470000B400002070B50D464FF4947684
:1024600004463146FFF7D5FAC8B131462046FFF79A
:10247000D5FA687D012812D1E9682868C4F84415A6
:10248000C4F8480529696868C4F83415C4F83805E3
:102490000120A06202222946204600F017F84FF4DE
:1024A000827631462046FFF7B4FA00280DD0314637
:1024B0002046FFF7B3FA687D022806D12946204658
:1024C000BDE87040032200F001B870BD0EB54A753A
:1024D0004B7D0122012B11D0022B11D0032B0CD1EB
:1024E0008DF80020D0F83C250192D0F84C050290E0
:1024F00088698A680146684690470EBD42620EBDF3
:1025000000208DF800000190F1E700002DE9F84F60
:10251000074621489146884605681E4601226946BD
:102520001846FEF7CBF9DFF874A060B300980021DD
:102530000446801C0AE000BF00EA050259F821C0E9
:102540000AEB8202401C491CC2F80CC0B142F3D312
:102550004FEA1749FEF724FA611C29400AEB810172
:1025600049EA00422C40CA600AEB8401C86867F35C
:10257000C50066F3891068F39F2020F00300401C1B
:1025800020F00400C8609AF8000001E0FEF7ACFFFC
:102590000028FBD1BDE8F88F5C000020300300204C
:1025A00070B50C4605464FF48E71FFF742FA216A6A
:1025B000A068415C206A401C2062C5F81C1570BDF3
:1025C0001FB500228DF800200291816801914261BF
:1025D000D0E90012684690471FBD1FB500228DF854
:1025E00000200291816801914261D0E900126846A1
:1025F00090471FBD1FB50A4601788DF8001041684D
:102600000191017A8DF80810C0680390044850F8D1
:102610002210083850F82220684690471FBD00005D
:102620001C00002001490120087070473C00002078
:1026300010B588B0044620220E496846FDF772FEA8
:1026400006200090C01F0190029003904FF0EB70A5
:1026500006900CB1084A00E0002269460748FEF7E0
:10266000EBFB08B1FEF740F80448001F447008B0C7
:1026700010BD0000FC2900002526000040000020BD
:102680002DE9FF470C4605464FF40071FFF7D7F9D7
:1026900001274FF40178002618B34FF49279494688
:1026A0002846FFF7C1F9E0B149462846FFF7C1F9CE
:1026B000C5F8088394F8290000B96F6002208DF8EE
:1026C0000000D5F88004C5F880040390A06902904A
:1026D000E0680190A661E661D4E90012684690477F
:1026E00028E004212846FFF7AAF918B34FF48471B3
:1026F0002846FFF799F9E8B121462846FFF72AFE58
:10270000616AA069884215D1E06938B1E268616AFE
:10271000A0612069E6616662E06008E094F8290043
:1027200000B96F60C5F80883A661E268616A204657
:10273000FFF729FE4FF48E7841462846FFF774F9DB
:1027400080B16069216A814202D294F8280028B3DE
:1027500041462846FFF76DF9606918B16169204666
:10276000FFF72EFF4FF4A27841462846FFF75CF9A9
:10277000002818D041462846FFF75BF994F8290055
:1027800000B12F60A06900280DD0A661E268616ADF
:1027900004B02046BDE8F047FFF7F5BD21462846C6
:1027A000FFF7FEFEDEE7BDE8FF8700001FB50A4623
:1027B00001788DF8001041680191017A8DF80810B8
:1027C000C0680390044850F82210083850F82220BE
:1027D000684690471FBD00001C0000202DE9FF4106
:1027E0000C464FF4927705463946FFF72EF900263E
:1027F000B8B139462846FFF72DF902208DF80000C0
:10280000D5F88004C5F880040390D5F83C05029003
:10281000E0680190A661E661D4E90012684690473D
:1028200023E04FF4887739462846FFF70EF9E0B1E8
:1028300039462846FFF70EF9D5F83C15A0698842BD
:1028400013D1E06960B1E268D5F8000220F0200001
:10285000C5F80002E069A0612069E661E06001E07E
:10286000A661E2682046FFF799FD4FF4A27739464A
:102870002846FFF7EAF868B139462846FFF7EAF834
:10288000A06938B1A661E661D5F83C152046E2683A
:10289000FFF784FD4FF4907631462846FFF7D5F8D0
:1028A00060B131462846FFF7D5F80120E86060693D
:1028B00020B1D5F84C152046FFF78FFE4FF4AC76CB
:1028C00031462846FFF7C1F800280ED03146284689
:1028D000FFF7C0F86069002807D0D5F84C1504B0A0
:1028E0002046BDE8F041FFF778BEBDE8FF8100005B
:1028F0002DE9F05F8346DDE90A4A994690460D4688
:102900000846012703E000BFB0FBF8F07F1C4045FC
:10291000FAD2B94500D94F465FEACA7012D18CB1DC
:102920005FEA8A7002D5B9F1000F01D0202607E0D6
:10293000302605E031465846641EFEF705F80CB116
:10294000A742F7D35FF00106B9F1010F02D9A9F14F
:10295000010903E0B5FBF6F0404502D306FB08F69B
:10296000F2E7DFF83C9000BFB5FBF6F000FB165530
:1029700019F800105846FDF7E7FFB6FBF8F6002EF1
:10298000F2D15FEACA7009D0002C07D0A74205D265
:1029900020215846641EFDF7D7FFF5E7BDE8F09FFC
:1029A000E02900000040004000000000FF0000009F
:1029B000FF000000FF000000FF000000000000001A
:1029C000FFFF06000D0E0F100B0C18190000005031
:1029D0000003005055040000D11C00003D1F000002
:1029E0003031323334353637383941424344454645
:1029F000851400005914000051140000FFFFFFFF70
:102A0000FFFFFFFFFFFFFFFFFFFFFFFF00000000D2
:102A1000000000000000D60106010000980200201E
:102A20007F0000001803002000404040404040402C
:102A30004040414141414140404040404040404091
:102A40004040404040404040400502020202020235
:102A50000202020202020202022020202020202084
:102A60002020200202020202020290909090909098
:102A70001010101010101010101010101010101056
:102A800010101010020202020202888888888888CA
:102A900008080808080808080808080808080808B6
:102AA000080808080202020240000000292A00006B
:102AB0007761726E696E6700646562756700000019
:102AC0001B5B313B33306D001B5B306D0000000041
:102AD0001B5B313B33316D001B5B313B33326D008F
:102AE0001B5B313B33336D001B5B313B33346D007B
:102AF0001B5B313B33356D001B5B313B33366D0067
:102B00001B5B313B33376D00696E666F0000000060
:102B10006572726F720000004750494F54450000C3
:102B20005052530053504953000000005541525435
:102B30000000000055415254450000006170705F74
:102B4000627574746F6E00006170705F74696D659A
:102B500072000000736F72746C697374000000007F
:102B6000756172745F6C6F675F6261636B656E64E1
:102B70000000000061707000042C000000000020C4
:102B8000B400000044060000B82C0000B40000208F
:102B90009C26000054060000F02900000000000000
:102BA000602B000054000020182B000000000000E3
:102BB000202B000000000000242B0000000000007B
:102BC0002C2B000000000000342B0000000000004F
:102BD0003C2B000000000000482B0000000000001B
:102BE000542B000000000000742B000000000303C1
:102BF000680000206000002068000020D80100204C
:102C000018000000004E6F7264696300000000004D
:102C100000000000000000000000000000000000B4
:102C200000000000000000000000000000000000A4
:102C30000000000000000000000000000000000094
:102C40000000000000000000002000400000000024
:102C5000002000400000000000000000FF00000015
:102C6000FF00000000000000000000000000000065
:102C70000000000000000000000000000000000054
:102C8000102B0000B02A0000082B0000B82A00001A
:102C9000C82A0000C02A0000D02A0000D82A00005C
:102CA000E02A0000E82A0000F02A0000F82A0000CC
:082CB000002B00000090D0038E
:0400000500000201F4
:00000001FF
