:020000040000FA
:10C000003DB8F3960000000000020000945A0200C0
:10C010000000000000000000000000000000000020
:10C02000FFFFFFFFFFFFFFFFFFFFFFFFFFFFFFFF20
:10C03000FFFFFFFFFFFFFFFFFFFFFFFFFFFFFFFF10
:10C04000FFFFFFFFFFFFFFFFFFFFFFFFFFFFFFFF00
:10C05000FFFFFFFFFFFFFFFFFFFFFFFFFFFFFFFFF0
:10C06000FFFFFFFFFFFFFFFFFFFFFFFFFFFFFFFFE0
:10C07000FFFFFFFFFFFFFFFFFFFFFFFFFFFFFFFFD0
:10C08000FFFFFFFFFFFFFFFFFFFFFFFFFFFFFFFFC0
:10C09000FFFFFFFFFFFFFFFFFFFFFFFFFFFFFFFFB0
:10C0A000FFFFFFFFFFFFFFFFFFFFFFFFFFFFFFFFA0
:10C0B000FFFFFFFFFFFFFFFFFFFFFFFFFFFFFFFF90
:10C0C000FFFFFFFFFFFFFFFFFFFFFFFFFFFFFFFF80
:10C0D000FFFFFFFFFFFFFFFFFFFFFFFFFFFFFFFF70
:10C0E000FFFFFFFFFFFFFFFFFFFFFFFFFFFFFFFF60
:10C0F000FFFFFFFFFFFFFFFFFFFFFFFFFFFFFFFF50
:10C10000FFFFFFFFFFFFFFFFFFFFFFFFFFFFFFFF3F
:10C11000FFFFFFFFFFFFFFFFFFFFFFFFFFFFFFFF2F
:10C12000FFFFFFFFFFFFFFFFFFFFFFFFFFFFFFFF1F
:10C13000FFFFFFFFFFFFFFFFFFFFFFFFFFFFFFFF0F
:10C14000FFFFFFFFFFFFFFFFFFFFFFFFFFFFFFFFFF
:10C15000FFFFFFFFFFFFFFFFFFFFFFFFFFFFFFFFEF
:10C16000FFFFFFFFFFFFFFFFFFFFFFFFFFFFFFFFDF
:10C17000FFFFFFFFFFFFFFFFFFFFFFFFFFFFFFFFCF
:10C18000FFFFFFFFFFFFFFFFFFFFFFFFFFFFFFFFBF
:10C19000FFFFFFFFFFFFFFFFFFFFFFFFFFFFFFFFAF
:10C1A000FFFFFFFFFFFFFFFFFFFFFFFFFFFFFFFF9F
:10C1B000FFFFFFFFFFFFFFFFFFFFFFFFFFFFFFFF8F
:10C1C000FFFFFFFFFFFFFFFFFFFFFFFFFFFFFFFF7F
:10C1D000FFFFFFFFFFFFFFFFFFFFFFFFFFFFFFFF6F
:10C1E000FFFFFFFFFFFFFFFFFFFFFFFFFFFFFFFF5F
:10C1F000FFFFFFFFFFFFFFFFFFFFFFFFFFFFFFFF4F
:10C2000090750020A1190100815C0200011A010053
:10C21000011A0100011A0100011A0100011A0100AE
:10C220000000000000000000000000002D170100C9
:10C23000011A010000000000D5160100C90E01001E
:10C240006119010061190100611901006119010002
:10C2500061190100611901006119010061190100F2
:10C2600061190100611901006119010061190100E2
:10C2700061190100611901006119010061190100D2
:10C2800061190100611901006119010061190100C2
:10C2900061190100611901006119010061190100B2
:10C2A00061190100611901006119010061190100A2
:10C2B0006119010061190100611901006119010092
:10C2C0006119010061190100611901006119010082
:10C2D0006119010061190100611901006119010072
:10C2E0006119010061190100611901006119010062
:10C2F0006119010061190100611901006119010052
:10C300006119010061190100611901006119010041
:10C310006119010061190100611901006119010031
:10C320006119010061190100611901006119010021
:10C330006119010061190100611901006119010011
:10C340006119010061190100611901006119010001
:10C3500061190100FFFFFFFF53B94AB9002908BF67
:10C3600000281CBF4FF0FF314FF0FF3000F080B9C4
:10C37000ADF1080C6DE904CE00F006F8DDF804E03C
:10C38000DDE9022304B070472DE9F04F099E0D4608
:10C3900004460F46002B47D18A4294465FD9B2FA31
:10C3A00082F343B1C3F120019F4002FA03FC9C4099
:10C3B00020FA01F10F434FEA1C451FFA8CFE220CB4
:10C3C000B7FBF5F105FB117701FB0EF042EA0742DE
:10C3D000904208D91CEB020201F1FF3702D29042D1
:10C3E00000F234813946121AA4B2B2FBF5F005FB13
:10C3F000102200FB0EFE44EA0244A64508D91CEBBD
:10C40000040400F1FF3202D2A64500F21981104661
:10C4100040EA0140A4EB0E0400211EB1DC400023E1
:10C42000C6E90043BDE8F08F8B4208D9002E00F02A
:10C43000FB800021C6E900050846BDE8F08FB3FA8D
:10C4400083F100294BD1AB42C0F0F180824240F22F
:10C45000EE800846002EE5D0C6E90047E2E702B9C3
:10C46000FFDEB2FA82F3002B40F09D808D1A4FEA76
:10C47000124E97B20121B5FBFEF20EFB1250250CB5
:10C4800045EA004507FB02F0A8420FD91CEB050561
:10C4900002F1FF382CBF4FF001094FF00009A8420C
:10C4A00003D9B9F1000F00F0CE8042462D1AA4B294
:10C4B000B5FBFEF00EFB105500FB07F744EA054400
:10C4C000A74208D91CEB040400F1FF3502D2A742B1
:10C4D00000F2B3802846E41B40EA02409DE7C1F128
:10C4E00020078B4005FA01F422FA07FCFD408A4040
:10C4F0004CEA030C20FA07F34FEA1C491C431FFACD
:10C500008CFE00FA01F3200CB5FBF9F809FB185575
:10C5100040EA054508FB0EF0A8420FD91CEB0505C3
:10C5200008F1FF3A2CBF4FF0010B4FF0000BA8426F
:10C5300003D9BBF1000F00F08C80D0462D1AA4B2B5
:10C54000B5FBF9F009FB105500FB0EFE44EA05456A
:10C55000AE4507D91CEB050500F1FF3401D2AE450D
:10C560007ED8204640EA0840A5EB0E05A0FB0298C5
:10C5700045454C46C64602D306D14B4504D2013848
:10C58000B9EB020468EB0C0E002E6FD01A1B65EBA2
:10C590000E0522FA01F305FA07F7CD4000211F43EB
:10C5A000C6E900753EE702FA03FCC3F1200001FA78
:10C5B00003F24FEA1C4EC14024FA00F51FFA8CF733
:10C5C0009C401543B1FBFEF02A0C0EFB101142EA11
:10C5D000014200FB07F191420ED91CEB020200F16F
:10C5E000FF382CBF4FF001094FF00009914202D9EA
:10C5F000B9F1000F31D04046521AADB2B2FBFEF194
:10C600000EFB112245EA024501FB07F2AA4207D9B7
:10C610001CEB050501F1FF3801D2AA4223D841469F
:10C62000AD1A41EA004126E731463046FAE6841A5F
:10C6300065EB030301201F460CE7644402384AE718
:10C6400064440238E4E6023A65442FE70239624462
:10C65000C9E6A8F10208654470E702386244CBE7F6
:10C66000023865447EE702396544D9E73146D9E6A8
:10C67000704700BF00000000F7B5654DD5F84431A4
:10C68000996811F001011BD140F6034001AA06F0A0
:10C690009FFC0446002840F0B880019B9B681B78F3
:10C6A0005BB905F19803D3E8AF2F02F00502D3E898
:10C6B000EF1FC3E8E02F0028F9D101980FF0A2F88E
:10C6C000002141F2030001AA06F082FC0446002882
:10C6D00040F09B80019B082299684E48013119F077
:10C6E000C6FB01980FF08EF8214641F2010001AA25
:10C6F00006F06EFC0446002840F0878001988368AD
:10C700005A7885F83420D9789A7842EA0122EA8664
:10C710001A7985F83520197ADA7942EA01222A87CE
:10C720005A799B7942EA03236B870FF06BF8214615
:10C7300041F2020001AA06F04BFC0446002864D135
:10C74000019B402299683448013119F090FB01980F
:10C750000FF058F808F088F90446002855D195F8EC
:10C760004E309A061AD42D492D4B2E48C91AC908A5
:10C77000890141F0020117F0D4FF95F840305B06C3
:10C7800054D4274B25492848C91AC908890141F0C2
:10C79000010117F0C6FF6FF0120436E0072140F6E2
:10C7A000334006F0C9FB074610B96FF068042CE06F
:10C7B000072108300FF098F921460722064619F0A4
:10C7C00081FB6FF0040333700623224674703471CA
:10C7D000394640F63340F37006F0FAFB0446A0B940
:10C7E000012140F6314006F0A7FB06460028DCD0C8
:10C7F000012108301BF025FE2246314640F631402B
:10C8000006F0E6FB04460028B7D0204603B0F0BD92
:10C81000000000203C0000204400002070A702001F
:10C8200030A70200B8D70200E6D70200002142F28A
:10C83000030001AA06F0CCFB04460028E5D1019BC9
:10C8400008229968C048013119F011FB01980EF0D7
:10C85000D9FF214642F2020001AA06F0B9FB0446C4
:10C860000028D2D1019B9B68B3F8012091B2A5F8B2
:10C87000CC2021B1DA78B54811461DF04FFC019863
:10C880000EF0C0FF95F8406016F0200600F006811B
:10C8900095F860301F0712D5002142F21C0001AA52
:10C8A00006F096FB04460028AFD101988368D3F8C0
:10C8B0000120D3F80530C5E92A230EF0A3FF95F82F
:10C8C000A0309E0624D568460DF1020106F0FAFB61
:10C8D0000446002899D1042142F2240006F02CFBE2
:10C8E000064600283FF461AF042108300FF0FCF841
:10C8F000BDF8003022460380BDF802303146438047
:10C9000042F2240006F064FB044600287FF47DAF69
:10C9100095F8A0305C0610D5002142F22A0001AA49
:10C9200006F056FB044600287FF46FAF0198836839
:10C930005B7885F8E8300EF065FF082142F20100CF
:10C9400006F0FAFA044600283FF42FAF0821084405
:10C950000FF0CAF895F8A01040F2022311F0400F32
:10C9600008BF0323024688074CBF43F02C0043F066
:10C970000C0095F8A1308F0648BF40F0400013F03E
:10C98000090F95F8663018BF40F4006003F0060305
:10C99000CE0748BF40F01000062B08BF40F4C0701F
:10C9A000002119F08BFB2146002242F2010006F023
:10C9B0000FFB044600287FF428AF95F84030980616
:10C9C0001ED4B5F8CC10D9B941F2050001AA06F081
:10C9D000FFFA044600287FF418AFB5F8CC3063B9ED
:10C9E000019B9B685A78997842EA0122A5F8CC20ED
:10C9F0009A88564811461DF091FB01980EF002FFEF
:10CA0000082140F6014006F097FA044600283FF45A
:10CA1000CCAE082108440FF067F895F8A030024624
:10CA2000D90756D546A1D1E9000119F047FB2146A7
:10CA3000002240F6014006F0CBFA044600287FF4BD
:10CA4000E4AE014601AA4FF6014006F0C1FA0446E1
:10CA5000002842D03E493F4B3F48C91AC9088901C6
:10CA600041F0020117F05DFE19F07AFC044600283F
:10CA70007FF4CBAE08F0CAFF044600287FF4C5AEB1
:10CA8000EB79002B7FD1334B31493448C91AC9089F
:10CA9000890141F0030117F044FEB6E6022140F699
:10CAA0006D4006F049FA044600283FF47EAE0221AC
:10CAB00008300FF019F80123214603704670324602
:10CAC00040F66D4006F084FA044600283FF4E0AEDC
:10CAD0009BE64FF000512248A7E701980EF092FE26
:10CAE00021464FF6024001AA06F072FA044640B110
:10CAF0001749184B1B48C91AC908890141F002019E
:10CB0000B0E7019B022299681748013119F0AFF98B
:10CB100001980EF077FE95F885305B07A4D5214685
:10CB20004FF6034001AA06F053FA08B30849094B2F
:10CB30000E48C91AC908890141F0020192E700BFF5
:10CB40009088000200800020A0000020D00000207B
:10CB500070A7020030A702000AD8020080D80200A5
:10CB6000108800022ED802008500002057D802004D
:10CB70000122019B07489968114419F078F901983E
:10CB80000EF040FE70E70421034819F08CFA07F01C
:10CB900039F83AE6840000209800002013B5074CCD
:10CBA0000748001BC008800140F00300ADF80000FA
:10CBB000044817F0F0FD02B010BD00BF30A702001E
:10CBC00028A80200C0B502000A4608B501460020A8
:10CBD00004F0F0FA58B1064B06490748C91AC908CB
:10CBE000890141F00201BDE8084017F09ABD08BD77
:10CBF00030A7020028A80200E9B502000C4A0D4B3C
:10CC000010B5D21AD208920131B1BDE810400A48DD
:10CC100042F0010117F085BD42F003041AF046FF0F
:10CC20002246BDE810400146044817F087BD00BF0A
:10CC300028A8020030A7020011B6020025B60200A3
:10CC4000022808B515D00638012820D81049114B04
:10CC50001148C91AC908890141F0030117F061FDA3
:10CC6000002001F0E7FE0028FAD1BDE8084001F0FD
:10CC7000C3BC084B06490948C91AC908890141F0D3
:10CC8000030117F04EFDBDE8084011F06FB908BD73
:10CC900028A8020030A7020037B6020044B60200FE
:10CCA00008B54FF0FF324FF0FF33034814F058F847
:10CCB00000F016FCFCE700BF2C08002070B50378DC
:10CCC0008AB004460E4607AD032B20D8DFE803F0F8
:10CCD00002191B1D1149284619F06FF863781E21AF
:10CCE0000493A37830460393E3780D4A02932379A3
:10CCF0000595019363790093A37917F047FA0AB079
:10CD000070BD0849E7E70849E5E70849E3E70A2174
:10CD10002846074A17F03AFAE0E700BF66B6020075
:10CD200088B602006DB6020074B602007EB602003C
:10CD3000DEEC020070B504460D46002188B01646B0
:10CD400001A81A22009119F0BDF8204619F0EFFC55
:10CD50006946FFF7B3FF0A4C0A4A6846A41A01F075
:10CD600027FEE408A40144F00304014622460648D5
:10CD700017F0E4FC3146284600F06CFB08B070BDAB
:10CD800028A8020030A70200ABB6020030B589B077
:10CD90000D4619F0CCFC6946FFF790FF084C094B93
:10CDA0006846E41A01F004FEE408A40144F0030418
:10CDB000014623462A46044817F0D4FC09B030BD8A
:10CDC00028A8020030A70200C2B6020030B589B020
:10CDD0000D4619F0ACFC6946FFF770FF084C094B93
:10CDE0006846E41A01F0E4FDE408A40144F00304F9
:10CDF000014623462A46044817F0B4FC09B030BD6A
:10CE000028A8020030A70200E5B6020010B588B0DD
:10CE100019F08DFC6946FFF751FF084C084A684637
:10CE2000A41A01F0C5FDE408A40144F0030401467E
:10CE30002246044817F082FC08B010BD28A8020062
:10CE400030A7020007B7020030B589B00D4619F0CF
:10CE50006EFC6946FFF732FF084C094B6846E41A3E
:10CE600001F0A6FDE408A40144F0030401462346B2
:10CE70002A46044817F076FC09B030BD28A8020005
:10CE800030A702001DB7020010B5044688B019F0A3
:10CE90004EFC6946FFF712FF204608F07BFD084C68
:10CEA000084A6846A41A01F083FDE408A40144F08E
:10CEB000030401462246044817F040FC08B010BDA8
:10CEC00028A8020030A7020032B7020030B589B0AE
:10CED0000D46044619F0F5FB0E4B1860204619F07C
:10CEE00026FC6946FFF7EAFE0B4C0C4B6846E41A39
:10CEF00001F05EFDE408A40144F00304014623466A
:10CF00002A46074817F02EFC2146064817F009FC70
:10CF100009B030BDB015002028A8020030A70200DB
:10CF20001DB7020048B7020070B516468AB00D461C
:10CF300019F0FDFB02A9FFF7C1FE1048104BC01A03
:10CF4000C008800166B940F0030402A801F030FD7A
:10CF5000234601462A460B4817F004FC0AB070BD70
:10CF600040F0020402A801F023FD334601462A46A0
:10CF70000548ADF8004017F00EFCEFE728A80200C6
:10CF800030A7020077B7020095B7020030B589B02C
:10CF90000D4619F0CCFB6946FFF790FE114C124B81
:10CFA0006846E41A01F004FDE408A40144F0030417
:10CFB00023460E4C01462A460D4817F0D3FB206845
:10CFC00018B108F0D9F9002323600A4C206830B169
:10CFD00008F0D2F90023012023601BF082FF09B082
:10CFE00030BD00BF28A8020030A70200B015002005
:10CFF000B9B70200B415002070B51B4B1B4C054699
:10D00000E41AE40888B0A40139B1194844F00102D7
:10D0100008B0BDE8704017F091BB19F088FB694675
:10D02000FFF74CFE684601F0C3FC44F003060146DE
:10D030003246104817F082FB284619F042FB0E4B8F
:10D040000E4918600E4B28460B600CF03FF9C0B239
:10D0500020B10C4844F0010117F063FB01201BF0E4
:10D060003DFF08B070BD00BF30A7020028A8020035
:10D07000D6B70200F1B70200B4150020B8150020A1
:10D08000FDCB000011B6020038B5184C03462068ED
:10D0900050B303EA0105EA0711D508F05FFC144B11
:10D0A000144A2168D21AD2089201134842F00302AE
:10D0B00017F044FB206808F05FF900232360AB07FA
:10D0C00012D5206808F058FC094B0A4A2168D21A88
:10D0D000D2089201094842F0030217F02FFB2068A2
:10D0E00008F04AF90023236038BD00BFB0150020C6
:10D0F00030A7020028A80200FEB7020015B80200FF
:10D10000012010B510F058FF014648B10D4A0E4BF2
:10D110000E48D21AD208920142F0020217F00EFB1A
:10D120000B4810F0C9FA044650B1064A064B0146B6
:10D13000D21AD2089201074842F0020217F0FEFA12
:10D14000204610BD28A8020030A702002DB802001A
:10D1500041CC000046B80200F0B53A4B3A4C3B498E
:10D16000E41AE408A4013A4A3A4889B044F00303B7
:10D1700017F0F8FA38480FF0BDFF014620B13748E4
:10D1800044F0010217F0DAFA0FF030FF014620B147
:10D19000334844F0010217F0D1FA324800F032F976
:10D1A000054608B116F040FF2F4807F04DFF2F4805
:10D1B00008F0B8FB284606F037FD0028F2D12C48CD
:10D1C00044F0030117F0ADFA2A4813F085FD17F07B
:10D1D00086FF294803F0E2FF014638B1274844F0B2
:10D1E000010209B0BDE8F04017F0A8BAFFF788FFC8
:10D1F000054620B1014644F001022148F1E7214FE4
:10D2000003AE0FCF0FC63B681F49336001230222D4
:10D21000009303A81D4B07F065FB014620B11C4895
:10D2200044F0010217F08AFA013505F0010148BF08
:10D230004942002010F060F800214FF4004015F042
:10D24000EFFBF1E730A7020028A8020062B8020055
:10D2500056B802006BB8020089D000008BB80200FB
:10D26000A9B80200C9CB000034020020100200203F
:10D27000C4B802002C08002054020020DAB80200D2
:10D2800006B90200E0A8020078A9020088A90200FD
:10D290001EB9020070B50B780C46052B00F2898090
:10D2A000DFE803F003882E677A4F474B474D486805
:10D2B000ED1AED08AD018968061F45F003024448E8
:10D2C00017F03CFA30461DF05DF80022002341487B
:10D2D00013F094FC014600286BD03F4BB1F80421B9
:10D2E0001868836804315C684FF0FF33A04700285A
:10D2F0005FD03A4845F00201BDE8704017F011BA1E
:10D300004FF484701DF045F8D4E901130546E26836
:10D310001944043018F0ABFDE36829463048A5F8FD
:10D3200004311CF0E6FE294A274BB5F80411D21A45
:10D33000D20892012B4842F00302BDE8704017F07A
:10D34000FDB9214B214C2848E41AE408A40144F01B
:10D35000030117F0E6F9204B186883682349DD685C
:10D36000FF223223A847014618B3214844F00102A6
:10D37000E3E7194B1F49186809688368FF221B6996
:10D3800098470146A8B1114A0F4B1B48D21AD20840
:10D39000920142F00202D0E70B4B0C491748C91A20
:10D3A000C908890141F0030117F0BBF96268114B0C
:10D3B0001A6070BD0549044B1148C91AC908890192
:10D3C00041F0030198E700BF30A7020080A80200E7
:10D3D00064B90200AC080020C015002074B9020036
:10D3E0009008002086B9020095B902008449002007
:10D3F000A6B9020060020020C0B90200D4B9020040
:10D40000E9B9020070B504460D4812F051FC0D4D0B
:10D41000286088B1836800221B680B49984768B967
:10D420000A4B28681C608368FF22DC680849A44610
:10D43000BDE87040322360476FF0050070BD00BF4B
:10D44000F9B90200C015002095D20000BC150020DB
:10D4500084490020F8B507464FF484700D461CF04F
:10D4600098FF044668B9184B18491948C91AC908E1
:10D47000890141F0020117F054F96FF00B052846BD
:10D48000F8BD061D2A463946304618F0F0FC114B0F
:10D49000A4F80451186883682A465F6831464FF043
:10D4A000FF33B84705460028E9D0074B07490A482B
:10D4B000C91AC908890141F0020117F032F9214661
:10D4C00006481CF016FEDAE730A7020080A802002A
:10D4D00000BA0200C01500202BBA0200AC080020E0
:10D4E00010B54FF0FF324FF0FF33074813F086FBC3
:10D4F0000446064BB0F804111B68043098472046D8
:10D50000BDE810401CF03EBF90080020BC15002074
:10D5100030B50A4C0A44914200D130BD11F8013BAC
:10D5200058400309E35C83EA0013DDB2C3F303133D
:10D53000E05C80EA0510C0B2EDE700BF57BA020018
:10D54000436870B503F00303022B04460E46816066
:10D5500010D0032B04D0012B0FD10025284601E069
:10D56000056800200023636010B1314616F01EFBF1
:10D57000284670BD00250068F4E74523054A0649A2
:10D58000064816F0F6FD4521024817F08FF80025F1
:10D59000E7E700BF67BA02008EF802008ABA02000D
:10D5A0000B6801330B60014B1B68184764020020B5
:10D5B000014B1860704700BF6402002007B50B469E
:10D5C000002102460191034801A900F053FC03B079
:10D5D0005DF804FBA1D5000030B5002585B0CDE98C
:10D5E0000101044601A90548039500F043FCDDE96B
:10D5F00002309842B8BF255405B030BD4D410200FD
:10D600002DE9F74FB0F81C90044619F0080F00926E
:10D6100022D001290CBF49F0100949F02009A0F8D7
:10D620001C901434204613F00DF868B9AC239B4AC3
:10D630009B499C4816F09DFD21469B4816F099FD9C
:10D64000AC21964817F032F8009B83F31188BFF3A2
:10D650006F8F03B0BDE8F08F944FDFF8488209F078
:10D660000709022906D1204616F09DFD0028D8D0D2
:10D67000012864D1D4F818B0A38BBBF1000F19DADC
:10D680000026256823F00703C4E9006643F0010380
:10D69000A383A38B03F007024A45019203D0A2683B
:10D6A000002A40F0138115B9002E00F059814FF087
:10D6B000000A0DE103F00702511F012920D80021C3
:10D6C00023F00703062A25689BB2C4E900110AD19A
:10D6D0003DB12946E28B0968013292B20029FAD1A4
:10D6E000E28343F002032046A38316F05CFD064666
:10D6F0000028CED0A38B43F02003A3830026C8E7E5
:10D70000042A0DD123F007039AB22046A28316F013
:10D710004AFD054688B142F020020025A283EDE7CC
:10D7200040F21B133A464046614916F022FD40F292
:10D730001B11384616F0BAFF00252E46A9E703282C
:10D7400034D1B9F1000F0BD040465A494FF4AB73B6
:10D750003A4616F00EFD4FF4AB71384616F0A6FFB0
:10D7600023685BB94046544940F257133A4616F0D5
:10D7700000FD40F25711384616F098FF23691E68E5
:10D780005EB940464D494FF4AD733A4616F0F1FC90
:10D790004FF4AD71384616F089FFA38B23F00703D1
:10D7A00043F006030025A383AB4672E7042831D17A
:10D7B000B9F1020F0BD04046414940F25D133A46A1
:10D7C00016F0D7FC40F25D11384616F06FFFE38B80
:10D7D0005BB140463B494FF4AF733A4616F0C9FC83
:10D7E0004FF4AF71384616F061FF23695E685EB989
:10D7F0004046324940F261133A4616F0BAFC40F214
:10D800006111384616F052FFA38B23F0070343F053
:10D810000403C7E7052831D1B9F1010F0BD0404609
:10D8200029494FF4B2733A4616F0A3FC4FF4B27193
:10D83000384616F03BFF23685BB940461E4940F26C
:10D8400065133A4616F095FC40F26511384616F01D
:10D850002DFF23699E685EB9404618494FF4B473A2
:10D860003A4616F086FC4FF4B471384616F01EFFA7
:10D87000A38B23F0070343F0050393E7002540F251
:10D880006B133A4640460A4916F073FC40F26B119E
:10D89000384616F00BFF2E4686E700BF4ABB020053
:10D8A00070BB02008ABA020087BB0200A7BA02005E
:10D8B0008EF80200C9BA0200D5BA0200F8BA020016
:10D8C0000FBB020025BB020034BB02004FF0010A6F
:10D8D00043F0080304F114094846A38312F0B2FE92
:10D8E00068B9AC234046374A374916F042FC4946EE
:10D8F000364816F03EFCAC21324816F0D7FE009BAD
:10D9000083F31188BFF36F8FBAF1000F37D1002D69
:10D9100047D116B120462E49B0474FF02003EFF310
:10D92000118B83F31188BFF36F8F4846CDF800B099
:10D9300012F07AFE68B981234046224A254916F042
:10D9400018FC4946244816F014FC81211D4816F0A5
:10D95000ADFE484612F084FEA38B23F00803A38398
:10D96000A38BDA0625D5012123F01003A383B4F895
:10D970001C9009F0070900297FF473AE51E6A168F5
:10D980000029C4D0D1F800A04B6820469C46019ADB
:10D990005B46E047BAF1000FB9D05146DAF800A073
:10D9A000F2E729465B462046019A2D6816F017FCDF
:10D9B000ADE713F020011EBF23F020030221A38353
:10D9C000D5E700BF4ABB020070BB020087BB020064
:10D9D000DDD900009CBB0200B1BB0200F8B50446D3
:10D9E0000D4600F114064FF02003EFF3118783F387
:10D9F0001188BFF36F8F304612F016FE68B981238D
:10DA00000B4A0C490C4816F0B4FB31460B4816F093
:10DA1000B0FB8121064816F049FE304612F020FE88
:10DA20003A462046A5610121BDE8F840FFF7E8BD70
:10DA30004ABB02009CBB02008ABA0200B1BB0200D2
:10DA40002DE9F04704460F4616F0DFFB051E5EDBAE
:10DA500004F114094FF02003EFF3118A83F31188C6
:10DA6000BFF36F8F484612F0DFFD68B98123384A53
:10DA70003849394816F07DFB4946384816F079FB9D
:10DA80008121334816F012FE484612F0E9FD4FF6A8
:10DA9000FF71E38BA28B8B4202F0070650D0022E5F
:10DAA00024D135464FF001080133E383484612F094
:10DAB000C9FD68B9AC23264A2949274816F059FB05
:10DAC0004946284816F055FBAC21214816F0EEFDDA
:10DAD0008AF31188BFF36F8FB8F1000F17D00023BE
:10DAE00032463946204616F07AFB10E0930701D003
:10DAF000062E0FD100233B606368F3B9C4E90077B9
:10DB00003546FEB9524602212046FFF779FD2846E8
:10DB1000BDE8F087052E18D0012E0BD012490E4813
:10DB200040F2C913114A16F024FB40F2C9110F4804
:10DB300016F0BCFD6FF0040504E01F606760DFE7CE
:10DB40006FF00A054FF00008B0E76FF08505F9E7C0
:10DB50004ABB02009CBB02008ABA0200B1BB0200B1
:10DB600070BB020087BB020034BB0200A7BA0200F0
:10DB7000F8B50E46002943D005680122AB68284657
:10DB8000B3F5004F2CBF082404240C1B641BE408CD
:10DB9000214616F066FBC3070DD49A23194A1A4989
:10DBA0001A4816F0E6FA3146194816F0E2FA9A21B8
:10DBB000144816F07BFD2146284616F068FB27180E
:10DBC00039460022284616F04CFB3F1ABC420DD0C5
:10DBD000A2230C4A0F490D4816F0CBFA31460E48E5
:10DBE00016F0C7FAA221074816F060FD2146284624
:10DBF000002216F052FB2146BDE8F84016F086BC24
:10DC0000F8BD00BFC9BB0200EABB02008ABA02002D
:10DC1000FBBB020033BC020059BC02002DE9F047F7
:10DC200006681446B3684A42B3F5004F2CBF082576
:10DC3000042502EA010731EA02021ED0BD4228BFD4
:10DC40003D46B946CF1B07F1FF3A1AEA070F0ED03F
:10DC5000354940F20D13354A354816F08AFA3548F1
:10DC600016F087FA40F20D11304816F01FFD74B916
:10DC70004FF000094846BDE8F087A94204D8214684
:10DC8000BDE8F04716F084BC4FF00009DBE7B06850
:10DC9000B0EBD40FECD93919491B16F01AFB014629
:10DCA000304616F071FB80460028E1D0B36809EBDE
:10DCB000C005B3F5004F2CBF082304231D44354491
:10DCC00055447F422F40A7EB09094C44A9EB0303BD
:10DCD00007349B1B24F00704A41BB0EBD30F4FEABF
:10DCE000D3074FEAE40408D201463A46304616F01C
:10DCF00085FB4146304616F0C6FB3946304616F0E5
:10DD0000C6FA3844844208D239463046224616F0D4
:10DD100075FB2146304616F0B6FB012239463046E7
:10DD200016F0BBFAA6E700BF95BC0200C9BB020013
:10DD30008ABA0200B0BC0200B2F5802FF8B50746DF
:10DD40000C46164612D2042A0ED844494FF4C17329
:10DD5000434A444816F00DFA434816F00AFA4FF4C5
:10DD6000C1713F4816F0A2FC042200E00822B61A56
:10DD7000E51D344425F0070524F00704641B172C27
:10DD80004FEAD4060ED8394940F28B13344A35484D
:10DD900016F0EFF9344816F0ECF940F28B113048E8
:10DDA00016F084FC00233D6031463046AE60EB60E7
:10DDB00016F098FA01218400471C304616F089FAC3
:10DDC0001B34E4082044B0420ED329494FF4CB73EE
:10DDD000234A244816F0CDF9234816F0CAF94FF427
:10DDE000CB711F4816F062FC0023194605F11002A2
:10DDF000BB422EDB22462846002116F066FA00239D
:10DE000028461A46194616F037FA371B194628468F
:10DE1000012216F042FA3A46214616F056FA2346F7
:10DE200000222146284616F027FA3146284616F0E9
:10DE30004CFA3B4631462846002216F01DFA314680
:10DE40002846012216F029FA2146BDE8F84016F0CE
:10DE50001ABB42F8041B0133CAE700BFCDBC020065
:10DE6000C9BB02008ABA0200EEBC020007BD020074
:10DE700030BD02002DE9F04F8B4692461C4600252E
:10DE800091B002909AF8000008B928465FE325286F
:10DE90000AF1010707D05946029B98470028C0F2B3
:10DEA0005683013512E2182200210AA818F00AF858
:10DEB0009AF80130252B78D00022104696469446D9
:10DEC0001646394617F8013B2B2B00F09D8000F2D7
:10DED0009480202B00F09B80232B00F09B802EB1A0
:10DEE0009DF8306046F004068DF83060BCF1000FFC
:10DEF00005D09DF8306046F008068DF83060BEF120
:10DF0000000F05D09DF8306046F010068DF83060A7
:10DF100028B19DF8300040F020008DF830002AB183
:10DF20009DF8302042F040028DF830209DF83020DE
:10DF300002F04400442803D16FF386128DF830209C
:10DF40009DF830202A2B42F080028DF830207BD1C2
:10DF50009DF831204B1C42F001028DF831201A78D7
:10DF60002E2A0CBF012100219DF8312061F34102CE
:10DF70008DF8312074D15A782A2A6AD000210A26D5
:10DF80000133184610F8012BA2F13007092F40F297
:10DF90008E809DF830200E91C2F3400040EAD1718E
:10DFA00061F341028DF830205AE00AF102078DF842
:10DFB00033309DF83130D90740F1498154F8049B42
:10DFC000B9F1000F07DA9DF83020C9F1000942F0DD
:10DFD00004028DF830205A0740F1428154F8048B36
:10DFE000B8F1000F80F241819DF831306FF34103A9
:10DFF0008DF831304FF0FF3837E12D2B0CD0302B1E
:10E000007FF46DAF01225CE74FF0010C59E74FF050
:10E01000010E56E7012054E7012652E733460CFB78
:10E020000202303A1E4616F8010BA0F13007092F04
:10E03000F4D9994293D09DF830100D92D20F62F32B
:10E0400041018DF830108AE70B4600224FF00A0C90
:10E05000E8E79DF83120023342F004028DF83120C8
:10E060001F4617F8012B6C2A41D025D8682A2BD0DF
:10E070006A2A46D04C2A4CD01F4617F8012B9DF82F
:10E080003130782A8DF8332000F2D980572A4DD8C4
:10E09000412A03D0453A022A00F2D18004229DF899
:10E0A000323062F302038DF8323001239EE006FB2A
:10E0B00001210346303964E7742A26D07A2ADBD15D
:10E0C00006229DF831300DE05A78682A9DF83120FB
:10E0D00006D1012161F3C6028DF831209F1CCCE7E7
:10E0E0001346022262F3C6038DF83130C5E75A7831
:10E0F0006C2A9DF8312001D10421EBE7134603225D
:10E10000F0E705229DF83130ECE707229DF8313029
:10E11000E8E7BDF8303023F4F04323F0020343F482
:10E12000804343F00203ADF83030A6E7A2F1580176
:10E13000202900F2848001A050F821F001E20000C3
:10E140003FE200003FE200003FE200003FE200004B
:10E150003FE200003FE200003FE200003FE200003B
:10E160009DE000003FE2000001E20000C1E100008C
:10E170009DE000009DE000009DE000003FE2000007
:10E18000C1E100003FE200003FE200003FE200008A
:10E190003FE2000009E2000001E2000025E2000089
:10E1A0003FE200003FE2000025E200003FE2000005
:10E1B00001E200003FE200003FE2000001E2000057
:10E1C00001209DF8321003F0780360F30201402B28
:10E1D0008DF8321002BF9DF8301041F001018DF82A
:10E1E0003010632A31D1003B18BF01239DF8302045
:10E1F000C2F340010B4363F341028DF83020D8E6AF
:10E2000002209DF83210DEE703219DF8322003F052
:10E210007803A3F1400061F3020243428DF83220FB
:10E220004341E3E703219DF8322013F0780F61F3B7
:10E23000020214BF012300238DF83220D6E79DF897
:10E24000303043F001038DF830300023CEE79DF9E4
:10E250003020002AACBF4FF0FF39DDF83490BAE629
:10E260009B077FF5C7AEDDF838800023CDE90D337D
:10E270009DF832309DF8311003F00703012BC1F3F4
:10E28000C30138D1CB1E042B22D8DFE803F00309E9
:10E290000921210054F8043BDA17CDE90A3206E0DF
:10E2A000073424F00704F4E80223CDE90A239DF89B
:10E2B000303013F0030656D03B465246594602987A
:10E2C00016F0DEF90028C0F242810544BA46D9E5CD
:10E2D00054F8043B01294FEAE372CDE90A3205D133
:10E2E0009DF828300A9300230B93E0E70229DED142
:10E2F000BDF92830D0E7022B23D1CB1E042B13D835
:10E30000DFE803F0030A0A12120000232268201D2E
:10E310000A920B930446CAE7E01D20F00700F0E8DC
:10E320000223CDE90A23F5E754F8043B01290A93B7
:10E330004FF000030B93D3D00229B8D1BDF8283099
:10E34000D0E7042B09D1E31D23F0070303F10804F0
:10E35000D3E90023CDE90A23A9E7032B04BF54F82E
:10E36000043B0A93A3E79DF833007828AED86228CF
:10E3700022D825283FF48FAD5828A7D1DDE90A011E
:10E380000DF1260300930CAA04AB16F033F9824674
:10E39000B8F1000F0DF126000CDB9DF83020A0EB4A
:10E3A0000A036FF3861298458DF8302002D9A8EB46
:10E3B00003030D9380463DE06338152886D801A2FB
:10E3C00052F820F045E40000A9E40000CDE200008E
:10E3D000CDE20000CDE20000CDE20000A9E40000A3
:10E3E000CDE20000CDE20000CDE20000CDE2000071
:10E3F00003E50000D1E40000D5E40000CDE2000018
:10E40000CDE200001DE40000CDE20000D1E40000F8
:10E41000CDE20000CDE20000D1E40000B8F1000F31
:10E42000DDF828A00ADB4146504617F0E9FC00263B
:10E430000AEB0008BAF1000F0CD147E7504617F07D
:10E44000D8FCF4E700260A9B0DF1100A8DF8103075
:10E450000DF11108A8EB0A0306B101339DF8322033
:10E46000D00668D5023352060D9948BF0E9A0B4468
:10E4700048BF9B18B9F1000F76DD9DF83020A9EB5D
:10E480000309C2F38003039353076DD4500661D58B
:10E4900046B159463046029B9847002857DB039BFC
:10E4A00001351E46302356E01E070FD413F0100628
:10E4B00018BF2026DDE90A23002BBFF65FAF5242CA
:10E4C00063EB43032D26CDE90A2357E72B26F1E71B
:10E4D000002653E70A9840B30DF12603009300216C
:10E4E00004AB0CAA16F086F8BDF83230824603F071
:10E4F000EF0343F4F04343F010030026ADF832304D
:10E5000046E70A9B07293FF6E1AEDFE801F00C047D
:10E51000060C08080C0C1D70D8E61D80D6E6EA171C
:10E52000C3E90052D2E61D60D0E6DFF8C8A0064677
:10E530000AF105088EE7110748BF013393E7184633
:10E5400003935946029B98470028039B04DA11B0B5
:10E55000BDE8F08F20234D444A46002AA5EB09016F
:10E5600009F1FF39EBDC0D4636B159463046029BC6
:10E5700098470028EBDB01359DF83230D90601D4ED
:10E580001A0706D559463020029B98470028DEDB43
:10E5900001359DF83230DB0607D559469DF833002A
:10E5A000029B98470028D2DB01350D9E2E44731B39
:10E5B000002B16DC434652465946029816F060F886
:10E5C0000028C4DB0544A944A9EB0503002B7FF711
:10E5D0007DAE59462020029B98470028B7DB0135C5
:10E5E000F2E759463020029B98470028AFDB0135FF
:10E5F000DDE700BF5ABD0200044608B54FF0200217
:10E60000EFF3118382F31188BFF36F8F16F0DCFEF6
:10E61000204603F057FC034815F0ABFD03F030F93A
:10E62000FCE700BF60BD02004FF0FF33C340DB07D3
:10E6300010B504460BD40C490C484FF405730C4A32
:10E6400015F097FD4FF40571094816F02FF80948A9
:10E6500000EB8400D0F8003223F0E04343F0405355
:10E66000C0F8003210BD00BFBCBD02008ABA020073
:10E6700089BD02000025845070B54FF02003EFF3F0
:10E68000118683F31188BFF36F8F01240C4B0D4D5E
:10E69000C3F8004502230020C5F8D036FFF7C4FFB9
:10E6A0002046FFF7C1FFC5F80447C5F80449C5F87F
:10E6B000004B86F31188BFF36F8F002070BD00BF41
:10E6C000001000500040005048B1054B1A68054B3F
:10E6D000B2FBF3F2044B504343F001031847704779
:10E6E0004C04002040420F0070A9020084B004AB2B
:10E6F00003E907009DF80430062B07D10122044BE3
:10E70000C3F80025BFF34F8F20BFFDE704B070476B
:10E710000040005030B5002289B00F490F481BF06F
:10E72000C8FD002200230024CDE906230E230C4D52
:10E73000CDE903344FF440722846CDE90144094B3A
:10E740000949009411F098FE084928461BF09BFCEB
:10E75000204609B030BD00BF71E70000F00A00207C
:10E76000280B002091EB000098540020E3BD02002C
:10E77000014812F0B1BA00BF440800202029F8B5C2
:10E7800005460C4609D9144914488023144A15F04B
:10E79000F0FC8021124815F089FF00200127034674
:10E7A000024615F8011B09B1A34200D3F8BD252983
:10E7B00002D182F00102F4E7002AF2D041F02006F3
:10E7C000613E192EEDD8732904BF07FA03F21043F6
:10E7D00001330022E5E700BF18BE02008ABA02003A
:10E7E000EBBD0200002210B50A4B4FF400401A7036
:10E7F000094B0A4A1A6000F09FFD00F0A1FA084890
:10E8000015F069FFBDE81040082348220549064875
:10E810001BF017BC834B0020680200201B4702003E
:10E82000D0150020D0860020D815002010B54FF05C
:10E830002003EFF3118483F31188BFF36F8F044833
:10E8400015F059FF84F31188BFF36F8F10BD00BF1F
:10E85000D0150020044BD3E8EF2F0132C3E8E12F9D
:10E860000029F8D1704700BFC815002000200246DB
:10E87000034BD3E8EF0FC3E8E12F0029F9D170472C
:10E88000C8150020F8B5FFF7F1FF002607460A4C2F
:10E890000A4D2D1B2D11AE4200DBF8BD204615F0B0
:10E8A00030FF28B123681B6913B1394620469847C9
:10E8B00001361034EFE700BF90A80200A0A80200C4
:10E8C000044A054B9B1AB1EBD30F34BF52F8310009
:10E8D0000020704730A7020090A8020070B5104CCD
:10E8E0000546041B241101340E46E4B248B90D4913
:10E8F0000D48D1230D4A15F03CFCD1210B4815F0F1
:10E90000D5FE01226B681C71094C1E605A71237878
:10E9100013B9084812F0E0F90123237070BD00BF5D
:10E9200090A8020061BE02008ABA020030BE020056
:10E93000824B00204408002070B5174B174CE41A96
:10E94000902C0BD91649174840F24D23164A15F062
:10E9500010FC40F24D21144815F0A8FE134BD3E8EB
:10E96000EF6F721CC3E8E12F0029F8D11EB9251101
:10E97000094CAE4200DB70BD237B53B123689B6919
:10E980000BB1204698476368042220461968FFF7B8
:10E99000A5FF01361034ECE790A80200A0A8020001
:10E9A00078BE02008ABA0200EBBD0200CC1500203E
:10E9B000144B37B59842044602D3134B98421CD3EC
:10E9C00000220023114801A911F026FC0546B8B920
:10E9D0000122019BD3E8EF1FC3E8E02F0028F9D103
:10E9E000019821464122043017F0F1F97E23019C61
:10E9F00084F8453084F846500434204603B030BDD6
:10EA0000034CFAE7A4A302001C120300D81500204F
:10EA10009CBE020050B1064B984206D303F510731A
:10EA200098422CBF0020012070470020704700BF93
:10EA3000D0860020464B2DE9F74F1B78044603B9DA
:10EA4000E0B1FFF7F3FE054658B1424BD3E8EF2F94
:10EA5000013AC3E8E12F0029F8D19CB1284615F00E
:10EA600042FF2CB93C4B1B68002B01DDFFF70AFF6E
:10EA70003A4815F03EFE041E18BF0124204603B09C
:10EA8000BDE8F08F364B1B78BBB92B7ADB0714D46B
:10EA900015F038FF8146284615F003FF0146484629
:10EAA000FFF76CFE0746DFF8BCA02F4BDFF8BCB0C9
:10EAB000A3EB0A03DB08019337B92D4E2D4F4FF01E
:10EAC0000008BF1B3F1140E0B7FA87F8C8F11F08E4
:10EAD0004146284615F0E8FE274B0246984202D3ED
:10EAE000264B98421FD31046FFF794FF0646D0B935
:10EAF000234B9A4217D06B89019AC3F3891393422F
:10EB000038BF5AF833605A46D0231E491E4815F0C4
:10EB100030FB41461D484B46324615F02AFBD021BA
:10EB2000584615F0C3FD012303FA08F827EA080741
:10EB3000C2E7304615F0E5FD20B13368294630467E
:10EB40005B68984708F101081036B845F1DB85E7A6
:10EB5000824B0020C4150020C8150020D0150020CD
:10EB6000834B002030A7020090A80200EBBD0200FA
:10EB700090A80200A0A80200A4A302001C12030097
:10EB80009CBE02008EF802008ABA0200B6BE0200E5
:10EB9000164B174A10B59B1A002B0BDC154916486B
:10EBA00040F26D53154A15F0E4FA40F26D511348E6
:10EBB00015F07CFDFFF7C0FE13F06AFF104B1860E4
:10EBC00030B1104B1B68092B02DD0F4812F084F89E
:10EBD0000D4C0020FFF72EFF0028FAD14FF0FF3236
:10EBE0004FF0FF33204612F0BBF8F2E7A0A8020076
:10EBF00090A80200F7BE02008ABA0200EBBD020034
:10EC0000F8150020C415002044080020274B37B514
:10EC10001B68418104469847E0604FF02003EFF302
:10EC2000118583F31188BFF36F8F2148214615F0BA
:10EC300056FD85F31188BFF36F8F1E4BD3E8EF2F7E
:10EC40000132C3E8E12F0029F8D11B4A127882B1C2
:10EC50004FF02003EFF3118483F31188BFF36F8F1C
:10EC60000020FFF7E7FE84F31188BFF36F8F03B036
:10EC700030BD124A1B681268002AF8D0012B0AD155
:10EC8000002200230E48CDE900234FF40042002368
:10EC900014F07AFBEBE70A2BE9D109481BF015FBCE
:10ECA000084803B0BDE8304012F016B868020020F2
:10ECB000D0150020C4150020834B0020F81500203B
:10ECC000F00A002044080020F8B50F4F3D7875B9D0
:10ECD000FFF732FE0D4C0E4E361B3611B54207DBE8
:10ECE0000020FFF7A7FE0028FAD101233B70F8BDF2
:10ECF000204615F006FD18B1236820465B69984749
:10ED000001351034EAE700BF834B002090A80200D1
:10ED1000A0A8020007B504380190D0E8EF3F5A1EC2
:10ED2000C0E8E12F0029F8D1012B03D1034801A944
:10ED300011F0DEFA03B05DF804FB00BFD815002027
:10ED4000202302491A4602481BF07BB91089002093
:10ED5000FC150020002337B5094D01930120FFF772
:10ED600069FE0446FFF776FD00220023284601A92C
:10ED700011F052FA08B1002CF0D1019803B030BD67
:10ED8000FC150020002307B500220193064800234C
:10ED900001A911F041FA10B1FFF7DCFF01900198D1
:10EDA00003B05DF804FB00BFFC150020F0B5037A4A
:10EDB00085B0DC0701901ED4457A2D091BD00024B4
:10EDC00026463146019815F06FFD0746FFF722FEF3
:10EDD00070B134B9019B29461869FFF7CFFC04468E
:10EDE00048B124FA06F3D90702D53846FFF792FF57
:10EDF0000136AE42E5D3019B1A7A920704D55B69CE
:10EE0000084C0393039B2BB9064801A911F070FA33
:10EE100005B0F0BD1D68204603A911F069FA0395FD
:10EE2000F0E700BFFC1500200E2A2DE9F84F8046C0
:10EE30000F4615460BD93149314840F23713314A54
:10EE400015F097F940F237112E4815F02FFCFFF717
:10EE500099FF044658B301234FF0000A032D436085
:10EE6000A0F808A00CD9037AA5F1020943F0020327
:10EE7000037200F1140BC0F814A0B9F1000F0EDCFE
:10EE8000637A032D65F30713C4F81080637219D8F1
:10EE90003946AA0004F1140016F0E9FF07E0FFF775
:10EEA00071FF064630B92046FFF780FF3446204602
:10EEB000BDE8F88FCBF80000A9F107098346C0F838
:10EEC00000A0DAE73946082204F11800D4F81480CB
:10EED00016F0CDFF023D0837072D2E4628BF072626
:10EEE0004FEA8609394608F104004A4616F0BFFF8A
:10EEF000AD1BD8F800804F44EED1D8E743BF0200E5
:10EF00008ABA020017BF02000EB403B503AB53F870
:10EF1000042B014604480193FEF7ACFF02B05DF8F4
:10EF200004EB03B0704700BF69F100002DE9F04722
:10EF30001D46089B1746DA0604460E4605D4990678
:10EF40004CBF2A492A49FFF7DFFF4FF00008DFF8DE
:10EF5000A490A8452ADB0025DFF89C80DFF89C9070
:10EF6000DFF890A0BD422FD249462046725DFFF7E0
:10EF7000CBFF0135102D20D120462149FFF7C4FFDA
:10EF80000025DFF87080DFF87C90AF4228D9725DF1
:10EF90004946A2F120035F2B28BF2E222046FFF70F
:10EFA000B3FF0135102D14D1BDE8F0874946204646
:10EFB000FFF7AAFF08F10108CBE76A07D2D1514653
:10EFC0002046FFF7A1FFCDE741462046FFF79CFF13
:10EFD000CFE76B07D9D141462046FFF795FFD4E72D
:10EFE00041462046FFF790FFDBE700BF82EF0200BB
:10EFF0004EBF02006A0703006807030051BF02000A
:10F0000057BF020059BF02002DE9F04F11F0020670
:10F0100087B0059207461A469DF84080BDF9489092
:10F0200001F0010A01F0080506D011F0440F38D1B3
:10F030003349FFF769FF0646BAF1000F0AD0314B9A
:10F04000384653F82820304B3049002A08BF1A466A
:10F05000FFF75AFF3DB12E4B384653F828202D4973
:10F06000FFF752FF0546B9F1000F16DB059B002B99
:10F0700043D0012303FA08F8274B18F0100F274C50
:10F0800018BF1C4649469DF84400FFF719FC21466D
:10F0900002463846FFF738FF0544A81907B0BDE817
:10F0A000F08F1F4B196831B31E4B4FF461661B681C
:10F0B0004FF47A7BB2FBF3F3B3FBF1F4B4FBF6F25B
:10F0C00006FB124601FB14340BFB04F4B4FBF1FE07
:10F0D0004FF03C0C01FB1E44B6FBFCF30BFB04F4AD
:10F0E000B4FBF1F10CFB1366CDE901E100960E498A
:10F0F000FFF70AFF9FE708469DE7084CC2E700BFFD
:10F100006ABF020090A902005CBF02001AB70200A9
:10F11000A4A902008FBF020066BF020061BF020007
:10F120001C1600202016002073BF020038B50C46C4
:10F13000E107054603D5084A0849FFF7E5FEE20660
:10F1400008D4A3062846BDE838404CBF0449054909
:10F15000FFF7DABE38BD00BF5CBF02001AB702007D
:10F1600082EF02004EBF020038B54B6805461A68B0
:10F17000CB680C469A4202D1084615F036FD63680A
:10F18000D3E8EF2F511CC3E8E01F0028F8D1A36893
:10F190009D5463681A68E3689A4209D9054906488C
:10F1A0007323064A14F0E5FF7321044815F07EFA34
:10F1B000002038BDC4BF02008ABA020095BF020019
:10F1C0002DE9F0478B7A044613F007080E461746E0
:10F1D0008AB022D00A7A4989D243C1F38911C3F394
:10F1E000C203CDE900830291F368394602F00102BF
:10F1F000FFF70AFF8146357AED4315F001050ED081
:10F200002146304615F094FBB8F1000F39D0424644
:10F2100039462046FFF78AFF33E0C146EBE7B8F1F5
:10F22000000F34D1E3685BB92849294840F2CF1375
:10F23000284A14F09EFF40F2CF11264815F036FA06
:10F240000027E36806AA069330463B46A16815F0FE
:10F250005BFB069A63681A603AB1A368134413F81B
:10F26000015CA5F10A035D425D41204615F0BDFC3D
:10F27000069B1F44002BE4D11DB120461649FFF721
:10F2800043FE20460AB0BDE8F04715F0AEBC30465C
:10F2900015F038FB114902462046FFF735FE4FF0C6
:10F2A000100A05AA2B46304606A9CDF814A015F081
:10F2B0002BFB059A002AAAD04B462046009706A9A8
:10F2C000FFF734FE059B1D44EBE700BFF4BF0200CF
:10F2D0008ABA020095BF020001C002001AB70200FC
:10F2E00042F20F7373B58B4228BF0B460568044684
:10F2F000052168460D4A14F049FF06466368284612
:10F300000B225B680A4915F006FB636832466946C2
:10F3100028465B6815F0FFFA63681B2228465B6885
:10F32000044915F0F8FA02B070BD00BF04B702003E
:10F330003FC0020023C0020001230021074A10B58C
:10F34000074C1360A04204D801B11360054B18604C
:10F3500010BD012140085B00F4E700BF201600202B
:10F3600040420F001C1600200122014B1A7070470A
:10F37000944B00200122024B02481A7015F035BC54
:10F38000954B0020D4A902000148FFF7A9BF00BF98
:10F39000D4A9020010B50C46084615F079FA2146AA
:10F3A00004480F22FFF70CFF2046BDE8104015F07F
:10F3B0009ABA00BFD4A90200054B1B781BB141F2D9
:10F3C00088301AF047BFA420002113F029BB00BFEA
:10F3D000954B00202DE9F04780460F460424DFF8C6
:10F3E0008890DFF888A099F80050CDB94FF0FF332E
:10F3F0004FF0FF32504611F051F93A464146284647
:10F4000010F0E0FB0646504611F03CFA184DFEB1F4
:10F4100001232B7099F800306BB93846BDE8F087AE
:10F420003A464146002010F0CDFB0646EEE75CB9B7
:10F430002C704FF0FF34002010F010FC0028ECD0AE
:10F440002B78002BF3D1E8E7013CFFF7B5FFF2E79B
:10F450002B7813B1013C04D12C702B78002BC2D136
:10F46000DBE7FFF7A9FFF8E7954B0020F007002046
:10F47000944B00202DE9F7430F4606460821C06A49
:10F4800015F085FC80463C68DFF84890241A3C6003
:10F4900004EA0905AC4203D8002003B0BDE8F083BC
:10F4A00008236A462146304615F0CBFB0028F4D1EC
:10F4B0006946304615F075FC40B1BDF80230BDF824
:10F4C000042005EA090513441D443C60A4EB08042C
:10F4D000E0E700BF0000FFFF2DE9F04F082193B0E7
:10F4E0000446C06A15F053FC80466368E0891B0C33
:10F4F0001B0401A9019315F03FFC019BA189204643
:10F500001944A1EB0801082304AA029115F099FB04
:10F510000028C0F28680E36A04AA1979002312F851
:10F52000010B81426ED10133082BF8D1204601999D
:10F5300015F0E4FB75E0029BBDF812201B0C1B04C8
:10F5400013440293DFF8E0A0204606AA02A9DDF8E2
:10F55000089015F0B7FC002863D1204606A915F0E5
:10F5600020FC80B363680393204608AA03A9039D87
:10F5700015F0A8FC002854D1BDF82020BDF81830A3
:10F580009A4223D06268039B9A42EDD14D451AD12D
:10F59000BDF81C30BBB1BDF81A3009EA0A061E449A
:10F5A000A36806A8ADF81A3015F0DDFBE36ABDF8D4
:10F5B0001C701D686D4205F0200577B9204606A92C
:10F5C00015F06FFC68BBC145BED1AFE7204608A966
:10F5D00015F0E7FB0028D5D0D8E7BD42AB4628BFE1
:10F5E000BB4631465B4620460AAA15F02AFBC0B945
:10F5F0005A4620460AA915F041FC90B9A7EB0B0723
:10F600005E44DAE7029804A9A0EB0808204615F04A
:10F61000E2FB00288FD1204602A9FFF72BFF00282C
:10F6200090D013B0BDE8F08F0000FFFF2DE9F04748
:10F6300004460D4686B000F1140630461AF039FD36
:10F64000284610F035FBA06278B9A34BA349A44823
:10F65000C91AC908890141F0010115F062F86FF07B
:10F660000505284606B0BDE8F08783681B69984702
:10F67000E06260B99949984B9A48C91AC90889014A
:10F6800041F0010115F04DF86FF01505E9E7A06AAA
:10F6900083681B6998470368013B1F2B08D98F4972
:10F6A0008D4B9148C91AC908890141F00101E9E768
:10F6B000A06A216803AA18F0D4FF40B18749864B9D
:10F6C0008A48C91AC908890141F00101DAE7A58908
:10F6D0002DB1049BB5FBF3F203FB125545B17F49F5
:10F6E0007D4B8348C91AC908890141F00101C9E766
:10F6F000E389012B08D87949774B7E48C91AC90894
:10F70000890141F00101BDE7E36A009593F8049097
:10F710004FF0FF334FF0FF32304610F0BFFF0821AB
:10F72000E06A15F034FBA8460746E3891FFA85FA1C
:10F73000534568D8E389434500F0CA809A450BD108
:10F74000009908234A462046C91B15F0B2FA18B999
:10F750006946E08915F010FB69462046FFF78AFEEE
:10F76000054660BB009BDFF89081636003EA0803F5
:10F77000A360D4E9011399420FD30823204601AABC
:10F7800015F05FFA0546D0B901AB13F8012B91458E
:10F7900040F0BA800135082DF7D16368DFF8588151
:10F7A000694603EA0803E089009315F0E5FA4A4642
:10F7B0002046A389009915F07CFA051E48DA3046E8
:10F7C00011F060F8002D7FF44CAF0123434E2374F9
:10F7D000414BA289F61AF608B60146F003063346F5
:10F7E000E189464814F0BEFF616833468AB2444856
:10F7F000090C14F0B7FFA16833468AB24148090CDE
:10F8000014F0B0FF2DE7A1892B04C91B13FA81F175
:10F810004A4608232046009115F04BFA80B169460C
:10F82000E08915F0A9FA08F1010808234A462046A4
:10F8300000991FFA88F815F03CFA00283FF47AAFD7
:10F84000013572E7BAF1000F74D06FF01C05B6E70E
:10F8500023D02046616815F051FA05460028AED144
:10F860006368A08903EA08030344A3EB47006060D0
:10F8700000EA0800A0602046FFF72EFE05469EE73E
:10F880004A4620465B1A15F014FA051E97DB08D08D
:10F89000E26AA36812681344A360D4E901318B4281
:10F8A000EED86168A38901EB4700984287D1124FD7
:10F8B000A26801EA07039A4281D0204615F01EFA99
:10F8C000054600287FF47BAF63683B40A36076E782
:10F8D0006FF02C0573E700BF30A7020010A80200EC
:10F8E0006FC002008BC00200ADC00200CAC002009F
:10F8F000E2C00200F6C002000000FFFF19C10200D2
:10F9000030C1020042C10200204601A915F049FAA7
:10F91000656878B1009ABDF808A0BDF8061002EA43
:10F920000802A260E06A514415F031FA0244AA428A
:10F93000A26087D0ED1B65601BE700BF2DE9F04F8B
:10F940001E46037C04468946904689B07BB9614BCC
:10F9500061496248C91AC908890141F0010114F0DE
:10F96000E0FE6FF00C05284609B0BDE8F08FC26AD2
:10F970000821104615F00BFA82463146104615F064
:10F9800006FAA3890AEB4A029B1A9E42074600F236
:10F990009E801EB1B8F1000F00F099806368039358
:10F9A000204604AA03A9DDF80CB015F08BFA054631
:10F9B0000028D8D1BDF810304B4505D06268039BB4
:10F9C0009A42EDD1E6B9CEE7204604A915F0E9F94F
:10F9D0000028F3D0BDF8143086B19E4210D1BDF896
:10F9E00012004FEA1B4109040144334642462046B7
:10F9F00015F035F9002803DC0546B4E7002BB2D03A
:10FA0000A7BB04F1140A4FF0FF324FF0FF3350460A
:10FA100010F044FEDFF8C8B0E3899D4254D0D4E929
:10FA20000123F9188A4224D3ADF81A30FF2306A81F
:10FA30008DF81E30ADF81890ADF81C6015F093F9F4
:10FA400032464146204615F019FA034638B9204699
:10FA500006A915F026FA002814BF03463346019381
:10FA6000504610F00FFF019B1D467CE75744BFB284
:10FA7000C7E70821E06A15F08AF94FF6FF73ADF881
:10FA800018300023ADF81C301318ADF81A30A389D4
:10FA900002EA0B021A44121A626006A815F063F912
:10FAA00006A9204615F0FDF9E089211D15F064F93D
:10FAB0006368204603EA0B03A360FFF70DFD0346CE
:10FAC0000028CCD10135A7E76FF01B03C7E76FF023
:10FAD000150548E730A7020010A802005BC002002D
:10FAE0000000FFFF2DE9FF471E46037C04460F463A
:10FAF0009046BDF8309073B92B4B2C492C48C91A4D
:10FB0000C908890141F0010114F00BFE6FF00C00EF
:10FB100004B0BDE8F0870821C06A15F038F9A38960
:10FB2000A3EB40039E423CD84FF0000A6368019368
:10FB3000204602AA01A9019D15F0C4F90028E7D1C9
:10FB4000BDF80830BB4208D1204602A915F029F9BA
:10FB500018B10AF1010A1FFA8AFA6268019B9A42F7
:10FB600018D0D145E4D2BDF80C30BBB1D14515D881
:10FB7000BDF80A102D0CB3424FEA054528BF3346A5
:10FB800042462046294415F05CF80028C0D1BDF853
:10FB90000C00BDE7BDF80830BB42E4D06FF00100B7
:10FBA000B6E76FF01500B3E730A7020010A8020017
:10FBB0005BC00200014B1970704700BF00000720B6
:10FBC0000020014B187070470000072001490248CF
:10FBD00011F076BB3C160020A80B0020014B1868E2
:10FBE0001AF063B84C1600200D4B13B518680023AB
:10FBF00082680093194614681A46A047014660B10E
:10FC0000084B094A0948D21AD208920142F001026F
:10FC100002B0BDE8104014F091BD02B010BD00BFAD
:10FC20003816002030A7020060A802005AC1020066
:10FC30002DE9F041684B86B0049306238DF814300B
:10FC40000023074600930D464FF0FF334FF4006248
:10FC50006249634811F09EFB624961481AF013FA49
:10FC60006149624811F004FB04A80FF011FC04463E
:10FC700070B15F4A5F4B0146D21AD20892015E48CA
:10FC800042F0010214F05AFD204606B0BDE8F081B2
:10FC90005A480FF0DDFB044648B1554A554B014622
:10FCA000D21AD2089201564842F00102EAE75549B9
:10FCB000554803AA19F086FD044648B14C4A4D4BFD
:10FCC0000146D21AD2089201504842F00102D9E707
:10FCD000039B9A685AB93860464B45494C48C91A43
:10FCE000C908890141F0010114F01BFDCCE70C3378
:10FCF0003B60002BF0D047480FF0DAFF464E3060F3
:10FD000046480FF0D5FF326862B93949394B44484B
:10FD1000C91AC908890141F0010114F002FD6FF010
:10FD20001204B1E740B93249324B3E48C91AC908FA
:10FD3000890141F00101F0E7836822465B683A4996
:10FD40009847B4201AF025FB064618B1B422214684
:10FD500016F0B8F8DFF8D480C8F8006066B9244916
:10FD6000244B3348C91AC908890141F0010114F034
:10FD7000D8FC6FF00B0487E7B4201AF00AFB0646A4
:10FD800018B1B422002116F09DF8C8F8046046B9F5
:10FD90001749184B2748C91AC908890141F00101C0
:10FDA000E5E73A68244BD8F800005A61234A10214D
:10FDB0005A60042218609A6038681A620022D86279
:10FDC0001F489984D8619E61AA610222AA621D4AD5
:10FDD00099812A62EB6257E7E1F40100985700200D
:10FDE000A80B002078C10200DDFB00003C160020BB
:10FDF00060A8020030A7020083C102009C0200201C
:10FE0000A6C10200D1C10200DBC10200E3C10200B1
:10FE100000C20200F6F00200381600202CC20200D8
:10FE200032C2020055C20200CDFB00004C16002079
:10FE300078C20200A1C202006C02002000FC072070
:10FE400000F80720E4A902002DE9FF410D46264EE7
:10FE5000074631682846904615F0DBFFB8B12846C2
:10FE6000F16C15F0D6FF88B1204A214C2846A41A1F
:10FE7000FEF79EFDE408A40144F001040146224679
:10FE80001C4804B0BDE8F04114F058BC01204C24DB
:10FE90004443194B04F1080002933444636830442E
:10FEA000CDE900832A464FF0FF3339460FF0BCFB03
:10FEB000064690B10D4B0E4C2846E41AFEF778FD2D
:10FEC000E408A40144F001040146234632460B48ED
:10FED00004B0BDE8F04114F045BC012384F848307B
:10FEE00004B0BDE8F08100BF5416002030A7020026
:10FEF00068A80200D8C202007D4F020002C30200BF
:10FF000037B5194D19492846FFF792FE044668B1E6
:10FF1000174A184B0146D21AD2089201164842F0ED
:10FF2000010214F00BFC204603B030BD134C4FF41B
:10FF30007C42204612491AF066F800942B68114A58
:10FF40000A4911480FF014FD044648B1084A094B0C
:10FF50000146D21AD20892010C4842F00102E0E7B1
:10FF600001220B4B1A70DEE7EC160020480C002033
:10FF700068A8020030A7020033C3020090170020D7
:10FF80000004072049FE0000F01600205BC30200B9
:10FF9000964B002038B5134B04461B78F3B9124A30
:10FFA000136893B1D36CBBB1104A114CA41AFEF77D
:10FFB000FFFCE408A40144F00104014622460D4878
:10FFC00014F0BCFB6FF00B0038BD18464C234343C4
:10FFD000D518D4506960F7E70120F7E76FF0760095
:10FFE000F2E700BF964B00205416002030A7020015
:10FFF00068A8020075C302004C22034B02FB0033C9
:020000040001F9
:1000000093F84800704700BF5416002037B54C24C1
:100010000B4601214443CDE90021054D2819083440
:10002000D0E90B1228190FF0EDFA03B030BD00BF74
:1000300054160020084B30B51C68084B01461A685E
:1000400000239C4201DC002030BD104605781032B0
:100050008D42F9D00133F4E764AB02003003002095
:10006000084B10B51B680C462BB1FFF7E3FF28B116
:100070002060002010BD6FF00C00FBE76FF0010066
:10008000F8E700BF3003002030B589B00C461546B4
:100090000190FFF7CFFFB8B14368226802938368ED
:1000A000C068CDE903350023CDE90623059314F09C
:1000B00067FF60B1074901AA18F0D7FA079808B995
:1000C000059B236009B030BD6FF01500FAE76FF0B3
:1000D0001200F7E7854F0200104B2DE9F0411C6834
:1000E00005460E461746ACB14FF0FF324FF0FF33D6
:1000F0000B4810F0D3FA63683246D3F808802946DB
:100100003B462046C0470446054810F0BBFB20464E
:10011000BDE8F0816FF00104F9E700BFA4170020EB
:100120000408002000230360044B5A6812B9C3E995
:100130000000704710605860704700BF9C17002097
:10014000014B1860704700BFA4170020002330B592
:1001500085B00546CDE9023301904FF0FF334FF0F3
:10016000FF320B4810F09AFA0A4B1C6834B16368EE
:1001700020461B6801A998472468F7E7284600F045
:10018000EBF80446024810F07DFB204605B030BD78
:10019000040800209C1700201FB5CDE9010103923F
:1001A0004FF0FF334FF0FF32094810F077FA094B58
:1001B0001C6834B1636820461B6801A9984724680D
:1001C000F7E7034810F05EFB002004B010BD00BF4D
:1001D000040800209C1700200022024BC3E90022E3
:1001E000704700BF9C1700200022024BC3E9002289
:1001F000FFF7F2BFA81700202DE9F74307460E4688
:1002000009B100230B600025254CDFF89880DFF84A
:10021000989044450CD9254994234A46244813F024
:10022000A8FF244813F0A5FF9421484614F03EFA95
:10023000444508D3204B1C680CB1143CC4B9284673
:1002400003B0BDE8F0833846216801AA14F04EFFE0
:1002500060B125B90EB1019B3360254606E000224E
:100260002968206814F042FF0028F3D11434D0E745
:100270003846216801AA14F039FF60B125B90EB1E2
:10028000019B3360254606E000222968206814F0AF
:100290002DFF0028F3D114F1140FD0D06469CBE7FF
:1002A000B8A6020030A70200B6C30200E8C30200ED
:1002B0008ABA020010C40200A81700202DE9F043FA
:1002C00085B0DDF8308005460C4616461F46039083
:1002D000B8F1000F18D0D8F8001081B103AA14F0BB
:1002E00005FF60B9002007E0D8F8083032460093D7
:1002F00021463B460398C84705B0BDE8F083D8F8CF
:100300000490B9F1000FEFD1284603A9FFF774FF5D
:100310000028E7D03246D0F808803B4621460398B3
:10032000C04706460028DDD0084B094C2846E41A91
:10033000FEF73EFBE408A40144F001040146234615
:100340003246044814F00EFACCE700BF30A7020092
:1003500070A802002FC402002DE9F04106460025D6
:10036000214C224FDFF88880BC420CD92149F4236C
:100370004246214813F0FDFE204813F0FAFEF42116
:10038000404614F093F9BC4207D31D4B1C680CB1D6
:10039000143CA4B92846BDE8F0811EB9E3684BB906
:1003A0001434E1E700223146206814F09FFE002853
:1003B000F4D1F5E79847002D08BF0546F0E736B9B8
:1003C000E36863B914F1140FE4D06469DFE7002235
:1003D0003146206814F08AFE0028F1D1F2E79847F0
:1003E000002D08BF0546EDE7B8A6020030A70200C1
:1003F000B6C30200E8C302008ABA020010C40200B9
:10040000A817002010B5064C23783BB9FFF7ECFE87
:1004100000F064F808B90123237010BD0020FCE748
:10042000974B00202DE9F04780468946048FDFF87E
:10043000A8A0013498B0A4B200F10806651EADB2C0
:10044000B5F5004F45D04A23294605AA304614F099
:1004500089FD04F57F543F34A4B2074621460123A9
:1004600030460DF10B0214F07DFD002F014603DC38
:10047000002803DC2C46E1E7002816DCB8F8383009
:10048000AB4209D142466B1E22F8383F4FF400417F
:1004900002233046FFF752FA2946304614F05EFD3B
:1004A0002146304614F05AFDE4E718AB1F44002300
:1004B000524607F84C3C05A8CDF8009003AB0396D4
:1004C000ADF81040FFF7FAFE0028D3D018B0BDE811
:1004D000F0870020FAE700BF5F5102007FB50123DB
:1004E000694607200193FFF7BBFD0446002836D17B
:1004F000072002AA01A9FFF7C7FD10F1130F044658
:100500002DD038B10C3405D0404080F311884FF025
:10051000040002DF0399B1F5803F23D2002318467F
:10052000009A9568084485429CB203D30133082B96
:10053000F8D11C460D4D53682846AB60D368EC8259
:10054000A982EB6314F0A2FE044640B9084E284687
:100550006E60FFF7E7FD28466E60FFF7F1FD20466D
:1005600004B070BD6FF02004F9E700BFB0170020A1
:10057000F4020020F8B505464FF02003EFF3118692
:1005800083F31188BFF36F8F1D4810F04DF868B9E1
:1005900081231C4A1C491D4813F0EBFD18491C48D7
:1005A00013F0E7FD8121174814F080F8144810F08B
:1005B00057F8184B1C685CB1174FD4E90132002D75
:1005C00008BF13460BB1387898472468002CF4D143
:1005D0000B4810F037F868B9AC230A4A0F490B48AA
:1005E00013F0C7FD06490E4813F0C3FDAC210548C2
:1005F00014F05CF886F31188BFF36F8FF8BD00BF6D
:10060000F01700204ABB02009CBB02008ABA02001D
:10061000B1BB0200F4170020FC17002070BB0200E1
:1006200087BB0200084B10B51C685CB901221A6038
:10063000064B93E8070014F043F82046BDE810404D
:10064000FFF798BF10BD00BF04030020FC17002077
:10065000F0B585B06E46204C01460546304614F094
:1006600031FE96E8070084E807002078264680B32C
:1006700000201A4B18606B1C1DD091420CD21849F7
:10068000BD23184A184813F074FD184813F071FD83
:10069000BD21144814F00AF84FF4004C0021A7685B
:1006A00013480023E7FB0C01124AFBF755FE01211A
:1006B000281A12F0E5FC11F007FA0120FFF75AFFA3
:1006C00096E80700FEF712F8FFF7ACFF11F08EFC7A
:1006D000207805B0F0BD00BFFC1700200403002007
:1006E000CAC4020054C402008ABA02000AC5020049
:1006F0003F420F0040420F0010B507480FF0D8FAF4
:10070000064C074B1860204601F068FE2046FCF7B7
:100710004FFF002010BD00BFF9B9020025070100FE
:10072000081800200A2838B50446074D04D1286867
:1007300083680D21DB69984728688368E1B2DB692B
:100740009847204638BD00BF0818002037B5402321
:100750000C460A490093411A491105462346084AA6
:10076000084814F0C7FD011E05DA2846234603B0E9
:10077000BDE83040184703B030BD00BF201800204E
:10078000675302001C06002038B5CCB2032C054686
:1007900009D9094909487E23094A13F0EAFC7E2158
:1007A000074813F083FF0C23296904FB0314D4F8D2
:1007B000880000F0070038BD72C502008ABA020046
:1007C00035C50200F8B5CCB2032C054617460669BC
:1007D0000BD91A491A4840F253131A4A13F0C9FCAC
:1007E00040F25311174813F061FF4FF02003EFF36D
:1007F000118183F31188BFF36F8F0C2202FB046316
:10080000D3F8883013F0C00301D09F4212D10123E6
:10081000002002FB0466C6F8883081F31188BFF31C
:100820006F8F30B90C23696803FB04146368984721
:100830000020F8BD4FF0FF30EFE700BF72C50200A7
:100840008ABA020035C5020070B50D460649044655
:10085000411A491140220548FFF7B4FF2B460146D3
:100860002046BDE870401847201800201C060020D4
:100870002DE9F843002201210646052000F098FFEB
:10088000052000F063FF11480EF02EF8104B98423F
:1008900019D10EF04DF800244FF00C080127DFF8B5
:1008A00034903569494605EB441013F0BDFC00282F
:1008B00007DB08FB04550134042CC5F88870F0D11F
:1008C0000020BDE8F8836FF00400FAE71109010089
:1008D0000000AD0B4CAA020001460C2300224B4342
:1008E000094870B5C4188833D4E920561844C4F8B0
:1008F000802014F0ECFC2DB132462B46BDE8704050
:100900000248184770BD00BF201800201C060020B8
:1009100008B5052822D8DFE800F0031121130F0DD8
:10092000144BD3F8880010F0070021D1BDE808402F
:10093000FFF7D2BF0220F9E70320F7E70120F5E730
:100940000D4940F266230D4A0D4813F012FC40F2A7
:100950006621BDE80840094813F0A8BE064940F2E8
:100960006A23064A064813F004FC40F26A21F0E7C5
:1009700008BD00BF201800208EF8020035C5020017
:100980008ABA020008B54FF02003EFF3118183F318
:100990001188BFF36F8F124A136843F0020013F0FF
:1009A000010310600CD04FF05022D2F80C34D2F872
:1009B0000C2413F0010303D00A4814F088FC01232F
:1009C00081F31188BFF36F8F23B1BDE80840002089
:1009D000FFF782BF0120BDE808400DF0CFBF00BF88
:1009E000D0180020A81800207FB500220123CDE9EF
:1009F000022304ABCDE90433094A6B46CDF800D09D
:100A0000CDF804D014F0A8FC002805DB4FF4804298
:100A10000023684610F0A4F907B05DF804FB00BF9E
:100A20009D530200074BD3E8EF2F22F00201C3E8E9
:100A3000E01F0028F7D1D30702D401200EF016B82A
:100A4000704700BFD01800202DE9F0410122064672
:100A50004649D1E8EF3FC1E8E02F0028F9D1A3B91A
:100A6000434944484B60CB608A60FCF7E9FF0028AB
:100A70000BDA4149414840F22623414A13F079FB01
:100A800040F226213E4813F011FE96B3731E012B4F
:100A900056D8012E07D14FF05023D3F81C3403F061
:100AA0000303022B25D019F0E8FA044618B9354B98
:100AB0001B78002B52D14FF02003EFF3118783F303
:100AC0001188BFF36F8F01244FF05025DFF8B880F5
:100AD000D5F81834D5F81824D2030CD503F0030345
:100AE000022B01D0012E06D124B387F31188BFF366
:100AF0006F8FBDE8F081C4B1384600F0CFFED5F865
:100B00001835DBB2012BE3D1D5F80421002ADFD060
:100B10000022C5F80421D5F804210222C5F81825C1
:100B20002022C8F88021AB60D2E70021212011F0FB
:100B300077FFE4E74FF050230222C3F80423D8E7FD
:100B400012490E484FF40E730D4A13F012FBBDE824
:100B5000F0414FF40E710A4813F0A8BD4FF0502336
:100B600002220746C3F80823AEE700BFD4180020CE
:100B7000101800204018002096C502008ABA020012
:100B800035C502009150002000E100E08EF802001F
:100B900010B500F063F9041E0CDA21460D4A0E4B25
:100BA0000E48D21AD208920142F0010213F0C6FD9B
:100BB000204610BD0A4803F011F8041EF8DA054A71
:100BC000054B2146D21AD2089201064842F0010292
:100BD000ECE700BF78A7020030A70200D4C50200EE
:100BE00058AA0200FBC5020010B5017D0446022987
:100BF00012D004290FD009B3114A124B1248D21A4D
:100C0000D208920142F0010213F098FD20460AF04A
:100C1000F9FD002010BD052104F1080017F0EAFBE2
:100C2000204600F041F9011EF0DA054A054B07485D
:100C3000D21AD208920142F00102E5E70121EBE766
:100C400078A7020030A7020025C6020035C60200C0
:100C50002DE9F3418046064618F8010B0D4604289D
:100C600001F1FF3310D0052800F09980022840F0F0
:100C7000CF80032B62D86D496D4B6E48C91AC908E5
:100C8000890141F0010109E0012B0CD86749684B4B
:100C90006948C91AC908890141F0010102B0BDE8DB
:100CA000F04113F03EBD73783E2B1DD1F778022F33
:100CB0001CD0A7F10D035F425F410222414601A80B
:100CC00015F0D5F89DF80530033D9D4210D05749E9
:100CD000574B5A48C91AC908890141F0010113F05C
:100CE00020FD02B0BDE8F0810027E6E70127E4E738
:100CF0000022002339469DF8040001F087FD0446D8
:100D000050B9002FEDD14949494B4D48C91AC9087E
:100D1000890141F00101E2E700F10807022201A97F
:100D2000384617F082FB2A46F11C384617F07DFB47
:100D3000204602B0BDE8F04102F01CBF00220023B3
:100D4000032001F009FD044600B3042241460DEBE7
:100D5000020015F08CF8042204F1080738460DEB68
:100D6000020117F062FBBDF80630053D9D424CD0F4
:100D70002E492F4B3348C91AC908890141F0010196
:100D800013F0CFFC20460AF03DFDAAE72749284B87
:100D90002D48C91AC908890141F001017EE7032BDA
:100DA00008D82249224B2948C91AC908890141F0AB
:100DB000010173E70022002301F0CEFC0446D8B104
:100DC000042241460DEB020015F051F8042204F113
:100DD000080738460DEB020117F027FBBDF8063077
:100DE000053D9D4211D01149114B1948C91AC90836
:100DF000890141F00101C3E70C490D4B1548C91A9F
:100E0000C908890141F0010148E72A46711D8CE7B4
:100E10000146074B054A1048D21AD208920142F007
:100E2000010202B0BDE8F04113F088BC78A70200CF
:100E300030A70200AEC602004DC602006EC6020018
:100E400092C60200E7C60200CDC6020009C7020032
:100E500042C7020028C7020064C702000B4908B558
:100E60000B48FFF797F8011E0BDA0A4B0A4A0B48AA
:100E7000D21AD208920142F0010213F05FFC084836
:100E800008BD084B00201960FAE700BFB953020003
:100E90008CC7020030A7020080A7020097C702009B
:100EA0002AF8FFFFD8180020024B82898168186851
:100EB000FFF7ACB8D818002008B5024B1868FFF748
:100EC0009BF808BDD818002010B5064C06492246EC
:100ED0000648172313F04DF92046BDE810401721AE
:100EE00013F0E4BBCFC702008EF802008ABA0200FA
:100EF000044A1368C81A20F07F400344136012F0BC
:100F00000FB900BFEC1800202DE9F0474FF48037EF
:100F10004FF00009860000F1500406F15026A400AD
:100F200006F58036A4B204F15024D6F84035DFF837
:100F30006C8021F07F4504F580348740D8F804A503
:100F4000A3EB0A0323F07F432AF07F42012BC6F86C
:100F5000402502D1132019F07DF90AF10202AB1AE3
:100F600023F07F43B3F5000F88BF1546C4F8009007
:100F7000236825F07F43C8F84473C6F84035D8F895
:100F800004359A4506D0EB1A023B23F07F43B3F5B4
:100F9000000F01D8BDE8F0872B46CFE70050015085
:100FA000F8B500252F46104C2668104B05B1F8BD4A
:100FB000D3F80423D203FAD5D3F84021002AF6D07F
:100FC000C3F84051D3F840214FF48032C3F848238E
:100FD0000125D3F8401526B1002062682760B0478C
:100FE000E2E72660E3E700BFE01800200050015070
:100FF00038B500254FF480334FF400120C4C01211A
:10100000C4F80855C4F804330A4B1520C3F88021EE
:101010002A4600F0CDFB152000F098FB0123064A7C
:10102000A360022023601360FFF70EFD284638BD41
:101030000050015000E100E0E8180020134AB0F130
:10104000FF3F14BF03461346013B002B1CDD9342B8
:10105000A8BF13460E4AD2F804050E4A1168401A7A
:1010600010F4000F18BF002320F07F4201320A481D
:1010700013440A4A106000205060044A934294BF0F
:10108000C9188918FFF740BF0023E3E7FFFF7F007F
:1010900000500150EC180020F10E0100E018002073
:1010A000044BD3F80405044B1B68C01A20F07F40A2
:1010B000704700BF00500150EC18002038B54FF0C9
:1010C0002003EFF3118583F31188BFF36F8F1B4863
:1010D0000FF0AAFA68B98123194A1A491A4813F07D
:1010E00048F81649194813F044F88121144813F0C0
:1010F000DDFA12480FF0B4FA154B1048D3F8044546
:10110000144B1B68E41A24F07F441C440FF09AFA35
:1011100068B9AC230A4A10490B4813F02AF807496A
:101120000E4813F026F8AC21054813F0BFFA85F3FA
:101130001188BFF36F8F204638BD00BFF018002024
:101140004ABB02009CBB02008ABA0200B1BB02008B
:1011500000500150EC18002070BB020087BB020059
:10116000034B9B681BB1481E18BF012018477047EE
:10117000F418002010B51C46034B11461B680BB138
:1011800022469847204610BDF4180020024B5B68A9
:1011900003B11847704700BFF418002030B1044B6A
:1011A00002681A6042685A6082689A60002070473C
:1011B000F418002070B50E461546044686B000218E
:1011C0001822684614F07EFE0B490C4BCDE901163F
:1011D000ADF80C5004932CB96946204607F048FE40
:1011E00006B070BD0122204607F0FAFF0028F3D1B7
:1011F0006FF01500F4E700BF94AA02008D11010002
:101200000449431E0F3013F8012F8A5C83421A7081
:10121000F9D1704765C80200F0B50746264E8DB07B
:1012200001AD0C460FCE0FC50FCE0FC596E80700D7
:1012300085E807003846002F39D0002C39D0381FF8
:101240000246214610344B780D781B0443EA0563AF
:10125000CD7804312B4311F8025C8C4243EA05231C
:1012600042F8043FEFD10421144C8A07036916D1D8
:10127000C3F30742A55C1A0EA25C42EA0562C3F3FF
:101280000725655DDBB2E35C42EA054242EA0322E0
:101290000CAD21F003032B4453F82C3C534050F881
:1012A000042F013153402C290361DED101200DB000
:1012B000F0BD2046FBE700BFF4A8020065C80200AD
:1012C0002DE9F04F002703689DB002934368DFF8D3
:1012D000B8A103938368DDE902460493C3680593CC
:1012E000036906934369DDE905E20793836908937F
:1012F000C369DDE907CB98460993049B0093CD5958
:101300000CAB2DBADD515AF8043B043705EB030949
:101310004FEAF22585EAB21585EA72654D442BEA5B
:10132000020302EA0C0983EA09032B44009DDDF85D
:101330000090434475404FEA743888EAB408254069
:1013400006EA090985EA090588EAB458A844402F45
:1013500003EB0E054344DDF800E0D84640F08580FD
:101360004FF0100A49490A9151460AF1010A0DF15C
:10137000700E0AF00F070EEB870757F8407C01F05C
:101380000F094FEAB748019788EAF71801F10E07ED
:1013900007F00F070EEB870757F8407C09314FEA3B
:1013A000F74E8EEA774ECDF82CE001F00F010DF1EB
:1013B000700E0EEB89090EEB810151F8401C59F8B3
:1013C00040ECBAF1400F7144DDF804E088EADE0831
:1013D000DDF82CE041448EEA972E0A9F714457F8BD
:1013E00004EB49F8401C4FEAF52905EA02080A9780
:1013F00089EAB5192CEA050787EA080789EA7569B9
:101400004F447744394459444FEA733784EA060B12
:101410000BEA030B87EAB30704EA060EDDF8008047
:101420008BEA0E0E87EAB35777448844E346394483
:10143000009621D1029F0F44039907601944049B31
:10144000416023448360059B3344C360069B43444F
:101450000361079B2B444361089B13448361099BF1
:101460006344C3611DB0BDE8F08FE3460096944627
:1014700026462A461C4642E7944626462A461C46ED
:1014800045460B4670E700BF68AB0200A8AB020000
:1014900010B50446C8B17022002113F0A3FF0B4B16
:1014A0000B4A0C49C4E900230B4B0C48C4E9021356
:1014B0000B4BC4E9040301200A4BA36103F17453ED
:1014C000A3F52303A3F69243E36110BD85AE67BB8A
:1014D00067E6096A72F36E3C3AF54FA57F520E51EA
:1014E0008C68059BABD9831F014812F09DBC00BFDF
:1014F00068AC020010B5044618B90D4B0D485B6886
:101500009847616808290DD031F004030AD011F022
:10151000020108D0214608480EF0EAFE00232360AD
:101520000023636010BD1422206814F0CBFCF7E7A1
:101530008C04002065C902000019002008B540B3E2
:101540004368042B0BD0082B16D003B300684FF070
:10155000FF324FF0FF330FF0A1F858B115E0012230
:101560000368D3E8EF1F002903D1C3E8E02F002868
:10157000F7D10AD1002008BD0368074A1B7803F59C
:10158000807352F82330002BF4D00448F3E704486A
:10159000F1E76FF4E040EEE700000350E98FFFFF52
:1015A000EA8FFFFF08B508B34368042B07D0082B68
:1015B00013D0F3B100680FF065F900200CE00022B1
:1015C0000368D3E8EF1F012903D1C3E8E02F002807
:1015D000F7D1094808BF104608BD036800201B78F2
:1015E000064A03F5807342F82300F5E76FF4E04004
:1015F000F2E70348F0E700BFE98FFFFF0000035068
:10160000EA8FFFFF10B5044618B9164B16485B6801
:1016100098476368042B23D0082B21D0CBB92368CB
:10162000BBB94FF0FF324FF0FF3321460F480EF0A9
:10163000F3FD08B923681BB90A4B0D485B6898474E
:1016400014220021206814F03DFC636843F002037B
:101650006360206818F02DFD636843F00103636048
:1016600010BD00BF8C04002065C9020000190020D5
:101670008BC9020008B5064940231422054818F01A
:10168000E0FCBDE808400449044812F01FBC00BF5C
:10169000201900200019002080AC020070AC02006C
:1016A000094A0A49936809689867D96708494B68E5
:1016B00043F080534B60002383F31188BFF36F8F97
:1016C0009368D86F704700BFEC2800201CB502005B
:1016D00000ED00E013498A684FF030001044EFF34A
:1016E000098C80E8F01F202080F31188BFF36F8FF2
:1016F0000D4F4FF000664A6A8A603E60906F00238B
:10170000936780F3118802F1300090E8F01F8CF3AA
:10171000098802F1000004B514F0AAFABDE80440FB
:1017200070470000EC28002004ED00E01EF0040FDC
:101730000CBFEFF30880EFF30980816911F8021CF8
:101740000229FFD001B514F097FA01BD43B2002B76
:1017500008DB012200F01F0002FA00F0024A5B09D8
:1017600042F82300704700BF00E100E043B2002BC5
:101770000DDB012200F01F0002FA00F05B09044AB1
:10178000203342F82300BFF34F8FBFF36F8F7047B2
:1017900000E100E0054B420953F82220012300F04C
:1017A0001F0003FA00F01040704700BF00E100E0A6
:1017B00070B54C1C072C05460E460FD95823104A0D
:1017C0001049114812F0D5FC3146104807232A462B
:1017D00012F0CFFC58210A4812F068FF6BB2002BC0
:1017E000ACBF03F160430A4B4FEA4414E4B2ABBF11
:1017F00003F5614305F00F0583F800435C5570BDA8
:10180000B8C90200EEC902008ABA020009CA020081
:1018100014ED00E042F8203C009B0B4942F81C3CD0
:10182000019B21F0010142F8183C029B42F8081C80
:1018300042F8143C4FF0807342F8043C0023203AF5
:1018400002658367704700BF4F420200084B9860F3
:10185000836E83F30B88104681F30988002163B6F9
:1018600081F31188BFF36F8F0022002312F0EFFC89
:10187000EC280020014910220A60704710ED00E0BA
:1018800072B6404080F31188BFF36F8FBFF34F8F64
:1018900030BF62B6BFF36F8F704700BF72B649406A
:1018A00081F3118820BF80F3118862B6704700BFB2
:1018B00073B506460C4601B3134B144D1448ED1A8C
:1018C000ED08AD0145F00105ADF80050D1E9012367
:1018D000096812F060FFADF80050D4E90423E16814
:1018E0000C4812F058FF2A46E1690B4812F026FF17
:1018F0002A46A169094812F021FF2146304602B06C
:10190000BDE870400EF004BA30A7020050A80200F3
:1019100049CA020078CA0200A7CA0200B6CA020079
:1019200030BFFFF7FDBF00BF0B4A08B50B4B22F0DD
:101930007F029A60BFF34F8FBFF36F8FD3F8882079
:1019400022F47002C3F888200EF05AFA11F0D4F98C
:1019500000F000FB0EF078FA00C2000000ED00E09D
:1019600001B572B60B4A106A00281EBF0021116231
:1019700018F090FB62B6EFF30580A0F110004FEA7B
:10198000C0000549014409C99847BDE80140034921
:1019900008470000EC2800204CA40200A91E01000A
:1019A000002080F31488BFF36F8F002080F30A8833
:1019B00080F30B8812F082FE00200E490860BFF30E
:1019C0004F8F0D4880F3088800F0A0FA202080F3A4
:1019D00011880A484FF40061401880F30988EFF33A
:1019E00014800221084380F31488BFF36F8FFFF740
:1019F0009BFF000094ED00E090750020D076002061
:101A0000EFF30880EFF3098101B5724600F05EF94B
:101A100001BD00BF70B5284B284C294DE41AE408DD
:101A2000A40144F001063146264812F07AFEAB6A62
:101A30009B0103D53146244812F073FEAB6ADD01E9
:101A400004D5224844F0010112F06BFE1C4EB56A29
:101A500015F4801505D01E4844F0010112F061FE16
:101A60000225B36A180304D51A4844F0010112F0A4
:101A700058FE134EB36A590304D5174844F00101C8
:101A800012F04FFEB36A9A0304D5144844F00101E2
:101A900012F047FE0A4EB36ADB0304D5104844F047
:101AA000010112F03EFEB36A28466FEA03436FEA73
:101AB0001343B36270BD00BF30A7020050A80200FC
:101AC00000ED00E0E4CA0200FCCA02000FCB0200F5
