:020000040000FA
:10C000003DB8F3960000000000020000B9500100A6
:10C010000000000000000000000000000000000020
:10C02000FFFFFFFFFFFFFFFFFFFFFFFFFFFFFFFF20
:10C03000FFFFFFFFFFFFFFFFFFFFFFFFFFFFFFFF10
:10C04000FFFFFFFFFFFFFFFFFFFFFFFFFFFFFFFF00
:10C05000FFFFFFFFFFFFFFFFFFFFFFFFFFFFFFFFF0
:10C06000FFFFFFFFFFFFFFFFFFFFFFFFFFFFFFFFE0
:10C07000FFFFFFFFFFFFFFFFFFFFFFFFFFFFFFFFD0
:10C08000FFFFFFFFFFFFFFFFFFFFFFFFFFFFFFFFC0
:10C09000FFFFFFFFFFFFFFFFFFFFFFFFFFFFFFFFB0
:10C0A000FFFFFFFFFFFFFFFFFFFFFFFFFFFFFFFFA0
:10C0B000FFFFFFFFFFFFFFFFFFFFFFFFFFFFFFFF90
:10C0C000FFFFFFFFFFFFFFFFFFFFFFFFFFFFFFFF80
:10C0D000FFFFFFFFFFFFFFFFFFFFFFFFFFFFFFFF70
:10C0E000FFFFFFFFFFFFFFFFFFFFFFFFFFFFFFFF60
:10C0F000FFFFFFFFFFFFFFFFFFFFFFFFFFFFFFFF50
:10C10000FFFFFFFFFFFFFFFFFFFFFFFFFFFFFFFF3F
:10C11000FFFFFFFFFFFFFFFFFFFFFFFFFFFFFFFF2F
:10C12000FFFFFFFFFFFFFFFFFFFFFFFFFFFFFFFF1F
:10C13000FFFFFFFFFFFFFFFFFFFFFFFFFFFFFFFF0F
:10C14000FFFFFFFFFFFFFFFFFFFFFFFFFFFFFFFFFF
:10C15000FFFFFFFFFFFFFFFFFFFFFFFFFFFFFFFFEF
:10C16000FFFFFFFFFFFFFFFFFFFFFFFFFFFFFFFFDF
:10C17000FFFFFFFFFFFFFFFFFFFFFFFFFFFFFFFFCF
:10C18000FFFFFFFFFFFFFFFFFFFFFFFFFFFFFFFFBF
:10C19000FFFFFFFFFFFFFFFFFFFFFFFFFFFFFFFFAF
:10C1A000FFFFFFFFFFFFFFFFFFFFFFFFFFFFFFFF9F
:10C1B000FFFFFFFFFFFFFFFFFFFFFFFFFFFFFFFF8F
:10C1C000FFFFFFFFFFFFFFFFFFFFFFFFFFFFFFFF7F
:10C1D000FFFFFFFFFFFFFFFFFFFFFFFFFFFFFFFF6F
:10C1E000FFFFFFFFFFFFFFFFFFFFFFFFFFFFFFFF5F
:10C1F000FFFFFFFFFFFFFFFFFFFFFFFFFFFFFFFF4F
:10C20000D87B002039F800001FA4010099F8000035
:10C2100099F8000099F8000099F8000099F80000DA
:10C22000000000000000000000000000C5F5000054
:10C2300099F80000000000006DF50000E9F0000032
:10C24000F9F70000F9F70000F9F70000F9F700002E
:10C25000F9F70000F9F70000F9F70000F9F700001E
:10C26000F9F70000F9F70000F9F70000F9F700000E
:10C27000F9F70000F9F70000F9F70000F9F70000FE
:10C28000F9F70000F9F70000F9F70000F9F70000EE
:10C29000F9F70000F9F70000F9F70000F9F70000DE
:10C2A000F9F70000F9F70000F9F70000F9F70000CE
:10C2B000F9F70000F9F70000F9F70000F9F70000BE
:10C2C000F9F70000F9F70000F9F70000F9F70000AE
:10C2D000F9F70000F9F70000F9F70000F9F700009E
:10C2E000F9F70000F9F70000F9F70000F9F700008E
:10C2F000F9F70000F9F70000F9F70000F9F700007E
:10C30000F9F70000F9F70000F9F70000F9F700006D
:10C31000F9F70000F9F70000F9F70000F9F700005D
:10C32000F9F70000F9F70000F9F70000F9F700004D
:10C33000F9F70000F9F70000F9F70000F9F700003D
:10C34000F9F70000F9F70000F9F70000F9F700002D
:10C35000F9F7000053B94AB9002908BF00281CBFEB
:10C360004FF0FF314FF0FF3000F080B9ADF1080C15
:10C370006DE904CE00F006F8DDF804E0DDE9022303
:10C3800004B070472DE9F04F099E0D4604460F4654
:10C39000002B47D18A4294465FD9B2FA82F343B167
:10C3A000C3F120019F4002FA03FC9C4020FA01F1F6
:10C3B0000F434FEA1C451FFA8CFE220CB7FBF5F128
:10C3C00005FB117701FB0EF042EA0742904208D9C3
:10C3D0001CEB020201F1FF3702D2904200F23481DD
:10C3E0003946121AA4B2B2FBF5F005FB102200FB8D
:10C3F0000EFE44EA0244A64508D91CEB040400F1F1
:10C40000FF3202D2A64500F21981104640EA0140EF
:10C41000A4EB0E0400211EB1DC400023C6E900435A
:10C42000BDE8F08F8B4208D9002E00F0FB80002180
:10C43000C6E900050846BDE8F08FB3FA83F100298C
:10C440004BD1AB42C0F0F180824240F2EE80084610
:10C45000002EE5D0C6E90047E2E702B9FFDEB2FAF6
:10C4600082F3002B40F09D808D1A4FEA124E97B256
:10C470000121B5FBFEF20EFB1250250C45EA0045EA
:10C4800007FB02F0A8420FD91CEB050502F1FF38AB
:10C490002CBF4FF001094FF00009A84203D9B9F1B0
:10C4A000000F00F0CE8042462D1AA4B2B5FBFEF07C
:10C4B0000EFB105500FB07F744EA0544A74208D9D4
:10C4C0001CEB040400F1FF3502D2A74200F2B38056
:10C4D0002846E41B40EA02409DE7C1F120078B405B
:10C4E00005FA01F422FA07FCFD408A404CEA030CED
:10C4F00020FA07F34FEA1C491C431FFA8CFE00FA8E
:10C5000001F3200CB5FBF9F809FB185540EA054585
:10C5100008FB0EF0A8420FD91CEB050508F1FF3A05
:10C520002CBF4FF0010B4FF0000BA84203D9BBF119
:10C53000000F00F08C80D0462D1AA4B2B5FBF9F0A4
:10C5400009FB105500FB0EFE44EA0545AE4507D930
:10C550001CEB050500F1FF3401D2AE457ED8204624
:10C5600040EA0840A5EB0E05A0FB029845454C4665
:10C57000C64602D306D14B4504D20138B9EB0204BA
:10C5800068EB0C0E002E6FD01A1B65EB0E0522FA1D
:10C5900001F305FA07F7CD4000211F43C6E90075F6
:10C5A0003EE702FA03FCC3F1200001FA03F24FEA6E
:10C5B0001C4EC14024FA00F51FFA8CF79C4015432D
:10C5C000B1FBFEF02A0C0EFB101142EA014200FB07
:10C5D00007F191420ED91CEB020200F1FF382CBF8B
:10C5E0004FF001094FF00009914202D9B9F1000F53
:10C5F00031D04046521AADB2B2FBFEF10EFB112211
:10C6000045EA024501FB07F2AA4207D91CEB0505E2
:10C6100001F1FF3801D2AA4223D84146AD1A41EABE
:10C62000004126E731463046FAE6841A65EB0303FB
:10C6300001201F460CE7644402384AE7644402388C
:10C64000E4E6023A65442FE702396244C9E6A8F1FC
:10C650000208654470E702386244CBE7023865445B
:10C660007EE702396544D9E73146D9E6704700BF15
:10C67000022808B515D00638012820D81049114BDA
:10C680001148C91AC908890141F003010DF0E6FA01
:10C69000002001F0D5FC0028FAD1BDE8084001F0E7
:10C6A000B3BA084B06490948C91AC908890141F0BB
:10C6B00003010DF0D3FABDE8084006F0F1B908BD5A
:10C6C000B0CC010028CC0100C2D30100CFD30100BF
:10C6D000012010B506F00AFA014648B10D4A0E4B8A
:10C6E0000E48D21AD208920142F002020DF0C3FAAB
:10C6F0000B4805F083FD044650B1064A064B01463F
:10C70000D21AD2089201074842F002020DF0B3FAA1
:10C71000204610BDB0CC010028CC0100F1D30100AF
:10C7200071C600000AD4010038B51D4B1D4C1E49CE
:10C73000E41AE408A4011D4A1D4844F003030DF067
:10C74000AEFA05F0FFF8014620B11A4844F00102A4
:10C750000DF091FA184800F0EBF848B100210F20D5
:10C760000EF05CFC00214FF400400BF03FFFF9E7B6
:10C77000FFF7AEFF054638B1014644F001020F480D
:10C78000BDE838400DF077BA013505F0010148BF2A
:10C790004942002005F04AF900F0F2F8F4E700BF42
:10C7A00028CC0100B0CC010026D401001AD401002D
:10C7B0002FD4010053D40100399601006ED401003A
:10C7C00070B50B780C46052B00F28980DFE803F08A
:10C7D00003882E677A4F474B474D4868ED1AED089E
:10C7E000AD018968061F45F0030244480DF043FA85
:10C7F000304610F09CF80022002341480AF09CFAD1
:10C80000014600286BD03F4BB1F8042118688368BB
:10C8100004315C684FF0FF33A04700285FD03A48EE
:10C8200045F00201BDE870400DF018BA4FF4847075
:10C8300010F084F8D4E901130546E2681944043085
:10C840000DF088FEE36829463048A5F804310FF062
:10C85000BDFF294A274BB5F80411D21AD20892011C
:10C860002B4842F00302BDE870400DF004BA214BA2
:10C87000214C2848E41AE408A40144F003010DF017
:10C88000EDF9204B186883682349DD68FF223223C5
:10C89000A847014618B3214844F00102E3E7194BC9
:10C8A0001F49186809688368FF221B699847014679
:10C8B000A8B1114A0F4B1B48D21AD208920142F07C
:10C8C0000202D0E70B4B0C491748C91AC908890165
:10C8D00041F003010DF0C2F96268114B1A6070BD9E
:10C8E0000549044B1148C91AC908890141F00301DF
:10C8F00098E700BF28CC010010CD01008BD40100C7
:10C9000008040020540900209BD40100F4030020F7
:10C91000ADD40100BCD40100A44C0020CDD4010052
:10C92000C8000020E7D40100FBD4010010D50100AD
:10C9300070B504460D4809F08BFA0D4D286088B19A
:10C94000836800221B680B49984768B90A4B28681E
:10C950001C608368FF22DC680849A446BDE870407B
:10C96000322360476FF0050070BD00BF20D5010085
:10C9700054090020C1C7000050090020A44C002029
:10C9800010B54FF0FF324FF0FF3307480AF0D4F9EB
:10C990000446064BB0F804111B6804309847204643
:10C9A000BDE810400FF0C3BFF40300205009002081
:10C9B000016808B504480CF079FE404080F3118806
:10C9C0004FF0030002DF08BD2FD5010038B5837B8F
:10C9D00004460D465BB10E490E4840F263130E4A01
:10C9E0000CF064FE40F263110B480DF0FCF8E37BA1
:10C9F000DA070AD5204608F0DDFB2860E37B9B07B9
:10CA000044BFC0432860002038BDA089F5E700BFBF
:10CA1000A5D50100C2D501006CD5010008B50448B8
:10CA200008F07AFD002818BF6FF0150008BD00BFA0
:10CA3000B1C9000010B5D2B002A90446FFF7C6FF85
:10CA4000002845D1204608F0B9FC002840D12046F6
:10CA500001A9FFF7BBFF00283AD1204608F0AEFC41
:10CA6000002835D14FF480730193A37B402B0BD06A
:10CA700019491A4840F29D13194A0CF017FE40F26A
:10CA80009D1117480DF0AFF80023204601AA12A906
:10CA900008F07CFCE0B9019BB3F5807F18D82046F4
:10CAA0000FF01CFE019A12A902980CF0C6FD044674
:10CAB00004AB112109A811930FF013FE2246E317CE
:10CAC00009A80FF056FC09A809F082F952B010BD70
:10CAD00020460FF003FEF9E7DFD50100C2D50100C3
:10CAE0006CD5010070B50546461C314606220B4840
:10CAF0000DF030FD0A4C0B4B3146E41AE408A4015A
:10CB000044F003042346062207480DF008F92246A4
:10CB1000297806480DF0AFF8002070BDA34E002024
:10CB2000F0CC010028CC01001CD6010030D6010059
:10CB30000A4608B50649074B5B1ADB089B0101460C
:10CB400043F0030304480DF0EAF8002008BD00BFDD
:10CB500028CC0100F0CC01003DD601000378002074
:10CB60005A1E53425341014A13707047A94E002088
:10CB700038B54468054604F00304032C816002D0F4
:10CB80002CB1002000E0006800236B6038BD452315
:10CB9000044A054905480CF089FD452101480DF07E
:10CBA00022F8EEE75AD6010052F10100C2D5010089
:10CBB0000B6801330B60014B1B681847CC00002049
:10CBC000014B1860704700BFCC00002007B50B4632
:10CBD000002102460191034801A900F053FC03B073
:10CBE0005DF804FBB1CB000030B5002585B0CDE980
:10CBF0000101044601A90548039500F043FCDDE965
:10CC000002309842B8BF255405B030BD8796010068
:10CC10002DE9F74FB0F81C90044619F0080F009268
:10CC200022D001290CBF49F0100949F02009A0F8D1
:10CC30001C901434204609F0B5FC68B9AC239B4A1B
:10CC40009B499C480CF032FD21469B480CF02EFD80
:10CC5000AC2196480CF0C7FF009B83F31188BFF30B
:10CC60006F8F03B0BDE8F08F944FDFF8488209F072
:10CC70000709022906D120460CF032FD0028D8D041
:10CC8000012864D1D4F818B0A38BBBF1000F19DAD6
:10CC90000026256823F00703C4E9006643F001037A
:10CCA000A383A38B03F007024A45019203D0A26835
:10CCB000002A40F0138115B9002E00F059814FF081
:10CCC000000A0DE103F00702511F012920D80021BD
:10CCD00023F00703062A25689BB2C4E900110AD194
:10CCE0003DB12946E28B0968013292B20029FAD19E
:10CCF000E28343F002032046A3830CF0F1FC0646D6
:10CD00000028CED0A38B43F02003A3830026C8E7DE
:10CD1000042A0DD123F007039AB22046A2830CF017
:10CD2000DFFC054688B142F020020025A283EDE732
:10CD300040F21B133A46404661490CF0B7FC40F202
:10CD40001B1138460CF04FFF00252E46A9E703289B
:10CD500034D1B9F1000F0BD040465A494FF4AB73B0
:10CD60003A460CF0A3FC4FF4AB7138460CF03BFF95
:10CD700023685BB94046544940F257133A460CF0D9
:10CD800095FC40F2571138460CF02DFF23691E68C0
:10CD90005EB940464D494FF4AD733A460CF086FCFF
:10CDA0004FF4AD7138460CF01EFFA38B23F0070340
:10CDB00043F006030025A383AB4672E7042831D174
:10CDC000B9F1020F0BD04046414940F25D133A469B
:10CDD0000CF06CFC40F25D1138460CF004FFE38B64
:10CDE0005BB140463B494FF4AF733A460CF05EFCF2
:10CDF0004FF4AF7138460CF0F6FE23695E685EB9F9
:10CE00004046324940F261133A460CF04FFC40F282
:10CE1000611138460CF0E7FEA38B23F0070343F0C3
:10CE20000403C7E7052831D1B9F1010F0BD0404603
:10CE300029494FF4B2733A460CF038FC4FF4B27102
:10CE400038460CF0D0FE23685BB940461E4940F2DC
:10CE500065133A460CF02AFC40F2651138460CF096
:10CE6000C2FE23699E685EB9404618494FF4B47308
:10CE70003A460CF01BFC4FF4B47138460CF0B3FE8C
:10CE8000A38B23F0070343F0050393E7002540F24B
:10CE90006B133A4640460A490CF008FC40F26B110D
:10CEA00038460CF0A0FE2E4686E700BF20D70100D2
:10CEB00046D70100C2D501005DD701007DD6010033
:10CEC00052F101009FD60100ABD60100CED6010081
:10CED000E5D60100FBD601000AD701004FF0010A98
:10CEE00043F0080304F114094846A38309F05AFBF0
:10CEF00068B9AC234046374A37490CF0D7FB49465E
:10CF000036480CF0D3FBAC2132480CF06CFE009B91
:10CF100083F31188BFF36F8FBAF1000F37D1002D63
:10CF200047D116B120462E49B0474FF02003EFF30A
:10CF3000118B83F31188BFF36F8F4846CDF800B093
:10CF400009F022FB68B981234046224A25490CF0AA
:10CF5000ADFB494624480CF0A9FB81211D480CF08B
:10CF600042FE484609F02CFBA38B23F00803A38361
:10CF7000A38BDA0625D5012123F01003A383B4F88F
:10CF80001C9009F0070900297FF473AE51E6A168EF
:10CF90000029C4D0D1F800A04B6820469C46019AD5
:10CFA0005B46E047BAF1000FB9D05146DAF800A06D
:10CFB000F2E729465B462046019A2D680CF0ACFB4F
:10CFC000ADE713F020011EBF23F020030221A3834D
:10CFD000D5E700BF20D7010046D701005DD701008B
:10CFE000EDCF000072D7010087D70100F8B50446E5
:10CFF0000D4600F114064FF02003EFF3118783F381
:10D000001188BFF36F8F304609F0BEFA68B98123EB
:10D010000B4A0C490C480CF049FB31460B480CF00C
:10D0200045FB812106480CF0DEFD304609F0C8FAC8
:10D030003A462046A5610121BDE8F840FFF7E8BD6A
:10D0400020D7010072D70100C2D5010087D70100A7
:10D050002DE9F04704460F460CF074FB051E5EDB1D
:10D0600004F114094FF02003EFF3118A83F31188C0
:10D07000BFF36F8F484609F087FA68B98123384AB1
:10D08000384939480CF012FB494638480CF00EFB81
:10D09000812133480CF0A7FD484609F091FA4FF67C
:10D0A000FF71E38BA28B8B4202F0070650D0022E59
:10D0B00024D135464FF001080133E383484609F097
:10D0C00071FA68B9AC23264A294927480CF0EEFAD0
:10D0D000494628480CF0EAFAAC2121480CF083FDBF
:10D0E0008AF31188BFF36F8FB8F1000F17D00023B8
:10D0F0003246394620460CF00FFB10E0930701D072
:10D10000062E0FD100233B606368F3B9C4E90077B2
:10D110003546FEB9524602212046FFF779FD2846E2
:10D12000BDE8F087052E18D0012E0BD012490E480D
:10D1300040F2C913114A0CF0B9FA40F2C9110F4874
:10D140000CF051FD6FF0040504E01F606760DFE73D
:10D150006FF00A054FF00008B0E76FF08505F9E7BA
:10D1600020D7010072D70100C2D5010087D7010086
:10D1700046D701005DD701000AD701007DD6010026
:10D18000F8B50E46002943D005680122AB68284651
:10D19000B3F5004F2CBF082404240C1B641BE408C7
:10D1A00021460CF0FBFAC3070DD49A23194A1A49F9
:10D1B0001A480CF07BFA314619480CF077FA9A219C
:10D1C00014480CF010FD214628460CF0FDFA2718F3
:10D1D0003946002228460CF0E1FA3F1ABC420DD035
:10D1E000A2230C4A0F490D480CF060FA31460E4854
:10D1F0000CF05CFAA22107480CF0F5FC2146284609
:10D2000000220CF0E7FA2146BDE8F8400CF01BBC08
:10D21000F8BD00BF9FD70100C0D70100C2D50100F3
:10D22000D1D7010009D801002FD801002DE9F0471E
:10D2300006681446B3684A42B3F5004F2CBF082570
:10D24000042502EA010731EA02021ED0BD4228BFCE
:10D250003D46B946CF1B07F1FF3A1AEA070F0ED039
:10D26000354940F20D13354A35480CF01FFA354860
:10D270000CF01CFA40F20D1130480CF0B4FC74B9FB
:10D280004FF000094846BDE8F087A94204D821467E
:10D29000BDE8F0470CF019BC4FF00009DBE7B068BF
:10D2A000B0EBD40FECD93919491B0CF0AFFA014699
:10D2B00030460CF006FB80460028E1D0B36809EB4D
:10D2C000C005B3F5004F2CBF082304231D4435448B
:10D2D00055447F422F40A7EB09094C44A9EB0303B7
:10D2E00007349B1B24F00704A41BB0EBD30F4FEAB9
:10D2F000D3074FEAE40408D201463A4630460CF020
:10D300001AFB414630460CF05BFB394630460CF0C8
:10D310005BFA3844844208D23946304622460CF043
:10D320000AFB214630460CF04BFB012239463046C1
:10D330000CF050FAA6E700BF6BD801009FD70100A0
:10D34000C2D5010086D80100B2F5802FF8B5074696
:10D350000C46164612D2042A0ED844494FF4C17323
:10D36000434A44480CF0A2F943480CF09FF94FF4AB
:10D37000C1713F480CF037FC042200E00822B61AC5
:10D38000E51D344425F0070524F00704641B172C21
:10D390004FEAD4060ED8394940F28B13344A354847
:10D3A0000CF084F934480CF081F940F28B113048CC
:10D3B0000CF019FC00233D6031463046AE60EB6056
:10D3C0000CF02DFA01218400471C30460CF01EFAA7
:10D3D0001B34E4082044B0420ED329494FF4CB73E8
:10D3E000234A24480CF062F923480CF05FF94FF40B
:10D3F000CB711F480CF0F7FB0023194605F1100212
:10D40000BB422EDB2246284600210CF0FBF900230C
:10D4100028461A4619460CF0CCF9371B19462846FF
:10D4200001220CF0D7F93A4621460CF0EBF92346DD
:10D430000022214628460CF0BCF9314628460CF063
:10D44000E1F93B463146284600220CF0B2F931465C
:10D45000284601220CF0BEF92146BDE8F8400CF048
:10D46000AFBA42F8041B0133CAE700BFA3D80100DA
:10D470009FD70100C2D50100C4D80100DDD801004A
:10D4800006D901002DE9F04F8B4692461C46002537
:10D4900091B002909AF8000008B928465FE3252869
:10D4A0000AF1010707D05946029B98470028C0F2AD
:10D4B0005683013512E2182200210AA80DF075F8F2
:10D4C0009AF80130252B78D00022104696469446D3
:10D4D0001646394617F8013B2B2B00F09D8000F2D1
:10D4E0009480202B00F09B80232B00F09B802EB19A
:10D4F0009DF8306046F004068DF83060BCF1000FF6
:10D5000005D09DF8306046F008068DF83060BEF119
:10D51000000F05D09DF8306046F010068DF83060A1
:10D5200028B19DF8300040F020008DF830002AB17D
:10D530009DF8302042F040028DF830209DF83020D8
:10D5400002F04400442803D16FF386128DF8302096
:10D550009DF830202A2B42F080028DF830207BD1BC
:10D560009DF831204B1C42F001028DF831201A78D1
:10D570002E2A0CBF012100219DF8312061F34102C8
:10D580008DF8312074D15A782A2A6AD000210A26CF
:10D590000133184610F8012BA2F13007092F40F291
:10D5A0008E809DF830200E91C2F3400040EAD17188
:10D5B00061F341028DF830205AE00AF102078DF83C
:10D5C00033309DF83130D90740F1498154F8049B3C
:10D5D000B9F1000F07DA9DF83020C9F1000942F0D7
:10D5E00004028DF830205A0740F1428154F8048B30
:10D5F000B8F1000F80F241819DF831306FF34103A3
:10D600008DF831304FF0FF3837E12D2B0CD0302B17
:10D610007FF46DAF01225CE74FF0010C59E74FF04A
:10D62000010E56E7012054E7012652E733460CFB72
:10D630000202303A1E4616F8010BA0F13007092FFE
:10D64000F4D9994293D09DF830100D92D20F62F325
:10D6500041018DF830108AE70B4600224FF00A0C8A
:10D66000E8E79DF83120023342F004028DF83120C2
:10D670001F4617F8012B6C2A41D025D8682A2BD0D9
:10D680006A2A46D04C2A4CD01F4617F8012B9DF829
:10D690003130782A8DF8332000F2D980572A4DD8BE
:10D6A000412A03D0453A022A00F2D18004229DF893
:10D6B000323062F302038DF8323001239EE006FB24
:10D6C00001210346303964E7742A26D07A2ADBD157
:10D6D00006229DF831300DE05A78682A9DF83120F5
:10D6E00006D1012161F3C6028DF831209F1CCCE7E1
:10D6F0001346022262F3C6038DF83130C5E75A782B
:10D700006C2A9DF8312001D10421EBE71346032256
:10D71000F0E705229DF83130ECE707229DF8313023
:10D72000E8E7BDF8303023F4F04323F0020343F47C
:10D73000804343F00203ADF83030A6E7A2F1580170
:10D74000202900F2848001A050F821F011D80000B7
:10D750004FD800004FD800004FD800004FD800002D
:10D760004FD800004FD800004FD800004FD800001D
:10D77000ADD600004FD8000011D80000D1D700006E
:10D78000ADD60000ADD60000ADD600004FD80000E9
:10D79000D1D700004FD800004FD800004FD800006C
:10D7A0004FD8000019D8000011D8000035D800006B
:10D7B0004FD800004FD8000035D800004FD80000E7
:10D7C00011D800004FD800004FD8000011D8000039
:10D7D00001209DF8321003F0780360F30201402B22
:10D7E0008DF8321002BF9DF8301041F001018DF824
:10D7F0003010632A31D1003B18BF01239DF830203F
:10D80000C2F340010B4363F341028DF83020D8E6A8
:10D8100002209DF83210DEE703219DF8322003F04C
:10D820007803A3F1400061F3020243428DF83220F5
:10D830004341E3E703219DF8322013F0780F61F3B1
:10D84000020214BF012300238DF83220D6E79DF891
:10D85000303043F001038DF830300023CEE79DF9DE
:10D860003020002AACBF4FF0FF39DDF83490BAE623
:10D870009B077FF5C7AEDDF838800023CDE90D3377
:10D880009DF832309DF8311003F00703012BC1F3EE
:10D89000C30138D1CB1E042B22D8DFE803F00309E3
:10D8A0000921210054F8043BDA17CDE90A3206E0D9
:10D8B000073424F00704F4E80223CDE90A239DF895
:10D8C000303013F0030656D03B4652465946029874
:10D8D0000CF073F90028C0F242810544BA46D9E53C
:10D8E00054F8043B01294FEAE372CDE90A3205D12D
:10D8F0009DF828300A9300230B93E0E70229DED13C
:10D90000BDF92830D0E7022B23D1CB1E042B13D82E
:10D91000DFE803F0030A0A12120000232268201D28
:10D920000A920B930446CAE7E01D20F00700F0E8D6
:10D930000223CDE90A23F5E754F8043B01290A93B1
:10D940004FF000030B93D3D00229B8D1BDF8283093
:10D95000D0E7042B09D1E31D23F0070303F10804EA
:10D96000D3E90023CDE90A23A9E7032B04BF54F828
:10D97000043B0A93A3E79DF833007828AED86228C9
:10D9800022D825283FF48FAD5828A7D1DDE90A0118
:10D990000DF1260300930CAA04AB0CF0C8F88246E4
:10D9A000B8F1000F0DF126000CDB9DF83020A0EB44
:10D9B0000A036FF3861298458DF8302002D9A8EB40
:10D9C00003030D9380463DE06338152886D801A2F5
:10D9D00052F820F055DA0000B9DA0000DDD8000076
:10D9E000DDD80000DDD80000DDD80000B9DA000085
:10D9F000DDD80000DDD80000DDD80000DDD8000053
:10DA000013DB0000E1DA0000E5DA0000DDD80000F9
:10DA1000DDD800002DDA0000DDD80000E1DA0000DA
:10DA2000DDD80000DDD80000E1DA0000B8F1000F19
:10DA3000DDF828A00ADB414650460CF03CFD0026EC
:10DA40000AEB0008BAF1000F0CD147E750460CF082
:10DA50002BFDF4E700260A9B0DF1100A8DF810301B
:10DA60000DF11108A8EB0A0306B101339DF832202D
:10DA7000D00668D5023352060D9948BF0E9A0B4462
:10DA800048BF9B18B9F1000F76DD9DF83020A9EB57
:10DA90000309C2F38003039353076DD4500661D585
:10DAA00046B159463046029B9847002857DB039BF6
:10DAB00001351E46302356E01E070FD413F0100622
:10DAC00018BF2026DDE90A23002BBFF65FAF5242C4
:10DAD00063EB43032D26CDE90A2357E72B26F1E715
:10DAE000002653E70A9840B30DF126030093002166
:10DAF00004AB0CAA0CF01BF8BDF83230824603F0E0
:10DB0000EF0343F4F04343F010030026ADF8323046
:10DB100046E70A9B07293FF6E1AEDFE801F00C0477
:10DB2000060C08080C0C1D70D8E61D80D6E6EA1716
:10DB3000C3E90052D2E61D60D0E6DFF8C8A0064671
:10DB40000AF105088EE7110748BF013393E718462D
:10DB500003935946029B98470028039B04DA11B0AF
:10DB6000BDE8F08F20234D444A46002AA5EB090169
:10DB700009F1FF39EBDC0D4636B159463046029BC0
:10DB800098470028EBDB01359DF83230D90601D4E7
:10DB90001A0706D559463020029B98470028DEDB3D
:10DBA00001359DF83230DB0607D559469DF8330024
:10DBB000029B98470028D2DB01350D9E2E44731B33
:10DBC000002B16DC43465246594602980BF0F5FFEF
:10DBD0000028C4DB0544A944A9EB0503002B7FF70B
:10DBE0007DAE59462020029B98470028B7DB0135BF
:10DBF000F2E759463020029B98470028AFDB0135F9
:10DC0000DDE700BF30D90100044608B54FF020021F
:10DC1000EFF3118382F31188BFF36F8F0CF0EFFBEA
:10DC2000204602F09BF803480BF040FD01F074FD24
:10DC3000FCE700BF36D901004FF0FF33C340DB07DC
:10DC400010B504460BD40C490C484FF405730C4A2C
:10DC50000BF02CFD4FF4057109480BF0C4FF094887
:10DC600000EB8400D0F8003223F0E04343F040534F
:10DC7000C0F8003210BD00BF92D90100C2D501002A
:10DC80005FD901000025845070B54FF02003EFF3F9
:10DC9000118683F31188BFF36F8F01240C4B0D4D58
:10DCA000C3F8004502230020C5F8D036FFF7C4FFB3
:10DCB0002046FFF7C1FFC5F80447C5F80449C5F879
:10DCC000004B86F31188BFF36F8F002070BD00BF3B
:10DCD000001000500040005048B1054B1A68054B39
:10DCE000B2FBF3F2044B504343F001031847704773
:10DCF000A001002040420F0080CD010084B004ABA1
:10DD000003E907009DF80430062B07D10122044BDC
:10DD1000C3F80025BFF34F8F20BFFDE704B0704765
:10DD20000040005030B5002289B00F490F480EF076
:10DD3000D5FD002200230024CDE906230E230C4D3F
:10DD4000CDE903344FF440722846CDE90144094B34
:10DD50000949009408F040FB084928460EF0FDFCF4
:10DD6000204609B030BD00BF81DD00002004002046
:10DD7000580400209DE10000D8520020B9D90100CC
:10DD8000014809F047B800BFD00300202029F8B5AA
:10DD900005460C4609D9144914488023144A0BF04F
:10DDA00085FC802112480BF01EFF0020012703464E
:10DDB000024615F8011B09B1A34200D3F8BD25297D
:10DDC00002D182F00102F4E7002AF2D041F02006ED
:10DDD000613E192EEDD8732904BF07FA03F21043F0
:10DDE00001330022E5E700BFEED90100C2D50100F2
:10DDF000C1D90100002210B50A4B4FF400401A703F
:10DE0000094B0A4A1A6000F09DFD00F09FFA08488D
:10DE10000BF0FEFEBDE81040042328220549064809
:10DE20000EF079BCAB4E0020D0000020559C0100C4
:10DE300064090020188D00206C09002010B54FF0F7
:10DE40002003EFF3118483F31188BFF36F8F04482D
:10DE50000BF0EEFE84F31188BFF36F8F10BD00BF8F
:10DE600064090020044BD3E8EF2F0132C3E8E12F0F
:10DE70000029F8D1704700BF5C090020002002464D
:10DE8000034BD3E8EF0FC3E8E12F0029F9D1704726
:10DE90005C090020F8B5FFF7F1FF002607460A4CA1
:10DEA0000A4D2D1B2D11AE4200DBF8BD20460BF0B4
:10DEB000C5FE28B123681B6913B13946204698472F
:10DEC00001361034EFE700BF20CD010030CD010056
:10DED000044A054B9B1AB1EBD30F34BF52F8310003
:10DEE0000020704728CC010020CD010070B5104CF7
:10DEF0000546041B241101340E46E4B248B90D490D
:10DF00000D48D1230D4A0BF0D1FBD1210B480BF06A
:10DF10006AFE01226B681C71094C1E605A712378DD
:10DF200013B9084808F076FF0123237070BD00BFC5
:10DF300020CD010037DA0100C2D5010006DA010068
:10DF4000AA4E0020D003002070B5174B174CE41ADE
:10DF5000902C0BD91649174840F24D23164A0BF066
:10DF6000A5FB40F24D2114480BF03DFE134BD3E8C6
:10DF7000EF6F721CC3E8E12F0029F8D11EB92511FB
:10DF8000094CAE4200DB70BD237B53B123689B6913
:10DF90000BB1204698476368042220461968FFF7B2
:10DFA000A5FF01361034ECE720CD010030CD010093
:10DFB0004EDA0100C2D50100C1D90100600900207C
:10DFC000144B37B59842044602D3134B98421CD3E6
:10DFD00000220023114801A908F0C2F80546B8B98B
:10DFE0000122019BD3E8EF1FC3E8E02F0028F9D1FD
:10DFF000019821461F2204300CF044FA7E23019C34
:10E0000084F8233084F824500434204603B030BD13
:10E01000034CFAE760C90100280E02006C090020D9
:10E0200072DA010048B1054B984205D3A0339842FB
:10E030002CBF00200120704700207047188D002061
:10E04000464B2DE9F74F1B78044603B9E0B1FFF7C3
:10E05000F5FE054658B1424BD3E8EF2F013AC3E82D
:10E06000E12F0029F8D19CB128460BF0E4FE2CB931
:10E070003C4B1B68002B01DDFFF70CFF3A480BF00F
:10E08000D5FD041E18BF0124204603B0BDE8F08F63
:10E09000364B1B78BBB92B7ADB0714D40BF0DAFEB6
:10E0A000814628460BF0A5FE01464846FFF76EFE66
:10E0B0000746DFF8BCA02F4BDFF8BCB0A3EB0A0388
:10E0C000DB08019337B92D4E2D4F4FF00008BF1BD1
:10E0D0003F1140E0B7FA87F8C8F11F0841462846CB
:10E0E0000BF08AFE274B0246984202D3264B9842F9
:10E0F0001FD31046FFF796FF0646D0B9234B9A422E
:10E1000017D06B89019AC3F38913934238BF5AF829
:10E1100033605A46D0231E491E480BF0C7FA4146C9
:10E120001D484B4632460BF0C1FAD02158460BF041
:10E130005AFD012303FA08F827EA0807C2E7304628
:10E140000BF07CFD20B13368294630465B68984768
:10E1500008F101081036B845F1DB85E7AA4E00202A
:10E16000580900205C09002064090020AB4E002003
:10E1700028CC010020CD0100C1D9010020CD010033
:10E1800030CD010060C90100280E020072DA0100E2
:10E1900052F10100C2D501008CDA0100164B174A7A
:10E1A00010B59B1A002B0BDC1549164840F26D5335
:10E1B000154A0BF07BFA40F26D5113480BF013FD3A
:10E1C000FFF7C2FE0AF04AFA104B186030B1104B4C
:10E1D0001B68092B02DD0F4808F01CFE0D4C0020C7
:10E1E000FFF72EFF0028FAD14FF0FF324FF0FF3338
:10E1F000204608F04DFEF2E730CD010020CD0100B1
:10E20000CDDA0100C2D50100C1D901008C0900207E
:10E2100058090020D0030020274B37B51B684181E7
:10E2200004469847E0604FF02003EFF3118583F335
:10E230001188BFF36F8F214821460BF0EDFC85F369
:10E240001188BFF36F8F1E4BD3E8EF2F0132C3E865
:10E25000E12F0029F8D11B4A127882B14FF0200338
:10E26000EFF3118483F31188BFF36F8F0020FFF762
:10E27000E7FE84F31188BFF36F8F03B030BD124AFD
:10E280001B681268002AF8D0012B0AD10022002353
:10E290000E48CDE900234FF4004200230AF05AFE55
:10E2A000EBE70A2BE9D109480EF024FB084803B03C
:10E2B000BDE8304008F0AEBDD00000206409002069
:10E2C00058090020AB4E00208C09002020040020BB
:10E2D000D0030020F8B50F4F3D7875B9FFF734FE35
:10E2E0000D4C0E4E361B3611B54207DB0020FFF7F2
:10E2F000A7FE0028FAD101233B70F8BD20460BF0A1
:10E300009DFC18B1236820465B699847013510349D
:10E31000EAE700BFAB4E002020CD010030CD010068
:10E3200007B504380190D0E8EF3F5A1EC0E8E12F4E
:10E330000029F8D1012B03D1034801A907F07CFF84
:10E3400003B05DF804FB00BF6C09002020230249E4
:10E350001A4602480EF0DFB9B88D0020900900205F
:10E36000002337B5094D01930120FFF769FE0446EC
:10E37000FFF778FD00220023284601A907F0F0FEF0
:10E3800008B1002CF0D1019803B030BD90090020F5
:10E39000002307B5002201930648002301A907F0D6
:10E3A000DFFE10B1FFF7DCFF0190019803B05DF8CC
:10E3B00004FB00BF90090020F0B5037A85B0DC07AC
:10E3C00001901ED4457A2D091BD0002426463146E3
:10E3D00001980BF011FD0746FFF724FE70B134B928
:10E3E000019B29461869FFF7D1FC044648B124FA7D
:10E3F00006F3D90702D53846FFF792FF0136AE4241
:10E40000E5D3019B1A7A920704D55B69084C039304
:10E41000039B2BB9064801A907F00EFF05B0F0BD1C
:10E420001D68204603A907F007FF0395F0E700BF2A
:10E43000900900200E2A2DE9F84F80460F46154618
:10E440000BD93149314840F23713314A0BF02EF9DC
:10E4500040F237112E480BF0C6FBFFF799FF044638
:10E4600058B301234FF0000A032D4360A0F808A021
:10E470000CD9037AA5F1020943F00203037200F1FB
:10E48000140BC0F814A0B9F1000F0EDC637A032D51
:10E4900065F30713C4F81080637219D83946AA00CF
:10E4A00004F114000CF056F807E0FFF771FF064680
:10E4B00030B92046FFF780FF34462046BDE8F88F8C
:10E4C000CBF80000A9F107098346C0F800A0DAE7FD
:10E4D0003946082204F11800D4F814800CF03AF8F8
:10E4E000023D0837072D2E4628BF07264FEA86092A
:10E4F000394608F104004A460CF02CF8AD1BD8F858
:10E5000000804F44EED1D8E719DB0100C2D50100ED
:10E51000EDDA01000EB403B503AB53F8042B01464A
:10E5200004480193FEF7AEFF02B05DF804EB03B0C0
:10E53000704700BF75E700002DE9F0471D46089BB6
:10E540001746DA0604460E4605D499064CBF2A49FA
:10E550002A49FFF7DFFF4FF00008DFF8A490A84535
:10E560002ADB0025DFF89C80DFF89C90DFF890A084
:10E57000BD422FD249462046725DFFF7CBFF0135E1
:10E58000102D20D120462149FFF7C4FF0025DFF8D8
:10E590007080DFF87C90AF4228D9725D4946A2F1C5
:10E5A00020035F2B28BF2E222046FFF7B3FF013543
:10E5B000102D14D1BDE8F08749462046FFF7AAFF89
:10E5C00008F10108CBE76A07D2D151462046FFF790
:10E5D000A1FFCDE741462046FFF79CFFCFE76B0741
:10E5E000D9D141462046FFF795FFD4E74146204662
:10E5F000FFF790FFDBE700BF9D09020024DB01006D
:10E60000470102004501020027DB01002DDB01006C
:10E610002FDB01002DE9F04F11F0020687B00592C3
:10E6200007461A469DF84080BDF9489001F0010A5E
:10E6300001F0080506D011F0440F38D13349FFF737
:10E6400069FF0646BAF1000F0AD0314B384653F83D
:10E650002820304B3049002A08BF1A46FFF75AFFDE
:10E660003DB12E4B384653F828202D49FFF752FF75
:10E670000546B9F1000F16DB059B002B43D00123A3
:10E6800003FA08F8274B18F0100F274C18BF1C4648
:10E6900049469DF84400FFF71BFC214602463846D8
:10E6A000FFF738FF0544A81907B0BDE8F08F1F4BEE
:10E6B000196831B31E4B4FF461661B684FF47A7BC7
:10E6C000B2FBF3F3B3FBF1F4B4FBF6F206FB124634
:10E6D00001FB14340BFB04F4B4FBF1FE4FF03C0CD3
:10E6E00001FB1E44B6FBFCF30BFB04F4B4FBF1F19D
:10E6F0000CFB1366CDE901E100960E49FFF70AFF16
:10E700009FE708469DE7084CC2E700BF40DB0100D9
:10E7100094CD010032DB010065DB0100A8CD0100D2
:10E7200068DB01003CDB010037DB0100B0090020A1
:10E73000B409002049DB010038B50C46E107054665
:10E7400003D5084A0849FFF7E5FEE20608D4A30608
:10E750002846BDE838404CBF04490549FFF7DABEFA
:10E7600038BD00BF32DB010065DB01009D090200FE
:10E7700024DB010038B54B6805461A68CB680C46A7
:10E780009A4202D108460BF02CFD6368D3E8EF2FC4
:10E79000511CC3E8E01F0028F8D1A3689D546368AA
:10E7A0001A68E3689A4209D9054906487323064A5C
:10E7B0000AF07CFF732104480BF015FA002038BDE5
:10E7C0009DDB0100C2D501006EDB01002DE9F047A1
:10E7D0008B7A044613F007080E4617468AB022D0FB
:10E7E0000A7A4989D243C1F38911C3F3C203CDE93F
:10E7F00000830291F368394602F00102FFF70AFF35
:10E800008146357AED4315F001050ED0214630469C
:10E810000BF08AFBB8F1000F39D04246394620464A
:10E82000FFF78AFF33E0C146EBE7B8F1000F34D1C0
:10E83000E3685BB92849294840F2CF13284A0AF017
:10E8400035FF40F2CF1126480BF0CDF90027E368E1
:10E8500006AA069330463B46A1680BF051FB069A88
:10E8600063681A603AB1A368134413F8015CA5F118
:10E870000A035D425D4120460BF0B3FC069B1F443A
:10E88000002BE4D11DB120461649FFF743FE204678
:10E890000AB0BDE8F0470BF0A4BC30460BF0DAFA42
:10E8A000114902462046FFF735FE4FF0100A05AA2F
:10E8B0002B46304606A9CDF814A00BF021FB059A93
:10E8C000002AAAD04B462046009706A9FFF734FE3F
:10E8D000059B1D44EBE700BFCDDB0100C2D5010065
:10E8E0006EDB0100DADB010065DB010042F20F7331
:10E8F00073B58B4228BF0B46056804460521684660
:10E900000D4A0AF0E0FE0646636828460B225B6863
:10E910000A490BF0FCFA63683246694628465B6890
:10E920000BF0F5FA63681B2228465B6804490BF07C
:10E93000EEFA02B070BD00BFDEE8010014DC010099
:10E94000F8DB010001230021074A10B5074C1360D2
:10E95000A04204D801B11360054B186010BD01211D
:10E9600040085B00F4E700BFB409002040420F00FC
:10E97000B00900200122014B1A707047BC4E0020E4
:10E980000122024B02481A700BF02BBCBD4E002036
:10E99000D8CD01000148FFF7A9BF00BFD8CD0100C5
:10E9A00010B50C4608460BF01BFA214604480F220E
:10E9B000FFF70CFF2046BDE810400BF03CBA00BF4B
:10E9C000D8CD0100054B1B781BB141F288300DF00A
:10E9D00056BFA420002109F009BE00BFBD4E002093
:10E9E0002DE9F04780460F460424DFF88890DFF8D1
:10E9F00088A099F80050CDB94FF0FF334FF0FF32A7
:10EA0000504607F04BFF3A464146284606F062FA68
:10EA10000646504608F036F8184DFEB101232B701B
:10EA200099F800306BB93846BDE8F0873A46414660
:10EA3000002006F04FFA0646EEE75CB92C704FF066
:10EA4000FF34002006F092FA0028ECD02B78002B3F
:10EA5000F3D1E8E7013CFFF7B5FFF2E72B7813B1FC
:10EA6000013C04D12C702B78002BC2D1DBE7FFF7DF
:10EA7000A9FFF8E7BD4E002098030020BC4E0020FF
:10EA8000084B30B51C68084B01461A6800239C42AD
:10EA900001DC002030BD1046057810328D42F9D0DF
:10EAA0000133F4E7C8CE0100D8000020084B10B5B0
:10EAB0001B680C462BB1FFF7E3FF28B12060002054
:10EAC00010BD6FF00C00FBE76FF00100F8E700BF2E
:10EAD000D8000020F8B505464FF02003EFF311866B
:10EAE00083F31188BFF36F8F1D4807F04DFD68B9A0
:10EAF00081231C4A1C491D480AF0D8FD18491C48AE
:10EB00000AF0D4FD812117480BF06DF8144807F086
:10EB100057FD184B1C685CB1174FD4E90132002D2A
:10EB200008BF13460BB1387898472468002CF4D1FD
:10EB30000B4807F037FD68B9AC230A4A0F490B4868
:10EB40000AF0B4FD06490E480AF0B0FDAC210548B4
:10EB50000BF049F886F31188BFF36F8FF8BD00BF43
:10EB6000CC09002020D7010072D70100C2D50100D6
:10EB700087D70100D0090020D809002046D701001E
:10EB80005DD70100084B10B51C685CB901221A6002
:10EB9000064B93E807000BF030F82046BDE8104024
:10EBA000FFF798BF10BD00BFD4000020D809002097
:10EBB000F0B585B06E46204C0146054630460BF058
:10EBC000AEFB96E8070084E807002078264680B36D
:10EBD00000201A4B18606B1C1DD091420CD21849B2
:10EBE000BD23184A18480AF061FD18480AF05EFD76
:10EBF000BD2114480AF0F7FF4FF4004C0021A7682C
:10EC000013480023E7FB0C01124AFDF7A3FB012187
:10EC1000281A0AF01BF808F03DFD0120FFF75AFF03
:10EC200096E80700FFF76AF8FFF7ACFF08F0C4FFAB
:10EC3000207805B0F0BD00BFD8090020D400002026
:10EC4000BADC010044DC0100C2D50100FADC01009D
:10EC50003F420F0040420F0010B5074807F0F8F898
:10EC6000064C074B1860204601F004FB2046FDF7D8
:10EC7000A7FF002010BD00BF20D5010085EC0000DB
:10EC8000E40900200A2838B50446074D04D1286855
:10EC900083680D21DB69984728688368E1B2DB69E6
:10ECA0009847204638BD00BFE409002037B540230F
:10ECB0000C460A490093411A491105462346084A61
:10ECC00008480BF044FB011E05DA2846234603B032
:10ECD000BDE83040184703B030BD00BFFC0900203C
:10ECE000C1A301003C02002038B5CCB2032C05467C
:10ECF00009D9094909487E23094A0AF0D7FC7E212F
:10ED000007480AF070FF0C23296904FB0314D4F8A8
:10ED1000880000F0070038BD62DD0100C2D50100A7
:10ED200025DD0100F8B5CCB2032C0546174606696F
:10ED30000BD91A491A4840F253131A4A0AF0B6FC82
:10ED400040F2531117480AF04EFF4FF02003EFF343
:10ED5000118183F31188BFF36F8F0C2202FB0463D0
:10ED6000D3F8883013F0C00301D09F4212D10123A1
:10ED7000002002FB0466C6F8883081F31188BFF3D7
:10ED80006F8F30B90C23696803FB041463689847DC
:10ED90000020F8BD4FF0FF30EFE700BF62DD01005B
:10EDA000C2D5010025DD010070B50D4606490446B7
:10EDB000411A491140220548FFF7B4FF2B4601468E
:10EDC0002046BDE870401847FC0900203C020020A6
:10EDD0002DE9F843002201210646052000F034FC0D
:10EDE000052000F0FFFB114804F0F0FB104B9842A7
:10EDF00019D104F00FFC00244FF00C080127DFF8B4
:10EE000034903569494605EB44100AF0AAFC002805
:10EE100007DB08FB04550134042CC5F88870F0D1D9
:10EE20000020BDE8F8836FF00400FAE771EE0000FF
:10EE30000000AD0B2CCE010001460C2300224B43F9
:10EE4000094870B5C4188833D4E920561844C4F86A
:10EE500080200BF069FA2DB132462B46BDE8704098
:10EE60000248184770BD00BFFC0900203C0200208A
:10EE700008B5052822D8DFE800F0031121130F0D93
:10EE8000144BD3F8880010F0070021D1BDE80840EA
:10EE9000FFF7D2BF0220F9E70320F7E70120F5E7EB
:10EEA0000D4940F266230D4A0D480AF0FFFB40F27F
:10EEB0006621BDE8084009480AF095BE064940F2BF
:10EEC0006A23064A06480AF0F1FB40F26A21F0E79D
:10EED00008BD00BFFC09002052F1010025DD010042
:10EEE000C2D5010008B54FF02003EFF3118183F381
:10EEF0001188BFF36F8F124A136843F0020013F0BA
:10EF0000010310600CD04FF05022D2F80C34D2F82C
:10EF10000C2413F0010303D00A480BF005FA012377
:10EF200081F31188BFF36F8F23B1BDE80840002043
:10EF3000FFF782BF0120BDE8084004F091BB00BF8D
:10EF4000AC0A0020840A00201FB500220123CDE96D
:10EF500002236B46084ACDF800D0CDF804D00BF060
:10EF600028FA002805DB4FF480420023684607F0AA
:10EF70008FFF05B05DF804FBF7A30100074BD3E852
:10EF8000EF2F22F00201C3E8E01F0028F7D1D307DA
:10EF900002D4012004F0DCBB704700BFAC0A0020A3
:10EFA0002DE9F041012206464649D1E8EF3FC1E88C
:10EFB000E02F0028F9D1A3B9434944484B60CB6006
:10EFC0008A60FEF745F800280BDA4149414840F2D3
:10EFD0002623414A0AF06AFB40F226213E480AF005
:10EFE00002FE96B3731E012B56D8012E07D14FF0A7
:10EFF0005023D3F81C3403F00303022B25D00DF06B
:10F00000A6FB044618B9354B1B78002B52D14FF0A4
:10F010002003EFF3118783F31188BFF36F8F01246F
:10F020004FF05025DFF8B880D5F81834D5F81824FB
:10F03000D2030CD503F00303022B01D0012E06D11D
:10F0400024B387F31188BFF36F8FBDE8F081C4B19B
:10F05000384600F06FFBD5F81835DBB2012BE3D151
:10F06000D5F80421002ADFD00022C5F80421D5F804
:10F0700004210222C5F818252022C8F88021AB609F
:10F08000D2E70021212009F0B1FAE4E74FF0502344
:10F090000222C3F80423D8E712490E484FF40E7336
:10F0A0000D4A0AF003FBBDE8F0414FF40E710A4827
:10F0B0000AF099BD4FF0502302220746C3F80823F7
:10F0C000AEE700BFB00A0020EC0900201C0A0020B7
:10F0D00086DD0100C2D5010025DD0100D5520020EA
:10F0E00000E100E052F1010010B5064C064922464D
:10F0F000064817230AF0DAFA2046BDE81040172127
:10F100000AF071BDC4DD010052F10100C2D5010059
:10F11000044A1368C81A20F07F400344136009F0C2
:10F12000E5BD00BFC40A00202DE9F0474FF4803749
:10F130004FF00009860000F1500406F15026A400AB
:10F1400006F58036A4B204F15024D6F84035DFF835
:10F150006C8021F07F4504F580348740D8F804A501
:10F16000A3EB0A0323F07F432AF07F42012BC6F86A
:10F17000402502D113200DF082FB0AF10202AB1AE6
:10F1800023F07F43B3F5000F88BF1546C4F8009005
:10F19000236825F07F43C8F84473C6F84035D8F893
:10F1A00004359A4506D0EB1A023B23F07F43B3F5B2
:10F1B000000F01D8BDE8F0872B46CFE70050015083
:10F1C000F8B500252F46104C2668104B05B1F8BD48
:10F1D000D3F80423D203FAD5D3F84021002AF6D07D
:10F1E000C3F84051D3F840214FF48032C3F848238C
:10F1F0000125D3F8401526B1002062682760B0478A
:10F20000E2E72660E3E700BFB80A002000500150A3
:10F2100038B500254FF480334FF400120C4C012117
:10F22000C4F80855C4F804330A4B1520C3F88021EC
:10F230002A4600F009FA152000F0D4F90123064A05
:10F24000A360022023601360FFF7AAFE284638BDA2
:10F250000050015000E100E0C00A0020134AB0F164
:10F26000FF3F14BF03461346013B002B1CDD9342B6
:10F27000A8BF13460E4AD2F804050E4A1168401A78
:10F2800010F4000F18BF002320F07F4201320A481B
:10F2900013440A4A106000205060044A934294BF0D
:10F2A000C9188918FFF740BF0023E3E7FFFF7F007D
:10F2B00000500150C40A002011F10000B80A0020DB
:10F2C000044BD3F80405044B1B68C01A20F07F40A0
:10F2D000704700BF00500150C40A002038B54FF0FD
:10F2E0002003EFF3118583F31188BFF36F8F1B4861
:10F2F00007F04AF968B98123194A1A491A480AF0ED
:10F30000D5F9164919480AF0D1F9812114480AF0B3
:10F310006AFC124807F054F9154B1048D3F804451D
:10F32000144B1B68E41A24F07F441C4407F03AF99C
:10F3300068B9AC230A4A10490B480AF0B7F90749E3
:10F340000E480AF0B3F9AC2105480AF04CFC85F3ED
:10F350001188BFF36F8F204638BD00BFC80A002058
:10F3600020D7010072D70100C2D5010087D7010064
:10F3700000500150C40A002046D701005DD70100AB
:10F3800001480AF059B800BFCCCE010010B50446C0
:10F3900018B90D4B0D485B689847616808290DD076
:10F3A00031F004030AD011F0020108D021460848C8
:10F3B00006F042FF002323600023636010BD142287
:10F3C00020680BF0F2F8F7E7D80100205BDE0100BF
:10F3D000CC0A002008B540B34368042B0BD0082B9F
:10F3E00016D003B300684FF0FF324FF0FF3307F041
:10F3F00055FA58B115E001220368D3E8EF1F002940
:10F4000003D1C3E8E02F0028F7D10AD1002008BDBE
:10F410000368074A1B7803F5807352F82330002BEA
:10F42000F4D00448F3E70448F1E76FF4E040EEE776
:10F4300000000350E98FFFFFEA8FFFFF08B508B314
:10F440004368042B07D0082B13D0F3B1006807F0F2
:10F4500019FB00200CE000220368D3E8EF1F01290C
:10F4600003D1C3E8E02F0028F7D1094808BF1046B0
:10F4700008BD036800201B78064A03F5807342F834
:10F480002300F5E76FF4E040F2E70348F0E700BF40
:10F49000E98FFFFF00000350EA8FFFFF10B504461D
:10F4A00018B9164B16485B6898476368042B23D03D
:10F4B000082B21D0CBB92368BBB94FF0FF324FF0F6
:10F4C000FF3321460F4806F04BFE08B923681BB9ED
:10F4D0000A4B0D485B6898471422002120680BF006
:10F4E00064F8636843F00203636020680DF05BF921
:10F4F000636843F00103636010BD00BFD8010020C2
:10F500005BDE0100CC0A002081DE010008B506495F
:10F510004023142205480DF0FEF8BDE808400449D8
:10F52000044809F0DBBF00BFEC0A0020CC0A002031
:10F53000E4CE0100D4CE0100094A0A499368096863
:10F540009867D96708494B6843F080534B600023A4
:10F5500083F31188BFF36F8F9368D86F704700BF34
:10F56000301C002008D3010000ED00E013498A6838
:10F570004FF030001044EFF3098C80E8F01F20209A
:10F5800080F31188BFF36F8F0D4F4FF000664A6A0A
:10F590008A603E60906F0023936780F3118802F1C8
:10F5A000300090E8F01F8CF3098802F1000004B5E8
:10F5B0000AF02DFFBDE8044070470000301C002019
:10F5C00004ED00E01EF0040F0CBFEFF30880EFF332
:10F5D0000980816911F8021C0229FFD001B50AF0E7
:10F5E0001AFF01BD43B2002B08DB012200F01F000F
:10F5F00002FA00F0024A5B0942F82300704700BF9C
:10F6000000E100E043B2002B0DDB012200F01F00FF
:10F6100002FA00F05B09044A203342F82300BFF3EA
:10F620004F8FBFF36F8F704700E100E0054B420939
:10F6300053F82220012300F01F0003FA00F01040CD
:10F64000704700BF00E100E070B54C1C072C054678
:10F650000E460FD95823104A104911480AF026F8CF
:10F660003146104807232A460AF020F858210A4854
:10F670000AF0B9FA6BB2002BACBF03F160430A4B3E
:10F680004FEA4414E4B2ABBF03F5614305F00F0544
:10F6900083F800435C5570BDAEDE0100E4DE01007E
:10F6A000C2D50100FFDE010014ED00E042F8203C6D
:10F6B000009B0B4942F81C3C019B21F0010142F8E0
:10F6C000183C029B42F8081C42F8143C4FF080732F
:10F6D00042F8043C0023203A02658367704700BF6C
:10F6E00089970100084B9860836E83F30B8810465E
:10F6F00081F30988002163B681F31188BFF36F8F0E
:10F70000002200230AF040F8301C0020014910229A
:10F710000A60704710ED00E072B6404080F3118837
:10F72000BFF36F8FBFF34F8F30BF62B6BFF36F8FE2
:10F73000704700BF72B6494081F3118820BF80F343
:10F74000118862B6704700BF73B506460C4601B318
:10F75000134B144D1448ED1AED08AD0145F00105A9
:10F76000ADF80050D1E9012309680AF0B1FAADF80B
:10F770000050D4E90423E1680C480AF0A9FA2A46AB
:10F78000E1690B480AF077FA2A46A16909480AF0AC
:10F7900072FA2146304602B0BDE8704006F082BBE6
:10F7A00028CC0100D0CC01003FDF01006EDF01005A
:10F7B0009DDF0100ACDF010030BFFFF7FDBF00BFE0
:10F7C0000B4A08B50B4B22F07F029A60BFF34F8FB4
:10F7D000BFF36F8FD3F8882022F47002C3F888201B
:10F7E00006F0D8FB09F06EF800F000FB06F0F6FB1F
:10F7F00000C2000000ED00E001B572B60B4A106ACD
:10F8000000281EBF002111620CF0AEFF62B6EFF3BC
:10F810000580A0F110004FEAC0000549014409C964
:10F820009847BDE80140034908470000301C00200C
:10F8300000CA010041FD0000002080F31488BFF3DE
:10F840006F8F002080F30A8880F30B880AF0D3F9C9
:10F8500000200E490860BFF34F8F0D4880F30888E1
:10F8600000F0A0FA202080F311880A484FF40061CC
:10F87000401880F30988EFF314800221084380F3D5
:10F880001488BFF36F8FFFF79BFF000094ED00E03B
:10F89000D87B0020187D0020EFF30880EFF309816A
:10F8A00001B5724600F05EF901BD00BF70B5284B8E
:10F8B000284C294DE41AE408A40144F0010631461D
:10F8C00026480AF0CBF9AB6A9B0103D531462448A0
:10F8D0000AF0C4F9AB6ADD0104D5224844F0010105
:10F8E0000AF0BCF91C4EB56A15F4801505D01E4807
:10F8F00044F001010AF0B2F90225B36A180304D5F5
:10F900001A4844F001010AF0A9F9134EB36A5903E9
:10F9100004D5174844F001010AF0A0F9B36A9A032C
:10F9200004D5144844F001010AF098F90A4EB36A6C
:10F93000DB0304D5104844F001010AF08FF9B36AE3
:10F9400028466FEA03436FEA1343B36270BD00BFFA
:10F9500028CC0100D0CC010000ED00E0DADF01008E
:10F96000F2DF010005E001001FE0010049E00100B5
:10F9700067E001008CE00100A6E001002DE9F04104
:10F980002A4B2B4C2B4DE41AE408A40144F0010847
:10F9900007460E46284841460AF060F9AB6AD9048A
:10F9A00003D5414625480AF059F9AB6A1A0504D532
:10F9B000234844F001010AF051F91E4DAB6A9B0542
:10F9C00012D544F0010841461E480AF047F9A96BD8
:10F9D000AB6A180408D542461B480AF04CF91FB11F
:10F9E000AB6A23F40043AB62124DAB6A590504D5F0
:10F9F000164844F001010AF031F9AB6ADA050DD579
:10FA0000134844F001010AF029F90020094A936AD9
:10FA100043F47F4393623070BDE8F081AB6A9B048E
:10FA2000F3D50C4844F00101EDE700BF28CC0100FC
:10FA3000D0CC010000ED00E0D1E00100E7E00100E2
:10FA4000F8E001000BE1010024E1010039E10100CF
:10FA500054E101006CE101002DE9F041334B344CDD
:10FA6000344DE41AE408A40144F0010807460E46A8
:10FA7000314841460AF0F2F8AB6AD80603D5414650
:10FA80002E480AF0EBF8AB6A190704D52C4844F06D
:10FA900001010AF0E3F8274DAB6A9A0712D544F04A
:10FAA0000108414627480AF0D9F8696BAB6A1B0682
:10FAB00008D5424624480AF0DEF81FB1AB6A23F0AD
:10FAC0008003AB621B4DAB6ADF0704D51F4844F0CF
:10FAD00001010AF0C3F8AB6A980604D51C4844F04B
:10FAE00001010AF0BBF8134B9A6AD10602D49A6A54
:10FAF000920711D59B6ADB060ED5164940F24F13CB
:10FB0000154A164809F0D2FD154809F0CFFD40F21C
:10FB10004F1111480AF067F80020064A936A43F033
:10FB2000FF0393623070BDE8F08100BF28CC010074
:10FB3000D0CC010000ED00E09BE10100B1E101004B
:10FB4000F8E00100E4E10100FCE1010012E2010043
:10FB50006CE101006BE2010031E20100C2D501005D
:10FB6000B5E201002DE9F043604B0F465D680026C9
:10FB70008BB0C5F3080486F31188BFF36F8F02F0D2
:10FB80007F43B3F17F4F0DD102F00C03082B1AD144
:10FB90005749584B5848C91AC908890141F0010111
:10FBA0000AF05CF840F2E133544A5549554809F0EF
:10FBB0007DFD554809F07AFD40F2E1314F480AF0E9
:10FBC00012F8002705E012075CBF07460126002F48
:10FBD000E8D000238DF80730E31E092B6DD8DFE84D
:10FBE00003F0055B5F3F6C6C6C6C6C634FF000095D
:10FBF000404B3F4DDFF8F480ED1AED08AD0145F0C4
:10FC00000105294641480AF029F8D8F82C408DF81A
:10FC1000079014F0020405D029463D480AF01EF86A
:10FC2000002420E0D8F82C305B001CD52946394848
:10FC30000AF014F898F828302BB101200DF10701D3
:10FC4000FFF70AFF0EE098F829302BB101200DF1E3
:10FC50000701FFF793FE05E0B8F82A309BB213B115
:10FC6000FFF724FE04469DF8073093B92022394659
:10FC700002A80AF06FFC099B9EB3C3F3080222B9E5
:10FC80006FEA53236FEA43230993204602A9FFF743
:10FC90005BFD0BB0BDE8F08300200DF10701CFE75D
:10FCA00000200DF10701D4E71149124B1A48C91A77
:10FCB000C908890141F00101B0E70E4A0C4B174811
:10FCC0009B1ADB0815F4F87F4FEA8313144943F0BD
:10FCD000010318BF0146A4F11002124809F0DFFF2A
:10FCE0009EE723F4FF7323F00103CDE700ED00E06E
:10FCF000D0CC010028CC010019E3010031E2010061
:10FD000044E30100C2D5010057E3010095E301007F
:10FD1000ACE30100CDE30100ECE3010025E40100C8
:10FD200010E401003EE40100044B5A6942F0100265
:10FD30005A615A6942F480625A61704700ED00E0EE
:10FD4000044B9968586A884203D003494FF08052A7
:10FD50000A607047301C002004ED00E0BFF34F8FB5
:10FD60000549064BCA6802F4E0621343CB60BFF357
:10FD70004F8F00BFFDE700BF00ED00E00400FA0573
:10FD8000002318460649D1F89020C2F30722934277
:10FD900000D17047C1F89830C1F8A0000133F6E7F0
:10FDA00000ED00E010B572B6002484F31388FFF76D
:10FDB000E7FF23464FF0FF300B4A03F120010133E8
:10FDC000102B42F82100F8D100234FF0FF3003F14F
:10FDD00060010133102B42F82100F8D162B6BFF365
:10FDE0004F8FBFF36F8F10BD00E100E00023202193
:10FDF0000348C2180133452B82F80013F9D170472C
:10FE000000E100E0064B9B68834207D1EFF30583D6
:10FE100023B1044A536843F08053536008F034BC64
:10FE2000301C002000ED00E01FB5094C094A2346B4
:10FE30000121094800F028F900230393074B012111
:10FE4000E41A01A80193029400F044F904B010BD33
:10FE500000E0072000000020F8CE01002004002070
:10FE600010B50B680C7A23F01F0204F01F031A432D
:10FE7000CB68640923F01F03054943EA440343F0B8
:10FE80000103C1F89800C1F89C20C1F8A03010BD52
:10FE900000ED00E0072810B50DD9084B084A0146CF
:10FEA000D21AD2089201074842F0010209F0E3FE9B
:10FEB0006FF0150010BDFFF7D3FFFBE728CC010062
:10FEC000C0CC010055E401002DE9F04F89461446ED
:10FED00006464FF000085C4D85B0C84533DAD6F8C9
:10FEE00004A0BAF1000F51D0BAF11F0F1ED91AF0B9
:10FEF0001F0F1BD1D6F800B01BF01F0F16D15846AC
:10FF00000AF094FA07460AEB0B0001380AF08EFA61
:10FF100087421CD06FF015074C4A4D4B3946D21A18
:10FF2000D20892014B4842F0010208E04146474A9C
:10FF3000474B4948D21AD208920142F0010209F017
:10FF40009AFE6FF01504204605B0BDE8F08F17F15A
:10FF5000160FE1D0631EBB42DEDBC5F89870D5F802
:10FF60009C10C5F89870D5F8A03021F01F0143F01F
:10FF70001F0BD6E900321A44994202F1FF3A1DD113
:10FF8000D34507D13146F8B20AF059FA08F1010811
:10FF90000C36A2E73146C5F89870D5F89C3022F0AF
:10FFA0001F0203F01F031A43C5F89C20E0B20AF0B9
:10FFB00046FA10F1160FC4D0441CE7E7013BD345C5
:10FFC000E0B223F01F03C5F8987008D1D5F8A0203F
:10FFD000314602F01F021343C5F8A030E7E7D5F819
:10FFE000A01001F01F010B43C5F8A03031460AF004
:10FFF00026FA10F1160FA4D0C5F89870D5F89C20F9
:020000040001F9
:100000009DF808300BF1FF3B62F304038DF80830D4
:10001000D5F8A0309DF808205B0863F347128DF8EF
:100020000820D6E900321344009323F01F035B44F9
:10003000A3EB0A03013023F01F036946C0B2039308
:10004000FFF728FFB5E700BF00ED00E0C0CC0100DE
:1000500028CC01009EE401007BE401000522044B52
:10006000C3F89420BFF34F8FBFF36F8F704700BF6B
:1000700000ED00E0BFF35F8F0022024BC3F8942035
:10008000704700BF00ED00E038B50D4D0C462A78F2
:10009000FFF71AFF2870163011D140F20513094AF4
:1000A00009490A4809F002FB2146094809F0FEFA0D
:1000B000BDE8384040F20511024809F094BD38BD52
:1000C000BE4E0020C1E4010052F10100C2D5010082
:1000D000F8E401002DE9F74F324E894605464FF00E
:1000E0000008B346304FC84502DB03B0BDE8F08FCF
:1000F000D5F804A0BAF1000F4FD029680846019145
:100100000AF094F9019904460AEB010001380AF05B
:100110008DF984424FF01402244B18D06FF0150370
:1001200002FB08F84BF8083040F21513204A214929
:10013000214809F0BBFA4946204809F0B7FA40F2D5
:1001400015111B4803B0BDE8F04F09F04CBD14F188
:10015000160F3460E8D01978A142E5DD02FB08B043
:10016000C7F89840C7F89840D7F89C4000F10801BC
:10017000007B64F304000871D7F8A0000C794008F4
:1001800060F347140C71D7F89C1021F01F017160C7
:10019000D7F8A01021F01F01316108F101081436D1
:1001A0000C35A0E7EC0F002000ED00E0BE4E002073
:1001B000C1E4010052F10100C2D5010024E50100B3
:1001C00038B5224D2C68082C13D94FF49E73204A61
:1001D0002049214809F06AFA082221461F4809F0FF
:1001E00065FA1B484FF49E7109F0FDFC4FF0FF309B
:1001F00038BD0020FFF73EFF194B1A4AC3F8C02054
:1002000084421BD1184B1C70FFF728FF144BD3F806
:100210009030C3F30723082B0ED014494FF4CF734B
:100220000B4A0D4809F042FA114809F03FFA4FF421
:10023000CF71074809F0D7FC0020D9E7696801EBC6
:100240000011FFF70DFE0130DAE700BF04CF010017
:10025000C1E4010052F10100C2D5010053E50100E3
:1002600000ED00E0AAFF4400BE4E002087E501003B
:10027000D7E50100014B1860704700BFFC0000206B
:100280004FF08053094A0020C2F80432C2F800320D
:1002900042F8D43C42F8D83C1022054BC3F8402425
:1002A0004FF05023C3F81406704700BF0028845055
:1002B0000030005070B516460C46056961B92249F8
:1002C0002423224A224809F0F1F9224809F0EEF9E4
:1002D00024211E4809F087FC636863B91E49252361
:1002E0001A4A1B4809F0E2F91C4809F0DFF92521F8
:1002F000164809F078FC6B685BB100229C4212D171
:100300002368A96852B9A1426B6000D1AB60002399
:1003100023606EB9002070BD0B46EFE7A142136069
:1003200008BFAA60F3E719681A460029F4D13EB164
:100330006B68A86823606C600028EBD1AC60EAE7CA
:100340006FF01500E7E700BF4DE6010020E6010071
:10035000C2D5010056E6010065E6010077E601001E
:10036000026810B5530904462BD0012B4FF6FF73DA
:1003700018BF002302F01F02D340DB070BD4134940
:1003800013484FF40573134A09F090F94FF40571BF
:10039000104809F028FC236803F01F025B09226063
:1003A0000DD0012B10D00C49094840F21923094AFD
:1003B00009F07CF940F21921064809F014FC0748BD
:1003C00010BD4FF0FF33D5E70548F9E792D901009A
:1003D000C2D501005FD9010052F10100002584500F
:1003E0000028845008B5094B1A786AB901210D20FC
:1003F00019700521FFF728F90D20FFF7F3F84FF0EA
:100400000042034BC3F80423002008BDBF4E002068
:1004100000D00050B2F5A03F2DE9F74380460E46CC
:1004200017469946046901F01F0540F0AE80436805
:1004300001A81B7A45EA43130193FFF791FF019B43
:10044000803350F82330D80700F1BE800121E368E3
:10045000B1401943E160012100206369B140B7F563
:10046000A03F0CBF0B438B436361A369B9F5C02F59
:100470000CBF0B438B43A3612369B9F5802F0CBFDD
:10048000194323EA0101D8F8043021611B7A504A4C
:1004900045EA4315D2F80433D8F81070DBB200F502
:1004A000A27152F82110C1F305218D4278D123FAAF
:1004B00000F1C90774D5830003F1A04303F550434D
:1004C000D3F8101521F00101C3F810150123834062
:1004D000C2F80833C0B203F06DFA284600210AF0D2
:1004E000BAF8F868F04010F001004BD07869F0409D
:1004F00010F001045CD0BB6901A8F340DB0757BFD3
:100500003969032621FA06F606F001065CBFC6F13A
:100510000206F6B203F06EFA2E4B984245D1002047
:100520009DF804202D02930003F1A04303F55043EE
:10053000D3F8101505F47C5521F44F3121F44071A6
:10054000C3F81015D3F810150D4345EA0646C3F855
:100550001065930003F1A04303F5514318609DF823
:1005600004101B688B0003F1A04303F55043D3F83C
:10057000102542F00102C3F810250123144A8B40D4
:10058000C2F8043303B0BDE8F083B2F5005F7FF436
:100590005DAF012101FA06F3E16821EA030159E7A1
:1005A000013008287FF47BAF97E76FF01200E9E78E
:1005B00039692846F14001F00101C1F10301C9B2D6
:1005C0000AF049F82046DDE76FF08500DAE700BF62
:1005D00000D000500000AD0B314BF7B5314C13404B
:1005E000A34240684AD00ED8062B49D006D8002B2B
:1005F00046D0022B46D06FF015003DE0B3F5801FCA
:10060000F9D1012409E0284CA3423DD0B3F5A00F55
:100610003CD0B3F5800FEED10224D50682F480736E
:100620004CBF0326C2F34016C3F300279305C2F361
:10063000402507D51305D0F804C029D501238B40E8
:10064000CCF80830037A01F01F0141EA431101A8F8
:100650000191FFF785FE019B00EB8300D0F800229B
:1006600045EA470343EA042302F0E04243EA8603F3
:100670001343C0F80032002003B0F0BD0724CCE7DC
:100680001C46CAE70424C8E70524C6E70324C4E7D8
:10069000530542BF01238B40CCF80C30D2E700BF9A
:1006A0000600F00006001000020040002DE9F047AF
:1006B0000F461646044610B30568DFF84880DFF899
:1006C0004890DFF848A0A3681E4214D0636863B95D
:1006D000494645234246504608F0E8FF0C4808F0DA
:1006E000E5FF4521404609F07EFAD4E90132214672
:1006F00038463240984715B12C462D68E3E7BDE8EF
:10070000F08700BF20E601008EE60100C2D501009F
:1007100077E60100F0B5002485B0CDE90044CDE9CD
:100720000244284ED6F87C516DB102A9264809F042
:10073000A5FF03A90090254809F0A0FF0190C6F885
:100740007C41D6F87C3100220126944620491D4C7C
:10075000D4F8043306FA02F0184216D00B68A3B19D
:1007600002F5A27354F8233004AFC3F3403007EB13
:10077000800050F8107CC3F3042306FA03F33B43D4
:10078000C1F800C040F8103C0B680132082A01F1A2
:100790000401DDD1009A22B10E4B0B495868FFF7D6
:1007A00085FF019A22B10C4B08495868FFF77EFF7C
:1007B0002DB1054809F0A4FF044809F0A1FF05B0D8
:1007C000F0BD00BF00D00050B4020020CC020020D9
:1007D00000D100500810002024100020024B1960A6
:1007E0001A64C3F8800070475010002008B506490D
:1007F000064B0748C91AC908890141F0010109F0EF
:100800002DFA6FF0150008BDA0CC010028CC010026
:10081000A8E6010008B50649064B0748C91AC908E9
:10082000890141F0010109F019FA6FF0150008BDC6
:10083000A0CC010028CC0100C4E601000449054B0E
:100840000548C91AC908890141F0020109F006BA30
:10085000A0CC010028CC0100E0E6010038B50B4D2A
:1008600095F8C0407CB90A4A0A49204603F0FAF8D4
:10087000224601212A20FEF7E7FE074803F01AF975
:10088000012385F8C030002038BD00BF5010002083
:10089000481000209D08010068CF01002DE9F843B1
:1008A00005461A4E1A4FDFF86C800DB9BDE8F88383
:1008B00095FAA5F43CB3B4FA84F30F2B1C460DDD76
:1008C000832332463946404608F0F0FE214612485E
:1008D00008F0ECFE8321304609F085F901230F482A
:1008E000A34050F8249025EA0305B9F1000FDCD0AD
:1008F000002304F11001203450F821101A4650F85A
:100900002400C847D1E72024DAE700BF12E701003E
:1009100040E70100C2D501004FE701005010002060
:10092000102A08B51CD84AB10F49104B1048C91AF3
:10093000C908890141F0020109F090F9029B002BDE
:1009400009DD0949094B0B48C91AC908890141F059
:10095000020109F083F901220020074B5A6008BD0B
:100960006FF01500FBE700BFA0CC010028CC010010
:1009700067E701009BE7010000A0025000F174400E
:1009800000F5A6000A289ABF024B33F910006FF059
:100990000F007047ACD301000048704724D001001D
:1009A000024B0B6001231360704700BF14D001009D
:1009B000054B994206D14FF0FF324FF0FF33203004
:1009C00006F066BA704700BF0000AD0B2DE9F04F8E
:1009D00081460E461C46174685B0AAB1002B00F092
:1009E0009A800029426803DB52680B44934210D975
:1009F0004A4A4B4B31469B1ADB089B012246494829
:100A000043F0010309F04BF96FF0150005B0BDE8A4
:100A1000F08F754205F00305006909F0B2FEA542AA
:100A200028BF25467B4203F0030307F0030B58BFA2
:100A3000C3F1000BCBF1000B0BF0030BA34528BF58
:100A4000A346631BA4EB0B0424F0030423F0030868
:100A5000A045C8BFA04603F0030AC8BFA3EB040A21
:100A6000B8F1000F18D007EB0B0372194146184676
:100A700001930AF0A1FF04460146D9F81000FFF7E0
:100A800097FF294A944239D15D4505D0019B4246E2
:100A90001946781909F046FDB5B1321F04212A44E0
:100AA00002A80AF089FF04460146D9F81000FFF7B2
:100AB0007FFF1D4B9C4221D1C5F1040102AB2A46A8
:100AC0003846194409F046FDBAF1000F21D008213B
:100AD000721942440DEB01000AF06EFF0446014614
:100AE000D9F81000FFF764FF0F4B9C4206D108EBCA
:100AF0000500524602A9384409F02CFDD9F810002F
:100B0000103009F036FE204605B0BDE8F04FFFF783
:100B100035BF054CF2E7184678E700BF28CC010046
:100B2000E0CC0100DFE701000000AD0BF7B54D6838
:100B30000646E5B1D5E900538868D0B1D0E9007424
:100B4000CCB1C3B19C420ED15C1C092C097815D9DB
:100B50001B4A1C4B1C489B1ADB089B01224643F096
:100B6000020309F09CF86FF0150003B0F0BD2B46AE
:100B7000E2E70746044601331C44E6E701238DF80B
:100B800002308DF80330002330698DF804308DF881
:100B900000108DF801408DF8052009F0F2FD3A466D
:100BA0002946684603F002FB04463069103009F01C
:100BB000E0FD204603B0BDE8F040FFF7DFBE00BF18
:100BC00028CC0100E0CC010028E801002DE9F74F16
:100BD000B1F1000807461446D0F804A005DB02EB8B
:100BE0000803DAF8042093420DD9454A454B46489C
:100BF0009B1ADB089B01224643F0010309F04FF8E2
:100C00006FF0150533E0002CFAD044EA0805C5F36F
:100C10000B05002DF4D100694FF0FF324FF0FF3388
:100C200006F036F92946384609F0B2FD054638691E
:100C300009F0A7FD334B324ADFF8D0B0A3EB02092D
:100C40004FEAD9094FEA891949F0010905B994B960
:100C50003869103009F08DFD0121384609F098FD02
:100C60000446386909F085FD002D08BF2546284651
:100C700003B0BDE8F08FDAF80430A3420FD10AF0D8
:100C80009EFE23460646314638690193FFF790FEE3
:100C90001F4A964229D1019B9844E41AD6E7B4F53D
:100CA000803F0AD31FFA88F353B94146012003F06D
:100CB000E7FA4FF480330646E5E7B4F5805F09D3E1
:100CC000C8F30B0030B9414603F0DAFA4FF4805311
:100CD0000646D8E74B4622464146584608F0DFFF15
:100CE00000236FF015051E46CDE74B460948224606
:100CF000414608F0D4FF3046FFF740FE0546A5E721
:100D000028CC0100E0CC01004BE8010095E801008F
:100D10000000AD0BB3E801002DE9F0434FF0502384
:100D20000024804622468BB0C3F8B84501212B2011
:100D3000FEF78AFC514D5249524BD8F80490C5E950
:100D400001134FF43063D8F81020EC602B82284652
:100D50004D492C6003F046F9FFF710FE044678B9C0
:100D6000404609F02AFD041E0EDA484A484B214647
:100D7000D21AD2089201474842F0010208F07BFFE4
:100D800020460BB0BDE8F083EB7AE0B2023B012BCA
:100D90001DD9AD7A033D012D8CBF00250125C0F37F
:100DA00080139D4201AE02AF13D1002203249F2382
:100DB000404604A9CDE90342029605928DF8103011
:100DC0000697FFF7B3FEF8B16FF01204D8E70125DC
:100DD000E5E70122002380F040008DF8040004A91B
:100DE0004046CDE90323029606938DF8102005971F
:100DF000FFF79CFE041E2ED1404609F0DEFC041EC7
:100E00002ADBE307F8D4D0E722463146484609F00A
:100E100078FB04460028B3D01D4A1C4B1E489B1A81
:100E20009DF80420DB0804929DF805209B010592A3
:100E30009DF8062043F00103069299F8002004A9CA
:100E4000079299F80120089299F802200992062247
:100E500008F05AFFB8E793DA0D4A0C4B0F489B1A7B
:100E60000F49DB089B01002D08BF014622460D48B3
:100E700043F0010308F013FF82E700BF14110020C4
:100E800011120D0E0F10040377A70100E0CC010032
:100E900028CC0100D1E80100F8E80100E1E80100F8
:100EA00077F40100E7E801002DE9FF4706460F4609
:100EB0001D469146D2B1CBB1042B01D9AB0715D158
:100EC00017F0030412D1002F726803DB52687B19FC
:100ED000934210D93D4A3E4B39469B1ADB089B0191
:100EE0002A463C4843F0010308F0D9FE6FF0150094
:100EF00004B0BDE8F08730694FF0FF324FF0FF33A8
:100F000005F0C6FF2146304609F042FC0446306930
:100F100009F037FC002C40D1032D1CD83A4604219F
:100F200068460AF049FD044601463069FFF740FD76
:100F3000294B9C4231D12A464946684609F00AFBB2
:100F40003A46042168460AF034FD044601463069F9
:100F5000FFF72EFD21E009F06043B3F1005F31D0CF
:100F6000DFF874A0102DA84628BF4FF0100849469E
:100F70004246684609F0EEFA3A46102168460AF001
:100F800018FD044601463069FFF712FD544504D1AF
:100F9000B5EB0805C1444744E4D13069103009F08D
:100FA000E8FB0121304609F0F3FB0546306909F002
:100FB000E0FB002C14BF2046284604B0BDE8F047F3
:100FC000FFF7DCBC3A4629464846BCE728CC01007E
:100FD000E0CC01002AE901000000AD0B024B0B60E0
:100FE00001231360704700BF301100200048704794
:100FF0005CD0010070B50D461946284616461C46C1
:1010000009F0F6FB70B90C4A0C4B0D489B1ADB0833
:101010009B012246294643F0010308F040FE6FF091
:10102000150070BD34B122462946304609F092FAC7
:101030000020F6E72046F4E728CC010090CC010020
:101040007DE9010010B50122064811460BF0C9FBED
:101050000AF0ACFC044C20600AF0A5FC60600020A3
:1010600010BD00BF3811002030110020F8B50D462A
:1010700014460AF098FC21460646284609F0B8FBBB
:101080002F4678B3B5FBF6F306FB135323B9B4FB35
:10109000F6F006FB104070B1184A194B29469B1A0E
:1010A0002246DB089B01174843F0010308F0F7FDD7
:1010B0006FF0150015E0B44213D34FF0FF324FF03C
:1010C000FF33114805F0E4FE0AF06DFC0546384692
:1010D00002F0C8FD641B2F44F9D10B4805F09AFEBD
:1010E0002046F8BD054A064B29469B1ADB089B01A2
:1010F0002246064843F00103D8E700BF28CC010090
:1011000090CC01009AE90100381100207DE901002E
:10111000F8B50E461946304617461C4609F068FBDE
:1011200070B91F4A1F4B31469B1A2246DB089B01B0
:101130001D4843F0010308F0B2FD6FF01500F8BD43
:1011400046EA040515F003050AD0154A154B314649
:101150009B1ADB089B012246144843F00103EAE78F
:10116000DCB14FF0FF324FF0FF33114805F090FE35
:101170002B19032BA6EB050009D80E4AD2F8003430
:10118000DB07FBD50A4805F045FE0020D7E77B1BAF
:10119000196802F09BFD043DEAE72046CFE700BF57
:1011A00028CC010090CC01007DE90100B9E90100E3
:1011B00038110020009003502DE9F0471446426892
:1011C0008946D2F800800546D8F81415D0F810A04A
:1011D000013112D140F223333A4A3B493B4808F0EF
:1011E00065FA3B4808F062FA364840F2233108F0CD
:1011F000FAFC6FF08500BDE8F087092BC8BF052118
:10120000DAF80C70FB66CCBF93FBF1F301233B676C
:101210000023C7E916333B665368C7E91494DA061E
:1012200025D597F8C16016B3A64228BF2646484682
:10123000324607F1BC0109F08DF9A41BB14416D167
:10124000DAF80C20314692F8C13028469B1B82F810
:10125000C13009F0F7FADAF80C10284601225031B3
:1012600009F009FB284609F020FB0020C3E7002312
:10127000C8F83495C8F83845C8F81031D8F81021A6
:101280000122C8F84C31D8F84C31DAF80C3083F828
:10129000C2206B685B68DB060FD54FF02003EFF3CD
:1012A000118483F31188BFF36F8F0221284609F060
:1012B00057FB84F31188BFF36F8F0123C8F8003008
:1012C000D3E700BFE1E9010052F10100C2D50100FE
:1012D00015EA0100026810B5530904462BD0012B12
:1012E0004FF6FF7318BF002302F01F02D340DB0745
:1012F0000BD4134913484FF40573134A08F0D6F979
:101300004FF40571104808F06EFC236803F01F02CB
:101310005B0922600DD0012B10D00C49094840F226
:101320001923094A08F0C2F940F21921064808F0C9
:101330005AFC074810BD4FF0FF33D5E70548F9E7E1
:1013400092D90100C2D501005FD9010052F101001C
:101350000025845000288450F0B54B79012B2CD007
:10136000032B27D110278B79032B23D1CD792DB1D6
:10137000012D1FD143685B689B071BD00A79012AA6
:101380001DD0022A1FD0AAB914460B684668B3F5CF
:10139000164F36686ED033D8B3F5165F6DD01CD8B3
:1013A000B3F5966F6BD010D8B3F5967F6AD0B3F5CE
:1013B000167F6AD06FF085005BE00027D3E74FF41B
:1013C00080740E22E1E70024FBE7B3F5166F5FD0CF
:1013D000B3F5965FEED1394B3EE0B3F5E14F5AD00D
:1013E00007D8B3F5615F58D0B3F5964FE2D1344BCF
:1013F00032E047F6122C6345DCD14FF400032BE0BA
:10140000B3F5613F4BD013D8B3F5963F4AD009D816
:101410004DF6C02C634547D0B3F5614FCAD14FF4A8
:101420006B0319E0B3F5E13FC4D14FF0EB7313E068
:10143000B3F5612F3BD009D8DFF888C0634539D0B8
:10144000B3F5E12FB6D14FF0E86305E0DFF878C0DF
:101450006345AFD14FF08053C6F8243503692C4360
:101460003A432243043303C9C6F86C2583E80300DA
:101470000020F0BD4FF41D03EEE7144BECE74FF4F2
:101480009E23E9E74FF4A033E6E74FF41C33E3E78C
:101490004FF41D23E0E70E4BDEE70E4BDCE74FF089
:1014A0006C73D9E70C4BD7E74FF46503D4E74FF0E3
:1014B0007063D1E74FF08063CEE700BF00B0130048
:1014C00000A04E0090D0030040420F0000502700C3
:1014D00000C0750000F03A0000903A01F8B50446EB
:1014E0000F4606690BF033F910B9284B1B785BBB2C
:1014F0004FF02003EFF3118183F31188BFF36F8F57
:1015000060680D4609F00BFBC8B1F3685BB1DA689F
:101510004AB1D3F8B420002A05DA62681268D2F81A
:101520004C25C3F8B42031460122204601F8147F2F
:1015300009F03BFA85F31188BFF36F8FF8BD81F393
:101540001188BFF36F8FD3E76425606809F0E7FA6D
:1015500048B901200AF022FA013DF6D100212120EC
:1015600007F044F8F0E74FF02003EFF3118583F321
:101570001188BFF36F8F606809F0D1FA0028D2D1CB
:1015800085F31188BFF36F8FE8E700BFD5520020C5
:101590002DE9F74F0646002201210820FEF754F8F6
:1015A0000820FEF71FF8736814271C680023D6F87C
:1015B00010800125C4F800356846C8F8006000971F
:1015C000FFF788FE009B05FA03F38360384609F0B5
:1015D00015FB162009F027FA1623C4F80C751327FB
:1015E000C4F81435152009F01EFA68460097FFF775
:1015F00071FE009B9D408560384609F0FFFA152377
:101600003169C4F808753046C4F810350431FFF765
:10161000A3FE8146002840F0F28073685B681807DB
:1016200040D508F1160002F085F9844B98420CD0A1
:101630008349844B8448C91AC908890141F00101D2
:1016400008F00CFB6FF00409D9E014F5907798F8D6
:1016500016500BD17D497E484FF4F6737D4A08F051
:1016600025F84FF4F6717B4808F0BDFA45F00045C7
:1016700014F10C0FC7F880500BD1774974484FF420
:10168000F973744A08F012F84FF4F971714808F0D0
:10169000AAFA0123C4F88C5098F8162093406F4A98
:1016A000C2F80435D8F80C30002B00F0B780376949
:1016B000D6F804A0FB68DAF8005093F8C330EBB119
:1016C000002367490AF1080BCDE90013654A694612
:1016D000584602F053FE594A904200F09480594B0C
:1016E00057496148C91AC908890141F0010108F048
:1016F000B5FA4FF00002FB6883F8C320F86890F851
:10170000C330BBB1B03002F015F94C4B984211D048
:101710004C4B4B495548C91AC908890141F0010190
:1017200008F09CFA0022FB680AF1080083F8C32045
:1017300002F002FFFB6893F8C320002A6AD093F8F6
:10174000B020DAF8081042F00042C5F8882193F87A
:10175000B02042F00042C1F8882093F8B00002F0B7
:1017600011F9364B98427FF46DAF0123F868404A77
:10177000C0F8B830C5F804230822C5F80025D5F80C
:101780004C21A2B16B60D5F844311BB9D5F8243196
:10179000002BF8D00023C5F84C31D5F84C21C5F802
:1017A0001031D5F81021C5F84431D5F84431002264
:1017B000304978300BF092F8FB68F868C3F8AC70E9
:1017C00000222D4918300BF089F8FB68DF6473683C
:1017D0005B681A075CBF4FF48072C4F80423DB0611
:1017E00044BF4FF48003C4F8043308F11403C4F871
:1017F00044350023C4F848350123A360E36048461C
:1018000003B0BDE8F08F584602F04CFE584602F097
:10181000B1FE73E70423C5F80433A6E70822C4F831
:101820000025C4F81031D4F8103108F11503C4F8BC
:1018300034350123C4F838352360C8E70000AD0B08
:1018400018CD010028CC01002EEA010085EA010034
:10185000C2D501004DEA010089EA01000070015083
:101860000001030735A801008DEA0100CDEA01005F
:1018700010020A0023AC010015B0010070B501256B
:1018800043688D401B6804461D4216460ED10D4923
:1018900040F275430C4A0D4807F008FF0C4807F06A
:1018A00005FF40F27541084808F09DF936B1A3687C
:1018B000DB6829462046BDE870401847A3681B69CD
:1018C000F7E700BF4CEB010022EB0100C2D501009D
:1018D0008AEB01002DE9F84306460F460024DFF8A5
:1018E0005080DFF8509026FA04F227FA04F31343ED
:1018F000DB0718D5D24308EBC403197959F8240043
:1019000002F00102FFF7BAFF054660B10A490B4B2E
:101910000B48C91AC908890141F0010108F09EF974
:101920002846BDE8F8830134042CDCD10025F7E714
:10193000A0D001004C11002080CC010028CC010077
:101940009CEB01002DE9F74F00272E4DDFF8B88002
:10195000DFF8B890286804F07BFA044648F8040BD6
:1019600078B92B4B2B492C48C91AC908890141F079
:10197000010108F073F96FF01204204603B0BDE8CE
:10198000F08F95F804A00126836806FA0AF6019301
:101990004368D0F810B01B681E420ED11F494FF4A7
:1019A0003C734A461E4807F081FE1E4807F07EFE43
:1019B0004FF43C71484608F016F9DBF80030204639
:1019C00023EA0603CBF80030019B4FF40072514626
:1019D0001B689847044650B10D4B0E491248C91A6E
:1019E000C908890141F0010108F038F9C5E701375C
:1019F000042F05F10805ADD10F2103B0BDE8F04F6C
:101A0000FFF768BFA0D001004C11002022EB0100BD
:101A100028CC010080CC0100B2EB01004CEB0100AE
:101A2000C2D501008AEB0100CAEB0100032810B502
:101A30000DD9144B14491548C91AC908890141F038
:101A4000010108F00BF96FF01504204610BDB1FA42
:101A500081F20F4B520903EBC00319790D4B53F878
:101A60002000FFF70BFF04460028EED0054B064987
:101A70000948C91AC908890141F0010108F0EEF8C6
:101A8000E3E700BF28CC010080CC0100E4EB0100BB
:101A9000A0D001004C1100209CEB010008B5FCF720
:101AA00019FC064B06490748C91AC908890141F0C3
:101AB000010108F0D3F80020FEF750F928CC01000E
:101AC00088CC010013EC010037B5074D074C4FF0EF
