:020000040000FA
:10C000003DB8F3960000000000020000F538010082
:10C010000000000000000000000000000000000020
:10C02000FFFFFFFFFFFFFFFFFFFFFFFFFFFFFFFF20
:10C03000FFFFFFFFFFFFFFFFFFFFFFFFFFFFFFFF10
:10C04000FFFFFFFFFFFFFFFFFFFFFFFFFFFFFFFF00
:10C05000FFFFFFFFFFFFFFFFFFFFFFFFFFFFFFFFF0
:10C06000FFFFFFFFFFFFFFFFFFFFFFFFFFFFFFFFE0
:10C07000FFFFFFFFFFFFFFFFFFFFFFFFFFFFFFFFD0
:10C08000FFFFFFFFFFFFFFFFFFFFFFFFFFFFFFFFC0
:10C09000FFFFFFFFFFFFFFFFFFFFFFFFFFFFFFFFB0
:10C0A000FFFFFFFFFFFFFFFFFFFFFFFFFFFFFFFFA0
:10C0B000FFFFFFFFFFFFFFFFFFFFFFFFFFFFFFFF90
:10C0C000FFFFFFFFFFFFFFFFFFFFFFFFFFFFFFFF80
:10C0D000FFFFFFFFFFFFFFFFFFFFFFFFFFFFFFFF70
:10C0E000FFFFFFFFFFFFFFFFFFFFFFFFFFFFFFFF60
:10C0F000FFFFFFFFFFFFFFFFFFFFFFFFFFFFFFFF50
:10C10000FFFFFFFFFFFFFFFFFFFFFFFFFFFFFFFF3F
:10C11000FFFFFFFFFFFFFFFFFFFFFFFFFFFFFFFF2F
:10C12000FFFFFFFFFFFFFFFFFFFFFFFFFFFFFFFF1F
:10C13000FFFFFFFFFFFFFFFFFFFFFFFFFFFFFFFF0F
:10C14000FFFFFFFFFFFFFFFFFFFFFFFFFFFFFFFFFF
:10C15000FFFFFFFFFFFFFFFFFFFFFFFFFFFFFFFFEF
:10C16000FFFFFFFFFFFFFFFFFFFFFFFFFFFFFFFFDF
:10C17000FFFFFFFFFFFFFFFFFFFFFFFFFFFFFFFFCF
:10C18000FFFFFFFFFFFFFFFFFFFFFFFFFFFFFFFFBF
:10C19000FFFFFFFFFFFFFFFFFFFFFFFFFFFFFFFFAF
:10C1A000FFFFFFFFFFFFFFFFFFFFFFFFFFFFFFFF9F
:10C1B000FFFFFFFFFFFFFFFFFFFFFFFFFFFFFFFF8F
:10C1C000FFFFFFFFFFFFFFFFFFFFFFFFFFFFFFFF7F
:10C1D000FFFFFFFFFFFFFFFFFFFFFFFFFFFFFFFF6F
:10C1E000FFFFFFFFFFFFFFFFFFFFFFFFFFFFFFFF5F
:10C1F000FFFFFFFFFFFFFFFFFFFFFFFFFFFFFFFF4F
:10C20000387B0020B9F800008194010019F9000082
:10C2100019F9000019F9000019F9000019F90000D6
:10C220000000000000000000000000002DF60000EB
:10C2300019F9000000000000D1F50000B9EF00007E
:10C2400079F8000079F8000079F8000079F800002A
:10C2500079F8000079F8000079F8000079F800001A
:10C2600079F8000079F8000079F8000079F800000A
:10C2700079F8000079F8000079F8000079F80000FA
:10C2800079F8000079F8000079F8000079F80000EA
:10C2900079F8000079F8000079F8000079F80000DA
:10C2A00079F8000079F8000079F8000079F80000CA
:10C2B00079F8000079F8000079F8000079F80000BA
:10C2C00079F8000079F8000079F8000079F80000AA
:10C2D00079F8000079F8000079F8000079F800009A
:10C2E00079F8000079F8000079F8000079F800008A
:10C2F00079F8000079F8000079F8000079F800007A
:10C3000079F8000079F8000079F8000079F8000069
:10C3100079F8000079F8000079F8000079F8000059
:10C3200079F8000079F8000079F8000079F8000049
:10C3300079F8000079F8000079F8000079F8000039
:10C3400079F8000079F8000079F8000079F8000029
:10C3500079F8000053B94AB9002908BF00281CBF6A
:10C360004FF0FF314FF0FF3000F080B9ADF1080C15
:10C370006DE904CE00F006F8DDF804E0DDE9022303
:10C3800004B070472DE9F04F099E0D4604460F4654
:10C39000002B47D18A4294465FD9B2FA82F343B167
:10C3A000C3F120019F4002FA03FC9C4020FA01F1F6
:10C3B0000F434FEA1C451FFA8CFE220CB7FBF5F128
:10C3C00005FB117701FB0EF042EA0742904208D9C3
:10C3D0001CEB020201F1FF3702D2904200F23481DD
:10C3E0003946121AA4B2B2FBF5F005FB102200FB8D
:10C3F0000EFE44EA0244A64508D91CEB040400F1F1
:10C40000FF3202D2A64500F21981104640EA0140EF
:10C41000A4EB0E0400211EB1DC400023C6E900435A
:10C42000BDE8F08F8B4208D9002E00F0FB80002180
:10C43000C6E900050846BDE8F08FB3FA83F100298C
:10C440004BD1AB42C0F0F180824240F2EE80084610
:10C45000002EE5D0C6E90047E2E702B9FFDEB2FAF6
:10C4600082F3002B40F09D808D1A4FEA124E97B256
:10C470000121B5FBFEF20EFB1250250C45EA0045EA
:10C4800007FB02F0A8420FD91CEB050502F1FF38AB
:10C490002CBF4FF001094FF00009A84203D9B9F1B0
:10C4A000000F00F0CE8042462D1AA4B2B5FBFEF07C
:10C4B0000EFB105500FB07F744EA0544A74208D9D4
:10C4C0001CEB040400F1FF3502D2A74200F2B38056
:10C4D0002846E41B40EA02409DE7C1F120078B405B
:10C4E00005FA01F422FA07FCFD408A404CEA030CED
:10C4F00020FA07F34FEA1C491C431FFA8CFE00FA8E
:10C5000001F3200CB5FBF9F809FB185540EA054585
:10C5100008FB0EF0A8420FD91CEB050508F1FF3A05
:10C520002CBF4FF0010B4FF0000BA84203D9BBF119
:10C53000000F00F08C80D0462D1AA4B2B5FBF9F0A4
:10C5400009FB105500FB0EFE44EA0545AE4507D930
:10C550001CEB050500F1FF3401D2AE457ED8204624
:10C5600040EA0840A5EB0E05A0FB029845454C4665
:10C57000C64602D306D14B4504D20138B9EB0204BA
:10C5800068EB0C0E002E6FD01A1B65EB0E0522FA1D
:10C5900001F305FA07F7CD4000211F43C6E90075F6
:10C5A0003EE702FA03FCC3F1200001FA03F24FEA6E
:10C5B0001C4EC14024FA00F51FFA8CF79C4015432D
:10C5C000B1FBFEF02A0C0EFB101142EA014200FB07
:10C5D00007F191420ED91CEB020200F1FF382CBF8B
:10C5E0004FF001094FF00009914202D9B9F1000F53
:10C5F00031D04046521AADB2B2FBFEF10EFB112211
:10C6000045EA024501FB07F2AA4207D91CEB0505E2
:10C6100001F1FF3801D2AA4223D84146AD1A41EABE
:10C62000004126E731463046FAE6841A65EB0303FB
:10C6300001201F460CE7644402384AE7644402388C
:10C64000E4E6023A65442FE702396244C9E6A8F1FC
:10C650000208654470E702386244CBE7023865445B
:10C660007EE702396544D9E73146D9E6704700BF15
:10C67000022808B515D00638012820D81049114BDA
:10C680001148C91AC908890141F003010CF022FBC5
:10C69000002001F0E1FC0028FAD1BDE8084002F0DA
:10C6A0002BBA084B06490948C91AC908890141F043
:10C6B00003010CF00FFBBDE8084006F0A3B808BD6D
:10C6C000CCB6010044B6010038BD010045BD0100F3
:10C6D000012010B506F0BCF8014648B10D4A0E4BDA
:10C6E0000E48D21AD208920142F002020CF0FFFA70
:10C6F0000B4805F033FC044650B1064A064B014690
:10C70000D21AD2089201074842F002020CF0EFFA66
:10C71000204610BDCCB6010044B6010067BD010043
:10C7200071C6000080BD010038B51D4B1D4C1E496F
:10C73000E41AE408A4011D4A1D4844F003030CF068
:10C74000EAFA04F0B9FF014620B11A4844F00102A8
:10C750000CF0CDFA184800F0EBF848B100210F209A
:10C760000DF087F900214FF400400AF033FEF9E79D
:10C77000FFF7AEFF054638B1014644F001020F480D
:10C78000BDE838400CF0B3BA013505F0010148BFEF
:10C790004942002005F000F800F0F2F8F4E700BF8D
:10C7A00044B60100CCB601009CBD010090BD010063
:10C7B000A5BD0100C9BD0100B5860100E4BD0100B1
:10C7C00070B50B780C46052B00F28A80DFE803F089
:10C7D00003892E687B50474B474D4868ED1AED089A
:10C7E000AD018968061F45F0030244480CF07FFA4A
:10C7F00030460EF0ACFD00220023414809F070FBEA
:10C80000014600286CD03F4BB1F8042118688368BA
:10C8100004315C684FF0FF33A047002860D03A48ED
:10C8200045F00201BDE870400CF054BA4FF4847139
:10C8300004200BF077FCD4E901130546E2681944A3
:10C8400004300CF0A0FEE36829463048A5F8043116
:10C850000EF0A2FC284A274BB5F80411D21AD208D0
:10C8600092012B4842F00302BDE870400CF03FBA41
:10C87000204B214C2748E41AE408A40144F00301AA
:10C880000CF028FA1F4B186883682349DD68FF22E3
:10C890003223A847014618B3204844F00102E3E7D9
:10C8A000184B1F49186809688368FF221B6998475D
:10C8B0000146A8B1104A0F4B1A48D21AD208920169
:10C8C00042F00202D0E70B4B0B491748C91AC908BE
:10C8D000890141F003010CF0FDF96268104B1A6008
:10C8E00070BD0549034B1148C91AC908890141F0B7
:10C8F000030197E744B6010024B7010001BE01001F
:10C90000880300205409002011BE01007403002098
:10C9100023BE010032BE0100FC4B002043BE0100DB
:10C92000C00000205DBE010071BE010086BE010096
:10C9300070B504460D4808F0B3FC0D4D286088B171
:10C94000836800221B680B49984768B90A4B28681E
:10C950001C608368FF22DC680849A446BDE870407B
:10C96000322360476FF0050070BD00BF96BE010026
:10C9700054090020C1C7000050090020FC4B0020D2
:10C9800010B54FF0FF324FF0FF33074809F0A8FA17
:10C990000446064BB0F804111B6804309847204643
:10C9A000BDE810400EF0D3BC7403002050090020F5
:10C9B000016808B504480BF0B7FE404080F31188C9
:10C9C0004FF0030002DF08BDA5BE010038B5837B30
:10C9D00004460D465BB10E490E4840F263130E4A01
:10C9E0000BF0A2FE40F263110B480CF043F9E37B1D
:10C9F000DA070AD5204608F0EFFA2860E37B9B07A8
:10CA000044BFC0432860002038BDA089F5E700BFBF
:10CA10001BBF010038BF0100E2BE010008B5044899
:10CA200006F06CFC002818BF6FF0150008BD00BFB1
:10CA3000B1C9000010B5D2B002A90446FFF7C6FF85
:10CA4000002845D1204608F0CBFB002840D12046E5
:10CA500001A9FFF7BBFF00283AD1204608F0C0FB30
:10CA6000002835D14FF480730193A37B402B0BD06A
:10CA700019491A4840F29D13194A0BF055FE40F22D
:10CA80009D1117480CF0F6F80023204601AA12A9C0
:10CA900008F08EFBE0B9019BB3F5807F18D82046E3
:10CAA0000DF0E5FC019A12A902980BF004FE044671
:10CAB00004AB112109A811930DF0DCFC2246E31709
:10CAC00009A80EF0A5F909A807F03AF852B010BD70
:10CAD00020460DF0CCFCF9E755BF010038BF01003E
:10CAE000E2BE010070B50546461C314606220B48E1
:10CAF0000CF049FD0A4C0B4B3146E41AE408A40142
:10CB000044F003042346062207480CF044F9224669
:10CB1000297806480CF0EBF8002070BDFB4D002092
:10CB200004B7010044B6010092BF0100A6BF010096
:10CB30000A4608B50649074B5B1ADB089B0101460C
:10CB400043F0030304480CF026F9002008BD00BFA1
:10CB500044B6010004B70100B3BF01000378002010
:10CB60005A1E53425341014A13707047014E002030
:10CB700038B54468054604F00304032C816002D0F4
:10CB80002CB1002000E0006800236B6038BD452315
:10CB9000044A054905480BF0C7FD452101480CF042
:10CBA00069F8EEE7D0BF010061F2010038BF010073
:10CBB0000B6801330B60014B1B681847C400002051
:10CBC000014B1860704700BFC400002007B50B463A
:10CBD000002102460191034801A900F077FC03B04F
:10CBE0005DF804FBB1CB000030B5002585B0CDE980
:10CBF0000101044601A90548039500F067FCDDE941
:10CC000002309842B8BF255405B030BD03870100FB
:10CC10002DE9F74FB0F81C90044619F0080F009268
:10CC200022D001290CBF49F0100949F02009A0F8D1
:10CC30001C90143420460AF05FFE68B9A7239B4A73
:10CC40009B499C480BF070FD21469B480BF06CFD06
:10CC5000A72196480CF00EF8009B83F31188BFF3D0
:10CC60006F8F03B0BDE8F08F944FDFF8488209F072
:10CC70000709022906D120460BF070FD0028D8D004
:10CC8000012864D1D4F818B0A38BBBF1000F19DAD6
:10CC90000026256823F00703C4E9006643F001037A
:10CCA000A383A38B03F007024A45019203D0A26835
:10CCB000002A40F0138115B9002E00F059814FF081
:10CCC000000A0DE103F00702511F012920D80021BD
:10CCD00023F00703062A25689BB2C4E900110AD194
:10CCE0003DB12946E28B0968013292B20029FAD19E
:10CCF000E28343F002032046A3830BF02FFD064698
:10CD00000028CED0A38B43F02003A3830026C8E7DE
:10CD1000042A0DD123F007039AB22046A2830BF018
:10CD20001DFD054688B142F020020025A283EDE7F3
:10CD300040F219133A46404661490BF0F5FC40F2C7
:10CD4000191138460BF096FF00252E46A9E7032857
:10CD500034D1B9F1000F0BD040465A494FF4AA73B1
:10CD60003A460BF0E1FC4FF4AA7138460BF082FF13
:10CD700023685BB94046544940F255133A460BF0DC
:10CD8000D3FC40F2551138460BF074FF23691E683E
:10CD90005EB940464D494FF4AC733A460BF0C4FCC3
:10CDA0004FF4AC7138460BF065FFA38B23F00703FB
:10CDB00043F006030025A383AB4672E7042831D174
:10CDC000B9F1020F0BD04046414940F25B133A469D
:10CDD0000BF0AAFC40F25B1138460BF04BFFE38BE3
:10CDE0005BB140463B494FF4AE733A460BF09CFCB6
:10CDF0004FF4AE7138460BF03DFF23695E685EB9B3
:10CE00004046324940F25F133A460BF08DFC40F247
:10CE10005F1138460BF02EFFA38B23F0070343F07E
:10CE20000403C7E7052831D1B9F1010F0BD0404603
:10CE300029494FF4B1733A460BF076FC4FF4B171C7
:10CE400038460BF017FF23685BB940461E4940F295
:10CE500063133A460BF068FC40F2631138460BF05E
:10CE600009FF23699E685EB9404618494FF4B373C1
:10CE70003A460BF059FC4FF4B37138460BF0FAFE0A
:10CE8000A38B23F0070343F0050393E7002540F24B
:10CE900069133A4640460A490BF046FC40F26911D4
:10CEA00038460BF0E7FE2E4686E700BF96C001002D
:10CEB000BCC0010038BF0100D3C00100F3BF0100B6
:10CEC00061F2010015C0010021C0010044C0010051
:10CED0005BC0010071C0010080C001004FF0010A79
:10CEE00043F0080304F114094846A3830AF004FD43
:10CEF00068B9A7234046374A37490BF015FC494625
:10CF000036480BF011FCA72132480BF0B3FE009B12
:10CF100083F31188BFF36F8FBAF1000F37D1002D63
:10CF200047D116B120462E49B0474FF02003EFF30A
:10CF3000118B83F31188BFF36F8F4846CDF800B093
:10CF40000AF0CCFC68B97C234046224A25490BF004
:10CF5000EBFB494624480BF0E7FB7C211D480BF016
:10CF600089FE48460AF0D6FCA38B23F00803A3836E
:10CF7000A38BDA0625D5012123F01003A383B4F88F
:10CF80001C9009F0070900297FF473AE51E6A168EF
:10CF90000029C4D0D1F800A04B6820469C46019AD5
:10CFA0005B46E047BAF1000FB9D05146DAF800A06D
:10CFB000F2E729465B462046019A2D680BF0EAFB12
:10CFC000ADE713F020011EBF23F020030221A3834D
:10CFD000D5E700BF96C00100BCC00100D3C001006E
:10CFE000EDCF0000E8C00100FDC00100F8B5044627
:10CFF0000D4600F114064FF02003EFF3118783F381
:10D000001188BFF36F8F30460AF068FC68B97C2343
:10D010000B4A0C490C480BF087FB31460B480BF0D0
:10D0200083FB7C2106480BF025FE30460AF072FC9B
:10D030003A462046A5610121BDE8F840FFF7E8BD6A
:10D0400096C00100E8C0010038BF0100FDC001002A
:10D050002DE9F04704460F460BF0B2FB051E5EDBE0
:10D0600004F114094FF02003EFF3118A83F31188C0
:10D07000BFF36F8F48460AF031FC68B97C23384A09
:10D08000384939480BF050FB494638480BF04CFB07
:10D090007C2133480BF0EEFD48460AF03BFC4FF68E
:10D0A000FF71E38BA28B8B4202F0070650D0022E59
:10D0B00024D135464FF001080133E38348460AF096
:10D0C0001BFC68B9A723264A294927480BF02CFBEB
:10D0D000494628480BF028FBA72121480BF0CAFD40
:10D0E0008AF31188BFF36F8FB8F1000F17D00023B8
:10D0F0003246394620460BF04DFB10E0930701D035
:10D10000062E0FD100233B606368F3B9C4E90077B2
:10D110003546FEB9524602212046FFF779FD2846E2
:10D12000BDE8F087052E18D0012E0BD012490E480D
:10D1300040F2C513114A0BF0F7FA40F2C5110F483F
:10D140000BF098FD6FF0040504E01F606760DFE7F7
:10D150006FF00A054FF00008B0E76FF02205F9E71D
:10D1600096C00100E8C0010038BF0100FDC0010009
:10D17000BCC00100D3C0010080C00100F3BF0100AA
:10D180002DE9F8430546174EDFF85C80DFF85C9028
:10D190004FF0FF324FF0FF33284608F0A1FE04465F
:10D1A0000028F5D0476867B941461C2332464846F7
:10D1B0000BF0BAFA0E480BF0B7FA1C2130460BF010
:10D1C00059FD04F10803D3E8EF2F22F00101C3E871
:10D1D000E01F0028F7D1D30701D52046B84709F052
:10D1E000AFFFD5E715C1010038C1010038BF01000C
:10D1F0004FC10100F8B50E46002943D00568012251
:10D20000AB682846B3F5004F2CBF082404240C1B40
:10D21000641BE40821460BF0FFFAC3070DD49A23E0
:10D22000194A1A491A480BF07FFA314619480BF08F
:10D230007BFA9A2114480BF01DFD214628460BF07D
:10D2400001FB27183946002228460BF0E5FA3F1A61
:10D25000BC420DD0A2230C4A0F490D480BF064FAD2
:10D2600031460E480BF060FAA22107480BF002FD90
:10D270002146284600220BF0EBFA2146BDE8F84093
:10D280000BF028BCF8BD00BF6AC101008BC10100D2
:10D2900038BF01009CC10100D4C10100FAC10100E6
:10D2A0002DE9F84301F1FF3919EA010F80460F46D5
:10D2B000144605680CD03349FC23334A33480BF03D
:10D2C00033FA33480BF030FAFC212F480BF0D2FC34
:10D2D000A868B0F5004F2CBF082304239F4205D84F
:10D2E00021464046BDE8F8430BF036BC1CB9002689
:10D2F0003046BDE8F883B0EBD40FF8D93919C91A14
:10D300000BF0C2FA014628460BF019FB80460028B4
:10D31000EDD0AB687F42B3F5004F2CBF0823042348
:10D3200003EBC0062E444E443E403444F31A073407
:10D330005B1B24F00704641BB0EBD30F4FEAD30749
:10D340004FEAE40408D201463A4628460BF03AFB7D
:10D35000414628460BF07BFB394628460BF072FA13
:10D360003844844208D23946284622460BF02AFB2C
:10D37000214628460BF06BFB0122394628460BF06C
:10D3800067FAB5E736C201006AC1010038BF010083
:10D3900051C20100B2F5802FF8B507460C4616467B
:10D3A00012D2042A0ED843494FF4B673424A434876
:10D3B0000BF0BAF942480BF0B7F94FF4B6713E489A
:10D3C0000BF058FC042200E00822B61AE51D344494
:10D3D00025F0070524F00704641B172C4FEAD40638
:10D3E0000ED8384940F27513334A34480BF09CF993
:10D3F00033480BF099F940F275112F480BF03AFCC5
:10D40000002300223D60C5E9002300233146304659
:10D41000AE60EB600BF041FA01218400471C3046FE
:10D420000BF032FA1B34E4082044B0420ED32649F4
:10D4300040F28113204A21480BF076F920480BF086
:10D4400073F940F281111C480BF014FC00231946BB
:10D4500005F11002BB4228DB2246284600210BF0D2
:10D460000FFA371B2846012200210BF0F1F93A464A
:10D4700021460BF005FA23460022214628460BF0F0
:10D48000D6F9314628460BF0FBF93B463146284693
:10D4900000220BF0CCF93146284601220BF0D8F9D6
:10D4A0002146BDE8F8400BF0D2BA42F8041B013324
:10D4B000D0E700BF6EC201006AC1010038BF0100A1
:10D4C0008FC20100A8C20100D0C201002DE9F04FB7
:10D4D0008B4692461C46002591B002909AF80000B7
:10D4E00008B928465FE325280AF1010707D0594605
:10D4F000029B98470028C0F25683013512E2182299
:10D5000000210AA80CF06AF89AF80130252B78D08F
:10D5100000229446964616461046394617F8013BB7
:10D520002B2B00F09D8000F29480202B00F09A803D
:10D53000232B00F09A8028B19DF8300040F00400C1
:10D540008DF830002EB19DF8300040F008008DF8C5
:10D550003000BEF1000F05D09DF8300040F0100003
:10D560008DF83000BCF1000F05D09DF8300040F080
:10D5700020008DF830002AB19DF8302042F04002A2
:10D580008DF830209DF8302002F04400442803D16B
:10D590006FF386128DF830209DF830202A2B42F050
:10D5A00080028DF830207BD19DF831204B1C42F059
:10D5B00001028DF831201A782E2A0CBF012100219A
:10D5C0009DF8312061F341028DF8312074D15A78F1
:10D5D0002A2A6AD000210A260133184610F8012BA6
:10D5E000A2F13007092F40F28E809DF830200E9175
:10D5F000C2F3400040EAD17161F341028DF830205E
:10D600005AE00AF102078DF833309DF83130D9071E
:10D6100040F1498154F8049BB9F1000F07DA9DF8F5
:10D620003020C9F1000942F004028DF830205A0779
:10D6300040F1428154F8048BB8F1000F80F241812F
:10D640009DF831306FF341038DF831304FF0FF38E2
:10D6500037E12D2B0CD0302B7FF46DAF01225CE72E
:10D6600001265AE74FF0010E57E74FF0010C54E73F
:10D67000012052E733460CFB0202303A1E4616F8F0
:10D68000010BA0F13007092FF4D9994293D09DF8EE
:10D6900030100D92D20F62F341018DF830108AE7FD
:10D6A0000B4600224FF00A0CE8E79DF831200233C8
:10D6B00042F004028DF831201F4617F8012B6C2A26
:10D6C00041D025D8682A2BD06A2A46D04C2A4CD083
:10D6D0001F4617F8012B9DF83130782A8DF833203A
:10D6E00000F2D980572A4DD8412A03D0453A022A60
:10D6F00000F2D18004229DF8323062F302038DF8EB
:10D70000323001239EE006FB01210346303964E7F5
:10D71000742A26D07A2ADBD106229DF831300DE01A
:10D720005A78682A9DF8312006D1012161F3C6029A
:10D730008DF831209F1CCCE71346022262F3C6030A
:10D740008DF83130C5E75A786C2A9DF8312001D127
:10D750000421EBE713460322F0E705229DF8313060
:10D76000ECE707229DF83130E8E7BDF8303023F4CC
:10D77000F04323F0020343F4804343F00203ADF887
:10D780003030A6E7A2F15801202900F2848001A0E0
:10D7900050F821F059D8000097D8000097D8000021
:10D7A00097D8000097D8000097D8000097D80000BD
:10D7B00097D8000097D80000F5D6000097D8000051
:10D7C00059D8000019D80000F5D60000F5D60000A1
:10D7D000F5D6000097D8000019D8000097D80000AF
:10D7E00097D8000097D8000097D8000061D80000B3
:10D7F00059D800007DD8000097D8000097D80000C5
:10D800007DD8000097D8000059D8000097D80000B4
:10D8100097D8000059D8000001209DF8321003F07D
:10D82000780360F30201402B8DF8321002BF9DF89F
:10D83000301041F001018DF83010632A31D1003BE6
:10D8400018BF01239DF83020C2F340010B4363F35E
:10D8500041028DF83020D8E602209DF83210DEE734
:10D8600003219DF8322003F07803A3F1400061F317
:10D87000020243428DF832204341E3E703219DF841
:10D88000322013F0780F61F3020214BF012300234A
:10D890008DF83220D6E79DF8303043F001038DF843
:10D8A00030300023CEE79DF93020002AACBF4FF086
:10D8B000FF39DDF83490BAE69B077FF5C7AEDDF897
:10D8C00038800023CDE90D339DF832309DF83110BA
:10D8D00003F00703012BC1F3C30138D1CB1E042B86
:10D8E00022D8DFE803F003090921210054F8043BA2
:10D8F000DA17CDE90A3206E0073424F00704F4E829
:10D900000223CDE90A239DF8303013F0030656D0E8
:10D910003B465246594602980BF096F90028C0F251
:10D9200042810544BA46D9E554F8043B01294FEA3F
:10D93000E372CDE90A3205D19DF828300A9300231D
:10D940000B93E0E70229DED1BDF92830D0E7022BA6
:10D9500023D1CB1E042B13D8DFE803F0030A0A12ED
:10D96000120000232268201D0A920B930446CAE786
:10D97000E01D20F00700F0E80223CDE90A23F5E7D7
:10D9800054F8043B01290A934FF000030B93D3D0C2
:10D990000229B8D1BDF82830D0E7042B09D1E31D06
:10D9A00023F0070303F10804D3E90023CDE90A2398
:10D9B000A9E7032B04BF54F8043B0A93A3E79DF89F
:10D9C00033007828AED8622822D825283FF48FADBE
:10D9D0005828A7D1DDE90A010DF1260300930CAA0E
:10D9E00004AB0BF0EBF88246B8F1000F0DF1260006
:10D9F0000CDB9DF83020A0EB0A036FF386129845EC
:10DA00008DF8302002D9A8EB03030D9380463DE04A
:10DA10006338152886D801A252F820F09DDA00005C
:10DA200001DB000025D9000025D9000025D9000020
:10DA300025D9000001DB000025D9000025D9000010
:10DA400025D9000025D900005BDB000029DB0000A0
:10DA50002DDB000025D9000025D9000075DA000073
:10DA600025D9000029DB000025D9000025D90000B8
:10DA700029DB0000B8F1000FDDF828A00ADB4146E1
:10DA800050460BF049FD00260AEB0008BAF1000FE2
:10DA90000CD147E750460BF038FDF4E700260A9B0F
:10DAA0000DF1100A8DF810300DF11108A8EB0A03E2
:10DAB00006B101339DF83220D00668D502335206F4
:10DAC0000D9948BF0E9A0B4448BF9B18B9F1000F3F
:10DAD00076DD9DF83020A9EB0309C2F380030393A0
:10DAE00053076DD4500661D546B159463046029B66
:10DAF0009847002857DB039B01351E46302356E02C
:10DB00001E070FD413F0100618BF2026DDE90A23E4
:10DB1000002BBFF65FAF524263EB43032D26CDE9E6
:10DB20000A2357E72B26F1E7002653E70A9840B36C
:10DB30000DF126030093002104AB0CAA0BF03EF874
:10DB4000BDF83230824603F0EF0343F4F04343F074
:10DB500010030026ADF8323046E70A9B07293FF64E
:10DB6000E1AEDFE801F00C04060C08080C0C1D7097
:10DB7000D8E61D80D6E6EA17C3E90052D2E61D605A
:10DB8000D0E6DFF8C8A006460AF105088EE71107BF
:10DB900048BF013393E7184603935946029B9847C1
:10DBA0000028039B04DA11B0BDE8F08F20234D4418
:10DBB0004A46002AA5EB090109F1FF39EBDC0D46C5
:10DBC00036B159463046029B98470028EBDB0135B9
:10DBD0009DF83230D90601D41A0706D559463020AF
:10DBE000029B98470028DEDB01359DF83230DB06CA
:10DBF00007D559469DF83300029B98470028D2DB91
:10DC000001350D9E2E44731B002B16DC43465246F5
:10DC1000594602980BF018F80028C4DB0544A944C3
:10DC2000A9EB0503002B7FF77DAE59462020029B10
:10DC300098470028B7DB0135F2E759463020029BB0
:10DC400098470028AFDB0135DDE700BFF9C20100CE
:10DC50004FF47F03D3F8302110B5072A20D1D3F831
:10DC60003431023B032B1BD80E4AD35CC3B10E4B9D
:10DC70000E4C0F48E41AE408A40144F001042146C4
:10DC80000BF028F821460B480BF024F821460A48EF
:10DC90000BF020F8404080F311884FF0040002DFC1
:10DCA000002010BDD2C3010044B601001CB7010022
:10DCB000FFC201002CC3010053C301004FF0FF332A
:10DCC000C340DB0710B504460BD40C490C4840F2A6
:10DCD0001A230C4A0AF028FD40F21A2109480AF0DA
:10DCE000C9FF094800EB8400D0F8003223F0E0437C
:10DCF00043F04053C0F8003210BD00BFABC3010079
:10DD000038BF010078C301000025845070B54FF082
:10DD10002003EFF3118683F31188BFF36F8F012483
:10DD20000B4D0C4B0020C3F80045C5F8D046FFF75B
:10DD3000C5FF2046FFF7C2FFC5F80447C5F80449F0
:10DD4000C5F8004B86F31188BFF36F8F002070BDBC
:10DD5000004000500010005048B1054B1A68054BB8
:10DD6000B2FBF3F2044B504343F0010318477047F2
:10DD70006401002040420F0050B7010030B500227E
:10DD800089B00F490F480DF096FA002200230024B5
:10DD9000CDE906230E230C4DCDE903344FF4407238
:10DDA0002846CDE90144094B0949009409F0BEFC1D
:10DDB000084928460DF04BFA204609B030BD00BF97
:10DDC000D9DD0000A0030020D8030020CDE1000031
:10DDD00038520020D6C30100014809F039BB00BF0A
:10DDE000500300202029F8B505460C4609D91449EE
:10DDF00014485B23144A0AF097FC5B2112480AF08E
:10DE000039FF002001270346024615F8011B09B11E
:10DE1000A34200D3F8BD252902D182F00102F4E724
:10DE2000002AF2D041F02006613E192EEDD8732968
:10DE300004BF07FA03F2104301330022E5E700BFF5
:10DE40000BC4010038BF0100DEC3010008B500F0BB
:10DE500095FA09480AF018FF0423282207490848C0
:10DE60000DF04BF9074B084A4FF400401A60BDE82B
:10DE7000084000F07BBD00BF64090020788C0020C2
:10DE80006C090020C8000020CD8C0100F8B50025E9
:10DE90000D4BD3E8EF7FC3E8E25F002AF9D10B4CCA
:10DEA0000B4E361B3611B54200DBF8BD20460AF09A
:10DEB00001FF28B12368DB6813B139462046984733
:10DEC00001351034EFE700BF5C09002034B70100D2
:10DED00044B70100044BD3E8EF2F0132C3E8E12F30
:10DEE0000029F8D1704700BF5C090020044A054BA7
:10DEF0009B1AB1EBD30F34BF52F8310000207047AA
:10DF000044B6010034B7010070B5104C0546041B3F
:10DF1000241101340E46E4B248B90D490D48C0231E
:10DF20000D4A0AF001FCC0210B480AF0A3FE0122B1
:10DF30006B681C71094C1E605A71237813B908482C
:10DF400009F086FA0123237070BD00BF34B70100C9
:10DF500054C4010038BF010023C40100024E002058
:10DF60005003002070B5164B164CE41A902C0BD9B8
:10DF70001549164840F20E23154A0AF0D5FB40F227
:10DF80000E2113480AF076FE124BD3E8EF5F6A1CAD
:10DF9000C3E8E12F0029F8D11DB9094E2411A5428B
:10DFA00000DB70BD337B43B133685B6903B19847D5
:10DFB000042200213046FFF7A7FF01351036EEE7B7
:10DFC00034B7010044B701006BC4010038BF010041
:10DFD000DEC3010060090020144B37B598420446A7
:10DFE00002D3134B98421CD300220023114801A9ED
:10DFF00007F004FB0546B8B90122019BD3E8EF1FE7
:10E00000C3E8E02F0028F9D1019821461F220430EF
:10E010000BF069FA7E23019C84F8233084F82450A5
:10E020000434204603B030BD034CFAE77CB3010052
:10E03000E4F601006C0900208FC4010048B1054BD3
:10E04000984205D3A03398422CBF0020012070478E
:10E0500000207047788C00204C4B2DE9F74F1B783F
:10E06000044603B940B34FF02003EFF3118683F366
:10E070001188BFF36F8F46480AF016FE054686F3F7
:10E080001188BFF36F8F58B1424BD3E8EF2F013A9D
:10E09000C3E8E12F0029F8D194B128460AF007FF20
:10E0A00024B93D4B1B680BB1FFF7F0FE38480AF06E
:10E0B000F9FD041E18BF0124204603B0BDE8F08F0F
:10E0C000364B1B78BBB92B7ADB0714D40AF0FEFE63
:10E0D000814628460AF0C9FE01464846FFF782FEFF
:10E0E0000746DFF8BCA02F4BDFF8BCB0A3EB0A0358
:10E0F000DB08019337B92D4E2D4F4FF00008BF1BA1
:10E100003F1140E0B7FA87F8C8F11F08414628469A
:10E110000AF0AEFE274B0246984202D3264B9842A5
:10E120001FD31046FFF78AFF0646D0B9234B9A4209
:10E1300017D06B89019AC3F38913934238BF5AF8F9
:10E1400033605A46AE231E491E480AF0EDFA414696
:10E150001D484B4632460AF0E7FAAE2158460AF00F
:10E1600089FD012303FA08F827EA0807C2E73046C9
:10E170000AF0A0FD20B13368294630461B68984755
:10E1800008F101081036B845F1DB86E7024E0020A1
:10E1900064090020580900205C090020034E00207B
:10E1A00044B6010034B70100DEC3010034B70100FA
:10E1B00044B701007CB30100E4F601008FC4010004
:10E1C00061F2010038BF0100A9C40100164B174AD3
:10E1D00010B59B1A002B0BDC1549164840F29C43E6
:10E1E000154A0AF0A1FA40F29C4113480AF042FD98
:10E1F000FFF7B8FE09F026F9104B186030B1104B4C
:10E200001B68092B02DD0F4809F022F90D4C002094
:10E21000FFF722FF0028FAD14FF0FF324FF0FF3313
:10E22000204609F055F9F2E744B7010034B7010080
:10E23000EAC4010038BF0100DEC3010088090020E4
:10E240005809002050030020274B73B51B684181FB
:10E2500004469847254DE060D5E8EF3F0133C5E817
:10E26000E23F002AF8D14FF02003EFF3118683F349
:10E270001188BFF36F8F1E4821460AF009FD86F30F
:10E280001188BFF36F8F1B4B1B7883B14FF02003B6
:10E29000EFF3118483F31188BFF36F8F0020FFF732
:10E2A000DBFE84F31188BFF36F8F02B070BD124A9A
:10E2B0002B681268002AF8D0012B0AD10022002313
:10E2C0000E48CDE900234FF40042002309F0E0FEA0
:10E2D000EBE70A2BE9D109480CF0F9FF084802B036
:10E2E000BDE8704009F0B4B8C8000020580900200B
:10E2F00064090020034E002088090020A0030020AC
:10E3000050030020F8B50F4F3D7875B9FFF72AFE8E
:10E310000D4C0E4E361B3611B54207DB0020FFF7C1
:10E320009BFE0028FAD101233B70F8BD20460AF07D
:10E33000C1FC18B1236820461B6998470135103489
:10E34000EAE700BF034E002034B7010044B70100E4
:10E3500007B504380190D0E8EF3F5A1EC0E8E12F1E
:10E360000029F8D1012B03D1034801A907F0B2F924
:10E3700003B05DF804FB00BF6C09002020230249B4
:10E380001A4602480CF0B9BE188D00208C090020F6
:10E39000002337B5094D01930120FFF75DFE0446C8
:10E3A000FFF798FD00220023284601A907F026F96F
:10E3B00008B1002CF0D1019803B030BD8C090020C9
:10E3C000002307B5002201930648002301A907F0A6
:10E3D00015F910B1FFF7DCFF0190019803B05DF86B
:10E3E00004FB00BF8C090020F0B5037A85B0DC0780
:10E3F00001901ED4457A2D091BD0002426463146B3
:10E4000001980AF035FD0746FFF718FE70B134B9E0
:10E41000019B29461869FFF7E5FC044648B124FA38
:10E4200006F3D90702D53846FFF792FF0136AE4210
:10E43000E5D3019B1A7A920704D55B69084C0393D4
:10E44000039B2BB9064801A907F044F905B0F0BDBC
:10E450001D68204603A907F03DF90395F0E700BFCA
:10E460008C0900200E2A2DE9F84F80460F461546EC
:10E470000BD93149314840F23713314A0AF054F987
:10E4800040F237112E480AF0F5FBFFF799FF0446DA
:10E4900058B301234FF0000A032D4360A0F808A0F1
:10E4A0000CD9037AA5F1020943F00203037200F1CB
:10E4B000140BC0F814A0B9F1000F0EDC637A032D21
:10E4C00065F30713C4F81080637219D83946AA009F
:10E4D00004F114000BF057F807E0FFF771FF064650
:10E4E00030B92046FFF780FF34462046BDE8F88F5C
:10E4F000CBF80000A9F107098346C0F800A0DAE7CD
:10E500003946082204F11800D4F814800BF03BF8C7
:10E51000023D0837072D2E4628BF07264FEA8609F9
:10E52000394608F104004A460BF02DF8AD1BD8F827
:10E5300000804F44EED1D8E736C5010038BF010056
:10E540000AC501000EB403B503AB53F8042B014612
:10E5500004480193FEF7BAFF02B05DF804EB03B084
:10E56000704700BF9DE700002DE9F0471D46089B5E
:10E570001746DA0604460E4605D499064CBF2A49CA
:10E580002A49FFF7DFFF4FF00008DFF8A490A84505
:10E590002ADB0025DFF89C80DFF89C90DFF890A054
:10E5A000BD422FD249462046725DFFF7CBFF0135B1
:10E5B000102D20D120462149FFF7C4FF0025DFF8A8
:10E5C0007080DFF87C90AF4228D9725D4946A2F195
:10E5D00020035F2B28BF2E222046FFF7B3FF013513
:10E5E000102D14D1BDE8F08749462046FFF7AAFF59
:10E5F00008F10108CBE76A07D2D151462046FFF760
:10E60000A1FFCDE741462046FFF79CFFCFE76B0710
:10E61000D9D141462046FFF795FFD4E74146204631
:10E62000FFF790FFDBE700BFE5F0010041C5010007
:10E63000BEEC0100BCEC010044C501004AC501006C
:10E640004CC501002DE9F04F11F0020485B0904651
:10E6500006461A469DF8387001F0010901F00805D8
:10E6600006D011F0440F36D13249FFF76BFF044654
:10E67000B9F1000F0AD0304B304653F827202F4B0A
:10E680002F49002A08BF1A46FFF75CFF3DB12D4B0A
:10E69000304653F827202C49FFF754FF0546B8F1C0
:10E6A000000F44D0012303FA07F7284B17F0100F8F
:10E6B000274F18BF1F46BDF840109DF83C00FFF7DC
:10E6C00015FC394602463046FFF73CFF28442044FB
:10E6D00005B0BDE8F08F1F4B196831B31E4B4FF4E6
:10E6E000616C1B684FF47A7BB2FBF3F3B3FBF1F47C
:10E6F000B4FBFCF20CFB124C01FB14340BFB04F4D6
:10E70000B4FBF1FA4FF03C0E01FB1A440BFB04F48E
:10E71000BCFBFEF3B4FBF1F1CDE901A10EFB13C18B
:10E7200000910E49FFF70EFFA1E708469FE7084F4B
:10E73000C1E700BF5DC5010064B701004FC501001E
:10E7400082C5010078B7010085C5010059C50100E7
:10E7500054C50100A8090020AC09002066C50100CD
:10E7600038B50C46E107054603D5084A0849FFF7C6
:10E77000E9FEE20608D4A3062846BDE838404CBFAF
:10E7800004490549FFF7DEBE38BD00BF4FC5010093
:10E7900082C50100E5F0010041C5010038B54B68B4
:10E7A00005461A68CB680C469A4202D108460AF020
:10E7B00054FD6368D3E8EF2F511CC3E8E01F002825
:10E7C000F8D1A3689D5463681A68E3689A4209D92E
:10E7D000054906487423064A09F0A6FF7421044837
:10E7E0000AF048FA002038BDBAC5010038BF010060
:10E7F0008BC501002DE9F0478B7A044613F007081A
:10E800000E4617468AB022D00A7A4989D243C1F30C
:10E810008911C3F3C203CDE900830291F36839463D
:10E8200002F00102FFF70EFF8146357AED4315F045
:10E8300001050ED0214630460AF0B2FBB8F1000FB8
:10E8400039D0424639462046FFF78AFF33E0C146B9
:10E85000EBE7B8F1000F34D1E3685BB928492948E8
:10E860004FF4D973284A09F05FFF4FF4D971264855
:10E870000AF000FA0027E36806AA069330463B46F2
:10E88000A1680AF079FB069A63681A603AB1A36836
:10E89000134413F8015CA5F10A035D425D41204673
:10E8A0000AF0DBFC069B1F44002BE4D11DB120467F
:10E8B0001649FFF747FE20460AB0BDE8F0470AF0C8
:10E8C000CCBC30460AF002FB114902462046FFF755
:10E8D00039FE4FF0100A05AA2B46304606A9CDF89E
:10E8E00014A00AF049FB059A002AAAD04B462046FC
:10E8F000009706A9FFF738FE059B1D44EBE700BF14
:10E90000EAC5010038BF01008BC50100FBC501004D
:10E9100082C5010042F20F7373B58B4228BF0B46CC
:10E9200005680446052168460D4A09F00AFF0646B7
:10E93000636828460B225B680A490AF024FB636877
:10E940003246694628465B680AF01DFB63681B2255
:10E9500028465B6804490AF016FB02B070BD00BF90
:10E960005ABE010035C6010019C60100012300216D
:10E97000074A10B5074C1360A04204D801B11360D8
:10E98000054B186010BD012140085B00F4E700BF93
:10E99000AC09002040420F00A80900200122014BD1
:10E9A0001A707047144E00200122024B02481A7060
:10E9B0000AF053BC154E0020A4B701000148FFF730
:10E9C000A9BF00BFA4B7010010B50C4608460AF065
:10E9D00043FA214604480F22FFF70CFF2046BDE80A
:10E9E00010400AF064BA00BFA4B70100054B1B78C1
:10E9F0001BB141F288300CF026BCA420002108F0A5
:10EA0000E9BC00BF154E00202DE9F04707460E4631
:10EA10000424DFF88480DFF884A098F8003033B94C
:10EA20004FF0FF324FF0FF33504607F005F8324603
:10EA30003946002000F05AFD98F80030814613B99D
:10EA4000504607F0EDF8164DB9F1000F18D001232C
:10EA50002B7098F8003033B93046BDE8F0875CB9C8
:10EA60002C704FF0FF34002000F08CFD0028F3D014
:10EA70002B78002BF3D1EFE7013CFFF7B7FFF2E76C
:10EA80002B7813B1013C04D12C702B78002BC4D10E
:10EA9000E2E7FFF7ABFFF8E7154E00201803002070
:10EAA000144E0020084B30B51C68084B01461A680C
:10EAB00000239C4201DC002030BD10460578103256
:10EAC0008D42F9D00133F4E734B80100CC000020C6
:10EAD000084B10B51B680C462BB1FFF7E3FF28B1BC
:10EAE0002060002010BD6FF00C00FBE76FF001000C
:10EAF000F8E700BFCC000020044608B54FF0200224
:10EB0000EFF3118382F31188BFF36F8F0AF0A1FC3A
:10EB1000204601F05FF9034809F006FE00F036FEDA
:10EB2000FCE700BF7EC6010010B5074806F0B8FB41
:10EB3000064C074B1860204601F0E8FB2046FEF724
:10EB40003FF8002010BD00BF96BE010055EB00004D
:10EB5000C40900200A2838B50446074D04D12868A6
:10EB600083680D21DB69984728688368E1B2DB6917
:10EB70009847204638BD00BFC409002037B5402360
:10EB80000C460A490093411A491105462346084A92
:10EB900008480AF006FC011E05DA2846234603B0A1
:10EBA000BDE83040184703B030BD00BFD809002091
:10EBB000159401000002002038B5CCB2032C0546A4
:10EBC00009D9094909487E23094A09F0ADFD7E218A
:10EBD00007480AF04FF80C23E96804FB0314D4F843
:10EBE000880000F0070038BDE4C6010038BF01000E
:10EBF000A7C60100F8B5CCB2032C05461746C66877
:10EC00000BD91A491A4840F253131A4A09F08CFDDD
:10EC100040F2531117480AF02DF84FF02003EFF39C
:10EC2000118183F31188BFF36F8F0C2202FB046301
:10EC3000D3F8883013F0C00301D09F4212D10123D2
:10EC4000002002FB0466C6F8883081F31188BFF308
:10EC50006F8F30B90C23696803FB0414636898470D
:10EC60000020F8BD4FF0FF30EFE700BFE4C6010021
:10EC700038BF0100A7C6010070B50D46064904461D
:10EC8000411A491140220548FFF7B4FF2B460146BF
:10EC90002046BDE870401847D80900200002002037
:10ECA0002DE9F843002201210646052000F000FD71
:10ECB000052000F0CBFC114805F00CF8104B9842F1
:10ECC00019D105F02BF800244FF00C080127DFF8CC
:10ECD0003490F568494605EB441009F080FD0028A2
:10ECE00007DB08FB04550134042CC5F88870F0D10B
:10ECF0000020BDE8F8836FF00400FAE741ED000062
:10ED00000000AD0B7CB8010001460C2300224B43F0
:10ED1000094870B5C4188833D4E920561844C4F89B
:10ED200080200AF02BFB2DB132462B46BDE8704007
:10ED30000248184770BD00BFD8090020000200201B
:10ED400008B5052822D8DFE800F0031121130F0DC4
:10ED5000144BD3F8880010F0070021D1BDE808401B
:10ED6000FFF7D2BF0220F9E70320F7E70120F5E71C
:10ED70000D4940F266230D4A0D4809F0D5FC40F2DA
:10ED80006621BDE80840094809F074BF064940F211
:10ED90006A23064A064809F0C7FC40F26A21F0E7F8
:10EDA00008BD00BFD809002061F20100A7C601001C
:10EDB00038BF010008B54FF02003EFF3118183F352
:10EDC0001188BFF36F8F124A136843F0020013F0EB
:10EDD000010310600CD04FF05022D2F80C34D2F85E
:10EDE0000C2413F0010303D00A480AF0C7FA0123E8
:10EDF00081F31188BFF36F8F23B1BDE80840002075
:10EE0000FFF782BF0120BDE8084004F0ADBF00BF9E
:10EE1000880A0020600A00201FB500220123CDE9E6
:10EE200002236B46084ACDF800D0CDF804D00AF092
:10EE3000EAFA002805DB4FF480420023684608F018
:10EE400047FB05B05DF804FB4B940100074BD3E88A
:10EE5000EF2F22F00201C3E8E01F0028F7D1D3070B
:10EE600002D4012004F0F8BF704700BF880A0020D8
:10EE70002DE9F041012206464649D1E8EF3FC1E8BD
:10EE8000E02F0028F9D1A3B9434944484B60CB6037
:10EE90008A60FEF7DDF800280BDA4149414840F26C
:10EEA0002623414A09F040FC40F226213E4809F061
:10EEB000E1FE96B3731E012B56D8012E07D14FF0F9
:10EEC0005023D3F81C3403F00303022B25D00CF09D
:10EED000B4F9044618B9354B1B78002B52D14FF0CA
:10EEE0002003EFF3118783F31188BFF36F8F0124A1
:10EEF0004FF05025DFF8B880D5F81834D5F818242D
:10EF0000D2030CD503F00303022B01D0012E06D14E
:10EF100024B387F31188BFF36F8FBDE8F081C4B1CC
:10EF2000384600F041FCD5F81835DBB2012BE3D1AF
:10EF3000D5F80421002ADFD00022C5F80421D5F835
:10EF400004210222C5F818252022C8F88021AB60D0
:10EF5000D2E70021212008F03DFAE4E74FF05023EA
:10EF60000222C3F80423D8E712490E484FF40E7367
:10EF70000D4A09F0D9FBBDE8F0414FF40E710A4883
:10EF800009F078BE4FF0502302220746C3F8082349
:10EF9000AEE700BF8C0A0020C8090020F809002055
:10EFA00008C7010038BF0100A7C601003252002087
:10EFB00000E100E061F2010010B5064C064922466E
:10EFC0000648172309F0B0FB2046BDE81040172182
:10EFD00009F050BE46C7010061F2010038BF0100D0
:10EFE000044A1368C81A20F07F400344136008F0F5
:10EFF0001DBF00BF9C0A00202DE9F0474FF4803769
:10F000004FF00009860000F1500406F15026A400DC
:10F0100006F58036A4B204F15024D6F84035DFF866
:10F020006C8021F07F4504F580348740D8F804A532
:10F03000A3EB0A0323F07F432AF07F42012BC6F89B
:10F04000402502D113200CF0FEF80AF10202AB1A9F
:10F0500023F07F43B3F5000F88BF1546C4F8009036
:10F06000236825F07F43C8F84473C6F84035D8F8C4
:10F0700004359A4506D0EB1A023B23F07F43B3F5E3
:10F08000000F01D8BDE8F0872B46CFE700500150B4
:10F09000F8B500252F46104C2668104B05B1F8BD79
:10F0A000D3F80423D203FAD5D3F84021002AF6D0AE
:10F0B000C3F84051D3F840214FF48032C3F84823BD
:10F0C0000125D3F8401526B1002062682760B047BB
:10F0D000E2E72660E3E700BF900A002000500150FD
:10F0E00038B500254FF480334FF400120C4C012149
:10F0F000C4F80855C4F804330A4B1520C3F880211E
:10F100002A4600F0D5FA152000F0A0FA0123064A9D
:10F11000A360022023601360FFF7AAFE284638BDD3
:10F120000050015000E100E0980A0020134AB0F1BD
:10F13000FF3F14BF03461346013B002B1CDD9342E7
:10F14000A8BF13460E4AD2F804050E4A1168401AA9
:10F1500010F4000F18BF002320F07F4201320A484C
:10F1600013440A4A106000205060044A934294BF3E
:10F17000C9188918FFF740BF0023E3E7FFFF7F00AE
:10F18000005001509C0A0020E1EF0000900A00208E
:10F1900038B54FF02003EFF3118583F31188BFF3E7
:10F1A0006F8F1A4808F09AFB68B97C23184A1949EE
:10F1B000194809F0B9FA1549184809F0B5FA7C213F
:10F1C000134809F057FD114808F0A4FB144B0F48F1
:10F1D000D3F80445134B1B68E41A24F07F4408F06D
:10F1E0008BFB68B9A7230A4A0F490B4809F09CFA20
:10F1F00006490E4809F098FAA721054809F03AFD9A
:10F2000085F31188BFF36F8F204638BDA00A002018
:10F2100096C00100E8C0010038BF0100FDC0010038
:10F22000005001509C0A0020BCC00100D3C0010066
:10F2300038B54FF02003EFF3118583F31188BFF346
:10F240006F8F1B4808F04AFB68B97C23194A1A499A
:10F250001A4809F069FA1649194809F065FA7C213B
:10F26000144809F007FD124808F054FB154B1048EC
:10F27000D3F80445144B1B68E41A24F07F441C4463
:10F2800008F03AFB68B9A7230A4A10490B4809F06D
:10F290004BFA07490E4809F047FAA721054809F03B
:10F2A000E9FC85F31188BFF36F8F204638BD00BF9E
:10F2B000A00A002096C00100E8C0010038BF01008C
:10F2C000FDC00100005001509C0A0020BCC001009C
:10F2D000D3C00100014809F0EDB800BF88B80100B3
:10F2E00010B5044618B90D4B0D485B689847616826
:10F2F00008290DD031F004030AD011F0020108D022
:10F300002146084806F0E6F90023236000236360E5
:10F3100010BD142220680AF061F9F7E79C01002073
:10F32000C2C70100A40A002008B540B34368042BFB
:10F330000BD0082B16D003B300684FF0FF324FF00C
:10F34000FF3306F079FB58B115E001220368D3E8DA
:10F35000EF1F002903D1C3E8E02F0028F7D10AD11D
:10F36000002008BD0368074A1B7803F5807352F834
:10F370002330002BF4D00448F3E70448F1E76FF49E
:10F38000E040EEE700000350E98FFFFFEA8FFFFF48
:10F3900008B508B34368042B07D0082B13D0F3B18A
:10F3A000006806F03DFC00200CE000220368D3E872
:10F3B000EF1F012903D1C3E8E02F0028F7D1094846
:10F3C00008BF104608BD036800201B78064A03F5F5
:10F3D000807342F82300F5E76FF4E040F2E703485A
:10F3E000F0E700BFE98FFFFF00000350EA8FFFFF47
:10F3F00010B5044618B9164B16485B689847636801
:10F40000042B23D0082B21D0CBB92368BBB94FF0F4
:10F41000FF324FF0FF3321460F4806F0EFF808B9EE
:10F4200023681BB90A4B0D485B68984714220021DA
:10F4300020680AF0D3F8636843F002036360206831
:10F440000BF08EFE636843F00103636010BD00BFE4
:10F450009C010020C2C70100A40A0020E8C70100E7
:10F4600008B506494023142205480BF046FEBDE8C6
:10F4700008400449044809F06FB800BFC00A0020E2
:10F48000A40A0020A0B8010090B80100032310B521
:10F49000104C114AC4E90433104BA261E3614FF4EC
:10F4A000806322660E4A23626266002310220D49A1
:10F4B000E01DA3626362E3622367E3666367A2669B
:10F4C0000AF007F8204608490AF003F82023A37140
:10F4D00010BD00BFC00F002015C80100264E00203F
:10F4E000164E00201EC8010022C801002DE9F84F69
:10F4F0004FF0180B224F14460BFB0072936A556AAB
:10F500000646AB42884634D8D2F820A0AAEB0509BB
:10F5100009F1FF32944211D84FF0180906FB099304
:10F520003B4458682246414628440AF02CF809FB1F
:10F5300006762C4401207462BDE8F88F13449C4287
:10F540001BD800FB0BBBBB44DBF804004A46284435
:10F550002C440AF018F8B4EB0A0406D02246DBF873
:10F56000040008EB09010AF00EF8182000FB0676EB
:10F57000E0E7013B5B1BA342CED20020DCE700BFEB
:10F58000C00F00201822034B02FB00339A6A586A0E
:10F59000801A7047C00F00200A4A0B499368096817
:10F5A000C3F88400C3F8881008494B6843F08053BF
:10F5B0004B60002383F31188BFF36F8F9368D3F8F8
:10F5C00088007047941B002094BC010000ED00E00F
:10F5D00014498A684FF040001044EFF3098C80E82A
:10F5E000F01F202080F31188BFF36F8F0E4F4FF074
:10F5F00000668A6A8A603E60D2F884000023C2F8FE
:10F60000843080F3118802F1400090E8F01F8CF301
:10F61000098802F1000004B509F02AFFBDE80440A2
:10F6200070470000941B002004ED00E01EF0040F62
:10F630000CBFEFF30880EFF30980816911F8021C19
:10F640000229FFD001B509F017FF01BD43B2002B1D
:10F6500008DB012200F01F0002FA00F0024A5B09F9
:10F6600042F82300704700BF00E100E043B2002BE6
:10F670000DDB012200F01F0002FA00F05B09044AD2
:10F68000203342F82300BFF34F8FBFF36F8F7047D3
:10F6900000E100E0054B420953F82220012300F06D
:10F6A0001F0003FA00F01040704700BF00E100E0C7
:10F6B00070B54C1C072C05460E460ED95C23104A2B
:10F6C0001049114809F030F831461048072209F076
:10F6D0002BF85C210A4809F0CDFA6BB2002BACBFC5
:10F6E00003F160430A4B4FEA4414E4B2ABBF03F5A5
:10F6F000614305F00F0583F800435C5570BD00BF02
:10F7000029C801005FC8010038BF01007AC80100A4
:10F7100014ED00E042F8203C009B0B4942F81C3CF1
:10F72000019B21F0010142F8183C029B42F8081CA1
:10F7300042F8143C4FF0807342F8043C0023203A16
:10F740000266C0F88430704705880100044608B599
:10F750000E46154600F0B4FB084B9C60636F83F3C4
:10F760000B88284686F30988002163B681F3118847
:10F77000BFF36F8F0022002309F044F8941B002090
:10F78000014910220A60704710ED00E072B6404057
:10F7900080F31188BFF36F8FBFF34F8F30BF62B616
:10F7A000BFF36F8F704700BF72B6494081F3118875
:10F7B00020BF80F3118862B6704700BF73B506465C
:10F7C0000C4601B3134B144D1448ED1AED08AD016E
:10F7D00045F00105ADF80050D1E90123096809F0B1
:10F7E000B3FAADF80050D4E90423E1680C4809F0FD
:10F7F000ABFA2A46E1690B4809F079FA2A46A16971
:10F80000094809F074FA2146304602B0BDE870405C
:10F8100005F06CBD44B60100ECB60100AFC80100B4
:10F82000DEC801000DC901001CC9010030BFFFF78F
:10F83000FDBF00BF0E4A08B50E4B22F07F029A6052
:10F84000BFF34F8FBFF36F8FD3F8882022F470027D
:10F85000C3F88820EFF3148323F0040383F31488A0
:10F8600005F0ECFD08F0CCF800F0FCFA05F00AFE1B
:10F8700000C2000000ED00E001B572B60B4A506A0C
:10F8800000281EBF002151620BF035FC62B6EFF379
:10F890000580A0F110004FEAC0000549014409C9E4
:10F8A0009847BDE80140034908470000941B002029
:10F8B0001CB40100B9FD0000002080F31488BFF3E0
:10F8C0006F8F002080F30A8880F30B8809F0DAF943
:10F8D00000200E490860BFF34F8F0D4880F3088861
:10F8E00000F09CFA202080F311880A484FF4006150
:10F8F000401880F30988EFF314800221084380F355
:10F900001488BFF36F8FFFF795FF000094ED00E0C0
:10F91000387B0020787C0020EFF30880EFF309812A
:10F9200001B5724600F05AF901BD00BF70B5284B11
:10F93000284C294DE41AE408A40144F0010631469C
:10F94000264809F0C7F9AB6A9B0103D53146244824
:10F9500009F0C0F9AB6ADD0104D5224844F0010189
:10F9600009F0B8F91C4EB56A15F4801505D01E488B
:10F9700044F0010109F0AEF90225B36A180304D579
:10F980001A4844F0010109F0A5F9134EB36A59036E
:10F9900004D5174844F0010109F09CF9B36A9A03B1
:10F9A00004D5144844F0010109F094F90A4EB36AF1
:10F9B000DB0304D5104844F0010109F08BF9B36A68
:10F9C00028466FEA03436FEA1343B36270BD00BF7A
:10F9D00044B60100ECB6010000ED00E04AC90100A8
:10F9E00062C9010075C901008FC90100B9C90100D0
:10F9F000D7C90100FCC9010016CA01002DE9F04178
:10FA00002A4B2B4C2B4DE41AE408A40144F00108C6
:10FA100007460E462848414609F05CF9AB6AD9040E
:10FA200003D54146254809F055F9AB6A1A0504D5B6
:10FA3000234844F0010109F04DF91E4DAB6A9B05C6
:10FA400012D544F0010841461E4809F043F9A96B5C
:10FA5000AB6A180408D542461B4809F048F91FB1A3
:10FA6000AB6A23F40043AB62124DAB6A590504D56F
:10FA7000164844F0010109F02DF9AB6ADA050DD5FD
:10FA8000134844F0010109F025F90020094A936A5E
:10FA900043F47F4393623070BDE8F081AB6A9B040E
:10FAA000F3D50C4844F00101EDE700BF44B6010076
:10FAB000ECB6010000ED00E041CA010057CA0100A8
:10FAC00068CA01007BCA010094CA0100A9CA0100EA
:10FAD000C4CA0100DCCA01002DE9F041314B324CAF
:10FAE000324DE41AE408A40144F0010807460E462A
:10FAF0002F48414609F0EEF8AB6AD80603D54146D7
:10FB00002C4809F0E7F8AB6A190704D52A4844F0F5
:10FB1000010109F0DFF8254DAB6A9A0712D544F0D0
:10FB200001084146254809F0D5F8696BAB6A1B0608
:10FB300008D54246224809F0DAF81FB1AB6A23F033
:10FB40008003AB62194DAB6AD80704D51D4844F059
:10FB5000010109F0BFF8AB6A990604D51A4844F0D0
:10FB6000010109F0B7F8114B9A6AD20602D49B6AD8
:10FB70009B070ED5154940F24713154A154808F062
:10FB8000D3FD154808F0D0FD40F24711104809F0A8
:10FB900071F80020054A936A43F0FF0393623070C6
:10FBA000BDE8F08144B60100ECB6010000ED00E0D4
:10FBB0000BCB010021CB010068CA010054CB01002E
:10FBC0006CCB010082CB0100DCCA010061F20100B4
:10FBD000A1CB010038BF0100DBCB01002DE9F043D0
:10FBE000604B0F465D6800268BB0C5F3080486F3B2
:10FBF0001188BFF36F8F02F07F43B3F17F4F0DD1B8
:10FC000002F00C03082B1AD15749584B5848C91A0F
:10FC1000C908890141F0010109F05CF84FF47173E2
:10FC2000544A5549554808F07FFD554808F07CFD79
:10FC30004FF471714F4809F01DF8002705E01207D5
:10FC40005CBF07460126002FE8D000238DF807305F
:10FC5000E31E092B6DD8DFE803F0055B5F3F6C6C9A
:10FC60006C6C6C634FF00009404B3F4DDFF8F48043
:10FC7000ED1AED08AD0145F001052946414809F0AE
:10FC800029F8D8F82C408DF8079014F0020405D01C
:10FC900029463D4809F01EF8002420E0D8F82C3011
:10FCA0005B001CD52946394809F014F898F828302B
:10FCB0002BB101200DF10701FFF70EFF0EE098F8C0
:10FCC00029302BB101200DF10701FFF797FE05E068
:10FCD000B8F82A309BB213B1FFF728FE04469DF80E
:10FCE000073093B92022394602A809F04CFC099B41
:10FCF0009EB3C3F3080222B96FEA53236FEA43238A
:10FD00000993204602A9FFF759FD0BB0BDE8F08327
:10FD100000200DF10701CFE700200DF10701D4E726
:10FD20001149124B1A48C91AC908890141F0010149
:10FD3000B0E70E4A0C4B17489B1ADB0815F4F87F06
:10FD40004FEA8313144943F0010318BF0146A4F19D
:10FD50001002124808F0DFFF9EE723F4FF7323F040
:10FD60000103CDE700ED00E0ECB6010044B6010070
:10FD700015CC0100A1CB010040CC010038BF01002F
:10FD800053CC010091CC0100A8CC0100C9CC0100EA
:10FD9000E8CC010033CD01001ECD01004CCD0100A7
:10FDA000044B5A6942F010025A615A6942F4806267
:10FDB0005A61704700ED00E0044B9968986A8842E8
:10FDC00003D003494FF080520A607047941B002013
:10FDD00004ED00E0BFF34F8F0549064BCA6802F4FB
:10FDE000E0621343CB60BFF34F8F00BFFDE700BF5E
:10FDF00000ED00E00400FA05002318460649D1F89A
:10FE00009020C2F30722934200D17047C1F8983086
:10FE1000C1F8A0000133F6E700ED00E010B572B6BE
:10FE2000002484F31388FFF7E7FF23464FF0FF30E9
:10FE30000B4A03F120010133102B42F82100F8D1C5
:10FE400000234FF0FF3003F160010133102B42F823
:10FE50002100F8D162B6BFF34F8FBFF36F8F10BD93
:10FE600000E100E0002320210348C2180133452BA4
:10FE700082F80013F9D1704700E100E008B50E4B9D
:10FE80009B68834207D1EFF3058393B10B4A536814
:10FE900043F08053536006F015FE4FF02003EFF35C
:10FEA000118083F31188BFF36F8FBDE808400BF01A
:10FEB0007EB907F037FD00BF941B002000ED00E085
:10FEC0001FB5094C094A23460121094800F082F96F
:10FED00000230393074B0121E41A01A80193029424
:10FEE00000F09EF904B010BD00E0072000000020E3
:10FEF000B4B80100A003002010B50B680C7A23F001
:10FF00001F0204F01F031A43CB68640923F01F0388
:10FF1000054943EA440343F00103C1F89800C1F8DE
:10FF20009C20C1F8A03010BD00ED00E0072810B5FE
:10FF30000DD9084B084A0146D21AD2089201074847
:10FF400042F0010208F0D3FE6FF0150010BDFFF77C
:10FF5000D3FFFBE744B60100DCB6010063CD01002E
:10FF60002DE9F04F8946144606464FF000085C4DD7
:10FF700085B0C84533DAD6F804A0BAF1000F51D0E5
:10FF8000BAF11F0F1ED91AF01F0F1BD1D6F800B0FF
:10FF90001BF01F0F16D1584609F092FA07460AEBDC
:10FFA0000B00013809F08CFA87421CD06FF015075E
:10FFB0004C4A4D4B3946D21AD20892014B4842F076
:10FFC000010208E04146474A474B4948D21AD20845
:10FFD000920142F0010208F08AFE6FF015042046FB
:10FFE00005B0BDE8F08F17F1160FE1D0631EBB42DC
:10FFF000DEDBC5F89870D5F89C10C5F89870D5F878
:020000040001F9
:10000000A03021F01F0143F01F0BD6E900321A4443
:10001000994202F1FF3A1DD1D34507D13146F8B2DA
:1000200009F035FA08F101080C36A2E73146C5F8A7
:100030009870D5F89C3022F01F0203F01F031A437A
:10004000C5F89C20E0B209F022FA10F1160FC4D0D6
:10005000441CE7E7013BD345E0B223F01F03C5F89A
:10006000987008D1D5F8A020314602F01F02134342
:10007000C5F8A030E7E7D5F8A01001F01F010B4349
:10008000C5F8A030314609F002FA10F1160FA4D0DD
:10009000C5F89870D5F89C209DF808300BF1FF3B0F
:1000A00062F304038DF80830D5F8A0309DF80820DD
:1000B0005B0863F347128DF80820D6E90032134439
:1000C000009323F01F035B44A3EB0A03013023F0EA
:1000D0001F036946C0B20393FFF728FFB5E700BFCF
:1000E00000ED00E0DCB6010044B60100ACCD01003B
:1000F00089CD01000522044BC3F89420BFF34F8F34
:10010000BFF36F8F704700BF00ED00E0BFF35F8F5C
:100110000022024BC3F89420704700BF00ED00E0BE
:1001200038B5224D2C68082C13D940F23B13204AD5
:100130002049214808F0F8FA082221461F4808F013
:10014000F3FA1B4840F23B1108F094FD4FF0FF30EA
:1001500038BD0020FFF7DAFF194B1A4AC3F8C02058
:1001600084421BD1184B1C70FFF7C4FF144BD3F80B
:100170009030C3F30723082B0ED014494FF4B37308
:100180000B4A0D4808F0D0FA114808F0CDFA4FF4A8
:10019000B371074808F06EFD0020D9E7696801EBEC
:1001A0000011FFF7A9FE0130DAE700BFC0B8010077
:1001B000CFCD010061F2010038BF01000FCE010078
:1001C00000ED00E0AAFF44002652002043CE0100CB
:1001D00093CE010038B50D4D0C462A78FFF7C0FECE
:1001E0002870163011D14FF48273094A09490A4820
:1001F00008F09AFA2146094808F096FABDE8384016
:100200004FF48271024808F035BD38BD26520020F7
:10021000CFCD010061F2010038BF0100B4CE010072
:100220002DE9F74F324E894605464FF00008B34698
:10023000304FC84502DB03B0BDE8F08FD5F804A00D
:10024000BAF1000F4FD029680846019109F038F93A
:10025000019904460AEB0100013809F031F98442A2
:100260004FF01402244B18D06FF0150302FB08F86E
:100270004BF808304FF48A73204A2149214808F08E
:1002800053FA4946204808F04FFA4FF48A711B4848
:1002900003B0BDE8F04F08F0EDBC14F1160F346068
:1002A000E8D01978A142E5DD02FB08B0C7F8984014
:1002B000C7F89840D7F89C4000F10801007B64F330
:1002C00004000871D7F8A0000C79400860F34714C7
:1002D0000C71D7F89C1021F01F017160D7F8A010A5
:1002E00021F01F01316108F1010814360C35A0E737
:1002F0006810002000ED00E026520020CFCD010064
:1003000061F2010038BF0100E0CE0100014B18602E
:10031000704700BFF00000204FF08053094A0020D2
:10032000C2F80432C2F8003242F8D43C42F8D83C59
:100330001022054BC3F840244FF05023C3F8140695
:10034000704700BF002884500030005070B516463A
:100350000C46C56861B922492423224A224808F084
:10036000E3F9224808F0E0F924211E4808F082FC55
:10037000636863B91E4925231A4A1B4808F0D4F95B
:100380001C4808F0D1F92521164808F073FC6B6869
:100390005BB100229C4212D12368A96852B9A142E4
:1003A0006B6000D1AB60002323606EB9002070BD8C
:1003B0000B46EFE7A142136008BFAA60F3E7196894
:1003C0001A460029F4D13EB16B68A86823606C60BE
:1003D0000028EBD1AC60EAE76FF01500E7E700BF5B
:1003E00065CF010038CF010038BF01006ECF01009A
:1003F0007DCF01008FCF0100026810B5530904467C
:100400002BD0012B4FF6FF7318BF002302F01F0201
:10041000D340DB070BD41349134840F21A23134A85
:1004200008F082F940F21A21104808F023FC2368F2
:1004300003F01F025B0922600DD0012B10D00C4984
:10044000094840F21F23094A08F06EF940F21F21C3
:10045000064808F00FFC074810BD4FF0FF33D5E702
:100460000548F9E7ABC3010038BF010078C30100BC
:1004700061F20100002584500028845008B5094B22
:100480001A786AB901210D2019700521FFF710F9BA
:100490000D20FFF7DBF84FF00042034BC3F80423B5
:1004A000002008BD2752002000D00050B2F5A03F28
:1004B0002DE9F74380460E4617469946C46801F079
:1004C0001F0540F0AE80436801A81B7A45EA43133C
:1004D0000193FFF791FF019B803350F82330D80739
:1004E00000F1BE800121E368B1401943E1600121C0
:1004F00000206369B140B7F5A03F0CBF0B438B43AD
:100500006361A369B9F5C02F0CBF0B438B43A36193
:100510002369B9F5802F0CBF194323EA0101D8F8EC
:10052000043021611B7A504A45EA4315D2F804335E
:10053000D8F80C70DBB200F5A27152F82110C1F3AB
:1005400005218D4278D123FA00F1C90774D58300C3
:1005500003F1A04303F55043D3F8101521F0010136
:10056000C3F8101501238340C2F80833C0B203F06A
:1005700099FD2846002109F087F8F868F04010F04E
:1005800001004BD07869F04010F001045CD0BB69E9
:1005900001A8F340DB0757BF3969032621FA06F6A5
:1005A00006F001065CBFC6F10206F6B203F09AFD42
:1005B0002E4B984245D100209DF804202D02930037
:1005C00003F1A04303F55043D3F8101505F47C550F
:1005D00021F44F3121F44071C3F81015D3F81015F0
:1005E0000D4345EA0646C3F81065930003F1A043A6
:1005F00003F5514318609DF804101B688B0003F14C
:10060000A04303F55043D3F8102542F00102C3F88C
:1006100010250123144A8B40C2F8043303B0BDE80F
:10062000F083B2F5005F7FF45DAF012101FA06F3BC
:10063000E16821EA030159E7013008287FF47BAF24
:1006400097E76FF01200E9E739692846F14001F0B9
:100650000101C1F10301C9B209F016F82046DDE736
:100660006FF02200DAE700BF00D000500000AD0BB1
:100670002E4BF7B52E4C1340A342406844D00ED801
:10068000062B43D006D8002B40D0022B40D06FF071
:10069000150037E0B3F5801FF9D1012409E0254C9E
:1006A000A34237D0B3F5A00F36D0B3F5800FEED10B
:1006B0000224D50682F480734CBF0326C2F3401691
:1006C000C3F300279305C2F3402507D51305D0F8DF
:1006D00004C023D501238B40CCF80830037A01F005
:1006E0001F0141EA431101A80191FFF785FE019A1C
:1006F00045EA470343EA042343EA8603803240F88D
:100700002230002003B0F0BD0724D2E71C46D0E71A
:100710000424CEE70524CCE70324CAE7530542BFEF
:1007200001238B40CCF80C30D8E700BF0600F00066
:1007300006001000020040002DE9F0470F46164663
:10074000044610B30568DFF84880DFF84890DFF80A
:1007500048A0A3681E4214D0636863B94946452384
:100760004246504607F0E0FF0C4807F0DDFF452108
:10077000404608F07FFAD4E901322146384632403B
:10078000984715B12C462D68E3E7BDE8F08700BF18
:1007900038CF0100A6CF010038BF01008FCF010084
:1007A000F7B50026CDE90066284DD5F87C415CB14F
:1007B000274808F0A2FF0090264808F09EFF01900D
:1007C000C5F87C61D5F87C31002201269446224987
:1007D0001E4DD5F8043306FA02F0184216D00B6805
:1007E000A3B102F5A27355F8233002AFC3F3403032
:1007F00007EB800050F8087CC3F3042306FA03F3E8
:100800003B43C1F800C040F8083C0B680132082A9D
:1008100001F10401DDD1009A22B1104B0C49586856
:10082000FFF78AFF019A22B10D4B0A495868FFF77A
:1008300083FF44B1064808F03AFF064803B0BDE81C
:10084000F04008F034BF03B0F0BD00BF00D000504E
:10085000500200206002002000D100507C100020D7
:1008600098100020024B19601A64C3F8800070478A
:10087000BC10002008B50649064B0748C91AC9082C
:10088000890141F0010108F025FA6FF0150008BD5B
:10089000BCB6010044B60100C0CF010008B506494E
:1008A000064B0748C91AC908890141F0010108F03F
:1008B00011FA6FF0150008BDBCB6010044B6010086
:1008C000DCCF01000449054B0548C91AC908890154
:1008D00041F0020108F0FEB9BCB6010044B60100C7
:1008E000F8CF010038B50B4D95F8C0407CB90A4AE5
:1008F0000A49204603F02EFC224601212A20FEF759
:10090000D7FE074803F04EFC012385F8C0300020D5
:1009100038BD00BFBC100020B41000202509010024
:1009200024B901002DE9F84305461A4E1A4FDFF8A5
:100930006C800DB9BDE8F88395FAA5F43CB3B4FA20
:1009400084F30F2B1C460DDD832332463946404687
:1009500007F0EAFE2146124807F0E6FE8321304602
:1009600008F088F901230F48A34050F8249025EAA5
:100970000305B9F1000FDCD0002304F1100120348D
:1009800050F821101A4650F82400C847D1E7202417
:10099000DAE700BF2AD0010058D0010038BF0100BB
:1009A00067D00100BC100020102A08B51CD84AB13D
:1009B0000F49104B1048C91AC908890141F00201BA
:1009C00008F088F9029B002B09DD0949094B0B4807
:1009D000C91AC908890141F0020108F07BF9012216
:1009E0000020074B5A6008BD6FF01500FBE700BF01
:1009F000BCB6010044B601007FD00100B3D00100B5
:100A000000A00250024B0B6001231360704700BF2F
:100A10008011002000487047E8B9010070B50D460C
:100A20001946284616461C4608F0A4FE70B90C4A22
:100A30000C4B0D489B1ADB089B012246294643F0CC
:100A4000010308F068F96FF0150070BD34B122465B
:100A50002946304608F097FD0020F6E72046F4E7E7
:100A600044B60100ACB60100F7D0010010B5012278
:100A7000064811460AF0D5FB09F015FD044C20602C
:100A800009F00EFD6060002010BD00BF881100203D
:100A900080110020F8B50D46144609F001FD2146ED
:100AA0000646284608F066FE2F4678B3B5FBF6F3F7
:100AB00006FB135323B9B4FBF6F006FB104070B1EC
:100AC000184A194B29469B1A2246DB089B011748F6
:100AD00043F0010308F01FF96FF0150015E0A6427E
:100AE00013D84FF0FF324FF0FF33114806F0F0FCFF
:100AF00009F0D6FC0546384603F02CFC641B2F4455
:100B0000F9D10B4806F0A4FC2046F8BD054A064B77
:100B100029469B1ADB089B012246064843F0010345
:100B2000D8E700BF44B60100ACB6010014D1010003
:100B300088110020F7D00100F8B50E46194630465E
:100B400017461C4608F016FE70B91F4A1F4B314667
:100B50009B1A2246DB089B011D4843F0010308F065
:100B6000DAF86FF01500F8BD46EA040515F0030544
:100B70000AD0154A154B31469B1ADB089B012246C9
:100B8000144843F00103EAE7DCB14FF0FF324FF0C5
:100B9000FF33114806F09CFC2B19032BA6EB050034
:100BA00009D80E4AD2F80034DB07FBD50A4806F014
:100BB0004FFC0020D7E77B1B196803F0FFFB043DC7
:100BC000EAE72046CFE700BF44B60100ACB601001B
:100BD000F7D0010033D101008811002000900350AC
:100BE00038B5C56840680468D4F81405013011D1DF
:100BF00040F28723194A1A491A4807F095FD1A4806
:100C000007F092FD154840F2872108F033F86FF0A5
:100C1000220038BD092BC8BF0520ED68EB66C8BFB0
:100C200093FBF0F34FF00000D8BF0123C5E9141285
:100C3000C5E916002B672866C4F83415C4F83825B2
:100C4000C4F81001D4F81031C4F84C01D4F84C3178
:100C5000012385F8B8302360DBE700BF5BD10100DA
:100C600061F2010038BF01008FD10100026810B5A8
:100C7000530904462BD0012B4FF6FF7318BF0023F6
:100C800002F01F02D340DB070BD41349134840F294
:100C90001A23134A07F048FD40F21A21104807F0C2
:100CA000E9FF236803F01F025B0922600DD0012BCE
:100CB00010D00C49094840F21F23094A07F034FDBF
:100CC00040F21F21064807F0D5FF074810BD4FF03E
:100CD000FF33D5E70548F9E7ABC3010038BF010092
:100CE00078C3010061F2010000258450002884507F
:100CF000F0B54B79012B2BD0032B26D110278B7904
:100D0000032B22D1CD7925B1012D1ED143681B794A
:100D1000DBB10A79012A1DD0022A1FD0AAB91446D4
:100D20000B684668B3F5164F36686ED033D8B3F506
:100D3000165F6DD01CD8B3F5966F6BD010D8B3F595
:100D4000967F6AD0B3F5167F6AD06FF022005BE021
:100D50000027D4E74FF480740E22E1E70024FBE77C
:100D6000B3F5166F5FD0B3F5965FEED1384B3EE02A
:100D7000B3F5E14F5AD007D8B3F5615F58D0B3F55A
:100D8000964FE2D1334B32E047F6122C6345DCD16B
:100D90004FF400032BE0B3F5613F4BD013D8B3F50C
:100DA000963F4AD009D84DF6C02C634547D0B3F5DD
:100DB000614FCAD14FF46B0319E0B3F5E13FC4D1E1
:100DC0004FF0EB7313E0B3F5612F3BD009D8DFF898
:100DD00088C0634539D0B3F5E12FB6D14FF0E86351
:100DE00005E0DFF878C06345AFD14FF08053C6F817
:100DF0002435C3682C433A432243043303C9C6F85D
:100E00006C2583E803000020F0BD4FF41D03EEE7DE
:100E1000134BECE74FF49E23E9E74FF4A033E6E7EA
:100E20004FF41C33E3E74FF41D23E0E70D4BDEE7FF
:100E30000D4BDCE74FF06C73D9E70C4BD7E74FF461
:100E40006503D4E74FF07063D1E74FF08063CEE7DE
:100E500000B0130000A04E0090D0030040420F00ED
:100E60000050270000C0750000F03A0000903A01E1
:100E70002DE9F04105460F46C6680AF0DEF9002864
:100E800037D1314B1B7883F001036A681468002B5B
:100E900036D04FF02003EFF3118883F31188BFF3AE
:100EA0006F8F6868414608F0F6FC20B3F3684BB1D9
:100EB000DA683AB1D3F8B420002A03DAD4F84C2522
:100EC000C3F8B4200123002206F8147FC4F8446557
:100ED000C4F84835C4F82021D4F82001C4F85821BA
:100EE000D4F85821A36081F31188BFF36F8FBDE858
:100EF000F0810123C9E788F31188BFF36F8FC8E73A
:100F00004FF06408686808F0C6FC50B9012009F089
:100F1000C2FAB8F10108F5D10021212006F05AFAF1
:100F2000EEE74FF02003EFF3118183F31188BFF355
:100F30006F8F686808F0AFFC0028C3D181F3118877
:100F4000BFF36F8FE8E700BF325200202DE9F74F63
:100F5000064600274FF01409002201210820FEF761
:100F6000A7FB0820FEF772FB7368D6F80C801C689C
:100F70000125C4F800756846C8F80060CDF80090F7
:100F8000FFF774FE009B4FF0030A05FA03F383603A
:100F90006846CDF80090FFF769FE4FF0160B009BF6
:100FA000803340F823A06846CDF800B0FFF75EFE1E
:100FB000009B803340F82370C4F80C954FF015095E
:100FC000C4F814B56846CDF80090FFF74FFE009BBB
:100FD000803340F82370132768460097FFF746FEDA
:100FE000009B9D40856068460097FFF73FFE009B91
:100FF000F168803340F823A00431C4F80875304606
:10100000C4F81095FFF774FE8146002840F0E78091
:1010100073689B79002B41D008EB0B0003F00EF8AE
:101020007E4B98420DD07E497E4B7F48C91A21FAEB
:101030000AF1890141F0010107F04CFE6FF004094B
:10104000CDE014F5907798F816500BD17749784891
:101050004FF4F573774A07F067FB4FF4F571754865
:1010600007F008FE45F0004514F10C0FC7F880505A
:101070000BD171496E484FF4F8736E4A07F054FB78
:101080004FF4F8716B4807F0F5FD0123C4F88C505C
:1010900098F816209340694AC2F80435D8F80C3005
:1010A000002B00F0AB80F768D6F804A0FB68DAF8F4
:1010B000005093F8B930EBB10023614A0AF1080BF4
:1010C000CDE9002369465F4A584603F0B7F9534A11
:1010D000904200F08880534B51495B48C91AC908B7
:1010E000890141F0010107F0F5FD4FF00002FB68B6
:1010F00083F8B920F86890F8B930BBB1B03002F08D
:101100009DFF464B984211D0464B45494F48C91A5E
:10111000C908890141F0010107F0DCFD0022FB68EC
:101120000AF1080083F8B92003F066FAFB6893F827
:10113000B920002A5ED093F8B020DAF8081042F007
:101140000042C5F8882193F8B02042F00042C1F86F
:10115000882093F8B00002F08DFF304B98427FF466
:101160006DAF3B4BC5F804330823C5F80035D5F8FF
:101170004C3193B101236B60D5F84431002BFBD087
:101180000023C5F84C31D5F84C21C5F81031D5F8FD
:101190001021C5F84431D5F84431F86800222D49B2
:1011A00078300AF088F8FB68F868C3F8AC70002261
:1011B000294918300AF07FF8FB68DF6473689B796F
:1011C0001BB94FF48073C4F8043308F11403C4F856
:1011D00044350023C4F848350123A360E360484642
:1011E00003B0BDE8F08F584603F0BCF9584603F051
:1011F00021FA7FE70423C5F80433B2E70822C4F8D4
:101200000025C4F81031D4F8103108F11503C4F8E2
:1012100034350123C4F838352360CFE70000AD0B27
:101220002CB7010044B60100A8D10100FFD1010094
:1012300038BF0100C7D1010003D201000070015086
:1012400000010307B997010007D2010047D201004E
:1012500010020A00899901006B9A010043682DE988
:10126000F0471D68C3680446DB6888B093F8B9206E
:1012700072B9D5F8081159B1C5F80821D5F8082177
:10128000D3F8B0200132C3F8B02008B0BDE8F08731
:10129000D5F824311BB30021C5F82411D5F8243129
:1012A000D5F880641422C5F8806403A808F096F984
:1012B00006238DF80C30F30700F1EF80B70700F13B
:1012C000EE80700700F1ED8006F00806204603A9C5
:1012D0008DF8106008F09FFA204608F0BBFAD5F8A8
:1012E0001031EBB10023E668C5F81031D5F81031A4
:1012F000F0686368D3F8008090F8B830002B40F0B5
:10130000D280016D002940F0CE80142203A808F09D
:1013100065F90523204603A98DF80C3008F07BFA07
:10132000D5F84C316BB3002614223146C5F84C6118
:1013300003A8D5F84C31E76808F050F9032303A956
:1013400020468DF80C3008F066FAFF68FB6E591CD9
:1013500017D04FF4004E314640F2E7307B673B6FC9
:101360004FF47A7223EAE37CCCFB0E010023FAF7F8
:10137000F1FF02460B46CDE9000107F1780006F0C7
:1013800087FED5F8443163B300264FF00408E768C0
:1013900014223146C5F8446103A8D5F8443108F059
:1013A0001DF98DF80C80FB6820461B6D03A9049382
:1013B00008F031FAFB681E65DB6D43B1204603A9D6
:1013C00004938DF80C8008F026FAFB68DE656368EC
:1013D000864A1B68C3F834250522C3F83825012244
:1013E000DA62D5F82031DBB1D5F80433DA0517D548
:1013F00063681B684FF02001EFF3118281F31188BD
:10140000BFF36F8FD3F8201131B10021C3F8201141
:10141000D3F820110121D96082F31188BFF36F8FB7
:10142000D5F85831002B3FF430AFD5F804335B02C8
:101430007FF52BAFE6686368F0681D688268002A54
:1014400040F0A1800369002B3FF41FAF4FF0200351
:10145000EFF3118083F31188BFF36F8FD5F8583104
:10146000B3B14FF0FF34F3681969C3F8B440996021
:101470001A61DB68C5F84415C5F84835C5F8202160
:10148000D5F82031C5F85821D5F858310123AB6083
:1014900080F31188BFF36F8FF7E6012616E7022667
:1014A00014E7042612E7012380F8BA30783009F0F7
:1014B0000EFFF768D8F83C35D7F85890BA6EA3EB12
:1014C000090323EAE37A97F8B9105244BA6609B9D6
:1014D000C7F8B020002B10DD0021142203A808F06B
:1014E0007DF802238DF80C303B6D204603A9CDE931
:1014F0000439CDF818A008F08EF9F76897F8B830DD
:1015000013B987F8BA300BE71422002103A808F0BA
:1015100065F804238DF80C303B6D204603A9049335
:1015200008F079F94FF02003EFF3118183F311886C
:10153000BFF36F8FF368DA6D1A658AB11A6E5A6558
:101540000022C3E917229A65D8F84C3113B9012358
:10155000C8F80030D8F8003223F02003C8F8003271
:1015600081F31188BFF36F8FF3681B6D33B90523C7
:10157000204603A98DF80C3008F04DF90022F368DD
:1015800083F8BA20CCE6183009F0A1FE4FF0200312
:10159000EFF3118283F31188BFF36F8FF368D3F8F1
:1015A000B4100029ACBFD3F8B470D5F84C7582F3F1
:1015B0001188BFF36F8F1422002103A808F00EF8E2
:1015C000F36820469A6803A9CDE90427DA689742B0
:1015D0001CBF01228DF80C204FF48002C5F80823AF
:1015E00000229A60DA6008F016F94EE628520020D0
:1015F00070B5012543688D401B6804461D421646A0
:101600000ED10D494FF470730C4A0D4807F08CF859
:101610000C4807F089F84FF47071084807F02AFB6E
:1016200036B1A368DB6829462046BDE870401847FC
:10163000A3681B69F7E700BFECD401009CD201004E
:1016400038BF01002AD501002DE9F84306460F46B0
:101650000024DFF85080DFF8509026FA04F227FAD1
:1016600004F31343DB0718D5D24308EBC4031979FD
:1016700059F8240002F00102FFF7BAFF054660B1F5
:101680000A490B4B0B48C91AC908890141F00101ED
:1016900007F020FB2846BDE8F8830134042CDCD198
:1016A0000025F7E72CBA0100981100209CB6010034
:1016B00044B601003CD501002DE9F84F00272C4D20
:1016C000DFF8B090DFF8B0A0286803F0E9FD044629
:1016D00049F8040B70B9294B29492A48C91AC90885
:1016E000890141F0010107F0F5FA6FF0120420467C
:1016F000BDE8F88F0126436895F804B01B6806FA28
:101700000BF61E42D0F80C800ED11F494FF4117316
:1017100052461E4807F008F81D4807F005F84FF438
:101720001171504607F0A6FAA36820464FF40072E4
:1017300059461B689847044678B9D8F800300137F5
:1017400023EA0603042FC8F8003005F10805BBD1D1
:10175000BDE8F84F0F21FFF777BF084B08490D4848
:10176000C91AC908890141F0010107F0B3FABEE7BF
:101770002CBA0100981100209CD2010044B601004F
:101780009CB6010052D50100ECD4010038BF010025
:101790002AD501006AD50100042810B50DD9144BD3
:1017A00014491548C91AC908890141F0010107F017
:1017B00091FA6FF01504204610BDB1FA81F20F4B7B
:1017C000520903EBC00319790D4B53F82000FFF7C2
:1017D0000FFF04460028EED0054B06490948C91AF8
:1017E000C908890141F0010107F074FAE3E700BF7D
:1017F00044B601009CB6010084D501002CBA01005A
:10180000981100203CD5010008B5FCF77BFD064B84
:1018100006490748C91AC908890141F0010107F0C2
:1018200059FA0020FEF7D6FA44B60100A4B601002A
:10183000B3D5010037B5074D074C4FF0FF3269466D
:101840004FF0FF33284604F047F8DDE90001236834
:101850009847F2E7CC1100200C1200202DE9F04748
:10186000044688B048B9274927484323274A06F049
:101870005BFF4321254807F0FDF9254B1C6008223A
:101880002448114609F0CDFC002838DBFF22002156
:10189000214809F0C6FC002831DB00244FF07F42CC
:1018A0001E4B1C601E4BD3E8EF1FC3E8E02F00283F
:1018B000F9D1022308221B491B4809F039FC4FF0DB
:1018C00000084FF000092546184F194EDFF864A0B4
:1018D000022331463846CDE902534FF400625346A5
:1018E000CDE90689CDE900550495013405F01EFFC8
:1018F000032C07F1900706F50066E9D1002008B037
:10190000BDE8F087FCD5010038BF0100D0D501004B
:101910000C120020BC110020A81100200812002089
:10192000B8110020F8110020CC110020680400201C
:10193000385500203518010007B5CDE900014FF0FA
:10194000FF324FF0FF336946024803F023FF03B034
:101950005DF804FBCC11002070B50F4C4FF0FF3246
:101960004FF0FF330D4805F0B3FD4FF00045214621
:10197000D4E8AF3FB3FA83F025FA00F223EA02027B
:10198000D1E8EF6F9E4204D1C1E8EC2FBCF1000F0B
:10199000F6D1EDD170BD00BFB8110020BC11002000
:1019A000072810B5044609D90D490E4894230E4A5C
:1019B00006F0BAFE94210C4807F05CF94FF00040A5
:1019C0000A4B20FA04F4D3E8EF2F2243C3E8E12FB7
:1019D0000029F8D1BDE81040054805F039BD00BF29
:1019E00014D6010038BF0100D0D50100B811002085
:1019F000BC11002070B5041E13DC18499C23184A42
:101A0000184806F091FE9C21154807F033F9164D51
:101A1000164E2B689C420EDC144E2B689C4211DB48
:101A200070BDFF2CF3DD12499D230D4A0D4806F0D1
:101A30007BFE9D21E8E7304605F00AFD2B68013367
:101A40002B60E6E74FF0FF334FF0FF32304605F0F2
:101A50003FFD2B68013B2B60DFE700BF1FD6010075
:101A6000D0D5010038BF010008120020A8110020C5
:101A700029D6010070B514461D4621B9BDE8704055
:101A80000D4805F0E5BC022914D162B90B49512378
:101A90000B4A0C4806F048FE0B4806F045FE512163
:101AA000074807F0E7F8094B29462046BDE8704093
:101AB0001B68184770BD00BF4003002070D60100AE
:101AC00041D6010038BF010083D601005812002022
