:020000040000FA
:10C000003DB8F3960000000000020000F46A020050
:10C010000000000000000000000000000000000020
:10C02000FFFFFFFFFFFFFFFFFFFFFFFFFFFFFFFF20
:10C03000FFFFFFFFFFFFFFFFFFFFFFFFFFFFFFFF10
:10C04000FFFFFFFFFFFFFFFFFFFFFFFFFFFFFFFF00
:10C05000FFFFFFFFFFFFFFFFFFFFFFFFFFFFFFFFF0
:10C06000FFFFFFFFFFFFFFFFFFFFFFFFFFFFFFFFE0
:10C07000FFFFFFFFFFFFFFFFFFFFFFFFFFFFFFFFD0
:10C08000FFFFFFFFFFFFFFFFFFFFFFFFFFFFFFFFC0
:10C09000FFFFFFFFFFFFFFFFFFFFFFFFFFFFFFFFB0
:10C0A000FFFFFFFFFFFFFFFFFFFFFFFFFFFFFFFFA0
:10C0B000FFFFFFFFFFFFFFFFFFFFFFFFFFFFFFFF90
:10C0C000FFFFFFFFFFFFFFFFFFFFFFFFFFFFFFFF80
:10C0D000FFFFFFFFFFFFFFFFFFFFFFFFFFFFFFFF70
:10C0E000FFFFFFFFFFFFFFFFFFFFFFFFFFFFFFFF60
:10C0F000FFFFFFFFFFFFFFFFFFFFFFFFFFFFFFFF50
:10C10000FFFFFFFFFFFFFFFFFFFFFFFFFFFFFFFF3F
:10C11000FFFFFFFFFFFFFFFFFFFFFFFFFFFFFFFF2F
:10C12000FFFFFFFFFFFFFFFFFFFFFFFFFFFFFFFF1F
:10C13000FFFFFFFFFFFFFFFFFFFFFFFFFFFFFFFF0F
:10C14000FFFFFFFFFFFFFFFFFFFFFFFFFFFFFFFFFF
:10C15000FFFFFFFFFFFFFFFFFFFFFFFFFFFFFFFFEF
:10C16000FFFFFFFFFFFFFFFFFFFFFFFFFFFFFFFFDF
:10C17000FFFFFFFFFFFFFFFFFFFFFFFFFFFFFFFFCF
:10C18000FFFFFFFFFFFFFFFFFFFFFFFFFFFFFFFFBF
:10C19000FFFFFFFFFFFFFFFFFFFFFFFFFFFFFFFFAF
:10C1A000FFFFFFFFFFFFFFFFFFFFFFFFFFFFFFFF9F
:10C1B000FFFFFFFFFFFFFFFFFFFFFFFFFFFFFFFF8F
:10C1C000FFFFFFFFFFFFFFFFFFFFFFFFFFFFFFFF7F
:10C1D000FFFFFFFFFFFFFFFFFFFFFFFFFFFFFFFF6F
:10C1E000FFFFFFFFFFFFFFFFFFFFFFFFFFFFFFFF5F
:10C1F000FFFFFFFFFFFFFFFFFFFFFFFFFFFFFFFF4F
:10C2000038760020A119010011690200011A01000D
:10C21000011A0100011A0100011A0100011A0100AE
:10C220000000000000000000000000002D170100C9
:10C23000011A010000000000D5160100C90E01001E
:10C240006119010061190100611901006119010002
:10C2500061190100611901006119010061190100F2
:10C2600061190100611901006119010061190100E2
:10C2700061190100611901006119010061190100D2
:10C2800061190100611901006119010061190100C2
:10C2900061190100611901006119010061190100B2
:10C2A00061190100611901006119010061190100A2
:10C2B0006119010061190100611901006119010092
:10C2C0006119010061190100611901006119010082
:10C2D0006119010061190100611901006119010072
:10C2E0006119010061190100611901006119010062
:10C2F0006119010061190100611901006119010052
:10C300006119010061190100611901006119010041
:10C310006119010061190100611901006119010031
:10C320006119010061190100611901006119010021
:10C330006119010061190100611901006119010011
:10C340006119010061190100611901006119010001
:10C3500061190100FFFFFFFF53B94AB9002908BF67
:10C3600000281CBF4FF0FF314FF0FF3000F080B9C4
:10C37000ADF1080C6DE904CE00F006F8DDF804E03C
:10C38000DDE9022304B070472DE9F04F099E0D4608
:10C3900004460F46002B47D18A4294465FD9B2FA31
:10C3A00082F343B1C3F120019F4002FA03FC9C4099
:10C3B00020FA01F10F434FEA1C451FFA8CFE220CB4
:10C3C000B7FBF5F105FB117701FB0EF042EA0742DE
:10C3D000904208D91CEB020201F1FF3702D29042D1
:10C3E00000F234813946121AA4B2B2FBF5F005FB13
:10C3F000102200FB0EFE44EA0244A64508D91CEBBD
:10C40000040400F1FF3202D2A64500F21981104661
:10C4100040EA0140A4EB0E0400211EB1DC400023E1
:10C42000C6E90043BDE8F08F8B4208D9002E00F02A
:10C43000FB800021C6E900050846BDE8F08FB3FA8D
:10C4400083F100294BD1AB42C0F0F180824240F22F
:10C45000EE800846002EE5D0C6E90047E2E702B9C3
:10C46000FFDEB2FA82F3002B40F09D808D1A4FEA76
:10C47000124E97B20121B5FBFEF20EFB1250250CB5
:10C4800045EA004507FB02F0A8420FD91CEB050561
:10C4900002F1FF382CBF4FF001094FF00009A8420C
:10C4A00003D9B9F1000F00F0CE8042462D1AA4B294
:10C4B000B5FBFEF00EFB105500FB07F744EA054400
:10C4C000A74208D91CEB040400F1FF3502D2A742B1
:10C4D00000F2B3802846E41B40EA02409DE7C1F128
:10C4E00020078B4005FA01F422FA07FCFD408A4040
:10C4F0004CEA030C20FA07F34FEA1C491C431FFACD
:10C500008CFE00FA01F3200CB5FBF9F809FB185575
:10C5100040EA054508FB0EF0A8420FD91CEB0505C3
:10C5200008F1FF3A2CBF4FF0010B4FF0000BA8426F
:10C5300003D9BBF1000F00F08C80D0462D1AA4B2B5
:10C54000B5FBF9F009FB105500FB0EFE44EA05456A
:10C55000AE4507D91CEB050500F1FF3401D2AE450D
:10C560007ED8204640EA0840A5EB0E05A0FB0298C5
:10C5700045454C46C64602D306D14B4504D2013848
:10C58000B9EB020468EB0C0E002E6FD01A1B65EBA2
:10C590000E0522FA01F305FA07F7CD4000211F43EB
:10C5A000C6E900753EE702FA03FCC3F1200001FA78
:10C5B00003F24FEA1C4EC14024FA00F51FFA8CF733
:10C5C0009C401543B1FBFEF02A0C0EFB101142EA11
:10C5D000014200FB07F191420ED91CEB020200F16F
:10C5E000FF382CBF4FF001094FF00009914202D9EA
:10C5F000B9F1000F31D04046521AADB2B2FBFEF194
:10C600000EFB112245EA024501FB07F2AA4207D9B7
:10C610001CEB050501F1FF3801D2AA4223D841469F
:10C62000AD1A41EA004126E731463046FAE6841A5F
:10C6300065EB030301201F460CE7644402384AE718
:10C6400064440238E4E6023A65442FE70239624462
:10C65000C9E6A8F10208654470E702386244CBE7F6
:10C66000023865447EE702396544D9E73146D9E6A8
:10C67000704700BF00000000F7B5654DD5F84431A4
:10C68000996811F001011BD140F6034001AA06F0A0
:10C690009FFC0446002840F0B880019B9B681B78F3
:10C6A0005BB905F19803D3E8AF2F02F00502D3E898
:10C6B000EF1FC3E8E02F0028F9D101980FF0A2F88E
:10C6C000002141F2030001AA06F082FC0446002882
:10C6D00040F09B80019B082299684E4801311AF076
:10C6E00026FA01980FF08EF8214641F2010001AAC6
:10C6F00006F06EFC0446002840F0878001988368AD
:10C700005A7885F83420D9789A7842EA0122EA8664
:10C710001A7985F83520197ADA7942EA01222A87CE
:10C720005A799B7942EA03236B870FF06BF8214615
:10C7300041F2020001AA06F04BFC0446002864D135
:10C74000019B40229968344801311AF0F0F90198B0
:10C750000FF058F808F088F90446002855D195F8EC
:10C760004E309A061AD42D492D4B2E48C91AC908A5
:10C77000890141F0020118F01CFE95F840305B067B
:10C7800054D4274B25492848C91AC908890141F0C2
:10C79000010118F00EFE6FF0120436E0072140F69A
:10C7A000334006F0C9FB074610B96FF068042CE06F
:10C7B000072108300FF098F92146072206461AF0A3
:10C7C000E1F96FF00403337006232246747034716C
:10C7D000394640F63340F37006F0FAFB0446A0B940
:10C7E000012140F6314006F0A7FB06460028DCD0C8
:10C7F000012108301CF085FC2246314640F63140CC
:10C8000006F0E6FB04460028B7D0204603B0F0BD92
:10C81000000000203C00002044000020CCB40200B6
:10C820008CB4020086E50200B4E50200002142F269
:10C83000030001AA06F0CCFB04460028E5D1019BC9
:10C8400008229968C04801311AF071F901980EF078
:10C85000D9FF214642F2020001AA06F0B9FB0446C4
:10C860000028D2D1019B9B68B3F8012091B2A5F8B2
:10C87000CC2021B1DA78B54811461EF0F8FA0198BB
:10C880000EF0C0FF95F8406016F0200600F006811B
:10C8900095F860301F0712D5002142F21C0001AA52
:10C8A00006F096FB04460028AFD101988368D3F8C0
:10C8B0000120D3F80530C5E92A230EF0A3FF95F82F
:10C8C000A0309E0624D568460DF1020106F0FAFB61
:10C8D0000446002899D1042142F2240006F02CFBE2
:10C8E000064600283FF461AF042108300FF0FCF841
:10C8F000BDF8003022460380BDF802303146438047
:10C9000042F2240006F064FB044600287FF47DAF69
:10C9100095F8A0305C0610D5002142F22A0001AA49
:10C9200006F056FB044600287FF46FAF0198836839
:10C930005B7885F8E8300EF065FF082142F20100CF
:10C9400006F0FAFA044600283FF42FAF0821084405
:10C950000FF0CAF895F8A01040F2022311F0400F32
:10C9600008BF0323024688074CBF43F02C0043F066
:10C970000C0095F8A1308F0648BF40F0400013F03E
:10C98000090F95F8663018BF40F4006003F0060305
:10C99000CE0748BF40F01000062B08BF40F4C0701F
:10C9A00000211AF0EBF92146002242F2010006F0C4
:10C9B0000FFB044600287FF428AF95F84030980616
:10C9C0001ED4B5F8CC10D9B941F2050001AA06F081
:10C9D000FFFA044600287FF418AFB5F8CC3063B9ED
:10C9E000019B9B685A78997842EA0122A5F8CC20ED
:10C9F0009A88564811461EF03AFA01980EF002FF46
:10CA0000082140F6014006F097FA044600283FF45A
:10CA1000CCAE082108440FF067F895F8A030024624
:10CA2000D90756D546A1D1E900011AF0A7F9214648
:10CA3000002240F6014006F0CBFA044600287FF4BD
:10CA4000E4AE014601AA4FF6014006F0C1FA0446E1
:10CA5000002842D03E493F4B3F48C91AC9088901C6
:10CA600041F0020118F0A5FC1AF0DAFA0446002899
:10CA70007FF4CBAE08F0CAFF044600287FF4C5AEB1
:10CA8000EB79002B7FD1334B31493448C91AC9089F
:10CA9000890141F0030118F08CFCB6E6022140F652
:10CAA0006D4006F049FA044600283FF47EAE0221AC
:10CAB00008300FF019F80123214603704670324602
:10CAC00040F66D4006F084FA044600283FF4E0AEDC
:10CAD0009BE64FF000512248A7E701980EF092FE26
:10CAE00021464FF6024001AA06F072FA044640B110
:10CAF0001749184B1B48C91AC908890141F002019E
:10CB0000B0E7019B02229968174801311AF00FF82B
:10CB100001980EF077FE95F885305B07A4D5214685
:10CB20004FF6034001AA06F053FA08B30849094B2F
:10CB30000E48C91AC908890141F0020192E700BFF5
:10CB40009088000200800020A0000020D00000207B
:10CB5000CCB402008CB40200D8E502004EE602001C
:10CB600010880002FCE502008500002025E6020096
:10CB70000122019B07489968114419F0D8FF0198D8
:10CB80000EF040FE70E7042103481AF0ECF807F0BD
:10CB900039F83AE6840000209800002013B5074CCD
:10CBA0000748001BC008800140F00300ADF80000FA
:10CBB000044818F038FC02B010BD00BF8CB402006D
:10CBC00084B5020086C302000A4608B5014600206B
:10CBD00004F0F0FA58B1064B06490748C91AC908CB
:10CBE000890141F00201BDE8084018F0E2BB08BD30
:10CBF0008CB4020084B50200AFC302000C4A0D4B96
:10CC000010B5D21AD208920131B1BDE810400A48DD
:10CC100042F0010118F0CDBB42F003041BF0A6FD69
:10CC20002246BDE810400146044818F0CFBB00BFC3
:10CC300084B502008CB40200D7C30200EBC302002B
:10CC4000022808B515D00638012820D81049114B04
:10CC50001148C91AC908890141F0030118F0A9FB5C
:10CC6000002001F0E7FE0028FAD1BDE8084001F0FD
:10CC7000C3BC084B06490948C91AC908890141F0D3
:10CC8000030118F096FBBDE8084011F09FBC08BDF9
:10CC900084B502008CB40200FDC302000AC4020085
:10CCA00008B54FF0FF324FF0FF33034814F0A0FEF9
:10CCB00000F016FCFCE700BF8C08002070B503787C
:10CCC0008AB004460E4607AD032B20D8DFE803F0F8
:10CCD00002191B1D1149284619F0B7FE63781E2161
:10CCE0000493A37830460393E3780D4A02932379A3
:10CCF0000595019363790093A37918F08FF80AB032
:10CD000070BD0849E7E70849E5E70849E3E70A2174
:10CD10002846074A18F082F8E0E700BF2CC402005A
:10CD20004EC4020033C402003AC4020044C40200EC
:10CD3000ACFA020070B504460D46002188B01646D4
:10CD400001A81A22009119F01DFF20461AF04FFB8E
:10CD50006946FFF7B3FF0A4C0A4A6846A41A01F075
:10CD600027FEE408A40144F00304014622460648D5
:10CD700018F02CFB3146284600F06CFB08B070BD63
:10CD800084B502008CB4020071C4020030B589B0D1
:10CD90000D461AF02CFB6946FFF790FF084C094B33
:10CDA0006846E41A01F004FEE408A40144F0030418
:10CDB000014623462A46044818F01CFB09B030BD42
:10CDC00084B502008CB4020088C4020030B589B07A
:10CDD0000D461AF00CFB6946FFF770FF084C094B33
:10CDE0006846E41A01F0E4FDE408A40144F00304F9
:10CDF000014623462A46044818F0FCFA09B030BD23
:10CE000084B502008CB40200ABC4020010B588B037
:10CE10001AF0EDFA6946FFF751FF084C084A6846D8
:10CE2000A41A01F0C5FDE408A40144F0030401467E
:10CE30002246044818F0CAFA08B010BD84B50200B2
:10CE40008CB40200CDC4020030B589B00D461AF092
:10CE5000CEFA6946FFF732FF084C094B6846E41AE0
:10CE600001F0A6FDE408A40144F0030401462346B2
:10CE70002A46044818F0BEFA09B030BD84B5020055
:10CE80008CB40200E3C4020010B5044688B01AF066
:10CE9000AEFA6946FFF712FF204608F07BFD084C0A
:10CEA000084A6846A41A01F083FDE408A40144F08E
:10CEB000030401462246044818F088FA08B010BD61
:10CEC00084B502008CB40200F8C4020030B589B009
:10CED0000D4604461AF055FA0E4B186020461AF01B
:10CEE00086FA6946FFF7EAFE0B4C0C4B6846E41ADB
:10CEF00001F05EFDE408A40144F00304014623466A
:10CF00002A46074818F076FA2146064818F051FAE2
:10CF100009B030BD1016002084B502008CB40200A8
:10CF2000E3C402000EC5020070B516468AB00D4675
:10CF30001AF05DFA02A9FFF7C1FE1048104BC01AA3
:10CF4000C008800166B940F0030402A801F030FD7A
:10CF5000234601462A460B4818F04CFA0AB070BD29
:10CF600040F0020402A801F023FD334601462A46A0
:10CF70000548ADF8004018F056FAEFE784B5020016
:10CF80008CB402003DC502005BC5020030B589B01B
:10CF90000D461AF02CFA6946FFF790FE114C124B21
:10CFA0006846E41A01F004FDE408A40144F0030417
:10CFB00023460E4C01462A460D4818F01BFA2068FD
:10CFC00018B108F0D9F9002323600A4C206830B169
:10CFD00008F0D2F90023012023601CF021FE09B0E3
:10CFE00030BD00BF84B502008CB4020010160020D2
:10CFF0007FC502001416002070B51B4B1B4C054664
:10D00000E41AE40888B0A40139B1194844F00102D7
:10D0100008B0BDE8704018F0D9B91AF0E8F96946CF
:10D02000FFF74CFE684601F0C3FC44F003060146DE
:10D030003246104818F0CAF928461AF0A2F90E4BE9
:10D040000E4918600E4B28460B600CF03FF9C0B239
:10D0500020B10C4844F0010118F0ABF901201CF09C
:10D06000DCFD08B070BD00BF8CB4020084B50200C6
:10D070009CC50200B7C50200141600201816002037
:10D08000FDCB0000D7C3020038B5184C034620681A
:10D0900050B303EA0105EA0711D508F05FFC144B11
:10D0A000144A2168D21AD2089201134842F00302AE
:10D0B00018F08CF9206808F05FF900232360AB07B3
:10D0C00012D5206808F058FC094B0A4A2168D21A88
:10D0D000D2089201094842F0030218F077F920685B
:10D0E00008F04AF90023236038BD00BF1016002065
:10D0F0008CB4020084B50200C4C50200DBC5020086
:10D10000012010B511F088FA014648B10D4A0E4BC6
:10D110000E48D21AD208920142F0020218F056F9D3
:10D120000B4810F0F9FD044650B1064A064B014683
:10D13000D21AD2089201074842F0020218F046F9CA
:10D14000204610BD84B502008CB40200F3C5020075
:10D1500041CC00000CC60200F0B53A4B3A4C3B49BA
:10D16000E41AE408A4013A4A3A4889B044F00303B7
:10D1700018F040F9384810F0EDFA014620B1374870
:10D1800044F0010218F022F910F060FA014620B1D3
:10D19000334844F0010218F019F9324800F032F92E
:10D1A000054608B117F088FD2F4807F04DFF2F48BE
:10D1B00008F0B8FB284606F037FD0028F2D12C48CD
:10D1C00044F0030118F0F5F82A4814F0CDFB18F0EC
:10D1D000CEFD294803F0E2FF014638B1274844F06C
:10D1E000010209B0BDE8F04018F0F0B8FFF788FF81
:10D1F000054620B1014644F001022148F1E7214FE4
:10D2000003AE0FCF0FC63B681F49336001230222D4
:10D21000009303A81D4B07F065FB014620B11C4895
:10D2200044F0010218F0D2F8013505F0010148BFC1
:10D230004942002010F090FB00214FF4004016F00E
:10D2400037FAF1E78CB4020084B5020028C6020068
:10D250001CC6020031C6020089D0000051C602007F
:10D260006FC60200C9CB000034020020100200206B
:10D270008AC602008C08002054020020A0C60200CA
:10D28000CCC6020050B60200E8B60200F8B60200B2
:10D29000E4C6020070B50B780C46052B00F28980BD
:10D2A000DFE803F003882E677A4F474B474D486805
:10D2B000ED1AED08AD018968061F45F003024448E8
:10D2C00018F084F830461DF006FF00220023414884
:10D2D00014F0DCFA014600286BD03F4BB1F8042172
:10D2E0001868836804315C684FF0FF33A04700285A
:10D2F0005FD03A4845F00201BDE8704018F059B8D7
:10D300004FF484701DF0EEFED4E901130546E26887
:10D310001944043019F00BFCE36829463048A5F89D
:10D3200004311DF08FFD294A274BB5F80411D21A9C
:10D33000D20892012B4842F00302BDE8704018F079
:10D3400045B8214B214C2848E41AE408A40144F0D4
:10D35000030118F02EF8204B186883682349DD6814
:10D36000FF223223A847014618B3214844F00102A6
:10D37000E3E7194B1F49186809688368FF221B6996
:10D3800098470146A8B1114A0F4B1B48D21AD20840
:10D39000920142F00202D0E70B4B0C491748C91A20
:10D3A000C908890141F0030118F003F86268114BC4
:10D3B0001A6070BD0549044B1148C91AC908890192
:10D3C00041F0030198E700BF8CB40200E4B502000D
:10D3D0002AC702000C090020201600203AC70200CC
:10D3E000F00800204CC702005BC70200304A002052
:10D3F0006CC702006002002086C702009AC70200C4
:10D40000AFC7020070B504460D4813F099FA0D4DF0
:10D41000286088B1836800221B680B49984768B967
:10D420000A4B28681C608368FF22DC680849A44610
:10D43000BDE87040322360476FF0050070BD00BF4B
:10D44000BFC702002016002095D200001C16002045
:10D45000304A0020F8B507464FF484700D461DF0A1
:10D4600041FE044668B9184B18491948C91AC90839
:10D47000890141F0020117F09CFF6FF00B0528466F
:10D48000F8BD061D2A463946304619F050FB114BAF
:10D49000A4F80451186883682A465F6831464FF043
:10D4A000FF33B84705460028E9D0074B07490A482B
:10D4B000C91AC908890141F0020117F07AFF214613
:10D4C00006481DF0BFFCDAE78CB40200E4B50200A8
:10D4D000C6C7020020160020F1C702000C09002078
:10D4E00010B54FF0FF324FF0FF33074814F0CEF97C
:10D4F0000446064BB0F804111B68043098472046D8
:10D50000BDE810401DF0E7BDF00800201C1600200B
:10D5100030B50A4C0A44914200D130BD11F8013BAC
:10D5200058400309E35C83EA0013DDB2C3F303133D
:10D53000E05C80EA0510C0B2EDE700BF1DC8020044
:10D54000436870B503F00303022B04460E46816066
:10D5500010D0032B04D0012B0FD10025284601E069
:10D56000056800200023636010B1314617F066F9AA
:10D57000284670BD00250068F4E74523054A0649A2
:10D58000064817F03EFC4521024817F0D7FE00255B
:10D59000E7E700BF2DC80200FA07030050C80200E9
:10D5A0000B6801330B60014B1B68184764020020B5
:10D5B000014B1860704700BF6402002007B50B469E
:10D5C000002102460191034801A900F053FC03B079
:10D5D0005DF804FBA1D5000030B5002585B0CDE98C
:10D5E0000101044601A90548039500F043FCDDE96B
:10D5F00002309842B8BF255405B030BDDD4D020061
:10D600002DE9F74FB0F81C90044619F0080F00926E
:10D6100022D001290CBF49F0100949F02009A0F8D7
:10D620001C901434204613F055FE68B9AC239B4A75
:10D630009B499C4817F0E5FB21469B4817F0E1FB0E
:10D64000AC21964817F07AFE009B83F31188BFF354
:10D650006F8F03B0BDE8F08F944FDFF8488209F078
:10D660000709022906D1204617F0E5FB0028D8D08B
:10D67000012864D1D4F818B0A38BBBF1000F19DADC
:10D680000026256823F00703C4E9006643F0010380
:10D69000A383A38B03F007024A45019203D0A2683B
:10D6A000002A40F0138115B9002E00F059814FF087
:10D6B000000A0DE103F00702511F012920D80021C3
:10D6C00023F00703062A25689BB2C4E900110AD19A
:10D6D0003DB12946E28B0968013292B20029FAD1A4
:10D6E000E28343F002032046A38317F0A4FB06461F
:10D6F0000028CED0A38B43F02003A3830026C8E7E5
:10D70000042A0DD123F007039AB22046A28317F012
:10D7100092FB054688B142F020020025A283EDE786
:10D7200040F21B133A464046614917F06AFB40F24B
:10D730001B11384617F002FE00252E46A9E70328E4
:10D7400034D1B9F1000F0BD040465A494FF4AB73B6
:10D750003A4617F056FB4FF4AB71384617F0EEFD22
:10D7600023685BB94046544940F257133A4617F0D4
:10D7700048FB40F25711384617F0E0FD23691E6858
:10D780005EB940464D494FF4AD733A4617F039FB48
:10D790004FF4AD71384617F0D1FDA38B23F007038A
:10D7A00043F006030025A383AB4672E7042831D17A
:10D7B000B9F1020F0BD04046414940F25D133A46A1
:10D7C00017F01FFB40F25D11384617F0B7FDE38BF1
:10D7D0005BB140463B494FF4AF733A4617F011FB3B
:10D7E0004FF4AF71384617F0A9FD23695E685EB942
:10D7F0004046324940F261133A4617F002FB40F2CC
:10D800006111384617F09AFDA38B23F0070343F00C
:10D810000403C7E7052831D1B9F1010F0BD0404609
:10D8200029494FF4B2733A4617F0EBFA4FF4B2714C
:10D83000384617F083FD23685BB940461E4940F225
:10D8400065133A4617F0DDFA40F26511384617F0D5
:10D8500075FD23699E685EB9404618494FF4B4735C
:10D860003A4617F0CEFA4FF4B471384617F066FD19
:10D87000A38B23F0070343F0050393E7002540F251
:10D880006B133A4640460A4917F0BBFA40F26B1157
:10D89000384617F053FD2E4686E700BF10C9020038
:10D8A00036C9020050C802004DC902006DC802000E
:10D8B000FA0703008FC802009BC80200BEC802001E
:10D8C000D5C80200EBC80200FAC802004FF0010AF6
:10D8D00043F0080304F114094846A38313F0FAFC4B
:10D8E00068B9AC234046374A374917F08AFA4946A7
:10D8F000364817F086FAAC21324817F01FFD009B1E
:10D9000083F31188BFF36F8FBAF1000F37D1002D69
:10D9100047D116B120462E49B0474FF02003EFF310
:10D92000118B83F31188BFF36F8F4846CDF800B099
:10D9300013F0C2FC68B981234046224A254917F0FA
:10D9400060FA4946244817F05CFA81211D4817F017
:10D95000F5FC484613F0CCFCA38B23F00803A3830B
:10D96000A38BDA0625D5012123F01003A383B4F895
:10D970001C9009F0070900297FF473AE51E6A168F5
:10D980000029C4D0D1F800A04B6820469C46019ADB
:10D990005B46E047BAF1000FB9D05146DAF800A073
:10D9A000F2E729465B462046019A2D6817F05FFA98
:10D9B000ADE713F020011EBF23F020030221A38353
:10D9C000D5E700BF10C9020036C902004DC90200E8
:10D9D000DDD9000062C9020077C90200F8B504462B
:10D9E0000D4600F114064FF02003EFF3118783F387
:10D9F0001188BFF36F8F304613F05EFC68B9812346
:10DA00000B4A0C490C4817F0FCF931460B4817F04B
:10DA1000F8F98121064817F091FC304613F068FCB4
:10DA20003A462046A5610121BDE8F840FFF7E8BD70
:10DA300010C9020062C9020050C8020077C9020082
:10DA40002DE9F04704460F4617F027FA051E5EDB66
:10DA500004F114094FF02003EFF3118A83F31188C6
:10DA6000BFF36F8F484613F027FC68B98123384A0B
:10DA70003849394817F0C5F94946384817F0C1F90F
:10DA80008121334817F05AFC484613F031FC4FF619
:10DA9000FF71E38BA28B8B4202F0070650D0022E5F
:10DAA00024D135464FF001080133E383484613F093
:10DAB00011FC68B9AC23264A2949274817F0A1F977
:10DAC0004946284817F09DF9AC21214817F036FC4B
:10DAD0008AF31188BFF36F8FB8F1000F17D00023BE
:10DAE00032463946204617F0C2F910E0930701D0BC
:10DAF000062E0FD100233B606368F3B9C4E90077B9
:10DB00003546FEB9524602212046FFF779FD2846E8
:10DB1000BDE8F087052E18D0012E0BD012490E4813
:10DB200040F2C913114A17F06CF940F2C9110F48BD
:10DB300017F004FC6FF0040504E01F606760DFE786
:10DB40006FF00A054FF00008B0E76FF08505F9E7C0
:10DB500010C9020062C9020050C8020077C9020061
:10DB600036C902004DC90200FAC802006DC80200A1
:10DB7000F8B50E46002943D005680122AB68284657
:10DB8000B3F5004F2CBF082404240C1B641BE408CD
:10DB9000214617F0AEF9C3070DD49A23194A1A4942
:10DBA0001A4817F02EF93146194817F02AF99A2128
:10DBB000144817F0C3FB2146284617F0B0F9271880
:10DBC00039460022284617F094F93F1ABC420DD07E
:10DBD000A2230C4A0F490D4817F013F931460E489D
:10DBE00017F00FF9A221074817F0A8FB2146284695
:10DBF000002217F09AF92146BDE8F84017F0CEBA96
:10DC0000F8BD00BF8FC90200B0C9020050C80200B1
:10DC1000C1C90200F9C902001FCA02002DE9F0477C
:10DC200006681446B3684A42B3F5004F2CBF082576
:10DC3000042502EA010731EA02021ED0BD4228BFD4
:10DC40003D46B946CF1B07F1FF3A1AEA070F0ED03F
:10DC5000354940F20D13354A354817F0D2F83548AA
:10DC600017F0CFF840F20D11304817F067FB74B988
:10DC70004FF000094846BDE8F087A94204D8214684
:10DC8000BDE8F04717F0CCBA4FF00009DBE7B06809
:10DC9000B0EBD40FECD93919491B17F062F90146E2
:10DCA000304617F0B9F980460028E1D0B36809EB97
:10DCB000C005B3F5004F2CBF082304231D44354491
:10DCC00055447F422F40A7EB09094C44A9EB0303BD
:10DCD00007349B1B24F00704A41BB0EBD30F4FEABF
:10DCE000D3074FEAE40408D201463A46304617F01B
:10DCF000CDF94146304617F00EFA3946304617F056
:10DD00000EF93844844208D239463046224617F08C
:10DD1000BDF92146304617F0FEF90122394630465A
:10DD200017F003F9A6E700BF5BCA02008FC9020023
:10DD300050C8020076CA0200B2F5802FF8B5074637
:10DD40000C46164612D2042A0ED844494FF4C17329
:10DD5000434A444817F055F8434817F052F84FF437
:10DD6000C1713F4817F0EAFA042200E00822B61A0F
:10DD7000E51D344425F0070524F00704641B172C27
:10DD80004FEAD4060ED8394940F28B13344A35484D
:10DD900017F037F8344817F034F840F28B11304858
:10DDA00017F0CCFA00233D6031463046AE60EB60A0
:10DDB00017F0E0F801218400471C304617F0D1F835
:10DDC0001B34E4082044B0420ED329494FF4CB73EE
:10DDD000234A244817F015F8234817F012F84FF497
:10DDE000CB711F4817F0AAFA0023194605F110025B
:10DDF000BB422EDB22462846002117F0AEF8002356
:10DE000028461A46194617F07FF8371B1946284648
:10DE1000012217F08AF83A46214617F09EF8234669
:10DE200000222146284617F06FF83146284617F0A1
:10DE300094F83B4631462846002217F065F83146F3
:10DE40002846012217F071F82146BDE8F84017F086
:10DE500062B942F8041B0133CAE700BF93CA02004B
:10DE60008FC9020050C80200B4CA0200CDCA020025
:10DE7000F6CA02002DE9F04F8B4692461C4600255B
:10DE800091B002909AF8000008B928465FE325286F
:10DE90000AF1010707D05946029B98470028C0F2B3
:10DEA0005683013512E2182200210AA818F06AFEF2
:10DEB0009AF80130252B78D00022104696469446D9
:10DEC0001646394617F8013B2B2B00F09D8000F2D7
:10DED0009480202B00F09B80232B00F09B802EB1A0
:10DEE0009DF8306046F004068DF83060BCF1000FFC
:10DEF00005D09DF8306046F008068DF83060BEF120
:10DF0000000F05D09DF8306046F010068DF83060A7
:10DF100028B19DF8300040F020008DF830002AB183
:10DF20009DF8302042F040028DF830209DF83020DE
:10DF300002F04400442803D16FF386128DF830209C
:10DF40009DF830202A2B42F080028DF830207BD1C2
:10DF50009DF831204B1C42F001028DF831201A78D7
:10DF60002E2A0CBF012100219DF8312061F34102CE
:10DF70008DF8312074D15A782A2A6AD000210A26D5
:10DF80000133184610F8012BA2F13007092F40F297
:10DF90008E809DF830200E91C2F3400040EAD1718E
:10DFA00061F341028DF830205AE00AF102078DF842
:10DFB00033309DF83130D90740F1498154F8049B42
:10DFC000B9F1000F07DA9DF83020C9F1000942F0DD
:10DFD00004028DF830205A0740F1428154F8048B36
:10DFE000B8F1000F80F241819DF831306FF34103A9
:10DFF0008DF831304FF0FF3837E12D2B0CD0302B1E
:10E000007FF46DAF01225CE74FF0010C59E74FF050
:10E01000010E56E7012054E7012652E733460CFB78
:10E020000202303A1E4616F8010BA0F13007092F04
:10E03000F4D9994293D09DF830100D92D20F62F32B
:10E0400041018DF830108AE70B4600224FF00A0C90
:10E05000E8E79DF83120023342F004028DF83120C8
:10E060001F4617F8012B6C2A41D025D8682A2BD0DF
:10E070006A2A46D04C2A4CD01F4617F8012B9DF82F
:10E080003130782A8DF8332000F2D980572A4DD8C4
:10E09000412A03D0453A022A00F2D18004229DF899
:10E0A000323062F302038DF8323001239EE006FB2A
:10E0B00001210346303964E7742A26D07A2ADBD15D
:10E0C00006229DF831300DE05A78682A9DF83120FB
:10E0D00006D1012161F3C6028DF831209F1CCCE7E7
:10E0E0001346022262F3C6038DF83130C5E75A7831
:10E0F0006C2A9DF8312001D10421EBE7134603225D
:10E10000F0E705229DF83130ECE707229DF8313029
:10E11000E8E7BDF8303023F4F04323F0020343F482
:10E12000804343F00203ADF83030A6E7A2F1580176
:10E13000202900F2848001A050F821F001E20000C3
:10E140003FE200003FE200003FE200003FE200004B
:10E150003FE200003FE200003FE200003FE200003B
:10E160009DE000003FE2000001E20000C1E100008C
:10E170009DE000009DE000009DE000003FE2000007
:10E18000C1E100003FE200003FE200003FE200008A
:10E190003FE2000009E2000001E2000025E2000089
:10E1A0003FE200003FE2000025E200003FE2000005
:10E1B00001E200003FE200003FE2000001E2000057
:10E1C00001209DF8321003F0780360F30201402B28
:10E1D0008DF8321002BF9DF8301041F001018DF82A
:10E1E0003010632A31D1003B18BF01239DF8302045
:10E1F000C2F340010B4363F341028DF83020D8E6AF
:10E2000002209DF83210DEE703219DF8322003F052
:10E210007803A3F1400061F3020243428DF83220FB
:10E220004341E3E703219DF8322013F0780F61F3B7
:10E23000020214BF012300238DF83220D6E79DF897
:10E24000303043F001038DF830300023CEE79DF9E4
:10E250003020002AACBF4FF0FF39DDF83490BAE629
:10E260009B077FF5C7AEDDF838800023CDE90D337D
:10E270009DF832309DF8311003F00703012BC1F3F4
:10E28000C30138D1CB1E042B22D8DFE803F00309E9
:10E290000921210054F8043BDA17CDE90A3206E0DF
:10E2A000073424F00704F4E80223CDE90A239DF89B
:10E2B000303013F0030656D03B465246594602987A
:10E2C00017F026F80028C0F242810544BA46D9E585
:10E2D00054F8043B01294FEAE372CDE90A3205D133
:10E2E0009DF828300A9300230B93E0E70229DED142
:10E2F000BDF92830D0E7022B23D1CB1E042B13D835
:10E30000DFE803F0030A0A12120000232268201D2E
:10E310000A920B930446CAE7E01D20F00700F0E8DC
:10E320000223CDE90A23F5E754F8043B01290A93B7
:10E330004FF000030B93D3D00229B8D1BDF8283099
:10E34000D0E7042B09D1E31D23F0070303F10804F0
:10E35000D3E90023CDE90A23A9E7032B04BF54F82E
:10E36000043B0A93A3E79DF833007828AED86228CF
:10E3700022D825283FF48FAD5828A7D1DDE90A011E
:10E380000DF1260300930CAA04AB16F07BFF824626
:10E39000B8F1000F0DF126000CDB9DF83020A0EB4A
:10E3A0000A036FF3861298458DF8302002D9A8EB46
:10E3B00003030D9380463DE06338152886D801A2FB
:10E3C00052F820F045E40000A9E40000CDE200008E
:10E3D000CDE20000CDE20000CDE20000A9E40000A3
:10E3E000CDE20000CDE20000CDE20000CDE2000071
:10E3F00003E50000D1E40000D5E40000CDE2000018
:10E40000CDE200001DE40000CDE20000D1E40000F8
:10E41000CDE20000CDE20000D1E40000B8F1000F31
:10E42000DDF828A00ADB4146504618F031FB0026F3
:10E430000AEB0008BAF1000F0CD147E7504618F07C
:10E4400020FBF4E700260A9B0DF1100A8DF810302E
:10E450000DF11108A8EB0A0306B101339DF8322033
:10E46000D00668D5023352060D9948BF0E9A0B4468
:10E4700048BF9B18B9F1000F76DD9DF83020A9EB5D
:10E480000309C2F38003039353076DD4500661D58B
:10E4900046B159463046029B9847002857DB039BFC
:10E4A00001351E46302356E01E070FD413F0100628
:10E4B00018BF2026DDE90A23002BBFF65FAF5242CA
:10E4C00063EB43032D26CDE90A2357E72B26F1E71B
:10E4D000002653E70A9840B30DF12603009300216C
:10E4E00004AB0CAA16F0CEFEBDF83230824603F023
:10E4F000EF0343F4F04343F010030026ADF832304D
:10E5000046E70A9B07293FF6E1AEDFE801F00C047D
:10E51000060C08080C0C1D70D8E61D80D6E6EA171C
:10E52000C3E90052D2E61D60D0E6DFF8C8A0064677
:10E530000AF105088EE7110748BF013393E7184633
:10E5400003935946029B98470028039B04DA11B0B5
:10E55000BDE8F08F20234D444A46002AA5EB09016F
:10E5600009F1FF39EBDC0D4636B159463046029BC6
:10E5700098470028EBDB01359DF83230D90601D4ED
:10E580001A0706D559463020029B98470028DEDB43
:10E5900001359DF83230DB0607D559469DF833002A
:10E5A000029B98470028D2DB01350D9E2E44731B39
:10E5B000002B16DC434652465946029816F0A8FE38
:10E5C0000028C4DB0544A944A9EB0503002B7FF711
:10E5D0007DAE59462020029B98470028B7DB0135C5
:10E5E000F2E759463020029B98470028AFDB0135FF
:10E5F000DDE700BF20CB0200044608B54FF0200243
:10E60000EFF3118382F31188BFF36F8F17F024FDAE
:10E61000204603F057FC034816F0F3FB03F030F9F3
:10E62000FCE700BF26CB02004FF0FF33C340DB07FF
:10E6300010B504460BD40C490C484FF405730C4A32
:10E6400016F0DFFB4FF40571094816F077FE094814
:10E6500000EB8400D0F8003223F0E04343F0405355
:10E66000C0F8003210BD00BF82CB020050C80200CB
:10E670004FCB02000025845070B54FF02003EFF31C
:10E68000118683F31188BFF36F8F01240C4B0D4D5E
:10E69000C3F8004502230020C5F8D036FFF7C4FFB9
:10E6A0002046FFF7C1FFC5F80447C5F80449C5F87F
:10E6B000004B86F31188BFF36F8F002070BD00BF41
:10E6C000001000500040005048B1054B1A68054B3F
:10E6D000B2FBF3F2044B504343F001031847704779
:10E6E0009404002040420F00E0B6020084B004AB66
:10E6F00003E907009DF80430062B07D10122044BE3
:10E70000C3F80025BFF34F8F20BFFDE704B070476B
:10E710000040005030B5002289B00F490F481CF06E
:10E7200071FC002200230024CDE906230E230C4DAA
:10E73000CDE903344FF440722846CDE90144094B3A
:10E740000949009412F0E0FC084928461CF044FBFB
:10E75000204609B030BD00BF71E70000500B00201B
:10E76000880B002091EB000040550020A9CB02004F
:10E77000014813F0F9B800BFA40800202029F8B51B
:10E7800005460C4609D9144914488023144A16F04A
:10E7900038FB8021124816F0D1FD002001270346E6
:10E7A000024615F8011B09B1A34200D3F8BD252983
:10E7B00002D182F00102F4E7002AF2D041F02006F3
:10E7C000613E192EEDD8732904BF07FA03F21043F6
:10E7D00001330022E5E700BFDECB020050C8020093
:10E7E000B1CB0200002210B50A4B4FF400401A7062
:10E7F000094B0A4A1A6000F09FFD00F0A1FA084890
:10E8000016F0B1FDBDE8104008234822054906482E
:10E810001CF0C0BA2F4C002068020020AB5302004D
:10E8200030160020788700203816002010B54FF0F1
:10E830002003EFF3118483F31188BFF36F8F044833
:10E8400016F0A1FD84F31188BFF36F8F10BD00BFD8
:10E8500030160020044BD3E8EF2F0132C3E8E12F3C
:10E860000029F8D1704700BF28160020002002467A
:10E87000034BD3E8EF0FC3E8E12F0029F9D170472C
:10E8800028160020F8B5FFF7F1FF002607460A4CCE
:10E890000A4D2D1B2D11AE4200DBF8BD204616F0AF
:10E8A00078FD28B123681B6913B139462046984783
:10E8B00001361034EFE700BFF4B5020004B60200E1
:10E8C000044A054B9B1AB1EBD30F34BF52F8310009
:10E8D000002070478CB40200F4B5020070B5104CF3
:10E8E0000546041B241101340E46E4B248B90D4913
:10E8F0000D48D1230D4A16F084FAD1210B4816F0A9
:10E900001DFD01226B681C71094C1E605A71237831
:10E9100013B9084813F028F80123237070BD00BF15
:10E92000F4B5020027CC020050C80200F6CB02006A
:10E930002E4C0020A408002070B5174B174CE41A89
:10E94000902C0BD91649174840F24D23164A16F061
:10E9500058FA40F24D21144816F0F0FC134BD3E85E
:10E96000EF6F721CC3E8E12F0029F8D11EB9251101
:10E97000094CAE4200DB70BD237B53B123689B6919
:10E980000BB1204698476368042220461968FFF7B8
:10E99000A5FF01361034ECE7F4B5020004B602001E
:10E9A0003ECC020050C80200B1CB02002C16002061
:10E9B000144B37B59842044602D3134B98421CD3EC
:10E9C00000220023114801A912F06EFA0546B8B9D9
:10E9D0000122019BD3E8EF1FC3E8E02F0028F9D103
:10E9E000019821464122043018F039F87E23019C19
:10E9F00084F8453084F846500434204603B030BDD6
:10EA0000034CFAE7F8B002001C220300381600207D
:10EA100062CC020050B1064B984206D303F5107346
:10EA200098422CBF0020012070470020704700BF93
:10EA300078870020464B2DE9F74F1B78044603B931
:10EA4000E0B1FFF7F3FE054658B1424BD3E8EF2F94
:10EA5000013AC3E8E12F0029F8D19CB1284616F00D
:10EA60008AFD2CB93C4B1B68002B01DDFFF70AFF28
:10EA70003A4816F086FC041E18BF0124204603B055
:10EA8000BDE8F08F364B1B78BBB92B7ADB0714D46B
:10EA900016F080FD8146284616F04BFD014648469B
:10EAA000FFF76CFE0746DFF8BCA02F4BDFF8BCB0C9
:10EAB000A3EB0A03DB08019337B92D4E2D4F4FF01E
:10EAC0000008BF1B3F1140E0B7FA87F8C8F11F08E4
:10EAD0004146284616F030FD274B0246984202D3A5
:10EAE000264B98421FD31046FFF794FF0646D0B935
:10EAF000234B9A4217D06B89019AC3F3891393422F
:10EB000038BF5AF833605A46D0231E491E4816F0C3
:10EB100078F941461D484B46324616F072F9D0212D
:10EB2000584616F00BFC012303FA08F827EA0807F9
:10EB3000C2E7304616F02DFC20B133682946304636
:10EB40005B68984708F101081036B845F1DB85E7A6
:10EB50002E4C0020241600202816002030160020FD
:10EB60002F4C00208CB40200F4B50200B1CB02009F
:10EB7000F4B5020004B60200F8B002001C22030043
:10EB800062CC0200FA07030050C802007CCC0200ED
:10EB9000164B174A10B59B1A002B0BDC154916486B
:10EBA00040F26D53154A16F02CF940F26D5113489E
:10EBB00016F0C4FBFFF7C0FE14F0B2FD104B186056
:10EBC00030B1104B1B68092B02DD0F4812F0CCFE50
:10EBD0000D4C0020FFF72EFF0028FAD14FF0FF3236
:10EBE0004FF0FF33204612F003FFF2E704B60200B5
:10EBF000F4B50200BDCC020050C80200B1CB020047
:10EC00005816002024160020A4080020274B37B5F2
:10EC10001B68418104469847E0604FF02003EFF302
:10EC2000118583F31188BFF36F8F2148214616F0B9
:10EC30009EFB85F31188BFF36F8F1E4BD3E8EF2F38
:10EC40000132C3E8E12F0029F8D11B4A127882B1C2
:10EC50004FF02003EFF3118483F31188BFF36F8F1C
:10EC60000020FFF7E7FE84F31188BFF36F8F03B036
:10EC700030BD124A1B681268002AF8D0012B0AD155
:10EC8000002200230E48CDE900234FF40042002368
:10EC900015F0C2F9EBE70A2BE9D109481CF0BEF9DF
:10ECA000084803B0BDE8304012F05EBE68020020A4
:10ECB00030160020241600202F4C0020581600206B
:10ECC000500B0020A4080020F8B50F4F3D7875B90F
:10ECD000FFF732FE0D4C0E4E361B3611B54207DBE8
:10ECE0000020FFF7A7FE0028FAD101233B70F8BDF2
:10ECF000204616F04EFB18B1236820465B69984702
:10ED000001351034EAE700BF2F4C0020F4B50200B3
:10ED100004B6020007B504380190D0E8EF3F5A1E50
:10ED2000C0E8E12F0029F8D1012B03D1034801A944
:10ED300012F026F903B05DF804FB00BF381600207E
:10ED4000202302491A4602481CF024B8B889002042
:10ED50005C160020002337B5094D01930120FFF711
:10ED600069FE0446FFF776FD00220023284601A92C
:10ED700012F09AF808B1002CF0D1019803B030BD20
:10ED80005C160020002307B50022019306480023EB
:10ED900001A912F089F810B1FFF7DCFF019001988A
:10EDA00003B05DF804FB00BF5C160020F0B5037AE9
:10EDB00085B0DC0701901ED4457A2D091BD00024B4
:10EDC00026463146019816F0B7FB0746FFF722FEAC
:10EDD00070B134B9019B29461869FFF7CFFC04468E
:10EDE00048B124FA06F3D90702D53846FFF792FF57
:10EDF0000136AE42E5D3019B1A7A920704D55B69CE
:10EE0000084C0393039B2BB9064801A912F0B8F8EC
:10EE100005B0F0BD1D68204603A912F0B1F80395B6
:10EE2000F0E700BF5C1600200E2A2DE9F84F80465F
:10EE30000F4615460BD93149314840F23713314A54
:10EE400015F0DFFF40F237112E4816F077FAFFF782
:10EE500099FF044658B301234FF0000A032D436085
:10EE6000A0F808A00CD9037AA5F1020943F0020327
:10EE7000037200F1140BC0F814A0B9F1000F0EDCFE
:10EE8000637A032D65F30713C4F81080637219D8F1
:10EE90003946AA0004F1140017F049FE07E0FFF715
:10EEA00071FF064630B92046FFF780FF3446204602
:10EEB000BDE8F88FCBF80000A9F107098346C0F838
:10EEC00000A0DAE73946082204F11800D4F81480CB
:10EED00017F02DFE023D0837072D2E4628BF0726C6
:10EEE0004FEA8609394608F104004A4617F01FFE2A
:10EEF000AD1BD8F800804F44EED1D8E709CD020011
:10EF000050C80200DDCC02000EB403B503AB53F8C9
:10EF1000042B014604480193FEF7ACFF02B05DF8F4
:10EF200004EB03B0704700BF69F100002DE9F04722
:10EF30001D46089B1746DA0604460E4605D4990678
:10EF40004CBF2A492A49FFF7DFFF4FF00008DFF8DE
:10EF5000A490A8452ADB0025DFF89C80DFF89C9070
:10EF6000DFF890A0BD422FD249462046725DFFF7E0
:10EF7000CBFF0135102D20D120462149FFF7C4FFDA
:10EF80000025DFF87080DFF87C90AF4228D9725DF1
:10EF90004946A2F120035F2B28BF2E222046FFF70F
:10EFA000B3FF0135102D14D1BDE8F0874946204646
:10EFB000FFF7AAFF08F10108CBE76A07D2D1514653
:10EFC0002046FFF7A1FFCDE741462046FFF79CFF13
:10EFD000CFE76B07D9D141462046FFF795FFD4E72D
:10EFE00041462046FFF790FFDBE700BF50FD0200DF
:10EFF00014CD0200681703006617030017CD020046
:10F000001DCD02001FCD02002DE9F04F11F00206C8
:10F0100087B0059207461A469DF84080BDF9489092
:10F0200001F0010A01F0080506D011F0440F38D1B3
:10F030003349FFF769FF0646BAF1000F0AD0314B9A
:10F04000384653F82820304B3049002A08BF1A466A
:10F05000FFF75AFF3DB12E4B384653F828202D4973
:10F06000FFF752FF0546B9F1000F16DB059B002B99
:10F0700043D0012303FA08F8274B18F0100F274C50
:10F0800018BF1C4649469DF84400FFF719FC21466D
:10F0900002463846FFF738FF0544A81907B0BDE817
:10F0A000F08F1F4B196831B31E4B4FF461661B681C
:10F0B0004FF47A7BB2FBF3F3B3FBF1F4B4FBF6F25B
:10F0C00006FB124601FB14340BFB04F4B4FBF1FE07
:10F0D0004FF03C0C01FB1E44B6FBFCF30BFB04F4AD
:10F0E000B4FBF1F10CFB1366CDE901E100960E498A
:10F0F000FFF70AFF9FE708469DE7084CC2E700BFFD
:10F1000030CD020000B7020022CD0200E0C40200B0
:10F1100014B7020055CD02002CCD020027CD02000D
:10F120007C1600208016002039CD020038B50C4630
:10F13000E107054603D5084A0849FFF7E5FEE20660
:10F1400008D4A3062846BDE838404CBF0449054909
:10F15000FFF7DABE38BD00BF22CD0200E0C40200D6
:10F1600050FD020014CD020038B54B6805461A6800
:10F17000CB680C469A4202D1084616F07EFB6368C3
:10F18000D3E8EF2F511CC3E8E01F0028F8D1A36893
:10F190009D5463681A68E3689A4209D9054906488C
:10F1A0007323064A15F02DFE7321044816F0C6F8A5
:10F1B000002038BD8ACD020050C802005BCD02009D
:10F1C0002DE9F0478B7A044613F007080E461746E0
:10F1D0008AB022D00A7A4989D243C1F38911C3F394
:10F1E000C203CDE900830291F368394602F00102BF
:10F1F000FFF70AFF8146357AED4315F001050ED081
:10F200002146304616F0DCF9B8F1000F39D04246FD
:10F2100039462046FFF78AFF33E0C146EBE7B8F1F5
:10F22000000F34D1E3685BB92849294840F2CF1375
:10F23000284A15F0E6FD40F2CF11264816F07EF878
:10F240000027E36806AA069330463B46A16816F0FD
:10F25000A3F9069A63681A603AB1A368134413F8D5
:10F26000015CA5F10A035D425D41204616F005FBF5
:10F27000069B1F44002BE4D11DB120461649FFF721
:10F2800043FE20460AB0BDE8F04716F0F6BA304615
:10F2900016F080F9114902462046FFF735FE4FF07F
:10F2A000100A05AA2B46304606A9CDF814A016F080
:10F2B00073F9059A002AAAD04B462046009706A962
:10F2C000FFF734FE059B1D44EBE700BFBACD0200FB
:10F2D00050C802005BCD0200C7CD0200E0C40200AE
:10F2E00042F20F7373B58B4228BF0B460568044684
:10F2F000052168460D4A15F091FD064663682846CB
:10F300000B225B680A4916F04EF96368324669467B
:10F3100028465B6816F047F963681B2228465B683D
:10F32000044916F040F902B070BD00BFCAC4020023
:10F3300005CE0200E9CD020001230021074A10B5E5
:10F34000074C1360A04204D801B11360054B18604C
:10F3500010BD012140085B00F4E700BF80160020CB
:10F3600040420F007C1600200122014B1A707047AA
:10F37000404C00200122024B02481A7016F07DBA60
:10F38000414C002044B702000148FFF7A9BF00BF6D
:10F3900044B7020010B50C46084616F0C1F82146E5
:10F3A00004480F22FFF70CFF2046BDE8104016F07E
:10F3B000E2B800BF44B70200054B1B781BB141F215
:10F3C00088301BF0F0BDA420002114F071B900BFFB
:10F3D000414C00202DE9F04780460F460424DFF819
:10F3E0008890DFF888A099F80050CDB94FF0FF332E
:10F3F0004FF0FF32504611F099FF3A4641462846F9
:10F4000011F028FA0646504612F084F8184DFEB165
:10F4100001232B7099F800306BB93846BDE8F087AE
:10F420003A464146002011F015FA0646EEE75CB96F
:10F430002C704FF0FF34002011F058FA0028ECD067
:10F440002B78002BF3D1E8E7013CFFF7B5FFF2E79B
:10F450002B7813B1013C04D12C702B78002BC2D136
:10F46000DBE7FFF7A9FFF8E7414C00205008002038
:10F47000404C00202DE9F7430F4606460821C06A9C
:10F4800016F0CDFA80463C68DFF84890241A3C60BC
:10F4900004EA0905AC4203D8002003B0BDE8F083BC
:10F4A00008236A462146304616F013FA0028F4D1A4
:10F4B0006946304616F0BDFA40B1BDF80230BDF8DD
:10F4C000042005EA090513441D443C60A4EB08042C
:10F4D000E0E700BF0000FFFF2DE9F04F082193B0E7
:10F4E0000446C06A16F09BFA80466368E0891B0CEC
:10F4F0001B0401A9019316F087FA019BA1892046FC
:10F500001944A1EB0801082304AA029116F0E1F9BD
:10F510000028C0F28680E36A04AA1979002312F851
:10F52000010B81426ED10133082BF8D1204601999D
:10F5300016F02CFA75E0029BBDF812201B0C1B0480
:10F5400013440293DFF8E0A0204606AA02A9DDF8E2
:10F55000089016F0FFFA002863D1204606A916F09D
:10F5600068FA80B363680393204608AA03A9039D41
:10F5700016F0F0FA002854D1BDF82020BDF818305C
:10F580009A4223D06268039B9A42EDD14D451AD12D
:10F59000BDF81C30BBB1BDF81A3009EA0A061E449A
:10F5A000A36806A8ADF81A3016F025FAE36ABDF88C
:10F5B0001C701D686D4205F0200577B9204606A92C
:10F5C00016F0B7FA68BBC145BED1AFE7204608A91F
:10F5D00016F02FFA0028D5D0D8E7BD42AB4628BF99
:10F5E000BB4631465B4620460AAA16F072F9C0B9FE
:10F5F0005A4620460AA916F089FA90B9A7EB0B07DC
:10F600005E44DAE7029804A9A0EB0808204616F049
:10F610002AFA00288FD1204602A9FFF72BFF0028E5
:10F6200090D013B0BDE8F08F0000FFFF2DE9F04748
:10F6300004460D4686B000F1140630461BF0E2FB8E
:10F64000284611F07DF9A06278B9A34BA349A448DC
:10F65000C91AC908890141F0010115F0AAFE6FF02D
:10F660000505284606B0BDE8F08783681B69984702
:10F67000E06260B99949984B9A48C91AC90889014A
:10F6800041F0010115F095FE6FF01505E9E7A06A5C
:10F6900083681B6998470368013B1F2B08D98F4972
:10F6A0008D4B9148C91AC908890141F00101E9E768
:10F6B000A06A216803AA19F073FE40B18749864BFE
:10F6C0008A48C91AC908890141F00101DAE7A58908
:10F6D0002DB1049BB5FBF3F203FB125545B17F49F5
:10F6E0007D4B8348C91AC908890141F00101C9E766
:10F6F000E389012B08D87949774B7E48C91AC90894
:10F70000890141F00101BDE7E36A009593F8049097
:10F710004FF0FF334FF0FF32304611F007FE082163
:10F72000E06A16F07CF9A8460746E3891FFA85FAD5
:10F73000534568D8E389434500F0CA809A450BD108
:10F74000009908234A462046C91B16F0FAF818B952
:10F750006946E08916F058F969462046FFF78AFEA7
:10F76000054660BB009BDFF89081636003EA0803F5
:10F77000A360D4E9011399420FD30823204601AABC
:10F7800016F0A7F80546D0B901AB13F8012B914547
:10F7900040F0BA800135082DF7D16368DFF8588151
:10F7A000694603EA0803E089009316F02DF94A46FA
:10F7B0002046A389009916F0C4F8051E48DA3046A1
:10F7C00011F0A8FE002D7FF44CAF0123434E2374AB
:10F7D000414BA289F61AF608B60146F003063346F5
:10F7E000E189464815F006FE616833468AB244480E
:10F7F000090C15F0FFFDA16833468AB24148090C97
:10F8000015F0F8FD2DE7A1892B04C91B13FA81F12E
:10F810004A4608232046009116F093F880B16946C5
:10F82000E08916F0F1F808F1010808234A4620465D
:10F8300000991FFA88F816F084F800283FF47AAF90
:10F84000013572E7BAF1000F74D06FF01C05B6E70E
:10F8500023D02046616816F099F805460028AED1FD
:10F860006368A08903EA08030344A3EB47006060D0
:10F8700000EA0800A0602046FFF72EFE05469EE73E
:10F880004A4620465B1A16F05CF8051E97DB08D046
:10F89000E26AA36812681344A360D4E901318B4281
:10F8A000EED86168A38901EB4700984287D1124FD7
:10F8B000A26801EA07039A4281D0204616F066F852
:10F8C000054600287FF47BAF63683B40A36076E782
:10F8D0006FF02C0573E700BF8CB402006CB502001A
:10F8E00035CE020051CE020073CE020090CE02004F
:10F8F000A8CE0200BCCE02000000FFFFDFCE020057
:10F90000F6CE020008CF0200204601A916F091F8B9
:10F91000656878B1009ABDF808A0BDF8061002EA43
:10F920000802A260E06A514416F079F80244AA4243
:10F93000A26087D0ED1B65601BE700BF2DE9F04F8B
:10F940001E46037C04468946904689B07BB9614BCC
:10F9500061496248C91AC908890141F0010115F0DD
:10F9600028FD6FF00C05284609B0BDE8F08FC26A8B
:10F970000821104616F053F882463146104616F01C
:10F980004EF8A3890AEB4A029B1A9E42074600F2F0
:10F990009E801EB1B8F1000F00F099806368039358
:10F9A000204604AA03A9DDF80CB016F0D3F80546EA
:10F9B0000028D8D1BDF810304B4505D06268039BB4
:10F9C0009A42EDD1E6B9CEE7204604A916F031F807
:10F9D0000028F3D0BDF8143086B19E4210D1BDF896
:10F9E00012004FEA1B4109040144334642462046B7
:10F9F00015F07DFF002803DC0546B4E7002BB2D0EC
:10FA0000A7BB04F1140A4FF0FF324FF0FF3350460A
:10FA100011F08CFCDFF8C8B0E3899D4254D0D4E9E2
:10FA20000123F9188A4224D3ADF81A30FF2306A81F
:10FA30008DF81E30ADF81890ADF81C6015F0DBFFA6
:10FA400032464146204616F061F8034638B9204652
:10FA500006A916F06EF8002814BF0346334601933A
:10FA6000504611F057FD019B1D467CE75744BFB23D
:10FA7000C7E70821E06A15F0D2FF4FF6FF73ADF833
:10FA800018300023ADF81C301318ADF81A30A389D4
:10FA900002EA0B021A44121A626006A815F0ABFFC4
:10FAA00006A9204616F045F8E089211D15F0ACFFA7
:10FAB0006368204603EA0B03A360FFF70DFD0346CE
:10FAC0000028CCD10135A7E76FF01B03C7E76FF023
:10FAD000150548E78CB402006CB5020021CE020087
:10FAE0000000FFFF2DE9FF471E46037C04460F463A
:10FAF0009046BDF8309073B92B4B2C492C48C91A4D
:10FB0000C908890141F0010115F053FC6FF00C00A8
:10FB100004B0BDE8F0870821C06A15F080FFA38912
:10FB2000A3EB40039E423CD84FF0000A6368019368
:10FB3000204602AA01A9019D16F00CF80028E7D181
:10FB4000BDF80830BB4208D1204602A915F071FF6C
:10FB500018B10AF1010A1FFA8AFA6268019B9A42F7
:10FB600018D0D145E4D2BDF80C30BBB1D14515D881
:10FB7000BDF80A102D0CB3424FEA054528BF3346A5
:10FB800042462046294415F0A4FE0028C0D1BDF805
:10FB90000C00BDE7BDF80830BB42E4D06FF00100B7
:10FBA000B6E76FF01500B3E78CB402006CB5020045
:10FBB00021CE0200014B1970704700BF00000720E2
:10FBC0000020014B187070470000072001490248CF
:10FBD00012F0BEB99C160020080C0020014B1868DA
:10FBE0001AF00CBFAC1600200D4B13B5186800239B
:10FBF00082680093194614681A46A047014660B10E
:10FC0000084B094A0948D21AD208920142F001026F
:10FC100002B0BDE8104015F0D9BB02B010BD00BF66
:10FC2000981600208CB40200C4B5020020CF020058
:10FC30002DE9F041684B86B0049306238DF814300B
:10FC40000023074600930D464FF0FF334FF4006248
:10FC50006249634812F0E6F9624961481BF0BCF85A
:10FC60006149624812F04CF904A810F059FA0446B0
:10FC700070B15F4A5F4B0146D21AD20892015E48CA
:10FC800042F0010215F0A2FB204606B0BDE8F0816B
:10FC90005A4810F025FA044648B1554A554B0146DA
:10FCA000D21AD2089201564842F00102EAE75549B9
:10FCB000554803AA1AF02FFC044648B14C4A4D4B54
:10FCC0000146D21AD2089201504842F00102D9E707
:10FCD000039B9A685AB93860464B45494C48C91A43
:10FCE000C908890141F0010115F063FBCCE70C3331
:10FCF0003B60002BF0D0474810F022FE464E3060AB
:10FD0000464810F01DFE326862B93949394B444803
:10FD1000C91AC908890141F0010115F04AFB6FF0C9
:10FD20001204B1E740B93249324B3E48C91AC908FA
:10FD3000890141F00101F0E7836822465B683A4996
:10FD40009847B4201BF0CEF9064618B1B4222146DC
:10FD500016F018FFDFF8D480C8F8006066B92449AF
:10FD6000244B3348C91AC908890141F0010115F033
:10FD700020FB6FF00B0487E7B4201BF0B3F90646B5
:10FD800018B1B422002116F0FDFEC8F8046046B98F
:10FD90001749184B2748C91AC908890141F00101C0
:10FDA000E5E73A68244BD8F800005A61234A10214D
:10FDB0005A60042218609A6038681A620022D86279
:10FDC0001F489984D8619E61AA610222AA621D4AD5
:10FDD00099812A62EB6257E77101020040580020C6
:10FDE000080C00203ECF0200DDFB00009C16002026
:10FDF000C4B502008CB4020049CF02009C0200206E
:10FE00006CCF020097CF0200A1CF0200A9CF020061
:10FE1000C6CF0200C4FE020098160020F2CF0200F6
:10FE2000F8CF02001BD00200CDFB0000AC16002072
:10FE30003ED0020067D002006C02002000FC0720C8
:10FE400000F8072054B702002DE9FF410D46264E69
:10FE5000074631682846904616F023FEB8B128467A
:10FE6000F16C16F01EFE88B1204A214C2846A41AD7
:10FE7000FEF79EFDE408A40144F001040146224679
:10FE80001C4804B0BDE8F04115F0A0BA01204C2494
:10FE90004443194B04F1080002933444636830442E
:10FEA000CDE900832A464FF0FF33394610F004FABB
:10FEB000064690B10D4B0E4C2846E41AFEF778FD2D
:10FEC000E408A40144F001040146234632460B48ED
:10FED00004B0BDE8F04115F08DBA012384F8483034
:10FEE00004B0BDE8F08100BFB41600208CB402005D
:10FEF000CCB502009ED002000D5C0200C8D002000A
:10FF000037B5194D19492846FFF792FE044668B1E6
:10FF1000174A184B0146D21AD2089201164842F0ED
:10FF2000010215F053FA204603B030BD134C4FF4D4
:10FF30007C42204612491AF00FFF00942B68114AA8
:10FF40000A49114810F05CFB044648B1084A094BC5
:10FF50000146D21AD20892010C4842F00102E0E7B1
:10FF600001220B4B1A70DEE74C170020A80C002072
:10FF7000CCB502008CB40200F9D00200F0170020CA
:10FF80000004072049FE00005017002021D1020084
:10FF9000424C002038B5134B04461B78F3B9124A83
:10FFA000136893B1D36CBBB1104A114CA41AFEF77D
:10FFB000FFFCE408A40144F00104014622460D4878
:10FFC00015F004FA6FF00B0038BD18464C2343437C
:10FFD000D518D4506960F7E70120F7E76FF0760095
:10FFE000F2E700BF424C0020B41600208CB402009F
:10FFF000CCB502003BD102004C22034B02FB003384
:020000040001F9
:1000000093F84800704700BFB416002037B54C2461
:100010000B4601214443CDE90021054D2819083440
:10002000D0E90B12281910F035F903B030BD00BF2C
:10003000B4160020084B30B51C68084B01461A68FE
:1000400000239C4201DC002030BD104605781032B0
:100050008D42F9D00133F4E7E4B802003003002008
:10006000084B10B51B680C462BB1FFF7E3FF28B116
:100070002060002010BD6FF00C00FBE76FF0010066
:10008000F8E700BF3003002030B589B00C461546B4
:100090000190FFF7CFFFB8B14368226802938368ED
:1000A000C068CDE903350023CDE90623059315F09B
:1000B000AFFD60B1074901AA19F076F9079808B9B0
:1000C000059B236009B030BD6FF01500FAE76FF0B3
:1000D0001200F7E7155C0200104B2DE9F0411C6897
:1000E00005460E461746ACB14FF0FF324FF0FF33D6
:1000F0000B4811F01BF963683246D3F80880294693
:100100003B462046C0470446054811F003FA204606
:10011000BDE8F0816FF00104F9E700BF041800208A
:100120006408002000230360044B5A6812B9C3E935
:100130000000704710605860704700BFFC17002037
:10014000014B1860704700BF04180020002330B531
:1001500085B00546CDE9023301904FF0FF334FF0F3
:10016000FF320B4811F0E2F80A4B1C6834B16368A7
:1001700020461B6801A998472468F7E7284600F045
:10018000EBF80446024811F0C5F9204605B030BD31
:1001900064080020FC1700201FB5CDE9010103927F
:1001A0004FF0FF334FF0FF32094811F0BFF8094B11
:1001B0001C6834B1636820461B6801A9984724680D
:1001C000F7E7034811F0A6F9002004B010BD00BF06
:1001D00064080020FC1700200022024BC3E9002223
:1001E000704700BFFC1700200022024BC3E9002229
:1001F000FFF7F2BF081800202DE9F74307460E4627
:1002000009B100230B600025254CDFF89880DFF84A
:10021000989044450CD9254994234A46244814F023
:10022000F0FD244814F0EDFD9421484615F086F8C1
:10023000444508D3204B1C680CB1143CC4B9284673
:1002400003B0BDE8F0833846216801AA15F096FD99
:1002500060B125B90EB1019B3360254606E000224E
:100260002968206815F08AFD0028F3D11434D0E7FE
:100270003846216801AA15F081FD60B125B90EB19B
:10028000019B3360254606E000222968206815F0AE
:1002900075FD0028F3D114F1140FD0D06469CBE7B9
:1002A00014B402008CB402007CD10200AED1020072
:1002B00050C80200D6D10200081800202DE9F043F2
:1002C00085B0DDF8308005460C4616461F46039083
:1002D000B8F1000F18D0D8F8001081B103AA15F0BA
:1002E0004DFD60B9002007E0D8F808303246009391
:1002F00021463B460398C84705B0BDE8F083D8F8CF
:100300000490B9F1000FEFD1284603A9FFF774FF5D
:100310000028E7D03246D0F808803B4621460398B3
:10032000C04706460028DDD0084B094C2846E41A91
:10033000FEF73EFBE408A40144F001040146234615
:100340003246044815F056F8CCE700BF8CB40200E2
:10035000D4B50200F5D102002DE9F0410646002592
:10036000214C224FDFF88880BC420CD92149F4236C
:100370004246214814F045FD204814F042FDF42186
:10038000404614F0DBFFBC4207D31D4B1C680CB188
:10039000143CA4B92846BDE8F0811EB9E3684BB906
:1003A0001434E1E700223146206815F0E7FC00280C
:1003B000F4D1F5E79847002D08BF0546F0E736B9B8
:1003C000E36863B914F1140FE4D06469DFE7002235
:1003D0003146206815F0D2FC0028F1D1F2E79847A9
:1003E000002D08BF0546EDE714B402008CB40200EE
:1003F0007CD10200AED1020050C80200D6D102006A
:100400000818002010B5064C23783BB9FFF7ECFE26
:1004100000F064F808B90123237010BD0020FCE748
:10042000434C00202DE9F04780468946048FDFF8D1
:10043000A8A0013498B0A4B200F10806651EADB2C0
:10044000B5F5004F45D04A23294605AA304615F098
:10045000D1FB04F57F543F34A4B207462146012363
:1004600030460DF10B0215F0C5FB002F014603DCF1
:10047000002803DC2C46E1E7002816DCB8F8383009
:10048000AB4209D142466B1E22F8383F4FF400417F
:1004900002233046FFF752FA2946304615F0A6FBF4
:1004A0002146304615F0A2FBE4E718AB1F440023B9
:1004B000524607F84C3C05A8CDF8009003AB0396D4
:1004C000ADF81040FFF7FAFE0028D3D018B0BDE811
:1004D000F0870020FAE700BFEF5D02007FB501233F
:1004E000694606200193FFF7BBFD0446002836D17C
:1004F000062002AA01A9FFF7C7FD10F1130F044659
:100500002DD038B10C3405D0404080F311884FF025
:10051000040002DF0399B1F5803F23D2002318467F
:10052000009A9568084485429CB203D30133082B96
:10053000F8D11C460D4D53682846AB60D368EC8259
:10054000A982EB6315F0EAFC044640B9084E284640
:100550006E60FFF7E7FD28466E60FFF7F1FD20466D
:1005600004B070BD6FF02004F9E700BF1018002040
:10057000F4020020F8B505464FF02003EFF3118692
:1005800083F31188BFF36F8F1D4810F095FE68B993
:1005900081231C4A1C491D4814F033FC18491C488F
:1005A00014F02FFC8121174814F0C8FE144810F0F5
:1005B0009FFE184B1C685CB1174FD4E90132002D27
:1005C00008BF13460BB1387898472468002CF4D143
:1005D0000B4810F07FFE68B9AC230A4A0F490B485C
:1005E00014F00FFC06490E4814F00BFCAC21054832
:1005F00014F0A4FE86F31188BFF36F8FF8BD00BF1F
:100600005018002010C9020062C9020050C8020040
:1006100077C90200541800205C18002036C9020077
:100620004DC90200084B10B51C685CB901221A6064
:10063000064B93E8070014F08BFE2046BDE81040FF
:10064000FFF798BF10BD00BF040300205C18002016
:10065000F0B585B06E46204C01460546304615F093
:1006600079FC96E8070084E807002078264680B3E6
:1006700000201A4B18606B1C1DD091420CD21849F7
:10068000BD23184A184814F0BCFB184814F0B9FBF5
:10069000BD21144814F052FE4FF4004C0021A7680D
:1006A00013480023E7FB0C01124AFBF755FE01211A
:1006B000281A13F02DFB12F04FF80120FFF75AFF14
:1006C00096E80700FEF712F8FFF7ACFF12F0D6FA33
:1006D000207805B0F0BD00BF5C18002004030020A6
:1006E00090D202001AD2020050C80200D0D20200FA
:1006F0003F420F0040420F0010B5074810F020F9AC
:10070000064C074B1860204601F068FE2046FCF7B7
:100710004FFF002010BD00BFBFC70200250701002A
:10072000681800200A2838B50446074D04D1286807
:1007300083680D21DB69984728688368E1B2DB692B
:100740009847204638BD00BF6818002037B54023C1
:100750000C460A490093411A491105462346084AA6
:10076000084815F00FFC011E05DA2846234603B0A1
:10077000BDE83040184703B030BD00BF80180020EE
:10078000F75F02006406002038B5CCB2032C0546A2
:1007900009D9094909487E23094A14F032FB7E2110
:1007A000074814F0CBFD0C23296904FB0314D4F88B
:1007B000880000F0070038BD38D3020050C802009E
:1007C000FBD20200F8B5CCB2032C054617460669E9
:1007D0000BD91A491A4840F253131A4A14F011FB64
:1007E00040F25311174814F0A9FD4FF02003EFF326
:1007F000118183F31188BFF36F8F0C2202FB046316
:10080000D3F8883013F0C00301D09F4212D10123E6
:10081000002002FB0466C6F8883081F31188BFF31C
:100820006F8F30B90C23696803FB04146368984721
:100830000020F8BD4FF0FF30EFE700BF38D30200D3
:1008400050C80200FBD2020070B50D4606490446AE
:10085000411A491140220548FFF7B4FF2B460146D3
:100860002046BDE87040184780180020640600202C
:100870002DE9F843002201210646052000F098FFEB
:10088000052000F063FF11480EF05EFB104B98420C
:1008900019D10EF07DFB00244FF00C080127DFF882
:1008A00034903569494605EB441014F005FB0028E7
:1008B00007DB08FB04550134042CC5F88870F0D11F
:1008C0000020BDE8F8836FF00400FAE71109010089
:1008D0000000AD0BBCB7020001460C2300224B43C5
:1008E000094870B5C4188833D4E920561844C4F8B0
:1008F000802015F034FB2DB132462B46BDE8704008
:100900000248184770BD00BF801800206406002010
:1009100008B5052822D8DFE800F0031121130F0DD8
:10092000144BD3F8880010F0070021D1BDE808402F
:10093000FFF7D2BF0220F9E70320F7E70120F5E730
:100940000D4940F266230D4A0D4814F05AFA40F260
:100950006621BDE80840094814F0F0BC064940F2A1
:100960006A23064A064814F04CFA40F26A21F0E77E
:1009700008BD00BF80180020FA070300FBD2020068
:1009800050C8020008B54FF02003EFF3118183F344
:100990001188BFF36F8F124A136843F0020013F0FF
:1009A000010310600CD04FF05022D2F80C34D2F872
:1009B0000C2413F0010303D00A4815F0D0FA0123E8
:1009C00081F31188BFF36F8F23B1BDE80840002089
:1009D000FFF782BF0120BDE808400EF0FFBA00BF5C
:1009E00030190020081900207FB500220123CDE92D
:1009F000022304ABCDE90433094A6B46CDF800D09D
:100A0000CDF804D015F0F0FA002805DB4FF4804251
:100A10000023684610F0ECFF07B05DF804FB00BF50
:100A20002D600200074BD3E8EF2F22F00201C3E84C
:100A3000E01F0028F7D1D30702D401200EF046BBF7
:100A4000704700BF301900202DE9F0410122064611
:100A50004649D1E8EF3FC1E8E02F0028F9D1A3B91A
:100A6000434944484B60CB608A60FCF7E9FF0028AB
:100A70000BDA4149414840F22623414A14F0C1F9BA
:100A800040F226213E4814F059FC96B3731E012B08
:100A900056D8012E07D14FF05023D3F81C3403F061
:100AA0000303022B25D01AF091F9044618B9354BEF
:100AB0001B78002B52D14FF02003EFF3118783F303
:100AC0001188BFF36F8F01244FF05025DFF8B880F5
:100AD000D5F81834D5F81824D2030CD503F0030345
:100AE000022B01D0012E06D124B387F31188BFF366
:100AF0006F8FBDE8F081C4B1384600F0CFFED5F865
:100B00001835DBB2012BE3D1D5F80421002ADFD060
:100B10000022C5F80421D5F804210222C5F81825C1
:100B20002022C8F88021AB60D2E70021212012F0FA
:100B3000BFFDE4E74FF050230222C3F80423D8E7B7
:100B400012490E484FF40E730D4A14F05AF9BDE8DD
:100B5000F0414FF40E710A4814F0F0BB4FF05023EF
:100B600002220746C3F80823AEE700BF341900206D
:100B700070180020A01800205CD3020050C80200AA
:100B8000FBD202003D51002000E100E0FA07030023
:100B900010B500F063F9041E0CDA21460D4A0E4B25
:100BA0000E48D21AD208920142F0010214F00EFC53
:100BB000204610BD0A4803F011F8041EF8DA054A71
:100BC000054B2146D21AD2089201064842F0010292
:100BD000ECE700BFD4B402008CB402009AD3020048
:100BE000C8B70200C1D3020010B5017D0446022936
:100BF00012D004290FD009B3114A124B1248D21A4D
:100C0000D208920142F0010214F0E0FB20460AF003
:100C1000F9FD002010BD052104F1080018F04AFA82
:100C2000204600F041F9011EF0DA054A054B07485D
:100C3000D21AD208920142F00102E5E70121EBE766
:100C4000D4B402008CB40200EBD30200FBD3020048
:100C50002DE9F3418046064618F8010B0D4604289D
:100C600001F1FF3310D0052800F09980022840F0F0
:100C7000CF80032B62D86D496D4B6E48C91AC908E5
:100C8000890141F0010109E0012B0CD86749684B4B
:100C90006948C91AC908890141F0010102B0BDE8DB
:100CA000F04114F086BB73783E2B1DD1F778022FEC
:100CB0001CD0A7F10D035F425F410222414601A80B
:100CC00015F035FF9DF80530033D9D4210D0574982
:100CD000574B5A48C91AC908890141F0010114F05B
:100CE00068FB02B0BDE8F0810027E6E70127E4E7F2
:100CF0000022002339469DF8040001F087FD0446D8
:100D000050B9002FEDD14949494B4D48C91AC9087E
:100D1000890141F00101E2E700F10807022201A97F
:100D2000384618F0E2F92A46F11C384618F0DDF989
:100D3000204602B0BDE8F04102F01CBF00220023B3
:100D4000032001F009FD044600B3042241460DEBE7
:100D5000020015F0ECFE042204F1080738460DEB02
:100D6000020118F0C2F9BDF80630053D9D424CD095
:100D70002E492F4B3348C91AC908890141F0010196
:100D800014F017FB20460AF03DFDAAE72749284B3F
:100D90002D48C91AC908890141F001017EE7032BDA
:100DA00008D82249224B2948C91AC908890141F0AB
:100DB000010173E70022002301F0CEFC0446D8B104
:100DC000042241460DEB020015F0B1FE042204F1AD
:100DD000080738460DEB020118F087F9BDF8063018
:100DE000053D9D4211D01149114B1948C91AC90836
:100DF000890141F00101C3E70C490D4B1548C91A9F
:100E0000C908890141F0010148E72A46711D8CE7B4
:100E10000146074B054A1048D21AD208920142F007
:100E2000010202B0BDE8F04114F0D0BAD4B402001F
:100E30008CB4020074D4020013D4020034D4020033
:100E400058D40200ADD4020093D40200CFD40200E3
:100E500008D50200EED402002AD502000B4908B5DD
:100E60000B48FFF797F8011E0BDA0A4B0A4A0B48AA
:100E7000D21AD208920142F0010214F0A7FA0848EF
:100E800008BD084B00201960FAE700BF4960020066
:100E900052D502008CB40200DCB402005DD5020021
:100EA0002AF8FFFF38190020024B828981681868F0
:100EB000FFF7ACB83819002008B5024B1868FFF7E7
:100EC0009BF808BD3819002010B5064C064922468B
:100ED0000648172313F095FF2046BDE81040172160
:100EE00014F02CBA95D50200FA07030050C802008E
:100EF000044A1368C81A20F07F400344136012F0BC
:100F000057BF00BF4C1900202DE9F0474FF4803740
:100F10004FF00009860000F1500406F15026A400AD
:100F200006F58036A4B204F15024D6F84035DFF837
:100F30006C8021F07F4504F580348740D8F804A503
:100F4000A3EB0A0323F07F432AF07F42012BC6F86C
:100F5000402502D113201AF026F80AF10202AB1A3A
:100F600023F07F43B3F5000F88BF1546C4F8009007
:100F7000236825F07F43C8F84473C6F84035D8F895
:100F800004359A4506D0EB1A023B23F07F43B3F5B4
:100F9000000F01D8BDE8F0872B46CFE70050015085
:100FA000F8B500252F46104C2668104B05B1F8BD4A
:100FB000D3F80423D203FAD5D3F84021002AF6D07F
:100FC000C3F84051D3F840214FF48032C3F848238E
:100FD0000125D3F8401526B1002062682760B0478C
:100FE000E2E72660E3E700BF40190020005001500F
:100FF00038B500254FF480334FF400120C4C01211A
:10100000C4F80855C4F804330A4B1520C3F88021EE
:101010002A4600F0CDFB152000F098FB0123064A7C
:10102000A360022023601360FFF70EFD284638BD41
:101030000050015000E100E048190020134AB0F1CF
:10104000FF3F14BF03461346013B002B1CDD9342B8
:10105000A8BF13460E4AD2F804050E4A1168401A7A
:1010600010F4000F18BF002320F07F4201320A481D
:1010700013440A4A106000205060044A934294BF0F
:10108000C9188918FFF740BF0023E3E7FFFF7F007F
:10109000005001504C190020F10E010040190020B1
:1010A000044BD3F80405044B1B68C01A20F07F40A2
:1010B000704700BF005001504C19002038B54FF068
:1010C0002003EFF3118583F31188BFF36F8F1B4863
:1010D00010F0F2F868B98123194A1A491A4813F036
:1010E00090FE1649194813F08CFE8121144814F023
:1010F00025F9124810F0FCF8154B1048D3F80445B8
:10110000144B1B68E41A24F07F441C4410F0E2F8EE
:1011100068B9AC230A4A10490B4813F072FE07491C
:101120000E4813F06EFEAC21054814F007F985F364
:101130001188BFF36F8F204638BD00BF50190020C3
:1011400010C9020062C9020050C8020077C902003B
:10115000005001504C19002036C902004DC9020050
:10116000034B9B681BB1481E18BF012018477047EE
:101170005419002010B51C46034B11461B680BB1D7
:1011800022469847204610BD54190020024B5B6848
:1011900003B11847704700BF5419002030B1044B09
:1011A00002681A6042685A6082689A60002070473C
:1011B0005419002070B50E461546044686B000212D
:1011C0001822684615F0DEFC0B490C4BCDE90116E0
:1011D000ADF80C5004932CB96946204607F048FE40
:1011E00006B070BD0122204607F0FAFF0028F3D1B7
:1011F0006FF01500F4E700BF04B802008D11010084
:101200000449431E0F3013F8012F8A5C83421A7081
:10121000F9D1704733D60200F0B50746264E8DB09F
:1012200001AD0C460FCE0FC50FCE0FC596E80700D7
:1012300085E807003846002F39D0002C39D0381FF8
:101240000246214610344B780D781B0443EA0563AF
:10125000CD7804312B4311F8025C8C4243EA05231C
:1012600042F8043FEFD10421144C8A07036916D1D8
:10127000C3F30742A55C1A0EA25C42EA0562C3F3FF
:101280000725655DDBB2E35C42EA054242EA0322E0
:101290000CAD21F003032B4453F82C3C534050F881
:1012A000042F013153402C290361DED101200DB000
:1012B000F0BD2046FBE700BF64B6020033D6020053
:1012C0002DE9F04F002703689DB002934368DFF8D3
:1012D000B8A103938368DDE902460493C3680593CC
:1012E000036906934369DDE905E20793836908937F
:1012F000C369DDE907CB98460993049B0093CD5958
:101300000CAB2DBADD515AF8043B043705EB030949
:101310004FEAF22585EAB21585EA72654D442BEA5B
:10132000020302EA0C0983EA09032B44009DDDF85D
:101330000090434475404FEA743888EAB408254069
:1013400006EA090985EA090588EAB458A844402F45
:1013500003EB0E054344DDF800E0D84640F08580FD
:101360004FF0100A49490A9151460AF1010A0DF15C
:10137000700E0AF00F070EEB870757F8407C01F05C
:101380000F094FEAB748019788EAF71801F10E07ED
:1013900007F00F070EEB870757F8407C09314FEA3B
:1013A000F74E8EEA774ECDF82CE001F00F010DF1EB
:1013B000700E0EEB89090EEB810151F8401C59F8B3
:1013C00040ECBAF1400F7144DDF804E088EADE0831
:1013D000DDF82CE041448EEA972E0A9F714457F8BD
:1013E00004EB49F8401C4FEAF52905EA02080A9780
:1013F00089EAB5192CEA050787EA080789EA7569B9
:101400004F447744394459444FEA733784EA060B12
:101410000BEA030B87EAB30704EA060EDDF8008047
:101420008BEA0E0E87EAB35777448844E346394483
:10143000009621D1029F0F44039907601944049B31
:10144000416023448360059B3344C360069B43444F
:101450000361079B2B444361089B13448361099BF1
:101460006344C3611DB0BDE8F08FE3460096944627
:1014700026462A461C4642E7944626462A461C46ED
:1014800045460B4670E700BFE8B8020028B90200E5
:1014900010B50446C8B17022002114F0EBFD0B4BCF
:1014A0000B4A0C49C4E900230B4B0C48C4E9021356
:1014B0000B4BC4E9040301200A4BA36103F17453ED
:1014C000A3F52303A3F69243E36110BD85AE67BB8A
:1014D00067E6096A72F36E3C3AF54FA57F520E51EA
:1014E0008C68059BABD9831F014813F0E5BA00BF98
:1014F000E8B9020010B5044618B90D4B0D485B68F9
:101500009847616808290DD031F004030AD011F022
:10151000020108D0214608480FF032FD0023236065
:101520000023636010BD1422206815F02BFBF7E741
:10153000D404002033D702006019002008B540B35E
:101540004368042B0BD0082B16D003B300684FF070
:10155000FF324FF0FF330FF0E9FE58B115E00122E2
:101560000368D3E8EF1F002903D1C3E8E02F002868
:10157000F7D10AD1002008BD0368074A1B7803F59C
:10158000807352F82330002BF4D00448F3E704486A
:10159000F1E76FF4E040EEE700000350E98FFFFF52
:1015A000EA8FFFFF08B508B34368042B07D0082B68
:1015B00013D0F3B100680FF0ADFF00200CE0002263
:1015C0000368D3E8EF1F012903D1C3E8E02F002807
:1015D000F7D1094808BF104608BD036800201B78F2
:1015E000064A03F5807342F82300F5E76FF4E04004
:1015F000F2E70348F0E700BFE98FFFFF0000035068
:10160000EA8FFFFF10B5044618B9164B16485B6801
:1016100098476368042B23D0082B21D0CBB92368CB
:10162000BBB94FF0FF324FF0FF3321460F480FF0A8
:101630003BFC08B923681BB90A4B0D485B68984707
:1016400014220021206815F09DFA636843F002031C
:101650006360206819F0D6FB636843F001036360A0
:1016600010BD00BFD404002033D702006019002051
:1016700059D7020008B5064940231422054819F03D
:1016800089FBBDE808400449044813F067BA00BF6D
:10169000801900206019002000BA0200F0B9020091
:1016A000094A0A49936809689867D96708494B68E5
:1016B00043F080534B60002383F31188BFF36F8F97
:1016C0009368D86F704700BF98290020CCC20200F1
:1016D00000ED00E013498A684FF030001044EFF34A
:1016E000098C80E8F01F202080F31188BFF36F8FF2
:1016F0000D4F4FF000664A6A8A603E60906F00238B
:10170000936780F3118802F1300090E8F01F8CF3AA
:10171000098802F1000004B515F0F2F8BDE80440B4
:10172000704700009829002004ED00E01EF0040F2F
:101730000CBFEFF30880EFF30980816911F8021CF8
:101740000229FFD001B515F0DFF801BD43B2002B2F
:1017500008DB012200F01F0002FA00F0024A5B09D8
:1017600042F82300704700BF00E100E043B2002BC5
:101770000DDB012200F01F0002FA00F05B09044AB1
:10178000203342F82300BFF34F8FBFF36F8F7047B2
:1017900000E100E0054B420953F82220012300F04C
:1017A0001F0003FA00F01040704700BF00E100E0A6
:1017B00070B54C1C072C05460E460FD95823104A0D
:1017C0001049114813F01DFB3146104807232A46E3
:1017D00013F017FB58210A4813F0B0FD6BB2002B31
:1017E000ACBF03F160430A4B4FEA4414E4B2ABBF11
:1017F00003F5614305F00F0583F800435C5570BDA8
:1018000086D70200BCD7020050C80200D7D702001A
:1018100014ED00E042F8203C009B0B4942F81C3CD0
:10182000019B21F0010142F8183C029B42F8081C80
:1018300042F8143C4FF0807342F8043C0023203AF5
:1018400002658367704700BFDF4E0200084B986057
:10185000836E83F30B88104681F30988002163B6F9
:1018600081F31188BFF36F8F0022002313F037FB41
:1018700098290020014910220A60704710ED00E00D
:1018800072B6404080F31188BFF36F8FBFF34F8F64
:1018900030BF62B6BFF36F8F704700BF72B649406A
:1018A00081F3118820BF80F3118862B6704700BFB2
:1018B00073B506460C4601B3134B144D1448ED1A8C
:1018C000ED08AD0145F00105ADF80050D1E9012367
:1018D000096813F0A8FDADF80050D4E90423E168CD
:1018E0000C4813F0A0FD2A46E1690B4813F06EFD89
:1018F0002A46A169094813F069FD2146304602B025
:10190000BDE870400FF04CB88CB40200ACB50200DA
:1019100017D8020046D8020075D8020084D8020009
:1019200030BFFFF7FDBF00BF0B4A08B50B4B22F0DD
:101930007F029A60BFF34F8FBFF36F8FD3F8882079
:1019400022F47002C3F888200FF0A2F812F01CF8FD
:1019500000F000FB0FF0C0F800C2000000ED00E056
:1019600001B572B60B4A106A00281EBF0021116231
:1019700019F039FA62B6EFF30580A0F110004FEAD2
:10198000C0000549014409C99847BDE80140034921
:101990000847000098290020A8B10200A91E0100F4
:1019A000002080F31488BFF36F8F002080F30A8833
:1019B00080F30B8813F0CAFC00200E490860BFF3C7
:1019C0004F8F0D4880F3088800F0A0FA202080F3A4
:1019D00011880A484FF40061401880F30988EFF33A
:1019E00014800221084380F31488BFF36F8FFFF740
:1019F0009BFF000094ED00E038760020787700200F
:101A0000EFF30880EFF3098101B5724600F05EF94B
:101A100001BD00BF70B5284B284C294DE41AE408DD
:101A2000A40144F001063146264813F0C2FCAB6A1B
:101A30009B0103D53146244813F0BBFCAB6ADD01A2
:101A400004D5224844F0010113F0B3FC1C4EB56AE2
:101A500015F4801505D01E4844F0010113F0A9FCCF
:101A60000225B36A180304D51A4844F0010113F0A3
:101A7000A0FC134EB36A590304D5174844F0010182
:101A800013F097FCB36A9A0304D5144844F001019B
:101A900013F08FFC0A4EB36ADB0304D5104844F000
:101AA000010113F086FCB36A28466FEA03436FEA2C
:101AB0001343B36270BD00BF8CB40200ACB502002A
:101AC00000ED00E0B2D80200CAD80200DDD8020062
